:020000040800F2
:100000000000022005380008B92B0008BF2B0008AB
:10001000C52B0008CB2B0008D12B000800000000E6
:10002000000000000000000000000000D72B0008C6
:10003000E52B000800000000F32B0008012C00084D
:10004000553800085538000855380008553800085C
:10005000553800085538000855380008553800084C
:10006000553800085538000855380008553800083C
:10007000553800085538000855380008553800082C
:1000800055380008553800085538000800000000B1
:10009000000000000000000000000000352C0008F7
:1000A00055380008452C0008612C00085538000818
:1000B0007D2C0008553800085538000855380008D0
:1000C00055380008553800085538000855380008DC
:1000D0005538000855380008553800080000000061
:1000E000912C000855380008553800080000000021
:1000F000000000000000000000000000553800086B
:100100000000000055380008553800085538000830
:1001100000000000000000000000000000000000DF
:10012000553800085538000855380008553800087B
:10013000553800080000000000000000000000002A
:10014000000000000000000000000000553800081A
:10015000553800085538000855380008553800084B
:100160005538000855380008000000000000000065
:10017000000000000000000000000000000000007F
:1001800000000000553800080000000000000000DA
:0801900055380008553800083D
:1001A00010B5054C237833B9044B13B10448AFF3B1
:1001B00000800123237010BD6808002000000000AB
:1001C000E8D3000808B5034B1BB103490348AFF35C
:1001D000008008BD000000006C080020E8D3000883
:1001E00001F0FF01102A2BDB10F0070F08D010F8E8
:1001F000013B013A8B422DD010F0070F42B3F6D1EC
:10020000F0B441EA012141EA014122F007047FF004
:1002100000070023F0E80256083C85EA010586EA5B
:10022000010685FA47F5A3FA87F586FA47F6A5FA97
:1002300087F68EB9EED1F0BC01F0FF0102F00702A3
:1002400032B110F8013B013A83EA010313B1F8D14E
:100250000020704701387047002D06BF354603382F
:10026000073815F0010F07D1013015F4807F02BF68
:10027000013015F4C03F0130F0BC0138704700BFB9
:10028000034613F8012B002AFBD1181A01387047D6
:1002900081F0004102E000BF83F0004330B54FEA37
:1002A00041044FEA430594EA050F08BF90EA020FA4
:1002B0001FBF54EA000C55EA020C7FEA645C7FEA37
:1002C000655C00F0E2804FEA5454D4EB5555B8BF5A
:1002D0006D420CDD2C4480EA020281EA030382EACB
:1002E000000083EA010180EA020281EA0303362D5D
:1002F00088BF30BD11F0004F4FEA01314FF4801C30
:100300004CEA113102D0404261EB410113F0004F41
:100310004FEA03334CEA133302D0524263EB4303F8
:1003200094EA050F00F0A780A4F10104D5F1200E96
:100330000DDB02FA0EFC22FA05F2801841F10001F1
:1003400003FA0EF2801843FA05F359410EE0A5F1C5
:1003500020050EF1200E012A03FA0EFC28BF4CF0F6
:10036000020C43FA05F3C01851EBE37101F00045AC
:1003700007D54FF0000EDCF1000C7EEB00006EEBB9
:100380000101B1F5801F1BD3B1F5001F0CD3490843
:100390005FEA30004FEA3C0C04F101044FEA44529A
:1003A00012F5800F80F09A80BCF1004F08BF5FEA21
:1003B000500C50F1000041EB045141EA050130BD01
:1003C0005FEA4C0C404141EB0101013C28BFB1F513
:1003D000801FE9D291F0000F04BF01460020B1FA5E
:1003E00081F308BF2033A3F10B03B3F120020CDA31
:1003F0000C3208DD02F1140CC2F10C0201FA0CF00F
:1004000021FA02F10CE002F11402D8BFC2F1200C73
:1004100001FA02F120FA0CFCDCBF41EA0C01904029
:10042000E41AA2BF01EB0451294330BD6FEA040472
:100430001F3C1CDA0C340EDC04F11404C4F120025D
:1004400020FA04F001FA02F340EA030021FA04F36F
:1004500045EA030130BDC4F10C04C4F1200220FAC6
:1004600002F001FA04F340EA0300294630BD21FA04
:1004700004F0294630BD94F0000F83F4801306BFCA
:1004800081F480110134013D4EE77FEA645C18BFBE
:100490007FEA655C29D094EA050F08BF90EA020F55
:1004A00005D054EA000C04BF1946104630BD91EA4D
:1004B000030F1EBF0021002030BD5FEA545C05D150
:1004C0004000494128BF41F0004130BD14F580048F
:1004D0003CBF01F5801130BD01F0004545F0FE4103
:1004E00041F470014FF0000030BD7FEA645C1ABF38
:1004F000194610467FEA655C1CBF0B46024650EA6F
:10050000013406BF52EA033591EA030F41F400219A
:1005100030BD00BF90F0000F04BF0021704730B520
:100520004FF4806404F132044FF000054FF00001F5
:1005300050E700BF90F0000F04BF0021704730B5B6
:100540004FF4806404F1320410F0004548BF40428B
:100550004FF000013EE700BF42004FEAE2014FEAE0
:1005600031014FEA02701FBF12F07F4393F07F4FBB
:1005700081F06051704732F07F4208BF704793F0BE
:100580007F4F04BF41F40021704730B54FF46074D1
:1005900001F0004521F000411CE700BF50EA0102D4
:1005A00008BF704730B54FF000050AE050EA01027D
:1005B00008BF704730B511F0004502D5404261EBED
:1005C00041014FF4806404F132045FEA915C3FF42E
:1005D000D8AE4FF003025FEADC0C18BF03325FEACB
:1005E000DC0C18BF033202EBDC02C2F1200300FA7C
:1005F00003FC20FA02F001FA03FE40EA0E0021FAA1
:1006000002F11444BDE600BF70B54FF0FF0C4CF48E
:10061000E06C1CEA11541DBF1CEA135594EA0C0F40
:1006200095EA0C0F00F0DEF82C4481EA030621EA7B
:100630004C5123EA4C5350EA013518BF52EA0335B6
:1006400041F4801143F4801338D0A0FB02CE4FF068
:100650000005E1FB02E506F00042E0FB03E54FF098
:100660000006E1FB03569CF0000F18BF4EF0010E90
:10067000A4F1FF04B6F5007F64F5407404D25FEA8C
:100680004E0E6D4146EB060642EAC62141EA55513F
:100690004FEAC52040EA5E504FEACE2EB4F1FD0C81
:1006A00088BFBCF5E06F1ED8BEF1004F08BF5FEAFF
:1006B000500E50F1000041EB045170BD06F00046B1
:1006C00046EA010140EA020081EA0301B4EB5C045E
:1006D000C2BFD4EB0C0541EA045170BD41F4801156
:1006E0004FF0000E013C00F3AB8014F1360FDEBF7B
:1006F000002001F0004170BDC4F10004203C35DA57
:100700000C341BDC04F11404C4F1200500FA05F3D9
:1007100020FA04F001FA05F240EA020001F000427A
:1007200021F0004110EBD37021FA04F642EB0601F0
:100730005EEA430E08BF20EAD37070BDC4F10C041A
:10074000C4F1200500FA04F320FA05F001FA04F2DE
:1007500040EA020001F0004110EBD37041F10001CA
:100760005EEA430E08BF20EAD37070BDC4F12005D5
:1007700000FA05F24EEA020E20FA04F301FA05F23D
:1007800043EA020321FA04F001F0004121FA04F2E5
:1007900020EA020000EBD3705EEA430E08BF20EAB5
:1007A000D37070BD94F0000F0FD101F000464000EF
:1007B00041EB010111F4801F08BF013CF7D041EA71
:1007C000060195F0000F18BF704703F00046520075
:1007D00043EB030313F4801F08BF013DF7D043EA46
:1007E0000603704794EA0C0F0CEA135518BF95EAFC
:1007F0000C0F0CD050EA410618BF52EA4306D1D183
:1008000081EA030101F000414FF0000070BD50EAA1
:10081000410606BF1046194652EA430619D094EA2B
:100820000C0F02D150EA013613D195EA0C0F05D115
:1008300052EA03361CBF104619460AD181EA030169
:1008400001F0004141F0FE4141F470014FF0000021
:1008500070BD41F0FE4141F4780170BD70B54FF0BC
:10086000FF0C4CF4E06C1CEA11541DBF1CEA13553C
:1008700094EA0C0F95EA0C0F00F0A7F8A4EB05041E
:1008800081EA030E52EA03354FEA013100F0888015
:100890004FEA03334FF0805545EA131343EA1263DE
:1008A0004FEA022245EA111545EA10654FEA002693
:1008B0000EF000419D4208BF964244F1FD0404F54C
:1008C000407402D25B084FEA3202B61A65EB0305A8
:1008D0005B084FEA32024FF480104FF4002CB6EB65
:1008E000020E75EB030E22BFB61A754640EA0C00E5
:1008F0005B084FEA3202B6EB020E75EB030E22BF25
:10090000B61A754640EA5C005B084FEA3202B6EB65
:10091000020E75EB030E22BFB61A754640EA9C0024
:100920005B084FEA3202B6EB020E75EB030E22BFF4
:10093000B61A754640EADC0055EA060E18D04FEAB2
:10094000051545EA16754FEA06164FEAC30343EA52
:1009500052734FEAC2025FEA1C1CC0D111F4801F1F
:100960000BD141EA00014FF000004FF0004CB6E718
:1009700011F4801F04BF01430020B4F1FD0C88BFB7
:10098000BCF5E06F3FF6AFAEB5EB030C04BFB6EBC2
:10099000020C5FEA500C50F1000041EB045170BDB5
:1009A0000EF0004E4EEA113114EB5C04C2BFD4EBE2
:1009B0000C0541EA045170BD41F480114FF0000E66
:1009C000013C90E645EA060E8DE60CEA135594EAE2
:1009D0000C0F08BF95EA0C0F3FF43BAF94EA0C0FE5
:1009E0000AD150EA01347FF434AF95EA0C0F7FF45A
:1009F00025AF104619462CE795EA0C0F06D152EAAE
:100A000003353FF4FDAE1046194622E750EA410691
:100A100018BF52EA43067FF4C5AE50EA41047FF4A2
:100A20000DAF52EA43057FF4EBAE12E74FF0FF3C07
:100A300006E000BF4FF0010C02E000BF4FF0010CD8
:100A40004DF804CD4FEA410C7FEA6C5C4FEA430C51
:100A500018BF7FEA6C5C1BD001B050EA410C0CBFA0
:100A600052EA430C91EA030F02BF90EA020F002002
:100A7000704710F1000F91EA030F58BF994208BF69
:100A800090422CBFD8176FEAE37040F00100704726
:100A90004FEA410C7FEA6C5C02D150EA013C07D17D
:100AA0004FEA430C7FEA6C5CD6D152EA033CD3D0C8
:100AB0005DF8040B704700BF8446104662468C46C2
:100AC0001946634600E000BF01B5FFF7B7FF0028F5
:100AD00048BF10F1000F01BD4DF808EDFFF7F4FF1E
:100AE0000CBF012000205DF808FB00BF4DF808EDA9
:100AF000FFF7EAFF34BF012000205DF808FB00BFCC
:100B00004DF808EDFFF7E0FF94BF012000205DF8ED
:100B100008FB00BF4DF808EDFFF7CEFF94BF0120A2
:100B200000205DF808FB00BF4DF808EDFFF7C4FF9B
:100B300034BF012000205DF808FB00BF4FEA410CE4
:100B40007FEA6C5C02D150EA013C0AD14FEA430CC7
:100B50007FEA6C5C02D152EA033C02D14FF0000004
:100B600070474FF0010070474FEA410212F5001242
:100B700015D211D56FF47873B3EB625212D94FEAE4
:100B8000C12343F0004343EA505311F0004F23FACE
:100B900002F018BF404270474FF00000704750EA23
:100BA000013005D111F0004008BF6FF000407047E0
:100BB0004FF00000704700BF4A0011D212F500123A
:100BC00011D20DD56FF47873B3EB62520ED44FEAA5
:100BD000C12343F0004343EA505323FA02F0704725
:100BE0004FF00000704750EA013002D14FF0FF3063
:100BF00070474FF00000704753B94AB9002908BF49
:100C000000281CBF4FF0FF314FF0FF3000F070B9EB
:100C1000ADF1080C6DE904CE00F006F8DDF804E053
:100C2000DDE9022304B070472DE9F047089E0D4628
:100C300004460F46002B4AD18A42944665D9B2FA3F
:100C400082F343B102FA03FCC3F120029F4020FA71
:100C500002F217439C404FEA1C4E1FFA8CF5B7FB7B
:100C6000FEF1220C0EFB117742EA074201FB05F070
:100C700090420AD91CEB020201F1FF3780F01C817F
:100C8000904240F2198102396244121AA4B2B2FBB6
:100C9000FEF00EFB102244EA024400FB05F5A542DB
:100CA0000AD91CEB040400F1FF3280F00781A54251
:100CB00040F204816444023840EA0140641B002190
:100CC0001EB1DC400023C6E90043BDE8F0878B423B
:100CD00008D9002E00F0ED800021C6E90005084685
:100CE000BDE8F087B3FA83F1002949D1AB4202D3C2
:100CF000824200F2F880841A65EB03020120174655
:100D0000002EE2D0C6E90047DFE702B9FFDEB2FA03
:100D100082F3002B40F090808A1A4FEA1C471FFA9A
:100D20008CFE0121B2FBF7F507FB1520220C42EAED
:100D300000420EFB05F0904208D91CEB020205F1BF
:100D4000FF3802D2904200F2CB804546121AA4B27C
:100D5000B2FBF7F007FB102244EA02440EFB00FE50
:100D6000A64508D91CEB040400F1FF3202D2A645C7
:100D700000F2BB801046A4EB0E0440EA05409FE75A
:100D8000C1F120078B4022FA07FC4CEA030C05FA5C
:100D900001F420FA07F3FD404FEA1C492343B5FB59
:100DA000F9F81FFA8CFE09FB18551C0C44EA05449F
:100DB00008FB0EF5A54202FA01F200FA01F00BD988
:100DC0001CEB040408F1FF3A80F08880A54240F251
:100DD0008580A8F102086444641B9DB2B4FBF9F35A
:100DE00009FB134445EA044403FB0EFEA64508D95B
:100DF0001CEB040403F1FF356CD2A6456AD9023B13
:100E0000644443EA0843A3FB0295A4EB0E04AC42FE
:100E1000C846AE4656D353D056B1B0EB080264EB89
:100E20000E0404FA07F7CA40CC401743C6E9007421
:100E300018460021BDE8F087C3F1200102FA03FC47
:100E400020FA01F225FA01F19D402A434FEA1C479E
:100E50001FFA8CFEB1FBF7F007FB1015110C41EAED
:100E6000054100FB0EF58D4204FA03F408D91CEB92
:100E7000010100F1FF382FD28D422DD90238614493
:100E8000491B92B2B1FBF7F507FB151142EA01428B
:100E900005FB0EF1914208D91CEB020205F1FF3867
:100EA00016D2914214D9023D6244521A45EA0041D9
:100EB00038E73146304608E73946E6E61046FBE6B5
:100EC0004845A9D2B9EB020865EB0C0E013BA3E73C
:100ED0004546EAE72B4694E74046D1E7D0467BE714
:100EE000023D624432E708460AE76444023842E7BA
:100EF000704700BF80B483B000AF7860044A7B685D
:100F0000136000BF0C37BD465DF8047B704700BF1F
:100F10008408002080B586B000AF00F057F8CC20E0
:100F200000F0D0F8442000F0CDF85F2002F040FF40
:100F300000F04CF8CC2000F0C5F8BE2000F0C2F85C
:100F400000237B610BE000F0D9F8034619463A1DF7
:100F50007B6913440A461A707B6901337B617B69A4
:100F6000082BF0DD7B791B023A79134307EE903AA8
:100F7000F8EEE77AC7ED047A97ED047AF3EE006AAB
:100F8000C7EE267AC7ED047A3B6907EE903AB0EED9
:100F9000670A1837BD4680BD80B483B000AF786063
:100FA000094B1B681B6800225A6200BF064B1B6876
:100FB0001B685B6A7A689A42F8D800BF00BF0C379A
:100FC000BD465DF8047B70478408002080B582B080
:100FD00000AF00220221114803F02EFC4FF4F07004
:100FE000FFF7DAFF012202210C4803F025FC46201E
:100FF000FFF7D2FF0221094803F006FC03467B609D
:101000004FF4CD70FFF7C8FF7B68002B01D10023A0
:1010100000E0012318460837BD4680BD00040240A9
:1010200080B582B000AF78607B68002B10D00022C2
:101030000221114803F000FC0620FFF7ADFF01225A
:1010400002210D4803F0F8FB4020FFF7A5FF0FE059
:1010500000220221084803F0EFFB3C20FFF79CFF31
:1010600001220221044803F0E7FB0A20FFF794FF66
:1010700000BF0837BD4680BD0004024080B582B085
:1010800000AF002202210E4803F0D6FB0620FFF736
:1010900083FF012202210A4803F0CEFB0920FFF75B
:1010A0007BFF0221064803F0AFFB03467B6037203D
:1010B000FFF772FF7B6818460837BD4680BD00BF4A
:1010C0000004024080B584B000AF0346FB710023EA
:1010D000FB600BE0FB7903F001031846FFF7A0FF6C
:1010E000FB795B08FB71FB680133FB60FB68072B36
:1010F000F0DD00BF00BF1037BD4680BD80B582B0B7
:1011000000AF0023FB7100233B600EE0FB795B081E
:10111000FB71FFF7B3FF0346002B03D0FB7963F0AD
:101120007F03FB713B6801333B603B68072BEDDDC0
:10113000FB7918460837BD4680BD000080B483B0F7
:1011400000AF03460A46FB801346BB80074B1B6873
:101150001B68BA88DA62054B1B68BA88DA6000BF80
:101160000C37BD465DF8047B704700BF880800203F
:1011700080B483B000AF0346FB80054B1B681B683F
:10118000FA885A6200BF0C37BD465DF8047B704791
:101190008808002080B400AF044B1B681B685B6AA2
:1011A0001846BD465DF8047B704700BF88080020E4
:1011B00080B483B000AF7860044A7B68136000BFDE
:1011C0000C37BD465DF8047B704700BF88080020DF
:1011D00080B582B000AF0346FB80FFF7DBFF02461D
:1011E000B7F906309A4201D1012300E000231846E6
:1011F0000837BD4680BD80B582B000AF0346FB8096
:10120000FFF7C8FF0246B7F906309A4206D100F050
:10121000B5F80346002B01D0012300E00023184657
:101220000837BD4680BD000080B584B000AF78604F
:101230007868FFF725F80346FB73FB7B9AB24FF003
:10124000FF337968034806F01EFA00BF1037BD4629
:1012500080BD00BFF40A002080B582B000AF786086
:101260007B681B680A4A93420DD1786805F008F93B
:101270004FF48071074803F0C7FA0346002B02D1F0
:10128000054B01221A7000BF0837BD4680BD00BF64
:101290000048014000040240380B002080B584B0B3
:1012A00000AF78607B681B7F012B0ED1002178682E
:1012B00005F0ECFDF860244B01221A707B681A6877
:1012C000FB6803F5D053033353637B681B7F022B0A
:1012D0000ED10421786805F0D9FDF8601B4B01227E
:1012E0001A707B681A68FB6803F552533C339363AA
:1012F0007B681B7F042B0ED10821786805F0C6FDA2
:10130000F860134B01221A707B681A68FB6803F5BA
:101310000C43A033D3637B681B7F082B0FD10C21B8
:10132000786805F0B3FDF8600A4B01221A707B68FB
:101330001A68FB6803F5823303F5DC73136400BF9E
:101340001037BD4680BD00BF390B00203A0B00208E
:101350003B0B00203C0B002080B582B000AF034661
:10136000FB80FB88B3F5807F02D1034805F026F8A7
:1013700000BF0837BD4680BDAC0A002080B400AF76
:10138000074B93F90030012B04D1054B00221A7052
:10139000012300E000231846BD465DF8047B70473A
:1013A000380B002080B582B000AF02F08FFC00F057
:1013B00059F800F019FB00F0BDF800F01BF900F03F
:1013C00047F900F073F900F0A7F900F0E3FA00F034
:1013D00099FA00F0BBFA00F0F5F906F0C9FC1D48D7
:1013E000FFF7E6FE1C48FFF785FD1C4800F0C6FB32
:1013F000194804F089FF00F08BFFFFF7E7FD01F0CB
:1014000011F801F05FF801F0BDF801F085F801F086
:101410002DF901F04FF901F0EDF801F04BF901F071
:1014200045F80023FB713C210A4805F055FA0021DC
:101430000B4805F0ADF80421094805F0A9F808218A
:10144000074805F0A5F80C21054805F0A1F800F0C3
:1014500037FFFCE7D4090020640A0020F40A0020CA
:101460001C0A002080B594B000AF07F120033022A1
:101470000021184609F0D9FE07F10C0300221A607A
:101480005A609A60DA601A610023BB60274B1B6CBC
:10149000264A43F080531364244B1B6C03F08053A3
:1014A000BB60BB6800237B60214B1B68204A43F470
:1014B000404313601E4B1B6803F440437B607B6812
:1014C00002233B620123FB6210233B630223BB63C5
:1014D0000023FB6308233B6450237B640223BB642B
:1014E0000423FB6407F12003184603F033FE034690
:1014F000002B01D000F03CFB0F23FB6002233B617B
:1015000000237B614FF48053BB610023FB6107F133
:101510000C030221184604F095F80346002B01D075
:1015200000F026FB00BF5037BD4680BD00380240AA
:101530000070004080B584B000AF3B4600221A60C6
:101540005A609A60DA60284B284A1A60264B4FF49A
:1015500080325A60244B00229A60234B01221A6188
:10156000214B00221A76204B002283F820201E4BAC
:101570000022DA621C4B1E4A9A621B4B0022DA6080
:10158000194B0222DA61184B002283F83020164BE7
:1015900001225A61144802F02FFC0346002B01D0AF
:1015A00000F0E6FA00233B6001237B600323BB606D
:1015B0003B4619460C4802F063FC0346002B01D061
:1015C00000F0D6FA01233B6002237B603B461946BC
:1015D000054802F055FC0346002B01D000F0C8FA84
:1015E00000BF1037BD4680BD8C08002000200140A0
:1015F0000100000F80B500AF124B134A1A60114B67
:10160000124A5A600F4B00229A600E4B0022DA6099
:101610000C4B4FF480421A610A4B00225A61094B6D
:1016200000229A61074B0022DA61064B00221A62FF
:10163000044803F033F90346002B01D000F098FA78
:1016400000BF80BDD408002000540040A0860100E7
:1016500080B500AF124B134A1A60114B124A5A6000
:101660000F4B00229A600E4B0022DA600C4B4FF4B5
:1016700080421A610A4B00225A61094B00229A618A
:10168000074B0022DA61064B00221A62044803F07D
:1016900005F90346002B01D000F06AFA00BF80BDB7
:1016A0002809002000580040A086010080B500AF46
:1016B000174B184A1A60164B4FF482725A60144B3B
:1016C00000229A60124B0022DA60114B00221A614C
:1016D0000F4B00225A610E4B4FF400729A610C4B73
:1016E0002022DA610A4B00221A62094B00225A6258
:1016F000074B00229A62064B0A22DA62044804F081
:1017000081F90346002B01D000F032FA00BF80BD02
:101710007C0900200030014080B58CB000AF07F19B
:101720000C0324220021184609F07FFD3B1D0022F6
:101730001A605A60214B224A1A60204B01225A60DB
:101740001E4B00229A601D4B2822DA601B4B0022A0
:101750001A611A4B00225A61184B00229A61012328
:10176000FB6000233B6101237B610023BB610F23EE
:10177000FB6100233B6201237B620023BB620F23DA
:10178000FB6207F10C0319460C4804F0FFFF034607
:10179000002B01D000F0ECF900237B600023BB603C
:1017A0003B1D1946054805F09FFE0346002B01D05E
:1017B00000F0DEF900BF3037BD4680BDD4090020FF
:1017C0000000014080B58EB000AF07F12803002271
:1017D0001A605A609A60DA6007F1200300221A60EA
:1017E0005A603B1D00221A605A609A60DA601A61E2
:1017F0005A619A61414B4FF080421A603F4B42F66A
:10180000E0625A603D4B00229A603C4B4FF0FF3241
:10181000DA603A4B00221A61384B00229A6137484D
:1018200004F022FD0346002B01D000F0A1F94FF493
:101830008053BB6207F128031946304805F05EFA71
:101840000346002B01D000F093F92C4804F047FE2A
:101850000346002B01D000F08BF900233B620023EC
:101860007B6207F120031946244805F03DFE03463C
:10187000002B01D000F07CF930237B6041F603237C
:10188000BB600023FB6000237B613B1D00221946E7
:101890001A4805F0D7F90346002B01D000F068F98B
:1018A00043F2BC43BB603B1D04221946134805F0BC
:1018B000C9F90346002B01D000F05AF948F6A043BD
:1018C000BB603B1D082219460C4805F0BBF90346D6
:1018D000002B01D000F04CF9094BBB603B1D0C22E2
:1018E0001946064805F0AEF90346002B01D000F07A
:1018F0003FF900BF3837BD4680BD00BF1C0A00203D
:10190000B805010080B500AF0E4B0F4A1A600D4BB1
:101910004F225A600B4B00229A600A4B4FF6FF721F
:10192000DA60084B00221A61064B00229A610548D2
:1019300004F09AFC0346002B01D000F019F900BF17
:1019400080BD00BF640A00200044014080B500AFA4
:101950000E4B0F4A1A600D4B0A225A600B4B0022A5
:101960009A600A4B4FF6FF72DA60084B00221A6148
:10197000064B00229A61054804F076FC0346002BD2
:1019800001D000F0F5F800BF80BD00BFAC0A002018
:101990000048014080B500AF114B124A1A60104B4D
:1019A0004FF4E1325A600E4B00229A600C4B002239
:1019B000DA600B4B00221A61094B0C225A61084B6A
:1019C00000229A61064B0022DA61054805F00EFEFE
:1019D0000346002B01D000F0CBF800BF80BD00BF54
:1019E000F40A00200014014080B58AB000AF07F16E
:1019F000140300221A605A609A60DA601A610023A8
:101A00003B61574B1B6B564A43F004031363544B23
:101A10001B6B03F004033B613B690023FB60504BED
:101A20001B6B4F4A43F0800313634D4B1B6B03F05A
:101A30008003FB60FB680023BB60494B1B6B484A7B
:101A400043F001031363464B1B6B03F00103BB60C0
:101A5000BB6800237B60424B1B6B414A43F002038F
:101A600013633F4B1B6B03F002037B607B68002218
:101A700048F210013B4802F0DFFE012202213A4801
:101A800002F0DAFE002243F21801374802F0D4FED9
:101A90004FF400437B614FF48813BB610023FB616B
:101AA00007F114031946314802F02AFD48F21003E9
:101AB0007B610123BB610023FB6100233B6207F1D3
:101AC00014031946274802F01BFD02237B611123F2
:101AD000BB610123FB6100233B6207F1140319463C
:101AE000214802F00DFD04237B610023BB6100232C
:101AF000FB6107F1140319461B4802F001FD43F294
:101B000018037B610123BB610023FB6100233B625F
:101B100007F114031946144802F0F2FC4FF48073E5
:101B20007B614FF40413BB610023FB6107F11403D5
:101B300019460D4802F0E4FC00220021172002F0B3
:101B4000A8FC172002F0C1FC00220021282002F08E
:101B5000A0FC282002F0B9FC00BF2837BD4680BD9C
:101B60000038024000000240000402400008024029
:101B700080B400AF72B600BFFEE7000080B483B04F
:101B800000AF7860044A7B68136000BF0C37BD4625
:101B90005DF8047B704700BF400B002080B582B029
:101BA00000AF0346FB710B46BB711346BB80382167
:101BB000002002F041F8FB791BB21846FFF708FB42
:101BC000034683F00103DBB20B4A06CA0B4802F05E
:101BD0000DF8FB791BB21846FFF70DFB0346002BEF
:101BE00005D00020FFF7C4FA054ABB79137000BF87
:101BF0000837BD4680BD00BF6406002000D4000841
:101C00003D0B002090B585B000AF78600023FB60ED
:101C10002EE0FB68DBB2DB00DBB21946002002F0ED
:101C20000BF8FB681BB21846FFF7E5FA0346002BDA
:101C300007D07B68FA68013213F83220114B1A7012
:101C40001CE07A68FB680133DB0013445C68FB68C6
:101C50001BB21846FFF7BCFA034683F00103DBB260
:101C6000094A06CA204601F0C1FFFB680133FB6048
:101C70007B685B68FA689A42CBDB00BF00BF143711
:101C8000BD4690BD3D0B00206406002080B584B0A9
:101C900000AF786027210020FFF750FA7868FFF73F
:101CA000B1FFFFF777FAF86007F10803FA6809490E
:101CB000184609F03DFA1E21002001F0BDFF064A3A
:101CC00007F10800012306CA01F090FF00BF10379A
:101CD000BD4680BD08D400087C06002080B582B0D7
:101CE00000AF786003210020FFF728FA7868FFF73B
:101CF00089FF012200210320FFF750FF00BF0837B2
:101D0000BD4680BD80B582B000AF78600021002064
:101D1000FFF714FA7868FFF775FF00220021002012
:101D2000FFF73CFF00BF0837BD4680BD90B587B0C8
:101D300000AF786001210020FFF700FAFFF7EAF812
:101D400087ED050A0021002001F076FF194A0123E2
:101D500006CA194801F04AFF0C21002001F06CFF6F
:101D60007869FEF7F9FB02460B4607F108001349B4
:101D700009F0DEF9124A07F10800012306CA01F052
:101D800035FF104B1C6807F108031846FEF778FA78
:101D900003469AB207F108014FF0FF33204605F0E1
:101DA00072FC012200210120FFF7F8FE00BF1C3762
:101DB000BD4690BD6C0600200CD4000820D400085D
:101DC0007C060020400B002080B582B000AF786018
:101DD00004210020FFF7B2F97868FFF713FF04220F
:101DE00000210420FFF7DAFE00BF0837BD4680BDA2
:101DF00080B582B000AF786004210020FFF79EF923
:101E00007868FFF7FFFE042200210420FFF7C6FEDA
:101E100000BF0837BD4680BD80B582B000AF786096
:101E200003210020FFF78AF97868FFF7EBFE032211
:101E300000210320FFF7B2FE00BF0837BD4680BD7A
:101E400080B5BAB000AF786002210020FFF776F9C4
:101E50000021002001F0F0FEA84B1B78DBB2082B1C
:101E60006DD1A74A012306CAA64801F0BFFE122180
:101E7000002001F0E1FEA34B1B7D002B01D0A24A04
:101E800000E0A24A07F1D403A149184609F050F92D
:101E90000020FFF79DF9034683F00103DBB29D4A62
:101EA00007F1D40006CA01F0A1FE1C21002001F0B8
:101EB000C3FE984A012306CA974801F097FE1C21E9
:101EC0005A2001F0B9FE0120FFF782F9034683F0A2
:101ED0000103DBB28F4A06CA904801F087FE012059
:101EE000FFF776F90346002B00F0C3810120FFF7CE
:101EF00082F90346002B00F0BC818948FFF794F972
:101F0000884B1B680133874A1360864B1B68042B80
:101F100002DD844B01221A60824B1B68013B824A1E
:101F200052F82330814A1360804B1B681A4680495F
:101F30007A4809F0FDF87948FFF776F999E16F4B97
:101F40001B78DBB2092B1FD16D4A012306CA7948E1
:101F500001F04CFE1221002001F06EFE694B93F857
:101F60002930002B01D0684A00E0684A07F1C0031D
:101F70006749184609F0DCF8664A07F1C0000123FA
:101F800006CA01F033FE74E15C4B1B78DBB20A2B0E
:101F90001FD15B4A012306CA674801F027FE1221C0
:101FA000002001F049FE574B93F83E30002B01D042
:101FB000554A00E0554A07F1AC035549184609F067
:101FC000B7F8544A07F1AC00012306CA01F00EFE2F
:101FD0004FE14A4B1B78DBB20B2B1FD1484A012340
:101FE00006CA564801F002FE1221002001F024FE2C
:101FF000444B93F85330002B01D0434A00E0434A4E
:1020000007F198034249184609F092F8414A07F14E
:102010009800012306CA01F0E9FD2AE1374B1B783D
:10202000DBB20C2B1FD1364A012306CA444801F00B
:10203000DDFD1221002001F0FFFD324B93F86830E6
:10204000002B01D0304A00E0304A07F184033049C8
:10205000184609F06DF82F4A07F18400012306CADB
:1020600001F0C4FD05E1254B1B78DBB20D2B1FD120
:10207000234A012306CA334801F0B8FD122100208B
:1020800001F0DAFD1F4B93F87D30002B01D01E4A82
:1020900000E01E4A07F170031D49184609F048F890
:1020A0001C4A07F17000012306CA01F09FFDE0E021
:1020B000124B1B78DBB20E2B48D1114A012306CA02
:1020C000214801F093FD1221002001F0B5FD0D4BD8
:1020D00093F89230002B01D00B4A00E00B4A07F135
:1020E0005C030B49184609F023F80A4A07F15C0023
:1020F000012306CA01F07AFDBBE000BF3D0B0020C2
:10210000740600200000002028D4000830D4000805
:1021100038D400086C06002044D40008F8000020E1
:1021200054D40008480B0020E8000020440B002095
:1021300060D40008150000202A0000203F00002085
:1021400054000020690000207E000020504B1B78C6
:10215000DBB20F2B1FD14F4A012306CA4E4801F0B4
:1021600045FD1221002001F067FD4C4B93F8A7308C
:10217000002B01D04A4A00E04A4A07F148034A4985
:10218000184608F0D5FF494A07F14800012306CA5E
:1021900001F02CFD6DE03E4B1B78DBB2102B1FD104
:1021A0003C4A012306CA424801F020FD12210020CA
:1021B00001F042FD394B93F8BC30002B01D0384A76
:1021C00000E0384A07F134033749184608F0B0FFF9
:1021D000364A07F13400012306CA01F007FD48E042
:1021E0002B4B1B78DBB2112B1FD12A4A012306CAC5
:1021F000304801F0FBFC1221002001F01DFD274BAF
:1022000093F8D130002B01D0254A00E0254A07F190
:1022100020032549184608F08BFF244A07F12000C7
:10222000012306CA01F0E2FC23E0194B1B78DBB264
:10223000122B1ED1174A012306CA1F4801F0D6FCF3
:102240001221002001F0F8FC144B93F8E630002B2B
:1022500001D0134A00E0134A07F10C031249184653
:1022600008F066FF114A07F10C00012306CA01F0CD
:10227000BDFC0E4A012306CA104801F0B7FC022239
:1022800000210220FFF78AFC00BFE837BD4680BD71
:102290003D0B002074060020930000200000002069
:1022A00028D4000830D4000838D400086C06002078
:1022B000A8000020BD000020D200002068D4000843
:1022C00080B500AF002001F069FB0F4B1B78DBB23B
:1022D00019460E4A0B46DB000B44DB0013441A6818
:1022E000094B1B78DBB219460B46DB000B44DB00C5
:1022F00006490B441846904701F074FB012001F099
:1023000057FD00BF80BD00BF3D0B00200401002031
:1023100080B500AF01F0D8FA00BF80BD80B483B0B3
:1023200000AF78607B68002283F8E8237B68002296
:1023300083F8E92300BF0C37BD465DF8047B704786
:1023400080B483B000AF78600B46FB707B6893F875
:10235000E8335A1C194B83FB02139911D317CB1A7C
:102360004FF47A7101FB03F3D31A7A6892F8E923E8
:1023700093421BD07B6893F8E83319467B68FA7860
:102380005A547B6893F8E83301330C4A82FB0312FA
:102390009111DA178A1A4FF47A7101FB02F29A1A34
:1023A000D2B27B6883F8E823012300E000231846BB
:1023B0000C37BD465DF8047B704700BFD34D6210FB
:1023C00080B485B000AF78607B6893F8E8237B68C1
:1023D00093F8E9339A421BD07B6893F8E9331A46A5
:1023E0007B689B5CFB737B6893F8E93301330C4A91
:1023F00082FB03129111DA178A1A4FF47A7101FBEA
:1024000002F29A1AD2B27B6883F8E923FB7B00E0E0
:10241000002318461437BD465DF8047B704700BFA3
:10242000D34D621080B584B000AF1E48FFF776FF31
:102430000A211C48FFF784FF14211A48FFF780FF88
:1024400042211848FFF77CFF1648FFF7B9FF034603
:102450001A463B1D1449184608F06AFE3B1D1846F3
:10246000FEF7E2FE0F48FFF7ABFF03461A463B1D9F
:102470000D49184608F05CFE3B1D1846FEF7D4FED9
:102480000848FFF79DFF03461A463B1D06491846BC
:1024900008F04EFE3B1D1846FEF7C6FE00BF103783
:1024A000BD4680BD4C0B002020D5000880B500AF94
:1024B00000220349002007F007FA00BF80BD00BFDB
:1024C00028D5000880B500AF01220D490D4807F05E
:1024D000FBF903461A460C4B1A700B4B1B78002B6A
:1024E00006D10A4B01221A700948FEF79DFE05E04D
:1024F000064B00221A700748FEF796FE00BF80BD0B
:102500002CD50008380F002098130020301400202C
:1025100030D5000844D5000880B500AF134B1B78B8
:10252000002B20D0124A1349134807F02DFF104BFF
:102530001B685B891A460F4B1B6802FB03F31846A6
:10254000FDF7E8FF4FF000020C4BFEF75DF8024686
:102550000B4610461946FEF72FFB0346084A136048
:10256000074B1B6800E00023184680BD3014002094
:10257000A0130020A413002028D500080000E03F8D
:10258000AC13002080B500AF144B1B78002B21D07A
:10259000134A1449144807F0F7FE114B1B685B6996
:1025A000023B0F4A1268528902FB03F31846FDF7FB
:1025B000B1FF4FF000020D4BFEF726F802460B4626
:1025C00010461946FEF7F8FA0346094A1360084B0D
:1025D0001B6800E00023184680BD00BF30140020B7
:1025E000A0130020A413002028D500080000E03F1D
:1025F000A813002080B500AF134B1B78002B20D010
:1026000001221249124807F0A5F903461A46114B58
:102610001A70104B1B78002B10D10F48FEF704FEE8
:102620000B4BDA680D4B0E49094807F051FB0C487B
:10263000FEF7FAFD0B48FEF7F7FD02E00A48FEF749
:10264000F3FD00BF80BD00BF3014002058D5000846
:10265000681100209813002064D500089C13002006
:10266000B013002080D5000884D5000880B500AFE5
:102670000A4B1B78002B0FD00B220949094807F0A1
:1026800069F903461A46084B1A700649074807F0CD
:10269000A7FF0748FEF7C8FD00BF80BD301400202B
:1026A00058D500086811002098130020A4D5000810
:1026B000B4D5000880B500AF074B1B78002B09D0BC
:1026C000064807F037FE03461A46054B1A700548C0
:1026D000FEF7AAFD00BF80BD301400206811002065
:1026E00098130020C4D5000880B483B000AF002345
:1026F0007B60104B5B6C0F4A43F4804353640D4B7B
:102700005B6C03F480437B607B6800233B60094B78
:102710001B6C084A43F080531364064B1B6C03F098
:1027200080533B603B6800BF0C37BD465DF8047BBF
:10273000704700BF0038024080B58AB000AF7860B3
:1027400007F1140300221A605A609A60DA601A6175
:102750007B681B68174A934227D100233B61164BC5
:102760005B6C154A43F480735364134B5B6C03F446
:1027700080733B613B690023FB600F4B1B6B0E4A70
:1027800043F0010313630C4B1B6B03F00103FB606D
:10279000FB680F237B610323BB610023FB6107F10F
:1027A00014031946054801F0ABFE00BF2837BD46AB
:1027B00080BD00BF00200140003802400000024000
:1027C00080B58CB000AF786007F11C0300221A605E
:1027D0005A609A60DA601A617B681B683B4A9342D0
:1027E0002CD10023BB613A4B1B6B394A43F00203E7
:1027F0001363374B1B6B03F00203BB61BB69C02340
:10280000FB6112233B6200237B620323BB62042330
:10281000FB6207F11C0319462E4801F071FE0023EC
:102820007B612B4B1B6C2A4A43F400131364284B27
:102830001B6C03F400137B617B6942E07B681B68BF
:10284000254A93423DD100233B61214B1B6B204A1B
:1028500043F0020313631E4B1B6B03F002033B6147
:102860003B694FF48063FB6112233B6200237B6270
:102870000323BB620423FB6207F11C0319461548BE
:1028800001F03EFE4FF40073FB6112233B62002314
:102890007B620323BB620923FB6207F11C03194619
:1028A0000C4801F02DFE0023FB60094B1B6C084A0D
:1028B00043F480031364064B1B6C03F48003FB603A
:1028C000FB6800BF3037BD4680BD00BF00540040EC
:1028D00000380240000402400058004080B58AB031
:1028E00000AF786007F1140300221A605A609A6002
:1028F000DA601A617B681B68194A93422BD1002366
:102900003B61184B5B6C174A43F480535364154B7F
:102910005B6C03F480533B613B690023FB60114B0C
:102920001B6B104A43F0010313630E4B1B6B03F048
:102930000103FB60FB68E0237B610223BB61002392
:10294000FB6103233B6205237B6207F114031946F5
:10295000054801F0D5FD00BF2837BD4680BD00BF4A
:1029600000300140003802400000024080B58AB0CB
:1029700000AF786007F1140300221A605A609A6071
:10298000DA601A617B681B68214A93423CD10023BC
:102990003B61204B5B6C1F4A43F0010353641D4BAA
:1029A0005B6C03F001033B613B690023FB60194B47
:1029B0001B6B184A43F001031363164B1B6B03F0A8
:1029C0000103FB60FB684FF440737B610223BB6132
:1029D0000023FB6100233B6201237B6207F11403A8
:1029E00019460D4801F08CFD00220021192001F04C
:1029F00050FD192001F069FD002200211A2001F08C
:102A000048FD1A2001F061FD00BF2837BD4680BD9A
:102A100000000140003802400000024080B586B04E
:102A200000AF78607B681B68B3F1804F16D100233C
:102A30007B61284B1B6C274A43F001031364254B31
:102A40001B6C03F001037B617B69002200211C20C9
:102A500001F01FFD1C2001F038FD36E07B681B688B
:102A60001D4A934216D100233B611A4B5B6C194AF5
:102A700043F400335364174B5B6C03F400333B6146
:102A80003B6900220021192001F003FD192001F00B
:102A90001CFD1AE07B681B68104A934215D1002385
:102AA000FB600C4B5B6C0B4A43F480235364094B73
:102AB0005B6C03F48023FB60FB68002200211A207A
:102AC00001F0E7FC1A2001F000FD00BF1837BD46F9
:102AD00080BD00BF00380240004401400048014072
:102AE00080B58AB000AF786007F1140300221A6045
:102AF0005A609A60DA601A617B681B68194A9342CF
:102B00002CD100233B61184B5B6C174A43F0200328
:102B10005364154B5B6C03F020033B613B6900235E
:102B2000FB60114B1B6B104A43F0010313630E4B08
:102B30001B6B03F00103FB60FB684FF4C0537B6128
:102B40000223BB610023FB6103233B6208237B62FA
:102B500007F114031946054801F0D2FC00BF2837DD
:102B6000BD4680BD00140140003802400000024014
:102B700080B400AF0E4B1B78DBB2002B06D00C4BA1
:102B80001B78DBB2013BDAB2094B1A70094B1B7898
:102B9000DBB2002B06D0074B1B78DBB2013BDAB26D
:102BA000044B1A7000BFBD465DF8047B704700BF40
:102BB000321400203314002080B400AFFEE780B44C
:102BC00000AFFEE780B400AFFEE780B400AFFEE7E1
:102BD00080B400AFFEE780B400AF00BFBD465DF833
:102BE000047B704780B400AF00BFBD465DF8047B36
:102BF000704780B400AF00BFBD465DF8047B7047EE
:102C000080B500AF0A4B1B78DBB20133DAB2084B58
:102C10001A70074B1B78DBB2092B04D9044B002236
:102C20001A70FFF7A5FF01F0A3F800BF80BD00BF39
:102C30003114002080B500AF4FF4807001F016FE13
:102C400000BF80BD80B500AF034803F0F3FE03482A
:102C500003F0F0FE00BF80BDD4090020640A00200C
:102C600080B500AF034803F0E5FE034803F0E2FE41
:102C700000BF80BDD4090020AC0A002080B500AFA1
:102C8000024803F0D7FE00BF80BD00BF1C0A002031
:102C900080B500AF4FF4004001F0E8FD00BF80BDFB
:102CA00080B400AF01231846BD465DF8047B704731
:102CB00080B582B000AF7860396008F009FB034648
:102CC00016221A604FF0FF3318460837BD4680BD04
:102CD00080B582B000AF78604FF0FF317868FFF7C1
:102CE000E7FFFEE780B586B000AFF860B9607A60B4
:102CF00000237B610AE0AFF300800146BB685A1CE9
:102D0000BA60CAB21A707B6901337B617A697B68E9
:102D10009A42F0DB7B6818461837BD4680BD80B507
:102D200086B000AFF860B9607A6000237B6109E08B
:102D3000BB685A1CBA601B781846AFF300807B69E9
:102D400001337B617A697B689A42F1DB7B681846C4
:102D50001837BD4680BD80B483B000AF78604FF0B7
:102D6000FF3318460C37BD465DF8047B704780B4CE
:102D700083B000AF786039603B684FF400525A600E
:102D8000002318460C37BD465DF8047B704780B4BD
:102D900083B000AF7860012318460C37BD465DF85C
:102DA000047B704780B485B000AFF860B9607A608A
:102DB000002318461437BD465DF8047B70470000B9
:102DC00080B586B000AF7860144A154BD31A7B618A
:102DD0007B693B61134B1B68002B02D1114B124ADC
:102DE0001A60104B1A687B6813443A699A4207D2FA
:102DF00008F06EFA03460C221A604FF0FF3309E028
:102E0000084B1B68FB60074B1A687B681344054A34
:102E10001360FB6818461837BD4680BD00000220CD
:102E20000004000034140020D819002080B400AF42
:102E3000064BD3F88830054A43F47003C2F8883053
:102E400000BFBD465DF8047B704700BF00ED00E0A9
:102E500080B582B000AF786000F09EFF0346044A60
:102E60001360044A7B68136000BF0837BD4680BD0D
:102E70003C1400204014002080B500AF00F08CFF0F
:102E80000246064B1B68D21A054B1B689A4234BF98
:102E900001230023DBB2184680BD00BF3C14002094
:102EA0004014002080B586B002AF0346FB7107F1E5
:102EB0000F02F91D322300930123044802F067FF3B
:102EC000FB7B18461037BD4680BD00BF7C09002043
:102ED00090B585B000AF786039600023FB600AE0F0
:102EE0007A68FB68D418FF20FFF7DCFF03462370E5
:102EF000FB680133FB60FA683B689A42F0D300BF7D
:102F000000BF1437BD4690BD80B582B000AF786079
:102F100039603B689AB24FF0FF337968034802F09A
:102F2000FAFD00BF0837BD4680BD00BF7C09002008
:102F300080B586B000AF786000F02EFF78617B68C6
:102F40003B61FF20FFF7AEFF0346FB73FB7BFF2BCC
:102F500007D000F021FF02467B69D31A3A699A42F2
:102F6000EFD8FB7BFF2B0CBF01230023DBB21846FD
:102F70001837BD4680BD000080B500AF012210218A
:102F8000034801F059FCFF20FFF78CFF00BF80BD14
:102F90000000024080B500AF00221021094801F076
:102FA0004BFCFF20FFF77EFF4FF4FA70FFF7C0FFE6
:102FB0000346002B01D0012302E0FFF7DDFF0023D1
:102FC000184680BD0000024080B584B000AF786034
:102FD0003960C820FFF73CFFFF20FFF763FF03467F
:102FE000FB73FB7BFF2B04D1FFF746FF0346002B4F
:102FF000F2D1FB7BFE2B01D000230AE03968786810
:10300000FFF766FFFF20FFF74DFFFF20FFF74AFFA6
:10301000012318461037BD4680BD80B584B000AF8F
:1030200078600B46FB704FF4FA70FFF781FF0346A0
:10303000002B01D100231EE0FB781846FFF732FF7A
:10304000FB78FD2B16D04FF400717868FFF75CFF1A
:10305000FF20FFF727FFFF20FFF724FFFF20FFF7E8
:1030600021FF0346FB73FB7B03F01F03052B01D0FD
:10307000002300E0012318461037BD4680BD80B50F
:1030800084B000AF03463960FB7197F90730002B1D
:103090000EDAFB7903F07F03FB7100213720FFF785
:1030A000EEFF0346BB73BB7B012B01D9BB7B51E019
:1030B000FB790C2B08D0FFF75FFFFFF76BFF034690
:1030C000002B01D1FF2345E0FB7943F04003DBB245
:1030D0001846FFF7E7FE3B681B0EDBB21846FFF70A
:1030E000E1FE3B681B0CDBB21846FFF7DBFE3B68DA
:1030F0001B0ADBB21846FFF7D5FE3B68DBB2184669
:10310000FFF7D0FE0123FB73FB79002B01D1952340
:10311000FB73FB79082B01D18723FB73FB7B1846DC
:10312000FFF7C0FEFB790C2B02D1FF20FFF7BAFEA0
:103130000A23FB73FF20FFF7B5FE0346BB7397F925
:103140000E30002B05DAFB7B013BFB73FB7B002B76
:10315000F0D1BB7B18461037BD4680BD90B585B019
:1031600000AF0346FB71FB79002B01D00123D6E0B1
:103170006D4B1B78DBB203F00203002B03D06A4BCC
:103180001B78DBB2CBE0694B1B681B6823F038026D
:10319000664B1B6842F030021A600A23FB7305E09D
:1031A000FF20FFF77FFEFB7B013BFB73FB7B002BCC
:1031B000F6D100237B7300210020FFF760FF034658
:1031C000012B40F08B804FF47A70FFF741FE4FF4F3
:1031D000D5710820FFF753FF0346012B51D100237F
:1031E000FB730DE0FC7BFF20FFF75CFE03461A46F5
:1031F00004F110033B4403F8082CFB7B0133FB7301
:10320000FB7B032BEED9BB7A012B67D1FB7AAA2B70
:1032100064D100BFFFF730FE0346002B07D04FF00C
:103220008041A920FFF72BFF0346002BF2D1FFF7C7
:1032300023FE0346002B51D000213A20FFF71FFF49
:103240000346002B4AD10023FB730DE0FC7BFF20DB
:10325000FFF728FE03461A4604F110033B4403F827
:10326000082CFB7B0133FB73FB7B032BEED93B7AF2
:1032700003F04003002B01D00C2300E004237B73F8
:103280002CE00021A920FFF7FAFE0346012B04D809
:1032900002237B73A923BB7303E001237B73012308
:1032A000BB7300BFFFF7E8FD0346002B07D0BB7BD5
:1032B00000211846FFF7E3FE0346002BF2D1FFF78B
:1032C000DBFD0346002B07D04FF400711020FFF701
:1032D000D6FE0346002B01D000237B73144A7B7B70
:1032E0001370FFF749FE7B7B002B12D00F4B1B683E
:1032F0001B6823F038020D4B1B6842F010021A6065
:10330000094B1B78DBB223F00103DAB2064B1A70CB
:1033100002E0054B01221A70034B1B78DBB2184602
:103320001437BD4690BD00BF600600207C09002018
:103330003814002080B483B000AF0346FB71FB79E2
:10334000002B01D0012302E0044B1B78DBB21846AE
:103350000C37BD465DF8047B704700BF6006002057
:1033600080B584B000AFB9607A603B600346FB7300
:10337000FB7B002B02D13B68002B01D104234DE0E5
:10338000284B1B78DBB203F00103002B01D0032391
:1033900044E0254B1B7803F00803002B02D17B6827
:1033A0005B027B603B68012B11D179681120FFF72C
:1033B00066FE0346002B29D14FF40071B868FFF771
:1033C00003FE0346002B21D000233B601EE07968FA
:1033D0001220FFF754FE0346002B17D14FF4007163
:1033E000B868FFF7F1FD0346002B0AD0BB6803F570
:1033F0000073BB603B68013B3B603B68002BEDD139
:1034000000E000BF00210C20FFF739FEFFF7B4FDFC
:103410003B68002B14BF01230023DBB21846103792
:10342000BD4680BD600600203814002080B584B001
:1034300000AFB9607A603B600346FB73FB7B002BF7
:1034400002D13B68002B01D1042363E0334B1B788E
:10345000DBB203F00103002B01D003235AE02F4B12
:103460001B78DBB203F00403002B01D0022351E0F0
:103470002B4B1B7803F00803002B02D17B685B0207
:103480007B603B68012B10D179681820FFF7F7FDAE
:103490000346002B36D1FE21B868FFF7BEFD034678
:1034A000002B2FD000233B602CE01D4B1B7803F03A
:1034B0000603002B03D039689720FFF7E0FD7968F9
:1034C0001920FFF7DCFD0346002B1BD1FC21B86857
:1034D000FFF7A3FD0346002B0AD0BB6803F500737A
:1034E000BB603B68013B3B603B68002BEED100E0DA
:1034F00000BFFD210020FFF790FD0346002B01D106
:1035000001233B60FFF738FD3B68002B14BF01230C
:103510000023DBB218461037BD4680BD6006002090
:103520003814002080B58CB000AF03463A60FB71C0
:103530000B46BB71FB79002B01D004235AE1AF4B42
:103540001B78DBB203F00103002B01D0032351E110
:10355000012387F82F30BB79042B00F2368101A2BA
:1035600052F823F0793500088D350008CB37000874
:10357000393600082F370008FFF70CFD0346002BF3
:1035800000F02781002387F82F3022E10021092055
:10359000FFF775FD0346002B40F01D8107F10C037A
:1035A00010211846FFF710FD0346002B00F0138191
:1035B0003B7B9B09DBB2012B11D17B7D1A463B7D06
:1035C0001B0213441A46FB7C1B0403F47C131344B4
:1035D0000133FB61FB699A023B681A6028E07B7C3F
:1035E00003F00F03DAB2BB7DDB09DBB21344DAB2BE
:1035F0007B7D5B00DBB203F00603DBB21344DBB27E
:10360000023387F82E303B7D9B09DBB21A46FB7CE8
:103610009B001A44BB7C9B0203F4406313440133B8
:10362000FB6197F82E30093BFA699A403B681A60B3
:10363000002387F82F30CEE0714B1B7803F0040392
:10364000002B31D000218D20FFF719FD0346002B00
:1036500040F0C380FF20FFF725FC07F10C03102189
:103660001846FFF7B1FC0346002B00F0B68030236C
:1036700087F82E3007E0FF20FFF714FC97F82E3074
:10368000013B87F82E3097F82E30002BF3D1BB7D0D
:103690001B09DBB21A46102303FA02F23B681A60D8
:1036A000002387F82F3098E000210920FFF7E7FC7E
:1036B0000346002B40F0918007F10C0310211846BF
:1036C000FFF782FC0346002B00F087804C4B1B78F1
:1036D00003F00203002B12D0BB7D5B0003F07E03DE
:1036E000FA7DD209D2B213445A1C7B7E9B09DBB20D
:1036F000013B02FA03F31A463B681A6013E0BB7DF4
:103700009B109BB203F01F030133FA7DD20002F03D
:103710001802F97D4909C9B20A44013202FB03F3D8
:103720001A463B681A60002387F82F3055E0344B67
:103730001B7803F00603002B51D007F10C02FB7934
:103740000B211846FFF7EEFE0346002B49D13B7BC9
:103750009B09DBB2002B04D1BB7D03F04003002B9F
:1037600041D03B683B623B6A1B68BB623B6A5B685B
:103770007B62234B1B7803F00803002B05D1BB6A47
:103780005B02BB627B6A5B027B62B96A2020FFF747
:1037900076FC0346002B28D1796A2120FFF76FFCC5
:1037A0000346002B21D100212620FFF768FC0346A9
:1037B000002B1AD147F23050FFF7BAFB0346002B1B
:1037C00013D0002387F82F300FE0042387F82F3021
:1037D0000CE000BF0AE000BF08E000BF06E000BF49
:1037E00004E000BF02E000BF00E000BFFFF7C4FB41
:1037F00097F82F3018463037BD4680BD6006002050
:1038000038140020DFF834D00D480E490E4A00234A
:1038100002E0D458C4500433C4188C42F9D30B4A84
:103820000B4C002301E013600432A242FBD3FFF7EC
:10383000FDFA07F053FDFDF7B5FD704700000220CB
:103840000000002068080020BC060108680800206D
:10385000D8190020FEE780B400AF00BFBD465DF878
:10386000047B704780B586B004AF0346FB714FF010
:10387000FF33029301230193FB1D009301230022D8
:103880007821034801F04EF900BF0837BD4680BDDE
:10389000D408002080B586B004AF786039603B68FA
:1038A0009BB24FF0FF32029201937B680093012399
:1038B00040227821034801F035F900BF0837BD46A2
:1038C00080BD00BFD408002080B500AFFFF7C3FF64
:1038D000642000F06DFA002000F0DAF92020FFF7F4
:1038E000C1FF0020FFF7BEFFB020FFF7BBFFC820DD
:1038F000FFF7B8FF0020FFF7B5FF1020FFF7B2FF7A
:103900004020FFF7AFFFFF2000F0AEF9A120FFF746
:10391000A9FFA620FFF7A6FFA820FFF7A3FF3F20DF
:10392000FFF7A0FFA420FFF79DFFD320FFF79AFF2A
:103930000020FFF797FFD520FFF794FFF020FFF757
:1039400091FFD920FFF78EFF2220FFF78BFFDA20AF
:10395000FFF788FF1220FFF785FFDB20FFF782FFCC
:103960002020FFF77FFF8D20FFF77CFF1420FFF75B
:1039700079FF012000F08CF9002000F00FF800F032
:1039800031F8054B00221A80034B00225A80024B6B
:1039900001221A7100BF80BD4418002080B485B098
:1039A00000AF0346FB710023FB600DE0FB79002BA9
:1039B00001D1002100E0FF21094AFB6813440A46B7
:1039C0001A70FB680133FB60FB68B3F5806FEDD3C1
:1039D00000BF00BF1437BD465DF8047B704700BFD1
:1039E0004414002080B582B000AF0023FB7116E0C4
:1039F000FB79503BDBB21846FFF734FF0020FFF79E
:103A000031FF1020FFF72EFFFB79DB01084A13443A
:103A100080211846FFF73EFFFB790133FB71FB79EC
:103A2000072BE5D900BF00BF0837BD4680BD00BFEA
:103A30004414002080B483B000AF0346FB710B46F2
:103A4000BB7113467B7197F90730002B3DDBBB79C7
:103A50003F2B3AD87B79012B1AD1FA79BB79DB0855
:103A6000D8B20346DB0113441B4AD35C5AB2BB797C
:103A700003F00703012101FA03F35BB2134359B2C8
:103A8000FA790346DB011344C9B2134AD1541DE04D
:103A9000FA79BB79DB08D8B20346DB0113440E4A3E
:103AA000D35C5AB2BB7903F00703012101FA03F397
:103AB0005BB2DB435BB2134059B2FA790346DB01D8
:103AC0001344C9B2044AD15400E000BF0C37BD46CC
:103AD0005DF8047B704700BF4414002090B589B0A6
:103AE00000AF0446381D80E806001A462346FB73E3
:103AF0001346BB73FB7B1F2B02D9FB7B7E2B01D9AB
:103B000000236DE0384B1B881A463B791344802B09
:103B100006DC354B5B881A467B791344402B01DD6C
:103B200000235DE00023FB614CE0BA68FB7B203B97
:103B3000797901FB03F31946FB690B445B001344DD
:103B40001B887B610023BB6134E07A69BB6902FAA0
:103B500003F303F40043002B12D0234B1B88DAB28B
:103B6000BB69DBB21344D8B21F4B5B88DAB2FB6986
:103B7000DBB21344DBB2BA7B1946FFF75BFF16E0FA
:103B8000194B1B88DAB2BB69DBB21344D8B2164BAF
:103B90005B88DAB2FB69DBB21344D9B2BB7B002B82
:103BA0000CBF01230023DBB21A46FFF743FFBB69BA
:103BB0000133BB613B791A46BB699342C5D3FB69AC
:103BC0000133FB617B791A46FB699342ADD3064B07
:103BD0001A883B799BB213449AB2034B1A80FB7B41
:103BE00018462437BD4690BD4418002080B584B0E7
:103BF00000AFF860381D80E80600FB7012E0FB683B
:103C00001878FB783A1D06CAFFF768FF03461A4684
:103C1000FB681B789A4202D0FB681B7808E0FB68BF
:103C20000133FB60FB681B78002BE8D1FB681B7835
:103C300018461037BD4680BD80B483B000AF034640
:103C40000A46FB711346BB71FB799AB2054B1A8089
:103C5000BB799AB2034B5A8000BF0C37BD465DF862
:103C6000047B70474418002080B584B000AF034641
:103C7000FB718123FB73FB7B1846FFF7F3FDFB7998
:103C80001846FFF7EFFD00BF1037BD4680BD0000AE
:103C900080B584B000AF0346FB71FB79002B05D0E3
:103CA000AF23FB73084B01225A7104E0AE23FB7370
:103CB000054B00225A71FB7B1846FFF7D3FD00BF6E
:103CC0001037BD4680BD00BF4418002080B500AF4E
:103CD0000E4B1B680D4A43F4007313600B4B1B68BB
:103CE0000A4A43F480631360084B1B68074A43F495
:103CF00080731360032000F0C1FB0F2000F008F870
:103D0000FEF7F2FC0023184680BD00BF003C0240D5
:103D100080B582B000AF7860124B1A68124B1B78E6
:103D200019464FF47A73B3FBF1F3B2FBF3F3184681
:103D300000F0D9FB0346002B01D001230EE07B6885
:103D40000F2B0AD8002279684FF0FF3000F0A1FB5A
:103D5000064A7B681360002300E0012318460837F9
:103D6000BD4680BD5C060020880600208406002039
:103D700080B400AF064B1B781A46064B1B681344F1
:103D8000044A136000BFBD465DF8047B704700BF66
:103D9000880600204C18002080B400AF034B1B683D
:103DA0001846BD465DF8047B704700BF4C180020E4
:103DB00080B584B000AF7860FFF7EEFFB8607B6835
:103DC000FB60FB68B3F1FF3F05D00A4B1B781A4636
:103DD000FB681344FB6000BFFFF7DEFF0246BB68D1
:103DE000D31AFA689A42F7D800BF00BF1037BD4611
:103DF00080BD00BF8806002080B584B000AF786029
:103E00000023FB737B68002B01D1012333E07B6827
:103E10001B6C002B09D17868FEF78EFC7B680022B2
:103E20005A647B68002283F83C207B681B6C03F09B
:103E30001003002B18D17B681B6C23F4885323F0EC
:103E4000020343F002027B681A64786800F04AF9C2
:103E50007B6800225A647B681B6C23F0030343F0E9
:103E600001027B681A6401E00123FB737B68002276
:103E700083F83C20FB7B18461037BD4680BD000010
:103E800080B485B000AF786039600023BB607B6888
:103E900093F83C30012B01D1022313E17B6801220E
:103EA00083F83C203B681B68092B25D97B681B687D
:103EB000D9683B681B689BB21A4613465B001344E3
:103EC0001E3B072202FA03F3DA437B681B680A40B1
:103ED000DA607B681B68D9683B689A683B681B6836
:103EE0009BB2184603465B0003441E3B9A407B6826
:103EF0001B680A43DA6022E07B681B6819693B682B
:103F00001B689BB21A4613465B001344072202FA51
:103F100003F3DA437B681B680A401A617B681B68FD
:103F200019693B689A683B681B689BB21846034650
:103F30005B0003449A407B681B680A431A613B6834
:103F40005B68062B24D87B681B68596B3B685A68F2
:103F500013469B001344053B1F2202FA03F3DA4386
:103F60007B681B680A405A637B681B68596B3B6817
:103F70001B689BB218463B685A6813469B00134463
:103F8000053B00FA03F27B681B680A435A634CE066
:103F90003B685B680C2B24D87B681B68196B3B68FB
:103FA0005A6813469B001344233B1F2202FA03F373
:103FB000DA437B681B680A401A637B681B68196BCD
:103FC0003B681B689BB218463B685A6813469B00C7
:103FD0001344233B00FA03F27B681B680A431A630D
:103FE00023E07B681B68D96A3B685A6813469B00CC
:103FF0001344413B1F2202FA03F3DA437B681B6838
:104000000A40DA627B681B68D96A3B681B689BB20E
:1040100018463B685A6813469B001344413B00FA1C
:1040200003F27B681B680A43DA62294BFB607B68FA
:104030001B68284A93420FD13B681B68122B0BD197
:10404000FB685B6823F40002FB685A60FB685B68EE
:1040500043F48002FB685A607B681B681D4A9342E8
:104060002BD13B681B681C4A934203D03B681B68FA
:10407000112B22D1FB685B6823F48002FB685A6035
:10408000FB685B6843F40002FB685A603B681B688E
:10409000114A934211D1114B1B68114AA2FB032311
:1040A0009A0C13469B0013445B00BB6002E0BB68A4
:1040B000013BBB60BB68002BF9D17B68002283F811
:1040C0003C20002318461437BD465DF8047B70473A
:1040D0000023014000200140120000105C06002077
:1040E00083DE1B4380B485B000AF7860794BFB6002
:1040F000FB685B6823F44032FB685A60FB685A68CF
:104100007B685B681A43FB685A607B681B685A6867
:104110007B681B6822F480725A607B681B68596850
:104120007B681B691A027B681B680A435A607B68BC
:104130001B685A687B681B6822F040725A607B6873
:104140001B6859687B689A687B681B680A435A60D9
:104150007B681B689A687B681B6822F400629A601F
:104160007B681B6899687B68DA687B681B680A4310
:104170009A607B689B6A584A934222D07B681B688E
:104180009A687B681B6822F070629A607B681B6883
:1041900099687B689A6A7B681B680A439A607B68A7
:1041A0001B689A687B681B6822F040529A607B68A3
:1041B0001B6899687B68DA6A7B681B680A439A60A7
:1041C0000FE07B681B689A687B681B6822F070624E
:1041D0009A607B681B689A687B681B6822F0405273
:1041E0009A607B681B689A687B681B6822F00202F1
:1041F0009A607B681B6899687B681B7E5A007B68A5
:104200001B680A439A607B6893F82030002B1BD010
:104210007B681B685A687B681B6842F400625A60BE
:104220007B681B685A687B681B6822F460425A608E
:104230007B681B6859687B685B6A013B5A037B6833
:104240001B680A435A6007E07B681B685A687B68F2
:104250001B6822F400625A607B681B68DA6A7B681C
:104260001B6822F47002DA627B681B68D96A7B687B
:10427000DB69013B1A057B681B680A43DA627B68CD
:104280001B689A687B681B6822F400729A607B68DE
:104290001B6899687B6893F830305A027B681B680A
:1042A0000A439A607B681B689A687B681B6822F4E3
:1042B00080629A607B681B6899687B685B699A0278
:1042C0007B681B680A439A6000BF1437BD465DF8DF
:1042D000047B7047002301400100000F80B485B0CB
:1042E00000AF78607B6803F00703FB600C4BDB6872
:1042F000BB60BA684FF6FF031340BB60FB681A024D
:10430000BB68134343F0BF6343F40033BB60044A0C
:10431000BB68D36000BF1437BD465DF8047B7047AF
:1043200000ED00E080B400AF044BDB681B0A03F033
:1043300007031846BD465DF8047B704700ED00E0BA
:1043400080B483B000AF0346FB7197F90730002BB0
:104350000BDBFB7903F01F02074997F907305B0974
:10436000012000FA02F241F8232000BF0C37BD46BD
:104370005DF8047B704700BF00E100E080B483B0CB
:1043800000AF03463960FB7197F90730002B0ADB59
:104390003B68DAB20C4997F907301201D2B20B44EC
:1043A00083F800230AE03B68DAB20849FB7903F09E
:1043B0000F03043B1201D2B20B441A7600BF0C3734
:1043C000BD465DF8047B704700E100E000ED00E0D1
:1043D00080B489B000AFF860B9607A60FB6803F020
:1043E0000703FB61FB69C3F10703042B28BF042308
:1043F000BB61FB690433062B02D9FB69033B00E078
:1044000000237B614FF0FF32BB6902FA03F3DA430A
:10441000BB681A407B699A404FF0FF317B6901FA13
:1044200003F3D9437B680B40134318462437BD463A
:104430005DF8047B7047000080B582B000AF786003
:104440007B68013BB3F1807F01D301230FE00A4A6F
:104450007B68013B53600F214FF0FF30FFF78EFF69
:10446000054B00229A60044B07221A60002318466D
:104470000837BD4680BD00BF10E000E080B582B0C7
:1044800000AF78607868FFF729FF00BF0837BD46A6
:1044900080BD80B586B000AF0346B9607A60FB731B
:1044A00000237B61FFF73EFF78617A68B96878691D
:1044B000FFF78EFF024697F90F3011461846FFF7B7
:1044C0005DFF00BF1837BD4680BD80B582B000AF2C
:1044D0000346FB7197F907301846FFF731FF00BF1D
:1044E0000837BD4680BD80B582B000AF786078687F
:1044F000FFF7A2FF034618460837BD4680BD0000FF
:1045000080B489B000AF7860396000237B610023FC
:104510003B610023BB610023FB6159E10122FB6980
:1045200002FA03F37B613B681B687A6913403B61C5
:104530003A697B699A4240F048813B685B6803F0C6
:104540000303012B05D03B685B6803F00303022BD8
:1045500030D17B689B68BB61FB695B00032202FA78
:1045600003F3DB43BA691340BB613B68DA68FB695C
:104570005B0002FA03F3BA691343BB617B68BA6953
:104580009A607B685B68BB610122FB6902FA03F3F6
:10459000DB43BA691340BB613B685B681B0903F0EE
:1045A0000102FB6902FA03F3BA691343BB617B683A
:1045B000BA695A603B685B6803F00303032B17D0AA
:1045C0007B68DB68BB61FB695B00032202FA03F3D3
:1045D000DB43BA691340BB613B689A68FB695B00C7
:1045E00002FA03F3BA691343BB617B68BA69DA6004
:1045F0003B685B6803F00303022B23D1FB69DA08F5
:104600007B68083253F82230BB61FB6903F0070373
:104610009B000F2202FA03F3DB43BA691340BB612C
:104620003B681A69FB6903F007039B0002FA03F376
:10463000BA691343BB61FB69DA087B680832B96960
:1046400043F822107B681B68BB61FB695B00032297
:1046500002FA03F3DB43BA691340BB613B685B6852
:1046600003F00302FB695B0002FA03F3BA69134328
:10467000BB617B68BA691A603B685B6803F44033CE
:10468000002B00F0A2800023FB60574B5B6C564A66
:1046900043F480435364544B5B6C03F48043FB60EE
:1046A000FB68524AFB699B08023352F82330BB6116
:1046B000FB6903F003039B000F2202FA03F3DB43C1
:1046C000BA691340BB617B68494A934219D07B6841
:1046D000484A934213D07B68474A93420DD07B6887
:1046E000464A934207D07B68454A934201D104234E
:1046F00008E0072306E0032304E0022302E001238D
:1047000000E00023FA6902F0030292009340BA69C4
:104710001343BB613549FB699B080233BA6941F811
:104720002320384B9B68BB613B69DB43BA6913406C
:10473000BB613B685B6803F48013002B03D0BA694C
:104740003B691343BB612F4ABB6993602D4BDB6808
:10475000BB613B69DB43BA691340BB613B685B6883
:1047600003F40013002B03D0BA693B691343BB6108
:10477000244ABB69D360234B5B68BB613B69DB4365
:10478000BA691340BB613B685B6803F40033002BDC
:1047900003D0BA693B691343BB611A4ABB695360D2
:1047A000184B1B68BB613B69DB43BA691340BB61B3
:1047B0003B685B6803F48033002B03D0BA693B6924
:1047C0001343BB610F4ABB691360FB690133FB6193
:1047D000FB690F2B7FF6A2AE00BF00BF2437BD469A
:1047E0005DF8047B704700BF00380240003801408C
:1047F000000002400004024000080240000C024099
:1048000000100240003C014080B485B000AF7860E9
:104810000B467B807B681A697B881340002B02D093
:104820000123FB7301E00023FB73FB7B1846143765
:10483000BD465DF8047B704780B483B000AF7860FC
:104840000B467B8013467B707B78002B03D07A88E5
:104850007B689A6103E07B881A047B689A6100BFD9
:104860000C37BD465DF8047B7047000080B582B010
:1048700000AF0346FB80084B5A69FB881340002BAE
:1048800006D0054AFB885361FB881846FCF764FD97
:1048900000BF0837BD4680BD003C014080B584B0F4
:1048A00000AF78607B68002B01D101232BE17B688E
:1048B00093F83D30DBB2002B06D17B68002283F8F1
:1048C0003C207868FDF77CFF7B68242283F83D203C
:1048D0007B681B681A687B681B6822F001021A60FB
:1048E0007B681B681A687B681B6842F400421A6088
:1048F0007B681B681A687B681B6822F400421A6098
:1049000001F058F8F8607B685B68814A934207D8E9
:10491000FB68804A934294BF01230023DBB206E088
:10492000FB687D4A934294BF01230023DBB2002B36
:1049300001D00123E7E0FB68784AA2FB03239B0C2C
:10494000BB607B681B685B6823F03F017B681B686A
:10495000BA680A435A607B681B681B6A23F03F01F0
:104960007B685B686A4A934202D8BB68013309E0FE
:10497000BB684FF4967202FB03F3694AA2FB032360
:104980009B0901337A6812680B4313627B681B68CA
:10499000DB6923F44F4222F0FF027B685B685C49CD
:1049A0008B4219D8FB68591E7B685B685B00B1FBC2
:1049B000F3F3591C40F6FC730B40002B0AD0FB6844
:1049C000591E7B685B685B00B1FBF3F30133C3F3F3
:1049D0000B0351E004234FE07B689B68002B11D14F
:1049E000FB68581E7B6859680B465B000B44B0FBA4
:1049F000F3F30133C3F30B03002B0CBF012300239C
:104A0000DBB212E0FB68581E7B6859680B469B00BE
:104A10000B4499000B44B0FBF3F30133C3F30B03D6
:104A2000002B0CBF01230023DBB2002B01D001239C
:104A300022E07B689B68002B0ED1FB68581E7B68C8
:104A400059680B465B000B44B0FBF3F30133C3F32F
:104A50000B0343F400430FE0FB68581E7B68596862
:104A60000B469B000B4499000B44B0FBF3F301335E
:104A7000C3F30B0343F44043796809681343CB61E4
:104A80007B681B681B6823F0C0017B68DA697B6860
:104A90001B6A1A437B681B680A431A607B681B68A1
:104AA0009B6823F4034323F0FF037A6811697A6853
:104AB000D26811437A6812680B4393607B681B6865
:104AC000DB6823F0FF017B685A697B689B691A43A6
:104AD0007B681B680A43DA607B681B681A687B681E
:104AE0001B6842F001021A607B6800221A647B682E
:104AF000202283F83D207B6800221A637B68002215
:104B000083F83E20002318461037BD4680BD00BF05
:104B1000A08601007F841E00FF083D0083DE1B434A
:104B2000D34D621080B588B002AFF86008461146D8
:104B30001A4603467B810B463B811346FB80FFF7F9
:104B40002BF97861FB6893F83D30DBB2202B40F005
:104B5000D9807B690093192301226D49F86800F020
:104B600071F90346002B01D00223CCE0FB6893F8D7
:104B70003C30012B01D10223C5E0FB68012283F800
:104B80003C20FB681B681B6803F00103012B07D066
:104B9000FB681B681A68FB681B6842F001021A6018
:104BA000FB681B681A68FB681B6822F400621A60C5
:104BB000FB68212283F83D20FB68402283F83E20D9
:104BC000FB6800221A64FB683A6A5A62FB68BA8C76
:104BD0005A85FB685B8D9AB2FB681A85FB684D4A63
:104BE000DA62F8883A8979897B690193BB6A009314
:104BF0000346F86800F090F80346002B52D00123DA
:104C000081E07A69B96AF86800F0F2F90346002B8E
:104C10000DD0FB681B6C042B07D1FB681B681A685E
:104C2000FB681B6842F400721A6001236BE0FB68AA
:104C30005B6A1A78FB681B681A61FB685B6A5A1C1E
:104C4000FB685A62FB681B8D013B9AB2FB681A85B0
:104C5000FB685B8D9BB2013B9AB2FB685A85FB688F
:104C60001B685B6903F00403042B1BD1FB681B8DDD
:104C7000002B17D0FB685B6A1A78FB681B681A6107
:104C8000FB685B6A5A1CFB685A62FB681B8D013B20
:104C90009AB2FB681A85FB685B8D9BB2013B9AB2A6
:104CA000FB685A85FB681B8D002BAAD17A69B96A0B
:104CB000F86800F0DEF90346002B0DD0FB681B6C92
:104CC000042B07D1FB681B681A68FB681B6842F459
:104CD00000721A60012316E0FB681B681A68FB6803
:104CE0001B6842F400721A60FB68202283F83D20A2
:104CF000FB68002283F83E20FB68002283F83C20FA
:104D0000002300E0022318461837BD4680BD00BFCF
:104D1000020010000000FFFF80B588B002AFF8600D
:104D2000084611461A4603467B810B463B811346D3
:104D3000FB80FB681B681A68FB681B6842F4807282
:104D40001A607B6A00933B6A00224FF00111F868F9
:104D500000F078F80346002B0DD0FB681B681B6839
:104D600003F48073B3F5807F03D1FB684FF40072C6
:104D70001A6403235FE07B89DBB21A46FB681B6879
:104D800002F0FE021A617B6A3A6A2D49F86800F067
:104D9000B0F80346002B01D001234CE000237B61D7
:104DA000FB681B685B697B61FB681B689B697B61B7
:104DB0007B697A6A396AF86800F01AF90346002BB1
:104DC0000DD0FB681B6C042B07D1FB681B681A68AD
:104DD000FB681B6842F400721A6001232BE0FB8819
:104DE000012B05D13B89DAB2FB681B681A6121E00F
:104DF0003B891B0A9BB2DAB2FB681B681A617A6AAC
:104E0000396AF86800F0F4F80346002B0DD0FB680F
:104E10001B6C042B07D1FB681B681A68FB681B68B6
:104E200042F400721A60012305E03B89DAB2FB68A4
:104E30001B681A61002318461837BD4680BD00BFA5
:104E40000200010080B584B000AFF860B9603B603B
:104E50001346FB7125E03B68B3F1FF3F21D0FEF71D
:104E60009BFF0246BB69D31A3A689A4202D33B6859
:104E7000002B16D1FB6800221A63FB68202283F8FE
:104E80003D20FB68002283F83E20FB681B6C43F04A
:104E90002002FB681A64FB68002283F83C2001238F
:104EA00023E0BB681B0CDBB2012B0DD1FB681B6838
:104EB0005B69DA43BB6813409BB2002B0CBF012334
:104EC0000023DBB21A460CE0FB681B689B69DA43DF
:104ED000BB6813409BB2002B0CBF01230023DBB245
:104EE0001A46FB799A42B6D0002318461037BD46C1
:104EF00080BD80B584B000AFF860B9607A603B6077
:104F000051E0FB681B685B6903F48063B3F5806F55
:104F100023D1FB681B681A68FB681B6842F40072A7
:104F20001A60FB681B686FF480625A61FB6800229C
:104F30001A63FB68202283F83D20FB68002283F877
:104F40003E20FB681B6C43F00402FB681A64FB689C
:104F5000002283F83C20012346E07B68B3F1FF3F49
:104F600021D0FEF719FF02463B68D31A7A689A42AD
:104F700002D37B68002B16D1FB6800221A63FB6802
:104F8000202283F83D20FB68002283F83E20FB6846
:104F90001B6C43F02002FB681A64FB68002283F854
:104FA0003C20012320E0BB681B0CDBB2012B0CD1A1
:104FB000FB681B685B69DA43BB6813409BB2002B3C
:104FC00014BF01230023DBB20BE0FB681B689B6965
:104FD000DA43BB6813409BB2002B14BF01230023AC
:104FE000DBB2002B8DD1002318461037BD4680BDA3
:104FF00080B584B000AFF860B9607A602DE0F868E1
:1050000000F078F80346002B01D001232DE0BB68A7
:10501000B3F1FF3F21D0FEF7BFFE02467B68D31AF3
:10502000BA689A4202D3BB68002B16D1FB680022F3
:105030001A63FB68202283F83D20FB68002283F876
:105040003E20FB681B6C43F02002FB681A64FB687F
:10505000002283F83C20012307E0FB681B685B69A2
:1050600003F08003802BCAD1002318461037BD46B9
:1050700080BD80B584B000AFF860B9607A602DE083
:10508000F86800F037F80346002B01D001232DE02B
:10509000BB68B3F1FF3F21D0FEF77EFE02467B687E
:1050A000D31ABA689A4202D3BB68002B16D1FB68A8
:1050B00000221A63FB68202283F83D20FB6800224F
:1050C00083F83E20FB681B6C43F02002FB681A64E7
:1050D000FB68002283F83C20012307E0FB681B6883
:1050E0005B6903F00403042BCAD100231846103770
:1050F000BD4680BD80B483B000AF78607B681B681C
:105100005B6903F48063B3F5806F1BD17B681B6818
:105110006FF480625A617B6800221A637B682022E8
:1051200083F83D207B68002283F83E207B681B6C5F
:1051300043F004027B681A647B68002283F83C20F9
:10514000012300E0002318460C37BD465DF8047BC0
:105150007047000080B586B000AF78607B68002B98
:1051600001D1012367E27B681B6803F00103002B78
:1051700075D0884B9B6803F00C03042B0CD0854B37
:105180009B6803F00C03082B12D1824B5B6803F47D
:105190008003B3F5800F0BD17E4B1B6803F4003303
:1051A000002B5BD07B685B68002B57D1012342E268
:1051B0007B685B68B3F5803F06D1764B1B68754A08
:1051C00043F4803313601DE07B685B68B3F5A02F68
:1051D0000CD1704B1B686F4A43F4802313606D4BF6
:1051E0001B686C4A43F4803313600BE0694B1B6807
:1051F000684A23F480331360664B1B68654A23F4C6
:10520000802313607B685B68002B13D0FEF7C4FD1E
:10521000386108E0FEF7C0FD02463B69D31A642BF3
:1052200001D9032307E25B4B1B6803F40033002B17
:10523000F0D014E0FEF7B0FD386108E0FEF7ACFDF9
:1052400002463B69D31A642B01D90323F3E1514B86
:105250001B6803F40033002BF0D100E000BF7B6833
:105260001B6803F00203002B63D04A4B9B6803F0DA
:105270000C03002B0BD0474B9B6803F00C03082B4F
:105280001CD1444B5B6803F48003002B16D1414BC7
:105290001B6803F00203002B05D07B68DB68012B41
:1052A00001D00123C7E13B4B1B6823F0F8027B6868
:1052B0001B69DB00374913430B603AE07B68DB680E
:1052C000002B20D0344B01221A60FEF765FD3861B7
:1052D00008E0FEF761FD02463B69D31A022B01D9B3
:1052E0000323A8E12B4B1B6803F00203002BF0D033
:1052F000284B1B6823F0F8027B681B69DB002549FB
:1053000013430B6015E0244B00221A60FEF744FDA6
:10531000386108E0FEF740FD02463B69D31A022BD4
:1053200001D9032387E11B4B1B6803F00203002B09
:10533000F0D17B681B6803F00803002B36D07B6834
:105340005B69002B16D0154B01221A60FEF724FD75
:10535000386108E0FEF720FD02463B69D31A022BB4
:1053600001D9032367E10B4B5B6F03F00203002BB2
:10537000F0D01BE0094B00221A60FEF70DFD3861EA
:105380000EE0FEF709FD02463B69D31A022B07D94E
:10539000032350E10038024000004742800E47429C
:1053A000884B5B6F03F00203002BEAD17B681B681C
:1053B00003F00403002B00F097800023FB75814B62
:1053C0001B6C03F08053002B0FD10023BB607D4B7F
:1053D0001B6C7C4A43F0805313647A4B1B6C03F0C4
:1053E0008053BB60BB680123FB75774B1B6803F4DC
:1053F0008073002B18D1744B1B68734A43F480737D
:105400001360FEF7C9FC386108E0FEF7C5FC0246F0
:105410003B69D31A022B01D903230CE16A4B1B68A9
:1054200003F48073002BF0D07B689B68012B06D1BE
:10543000644B1B6F634A43F0010313671CE07B68F6
:105440009B68052B0CD15F4B1B6F5E4A43F0040336
:1054500013675C4B1B6F5B4A43F0010313670BE060
:10546000584B1B6F574A23F001031367554B1B6FB3
:10547000544A23F0040313677B689B68002B15D004
:10548000FEF78AFC38610AE0FEF786FC02463B69BB
:10549000D31A41F28832934201D90323CBE0494B1E
:1054A0001B6F03F00203002BEED014E0FEF774FC38
:1054B00038610AE0FEF770FC02463B69D31A41F2FC
:1054C0008832934201D90323B5E03E4B1B6F03F0B2
:1054D0000203002BEED1FB7D012B05D1394B1B6C58
:1054E000384A23F0805313647B689B69002B00F0DB
:1054F000A180344B9B6803F00C03082B5CD07B68C5
:105500009B69022B41D1314B00221A60FEF744FC0B
:10551000386108E0FEF740FC02463B69D31A022BD3
:1055200001D9032387E0274B1B6803F00073002B8E
:10553000F0D17B68DA697B681B6A1A437B685B6A17
:105540009B011A437B689B6A5B08013B1B041A435F
:105550007B68DB6A1B061B4913434B601B4B012214
:105560001A60FEF719FC386108E0FEF715FC0246E8
:105570003B69D31A022B01D903235CE0114B1B6852
:1055800003F00073002BF0D054E0104B00221A609F
:10559000FEF702FC386108E0FEF7FEFB02463B69BD
:1055A000D31A022B01D9032345E0064B1B6803F0F5
:1055B0000073002BF0D13DE07B689B69012B07D184
:1055C000012338E00038024000700040600047428C
:1055D0001B4B5B68FB607B689B69012B28D0FB68D9
:1055E00003F480027B68DB699A4221D1FB6803F0F7
:1055F0003F027B681B6A9A421AD1FA6847F6C07369
:1056000013407A68526A9201934211D1FB6803F405
:1056100040327B689B6A5B08013B1B049A4207D1BE
:10562000FB6803F070627B68DB6A1B069A4201D05C
:10563000012300E0002318461837BD4680BD00BF97
:105640000038024080B584B000AF786039607B6874
:10565000002B01D10123CCE0684B1B6803F007034A
:105660003A689A420CD9654B3A68D2B21A70634BC9
:105670001B6803F007033A689A4201D00123B8E09F
:105680007B681B6803F00203002B20D07B681B683B
:1056900003F00403002B05D0594B9B68584A43F490
:1056A000E05393607B681B6803F00803002B05D070
:1056B000534B9B68524A43F460439360504B9B6842
:1056C00023F0F0027B689B684D4913438B607B6835
:1056D0001B6803F00103002B44D07B685B68012B3F
:1056E00007D1474B1B6803F40033002B19D101236A
:1056F0007FE07B685B68022B03D07B685B68032BD1
:1057000007D13F4B1B6803F00073002B09D1012325
:105710006FE03B4B1B6803F00203002B01D1012318
:1057200067E0374B9B6823F003027B685B68344972
:1057300013438B60FEF730FBF8600AE0FEF72CFBAA
:105740000246FB68D31A41F28832934201D90323FF
:105750004FE02B4B9B6803F00C027B685B689B005F
:105760009A42EBD1254B1B6803F007033A689A4233
:105770000CD2224B3A68D2B21A70204B1B6803F04D
:1057800007033A689A4201D0012332E07B681B6824
:1057900003F00403002B08D0194B9B6823F4E0525C
:1057A0007B68DB68164913438B607B681B6803F0DA
:1057B0000803002B09D0124B9B6823F460427B68DE
:1057C0001B69DB000E4913438B6000F021F8024691
:1057D0000B4B9B681B0903F00F030A49CB5C22FAB1
:1057E00003F3094A1360094B1B681846FEF790FA49
:1057F000002318461037BD4680BD00BF003C024064
:105800000038024018D600085C06002084060020FC
:105810002DE9B04F90B000AF00237B630023FB6302
:1058200000233B630023BB63594B9B6803F00C03CD
:10583000082B0DD0082B00F2A180002B02D0042BE6
:1058400003D09BE0534BBB639BE0534BBB6398E09F
:105850004F4B5B6803F03F037B634D4B5B6803F486
:105860008003002B28D04A4B5B689B0900223B62D7
:105870007A623B6AC3F308000021474B03FB01F245
:10588000002300FB03F31344434AA0FB0212FA6215
:105890000A46BA62FA6A1344FB627B6B0022BB6160
:1058A000FA61D7E90623D7E90A01FBF7A5F9024611
:1058B0000B461346FB6353E0354B5B689B090022A4
:1058C0003B617A613B69C3F3080A4FF0000B524613
:1058D0005B464FF000004FF00001590141EAD261F0
:1058E000500102460B46B2EB0A0863EB0B094FF07E
:1058F00000024FF000034FEA891343EA98634FEA2E
:105900008812B2EB080463EB09054FF000024FF078
:105910000003EB0043EA5473E20014461D4614EB07
:105920000A033B6045EB0B037B604FF000024FF036
:105930000003D7E9004529468B02214643EA9153EB
:1059400021468A02104619467B6B0022BB60FA6032
:10595000D7E90223FBF750F902460B461346FB63D7
:105960000B4B5B681B0C03F0030301335B003B63D1
:10597000FA6B3B6BB2FBF3F3BB6302E0054BBB631B
:1059800000BFBB6B18464037BD46BDE8B08F00BFB7
:10599000003802400024F40040787D0180B400AF5C
:1059A000034B1B681846BD465DF8047B704700BF7B
:1059B0005C06002080B500AFFFF7F0FF0246054B04
:1059C0009B689B0A03F007030349CB5C22FA03F3AD
:1059D000184680BD0038024028D6000880B500AFC8
:1059E000FFF7DCFF0246054B9B685B0B03F00703E8
:1059F0000349CB5C22FA03F3184680BD003802400D
:105A000028D6000880B582B000AF78607B68002B94
:105A100001D101237BE07B685B6A002B08D17B68A6
:105A20005B68B3F5827F09D07B680022DA6105E00C
:105A30007B6800221A617B6800225A617B68002221
:105A40009A627B6893F85130DBB2002B06D17B68F9
:105A5000002283F850207868FCF740FF7B68022220
:105A600083F851207B681B681A687B681B6822F0EA
:105A700040021A607B685B6803F482727B689B68F3
:105A800003F404431A437B68DB6803F400631A439E
:105A90007B681B6903F002031A437B685B6903F0B0
:105AA00001031A437B689B6903F400731A437B6804
:105AB000DB6903F038031A437B681B6A03F0800339
:105AC00042EA03017B689B6A03F400527B681B680F
:105AD0000A431A607B689B691B0C03F004017B6816
