:020000040800F2
:1000000000000220A91F0008691D00086F1D0008DC
:10001000751D00087B1D0008811D00080000000000
:10002000000000000000000000000000871D000824
:10003000951D000800000000A31D0008B11D000868
:10004000F91F0008F91F0008F91F0008F91F000830
:10005000F91F0008F91F0008F91F0008F91F000820
:10006000F91F0008F91F0008F91F0008F91F000810
:10007000F91F0008F91F0008F91F0008F91F000800
:10008000F91F0008F91F0008F91F00080000000010
:10009000000000000000000000000000BD1D00087E
:1000A000F91F0008F91F0008CD1D0008F91F0008FE
:1000B000F91F0008F91F0008F91F0008F91F0008C0
:1000C000F91F0008F91F0008F91F0008F91F0008B0
:1000D000F91F0008F91F0008F91F000800000000C0
:1000E000E91D0008F91F0008F91F000800000000C2
:1000F000000000000000000000000000F91F0008E0
:1001000000000000F91F0008F91F0008F91F00088F
:1001100000000000000000000000000000000000DF
:10012000F91F0008F91F0008F91F0008F91F00084F
:10013000F91F00080000000000000000000000009F
:10014000000000000000000000000000F91F00088F
:10015000F91F0008F91F0008F91F0008F91F00081F
:10016000F91F0008F91F000800000000000000004F
:10017000000000000000000000000000000000007F
:1001800000000000F91F000800000000000000004F
:08019000F91F0008F91F000827
:1001A00010B5054C237833B9044B13B10448AFF3B1
:1001B00000800123237010BD3407002000000000E0
:1001C000D880000808B5034B1BB103490348AFF3BF
:1001D000008008BD0000000038070020D88000081B
:1001E00001F0FF01102A2BDB10F0070F08D010F8E8
:1001F000013B013A8B422DD010F0070F42B3F6D1EC
:10020000F0B441EA012141EA014122F007047FF004
:1002100000070023F0E80256083C85EA010586EA5B
:10022000010685FA47F5A3FA87F586FA47F6A5FA97
:1002300087F68EB9EED1F0BC01F0FF0102F00702A3
:1002400032B110F8013B013A83EA010313B1F8D14E
:100250000020704701387047002D06BF354603382F
:10026000073815F0010F07D1013015F4807F02BF68
:10027000013015F4C03F0130F0BC0138704700BFB9
:10028000034613F8012B002AFBD1181A01387047D6
:1002900081F0004102E000BF83F0004330B54FEA37
:1002A00041044FEA430594EA050F08BF90EA020FA4
:1002B0001FBF54EA000C55EA020C7FEA645C7FEA37
:1002C000655C00F0E2804FEA5454D4EB5555B8BF5A
:1002D0006D420CDD2C4480EA020281EA030382EACB
:1002E000000083EA010180EA020281EA0303362D5D
:1002F00088BF30BD11F0004F4FEA01314FF4801C30
:100300004CEA113102D0404261EB410113F0004F41
:100310004FEA03334CEA133302D0524263EB4303F8
:1003200094EA050F00F0A780A4F10104D5F1200E96
:100330000DDB02FA0EFC22FA05F2801841F10001F1
:1003400003FA0EF2801843FA05F359410EE0A5F1C5
:1003500020050EF1200E012A03FA0EFC28BF4CF0F6
:10036000020C43FA05F3C01851EBE37101F00045AC
:1003700007D54FF0000EDCF1000C7EEB00006EEBB9
:100380000101B1F5801F1BD3B1F5001F0CD3490843
:100390005FEA30004FEA3C0C04F101044FEA44529A
:1003A00012F5800F80F09A80BCF1004F08BF5FEA21
:1003B000500C50F1000041EB045141EA050130BD01
:1003C0005FEA4C0C404141EB0101013C28BFB1F513
:1003D000801FE9D291F0000F04BF01460020B1FA5E
:1003E00081F308BF2033A3F10B03B3F120020CDA31
:1003F0000C3208DD02F1140CC2F10C0201FA0CF00F
:1004000021FA02F10CE002F11402D8BFC2F1200C73
:1004100001FA02F120FA0CFCDCBF41EA0C01904029
:10042000E41AA2BF01EB0451294330BD6FEA040472
:100430001F3C1CDA0C340EDC04F11404C4F120025D
:1004400020FA04F001FA02F340EA030021FA04F36F
:1004500045EA030130BDC4F10C04C4F1200220FAC6
:1004600002F001FA04F340EA0300294630BD21FA04
:1004700004F0294630BD94F0000F83F4801306BFCA
:1004800081F480110134013D4EE77FEA645C18BFBE
:100490007FEA655C29D094EA050F08BF90EA020F55
:1004A00005D054EA000C04BF1946104630BD91EA4D
:1004B000030F1EBF0021002030BD5FEA545C05D150
:1004C0004000494128BF41F0004130BD14F580048F
:1004D0003CBF01F5801130BD01F0004545F0FE4103
:1004E00041F470014FF0000030BD7FEA645C1ABF38
:1004F000194610467FEA655C1CBF0B46024650EA6F
:10050000013406BF52EA033591EA030F41F400219A
:1005100030BD00BF90F0000F04BF0021704730B520
:100520004FF4806404F132044FF000054FF00001F5
:1005300050E700BF90F0000F04BF0021704730B5B6
:100540004FF4806404F1320410F0004548BF40428B
:100550004FF000013EE700BF42004FEAE2014FEAE0
:1005600031014FEA02701FBF12F07F4393F07F4FBB
:1005700081F06051704732F07F4208BF704793F0BE
:100580007F4F04BF41F40021704730B54FF46074D1
:1005900001F0004521F000411CE700BF50EA0102D4
:1005A00008BF704730B54FF000050AE050EA01027D
:1005B00008BF704730B511F0004502D5404261EBED
:1005C00041014FF4806404F132045FEA915C3FF42E
:1005D000D8AE4FF003025FEADC0C18BF03325FEACB
:1005E000DC0C18BF033202EBDC02C2F1200300FA7C
:1005F00003FC20FA02F001FA03FE40EA0E0021FAA1
:1006000002F11444BDE600BF70B54FF0FF0C4CF48E
:10061000E06C1CEA11541DBF1CEA135594EA0C0F40
:1006200095EA0C0F00F0DEF82C4481EA030621EA7B
:100630004C5123EA4C5350EA013518BF52EA0335B6
:1006400041F4801143F4801338D0A0FB02CE4FF068
:100650000005E1FB02E506F00042E0FB03E54FF098
:100660000006E1FB03569CF0000F18BF4EF0010E90
:10067000A4F1FF04B6F5007F64F5407404D25FEA8C
:100680004E0E6D4146EB060642EAC62141EA55513F
:100690004FEAC52040EA5E504FEACE2EB4F1FD0C81
:1006A00088BFBCF5E06F1ED8BEF1004F08BF5FEAFF
:1006B000500E50F1000041EB045170BD06F00046B1
:1006C00046EA010140EA020081EA0301B4EB5C045E
:1006D000C2BFD4EB0C0541EA045170BD41F4801156
:1006E0004FF0000E013C00F3AB8014F1360FDEBF7B
:1006F000002001F0004170BDC4F10004203C35DA57
:100700000C341BDC04F11404C4F1200500FA05F3D9
:1007100020FA04F001FA05F240EA020001F000427A
:1007200021F0004110EBD37021FA04F642EB0601F0
:100730005EEA430E08BF20EAD37070BDC4F10C041A
:10074000C4F1200500FA04F320FA05F001FA04F2DE
:1007500040EA020001F0004110EBD37041F10001CA
:100760005EEA430E08BF20EAD37070BDC4F12005D5
:1007700000FA05F24EEA020E20FA04F301FA05F23D
:1007800043EA020321FA04F001F0004121FA04F2E5
:1007900020EA020000EBD3705EEA430E08BF20EAB5
:1007A000D37070BD94F0000F0FD101F000464000EF
:1007B00041EB010111F4801F08BF013CF7D041EA71
:1007C000060195F0000F18BF704703F00046520075
:1007D00043EB030313F4801F08BF013DF7D043EA46
:1007E0000603704794EA0C0F0CEA135518BF95EAFC
:1007F0000C0F0CD050EA410618BF52EA4306D1D183
:1008000081EA030101F000414FF0000070BD50EAA1
:10081000410606BF1046194652EA430619D094EA2B
:100820000C0F02D150EA013613D195EA0C0F05D115
:1008300052EA03361CBF104619460AD181EA030169
:1008400001F0004141F0FE4141F470014FF0000021
:1008500070BD41F0FE4141F4780170BD70B54FF0BC
:10086000FF0C4CF4E06C1CEA11541DBF1CEA13553C
:1008700094EA0C0F95EA0C0F00F0A7F8A4EB05041E
:1008800081EA030E52EA03354FEA013100F0888015
:100890004FEA03334FF0805545EA131343EA1263DE
:1008A0004FEA022245EA111545EA10654FEA002693
:1008B0000EF000419D4208BF964244F1FD0404F54C
:1008C000407402D25B084FEA3202B61A65EB0305A8
:1008D0005B084FEA32024FF480104FF4002CB6EB65
:1008E000020E75EB030E22BFB61A754640EA0C00E5
:1008F0005B084FEA3202B6EB020E75EB030E22BF25
:10090000B61A754640EA5C005B084FEA3202B6EB65
:10091000020E75EB030E22BFB61A754640EA9C0024
:100920005B084FEA3202B6EB020E75EB030E22BFF4
:10093000B61A754640EADC0055EA060E18D04FEAB2
:10094000051545EA16754FEA06164FEAC30343EA52
:1009500052734FEAC2025FEA1C1CC0D111F4801F1F
:100960000BD141EA00014FF000004FF0004CB6E718
:1009700011F4801F04BF01430020B4F1FD0C88BFB7
:10098000BCF5E06F3FF6AFAEB5EB030C04BFB6EBC2
:10099000020C5FEA500C50F1000041EB045170BDB5
:1009A0000EF0004E4EEA113114EB5C04C2BFD4EBE2
:1009B0000C0541EA045170BD41F480114FF0000E66
:1009C000013C90E645EA060E8DE60CEA135594EAE2
:1009D0000C0F08BF95EA0C0F3FF43BAF94EA0C0FE5
:1009E0000AD150EA01347FF434AF95EA0C0F7FF45A
:1009F00025AF104619462CE795EA0C0F06D152EAAE
:100A000003353FF4FDAE1046194622E750EA410691
:100A100018BF52EA43067FF4C5AE50EA41047FF4A2
:100A20000DAF52EA43057FF4EBAE12E74FF0FF3C07
:100A300006E000BF4FF0010C02E000BF4FF0010CD8
:100A40004DF804CD4FEA410C7FEA6C5C4FEA430C51
:100A500018BF7FEA6C5C1BD001B050EA410C0CBFA0
:100A600052EA430C91EA030F02BF90EA020F002002
:100A7000704710F1000F91EA030F58BF994208BF69
:100A800090422CBFD8176FEAE37040F00100704726
:100A90004FEA410C7FEA6C5C02D150EA013C07D17D
:100AA0004FEA430C7FEA6C5CD6D152EA033CD3D0C8
:100AB0005DF8040B704700BF8446104662468C46C2
:100AC0001946634600E000BF01B5FFF7B7FF0028F5
:100AD00048BF10F1000F01BD4DF808EDFFF7F4FF1E
:100AE0000CBF012000205DF808FB00BF4DF808EDA9
:100AF000FFF7EAFF34BF012000205DF808FB00BFCC
:100B00004DF808EDFFF7E0FF94BF012000205DF8ED
:100B100008FB00BF4DF808EDFFF7CEFF94BF0120A2
:100B200000205DF808FB00BF4DF808EDFFF7C4FF9B
:100B300034BF012000205DF808FB00BF4FEA410CE4
:100B40007FEA6C5C02D150EA013C0AD14FEA430CC7
:100B50007FEA6C5C02D152EA033C02D14FF0000004
:100B600070474FF0010070474FEA410212F5001242
:100B700015D211D56FF47873B3EB625212D94FEAE4
:100B8000C12343F0004343EA505311F0004F23FACE
:100B900002F018BF404270474FF00000704750EA23
:100BA000013005D111F0004008BF6FF000407047E0
:100BB0004FF00000704700BF53B94AB9002908BF81
:100BC00000281CBF4FF0FF314FF0FF3000F070B92C
:100BD000ADF1080C6DE904CE00F006F8DDF804E094
:100BE000DDE9022304B070472DE9F047089E0D4669
:100BF00004460F46002B4AD18A42944665D9B2FA80
:100C000082F343B102FA03FCC3F120029F4020FAB1
:100C100002F217439C404FEA1C4E1FFA8CF5B7FBBB
:100C2000FEF1220C0EFB117742EA074201FB05F0B0
:100C300090420AD91CEB020201F1FF3780F01C81BF
:100C4000904240F2198102396244121AA4B2B2FBF6
:100C5000FEF00EFB102244EA024400FB05F5A5421B
:100C60000AD91CEB040400F1FF3280F00781A54291
:100C700040F204816444023840EA0140641B0021D0
:100C80001EB1DC400023C6E90043BDE8F0878B427B
:100C900008D9002E00F0ED800021C6E900050846C5
:100CA000BDE8F087B3FA83F1002949D1AB4202D302
:100CB000824200F2F880841A65EB03020120174695
:100CC000002EE2D0C6E90047DFE702B9FFDEB2FA44
:100CD00082F3002B40F090808A1A4FEA1C471FFADB
:100CE0008CFE0121B2FBF7F507FB1520220C42EA2E
:100CF00000420EFB05F0904208D91CEB020205F100
:100D0000FF3802D2904200F2CB804546121AA4B2BC
:100D1000B2FBF7F007FB102244EA02440EFB00FE90
:100D2000A64508D91CEB040400F1FF3202D2A64507
:100D300000F2BB801046A4EB0E0440EA05409FE79A
:100D4000C1F120078B4022FA07FC4CEA030C05FA9C
:100D500001F420FA07F3FD404FEA1C492343B5FB99
:100D6000F9F81FFA8CFE09FB18551C0C44EA0544DF
:100D700008FB0EF5A54202FA01F200FA01F00BD9C8
:100D80001CEB040408F1FF3A80F08880A54240F291
:100D90008580A8F102086444641B9DB2B4FBF9F39A
:100DA00009FB134445EA044403FB0EFEA64508D99B
:100DB0001CEB040403F1FF356CD2A6456AD9023B53
:100DC000644443EA0843A3FB0295A4EB0E04AC423F
:100DD000C846AE4656D353D056B1B0EB080264EBCA
:100DE0000E0404FA07F7CA40CC401743C6E9007462
:100DF00018460021BDE8F087C3F1200102FA03FC88
:100E000020FA01F225FA01F19D402A434FEA1C47DE
:100E10001FFA8CFEB1FBF7F007FB1015110C41EA2D
:100E2000054100FB0EF58D4204FA03F408D91CEBD2
:100E3000010100F1FF382FD28D422DD902386144D3
:100E4000491B92B2B1FBF7F507FB151142EA0142CB
:100E500005FB0EF1914208D91CEB020205F1FF38A7
:100E600016D2914214D9023D6244521A45EA004119
:100E700038E73146304608E73946E6E61046FBE6F5
:100E80004845A9D2B9EB020865EB0C0E013BA3E77C
:100E90004546EAE72B4694E74046D1E7D0467BE754
:100EA000023D624432E708460AE76444023842E7FA
:100EB000704700BF80B483B000AF03460A46FB8092
:100EC0001346BB80074B1B681B68BA88DA62054B68
:100ED0001B68BA88DA6000BF0C37BD465DF8047B3A
:100EE000704700BF5007002080B483B000AF0346B6
:100EF000FB80054B1B681B68FA885A6200BF0C37E1
:100F0000BD465DF8047B70475007002080B400AFF9
:100F1000044B1B681B685B6A1846BD465DF8047B82
:100F2000704700BF5007002080B483B000AF7860E6
:100F3000044A7B68136000BF0C37BD465DF8047B34
:100F4000704700BF5007002080B582B000AF034655
:100F5000FB80FFF7DBFF0246B7F906309A4201D16A
:100F6000012300E0002318460837BD4680BD80B548
:100F700082B000AF0346FB80FFF7C8FF0246B7F917
:100F800006309A4206D100F081F80346002B01D0CA
:100F9000012300E0002318460837BD4680BD00004D
:100FA00080B582B000AF78607B681B680A4A9342C4
:100FB0000DD1786803F08CFA4FF48071074801F086
:100FC000F5FF0346002B02D1054B01221A7000BF2A
:100FD0000837BD4680BD00BF004801400004024004
:100FE000B809002080B483B000AF7860084B1B685C
:100FF00000225A6200BF064B1B685B6A7A689A42FD
:10100000F9D800BF00BF0C37BD465DF8047B7047C0
:10101000E408002080B582B000AF00220221114810
:1010200001F0DCFF4FF4F070FFF7DCFF012202213A
:101030000C4801F0D3FF4620FFF7D4FF02210948F6
:1010400001F0B4FF03467B604FF4CD70FFF7CAFF99
:101050007B68002B01D1002300E0012318460837EC
:10106000BD4680BD0004024080B582B000AF03469B
:10107000FB80FB88B3F5807F02D1034803F0C6F9FB
:1010800000BF0837BD4680BD2C09002080B400AFEA
:10109000074B93F90030012B04D1054B00221A7045
:1010A000012300E000231846BD465DF8047B70472D
:1010B000B809002080B400AF00BFBD465DF8047BD6
:1010C0007047000080B582B000AF01F0D1F900F0A8
:1010D0004DF800F05FFA00F0B1F800F001F900F00F
:1010E0002DF900F059F900F08DF900F029FA00F01F
:1010F000DFF900F001FA1848FFF716FF174803F070
:101100002BF900F013FCFFF785FF3C21124803F098
:10111000B4FA114B1B685B6ABB8097F907301BB2AE
:10112000B7F904209A4213D0B7F904301A460C4993
:101130000C4804F073FE0B48FFF7A2F803469AB27E
:101140004FF0FF330749084803F0CBFDBB88FB7124
:1011500000F0C4FBDDE700BF9C080020E40800208D
:10116000F0800008BC0900207409002080B594B00C
:1011700000AF07F1200330220021184604F0CBFE17
:1011800007F10C0300221A605A609A60DA601A6153
:101190000023BB60274B1B6C264A43F0805313642B
:1011A000244B1B6C03F08053BB60BB6800237B6047
:1011B000214B1B68204A43F4404313601E4B1B68BD
:1011C00003F440437B607B6802233B620123FB62A4
:1011D00010233B630223BB630023FB6308233B64B0
:1011E00050237B640223BB640423FB6407F12003C8
:1011F000184602F081FB0346002B01D000F06EFA86
:101200000F23FB6002233B6100237B614FF480537B
:10121000BB610023FB6107F10C030221184602F0B9
:10122000E3FD0346002B01D000F058FA00BF503711
:10123000BD4680BD003802400070004080B584B0DB
:1012400000AF3B4600221A605A609A60DA60214B78
:10125000214A1A601F4B4FF480325A601D4B002206
:101260009A601C4B00221A611A4B00221A76194B05
:10127000002283F82020174B0022DA62154B174A10
:101280009A62144B0022DA60124B0122DA61114B90
:10129000002283F830200F4B01225A610D4801F0E3
:1012A0007DF90346002B01D000F018FA00233B60C3
:1012B00001237B600023BB603B461946054801F0D3
:1012C000B1F90346002B01D000F008FA00BF103737
:1012D000BD4680BD54070020002001400100000FE2
:1012E00080B500AF124B134A1A60114B124A5A6074
:1012F0000F4B00229A600E4B0022DA600C4B4FF429
:1013000080421A610A4B00225A61094B00229A61FD
:10131000074B0022DA61064B00221A62044801F0F2
:101320008FFE0346002B01D000F0D8F900BF80BD2E
:101330009C07002000540040A086010080B500AF4B
:10134000124B134A1A60114B124A5A600F4B00227B
:101350009A600E4B0022DA600C4B4FF480421A6107
:101360000A4B00225A61094B00229A61074B002266
:10137000DA61064B00221A62044801F061FE03465E
:10138000002B01D000F0AAF900BF80BDF0070020BB
:1013900000580040A086010080B500AF174B184AE6
:1013A0001A60164B4FF482725A60144B00229A60F6
:1013B000124B0022DA60114B00221A610F4B0022FF
:1013C0005A610E4B4FF400729A610C4B0022DA61A5
:1013D0000A4B00221A62094B00225A62074B002274
:1013E0009A62064B0A22DA62044802F0DDFE0346E6
:1013F000002B01D000F072F900BF80BD440800202E
:101400000030014080B58CB000AF07F10C032422FE
:101410000021184604F07FFD3B1D00221A605A602F
:10142000214B224A1A60204B00225A601E4B002298
:101430009A601D4B2822DA601B4B00221A611A4B5E
:1014400000225A61184B00229A610123FB6000239D
:101450003B6101237B610023BB610F23FB61002300
:101460003B6201237B620023BB620023FB6207F126
:101470000C0319460C4803F05AF80346002B01D020
:1014800000F02CF900237B600023BB603B1D194654
:10149000054803F057FB0346002B01D000F01EF96E
:1014A00000BF3037BD4680BD9C08002000000140D1
:1014B00080B500AF0E4B0F4A1A600D4B4F225A6099
:1014C0000B4B00229A600A4B4FF6FF72DA60084B12
:1014D00000221A61064B00229A61054802F0EDFED7
:1014E0000346002B01D000F0F9F800BF80BD00BF1B
:1014F000E40800200044014080B500AF0E4B0F4AC5
:101500001A600D4B0A225A600B4B00229A600A4B5C
:101510004FF6FF72DA60084B00221A61064B002278
:101520009A61054802F0C9FE0346002B01D000F085
:10153000D5F800BF80BD00BF2C0900200048014045
:1015400080B500AF114B124A1A60104B4FF4E132D4
:101550005A600E4B00229A600C4B0022DA600B4B53
:1015600000221A61094B0C225A61084B00229A6131
:10157000064B0022DA61054803F066FB0346002BA8
:1015800001D000F0ABF800BF80BD00BF740900209F
:101590000014014080B588B000AF07F10C030022B1
:1015A0001A605A609A60DA601A610023BB60474B88
:1015B0001B6B464A43F004031363444B1B6B03F05D
:1015C0000403BB60BB6800237B60404B1B6B3F4A3E
:1015D00043F0010313633D4B1B6B03F001037B607E
:1015E0007B6800233B60394B1B6B384A43F0020396
:1015F0001363364B1B6B03F002033B603B68002216
:1016000048F21001324801F0E9FC002243F21A01CD
:10161000304801F0E3FC4FF40043FB604FF48813C3
:101620003B6100237B6107F10C0319462A4801F056
:1016300039FB48F21003FB6001233B6100237B610F
:101640000023BB6107F10C031946214801F02AFB76
:1016500043F21A03FB6001233B6100237B610023FB
:10166000BB6107F10C0319461A4801F01BFB042368
:10167000FB6000233B6100237B6107F10C031946EB
:10168000144801F00FFB4FF48073FB604FF4041318
:101690003B6100237B6107F10C0319460D4801F003
:1016A00001FB00220021172001F0C5FA172001F0EC
:1016B000DEFA00220021282001F0BDFA282001F0E6
:1016C000D6FA00BF2037BD4680BD00BF00380240BB
:1016D00000000240000402400008024080B400AF55
:1016E00072B600BFFEE7000080B582B000AF0346CF
:1016F000FB710B46BB711346BB803821002000F004
:101700006DFEFB791BB21846FFF71EFC034683F003
:101710000103DBB20B4A06CA0B4800F039FEFB7925
:101720001BB21846FFF723FC0346002B05D0002010
:10173000FFF7DAFB054ABB79137000BF0837BD46D7
:1017400080BD00BF5C050020F8800008EE09002085
:1017500090B585B000AF78600023FB602EE0FB6899
:10176000DBB2DB00DBB21946002000F037FEFB687D
:101770001BB21846FFF7FBFB0346002B07D07B6824
:10178000FA68013213F83220114B1A701CE07A68A3
:10179000FB680133DB0013445C68FB681BB218462E
:1017A000FFF7D2FB034683F00103DBB2094A06CA06
:1017B000204600F0EDFDFB680133FB607B685B6851
:1017C000FA689A42CBDB00BF00BF1437BD4690BD1C
:1017D000EE0900205C05002080B582B000AF786083
:1017E00002210020FFF766FB7868FFF7B1FF00BF1A
:1017F0000837BD4680BD80B582B000AF7860032158
:101800000020FFF757FB7868FFF7A2FF01220021B5
:101810000320FFF769FF00BF0837BD4680BD80B5D4
:1018200082B000AF786001210020FFF743FB7868A9
:10183000FFF78EFF002200210020FFF755FF00BFB9
:101840000837BD4680BD80B582B000AF786078684B
:10185000FFF77EFF012200210120FFF745FF00BFB7
:101860000837BD4680BD80B582B000AF786078682B
:10187000FFF76EFF00BF0837BD4680BD80B582B060
:1018800000AF78607868FFF763FF01220021012034
:10189000FFF72AFF00BF0837BD4680BD80B582B084
:1018A00000AF78607868FFF753FF01220021012024
:1018B000FFF71AFF00BF0837BD4680BD80B582B074
:1018C00000AF78607868FFF743FF01220021012014
:1018D000FFF70AFF00BF0837BD4680BD80B500AFE7
:1018E000002000F02DFC0F4B1B7819460E4A0B46CA
:1018F000DB000B44DB0013441A680A4B1B781946C3
:101900000B46DB000B44DB0007490B4418469047AD
:1019100000F03AFCFFF7CEFB012000F01BFE00BFF9
:1019200080BD00BFEE0900200000002080B500AFA0
:1019300000F09CFB00BF80BD80B483B000AF0023EB
:101940007B60104B5B6C0F4A43F4804353640D4B38
:101950005B6C03F480437B607B6800233B60094B36
:101960001B6C084A43F080531364064B1B6C03F056
:1019700080533B603B6800BF0C37BD465DF8047B7D
:10198000704700BF0038024080B58AB000AF786071
:1019900007F1140300221A605A609A60DA601A6133
:1019A0007B681B68174A934227D100233B61164B83
:1019B0005B6C154A43F480735364134B5B6C03F404
:1019C00080733B613B690023FB600F4B1B6B0E4A2E
:1019D00043F0010313630C4B1B6B03F00103FB602B
:1019E000FB680F237B610323BB610023FB6107F1CD
:1019F00014031946054801F055F900BF2837BD46C4
:101A000080BD00BF002001400038024000000240BD
:101A100080B58CB000AF786007F11C0300221A601B
:101A20005A609A60DA601A617B681B683B4A93428D
:101A30002CD10023BB613A4B1B6B394A43F00203A4
:101A40001363374B1B6B03F00203BB61BB69C023FD
:101A5000FB6112233B6200237B620323BB620423EE
:101A6000FB6207F11C0319462E4801F01BF9002305
:101A70007B612B4B1B6C2A4A43F400131364284BE5
:101A80001B6C03F400137B617B6942E07B681B687D
:101A9000254A93423DD100233B61214B1B6B204AD9
:101AA00043F0020313631E4B1B6B03F002033B6105
:101AB0003B694FF48063FB6112233B6200237B622E
:101AC0000323BB620423FB6207F11C03194615487C
:101AD00001F0E8F84FF40073FB6112233B6200232E
:101AE0007B620323BB620923FB6207F11C031946D7
:101AF0000C4801F0D7F80023FB60094B1B6C084A27
:101B000043F480031364064B1B6C03F48003FB60F7
:101B1000FB6800BF3037BD4680BD00BF00540040A9
:101B200000380240000402400058004080B58AB0EE
:101B300000AF786007F1140300221A605A609A60BF
:101B4000DA601A617B681B68194A93422BD1002323
:101B50003B61184B5B6C174A43F480535364154B3D
:101B60005B6C03F480533B613B690023FB60114BCA
:101B70001B6B104A43F0010313630E4B1B6B03F006
:101B80000103FB60FB68E0237B610223BB61002350
:101B9000FB6103233B6205237B6207F114031946B3
:101BA000054801F07FF800BF2837BD4680BD00BF63
:101BB00000300140003802400000024080B58AB089
:101BC00000AF786007F1140300221A605A609A602F
:101BD000DA601A617B681B681D4A934234D1002386
:101BE0003B611C4B5B6C1B4A43F001035364194B74
:101BF0005B6C03F001033B613B690023FB60154B09
:101C00001B6B144A43F001031363124B1B6B03F06D
:101C10000103FB60FB684FF440737B610223BB61EF
:101C20000023FB6100233B6201237B6207F1140365
:101C30001946094801F036F8002200211A2000F068
:101C4000FAFF1A2001F013F800BF2837BD4680BD07
:101C500000000140003802400000024080B584B01E
:101C600000AF78607B681B68184A93420ED100234E
:101C7000FB60174B5B6C164A43F400335364144B00
:101C80005B6C03F40033FB60FB681AE07B681B6845
:101C9000104A934215D10023BB600D4B5B6C0C4A7C
:101CA00043F4802353640A4B5B6C03F48023BB60D2
:101CB000BB68002200211A2000F0BDFF1A2000F0AE
:101CC000D6FF00BF1037BD4680BD00BF00440140B5
:101CD000003802400048014080B58AB000AF78600B
:101CE00007F1140300221A605A609A60DA601A61E0
:101CF0007B681B68194A93422CD100233B61184B27
:101D00005B6C174A43F020035364154B5B6C03F084
:101D100020033B613B690023FB60114B1B6B104AA6
:101D200043F0010313630E4B1B6B03F00103FB60D5
:101D3000FB684FF4C0537B610223BB610023FB614E
:101D400003233B6208237B6207F11403194605480D
:101D500000F0A8FF00BF2837BD4680BD0014014039
:101D6000003802400000024080B400AFFEE780B4BB
:101D700000AFFEE780B400AFFEE780B400AFFEE73F
:101D800080B400AFFEE780B400AF00BFBD465DF891
:101D9000047B704780B400AF00BFBD465DF8047B94
:101DA000704780B400AF00BFBD465DF8047B70474C
:101DB00080B500AF00F0AEFB00BF80BD80B500AFC6
:101DC0004FF4807001F024F900BF80BD80B500AFF2
:101DD000034802F0E0FC034802F0DDFC00BF80BDD8
:101DE0009C0800202C09002080B500AF4FF4004073
:101DF00001F00EF900BF80BD80B400AF012318468A
:101E0000BD465DF8047B704780B582B000AF786056
:101E1000396004F0D3F8034616221A604FF0FF33FE
:101E200018460837BD4680BD80B582B000AF7860E7
:101E30004FF0FF317868FFF7E7FFFEE780B586B027
:101E400000AFF860B9607A6000237B610AE0AFF30D
:101E500000800146BB685A1CBA60CAB21A707B691E
:101E600001337B617A697B689A42F0DB7B681846B4
:101E70001837BD4680BD80B586B000AFF860B96048
:101E80007A6000237B6109E0BB685A1CBA601B784A
:101E90001846AFF300807B6901337B617A697B6808
:101EA0009A42F1DB7B6818461837BD4680BD80B486
:101EB00083B000AF78604FF0FF3318460C37BD4653
:101EC0005DF8047B704780B483B000AF7860396000
:101ED0003B684FF400525A60002318460C37BD4649
:101EE0005DF8047B704780B483B000AF7860012355
:101EF00018460C37BD465DF8047B704780B485B04A
:101F000000AFF860B9607A60002318461437BD4608
:101F10005DF8047B7047000080B586B000AF786044
:101F2000144A154BD31A7B617B693B61134B1B68C9
:101F3000002B02D1114B124A1A60104B1A687B68B1
:101F400013443A699A4207D204F038F803460C2247
:101F50001A604FF0FF3309E0084B1B68FB60074B2A
:101F60001A687B681344054A1360FB6818461837E3
:101F7000BD4680BD0000022000040000F0090020E2
:101F8000500F002080B400AF064BD3F88830054ACC
:101F900043F47003C2F8883000BFBD465DF8047B8F
:101FA000704700BF00ED00E0DFF834D00D480E4967
:101FB0000E4A002302E0D458C4500433C4188C42A3
:101FC000F9D30B4A0B4C002301E013600432A24208
:101FD000FBD3FFF7D7FF03F0F7FFFFF773F8704766
:101FE0000000022000000020340700203C8B000885
:101FF000340700204C0F0020FEE780B400AF00BF84
:10200000BD465DF8047B704780B586B004AF0346DB
:10201000FB714FF0FF33029301230193FB1D0093EB
:10202000012300227821034801F04EF900BF083750
:10203000BD4680BD9C07002080B586B004AF7860A7
:1020400039603B689BB24FF0FF32029201937B688C
:102050000093012340227821034801F035F900BFA5
:102060000837BD4680BD00BF9C07002080B500AF8B
:10207000FFF7C3FF642000F06DFA002000F0DAF9EA
:102080002020FFF7C1FF0020FFF7BEFFB020FFF7C1
:10209000BBFFC820FFF7B8FF0020FFF7B5FF1020F7
:1020A000FFF7B2FF4020FFF7AFFFFF2000F0AEF9CF
:1020B000A120FFF7A9FFA620FFF7A6FFA820FFF7A2
:1020C000A3FF3F20FFF7A0FFA420FFF79DFFD32031
:1020D000FFF79AFF0020FFF797FFD520FFF794FF47
:1020E000F020FFF791FFD920FFF78EFF2220FFF7A6
:1020F0008BFFDA20FFF788FF1220FFF785FFDB2038
:10210000FFF782FF2020FFF77FFF8D20FFF77CFF86
:102110001420FFF779FF012000F08CF9002000F077
:102120000FF800F031F8054B00221A80034B002213
:102130005A80024B01221A7100BF80BDF40D0020AD
:1021400080B485B000AF0346FB710023FB600DE057
:10215000FB79002B01D1002100E0FF21094AFB6837
:1021600013440A461A70FB680133FB60FB68B3F541
:10217000806FEDD300BF00BF1437BD465DF8047B10
:10218000704700BFF409002080B582B000AF002383
:10219000FB7116E0FB79503BDBB21846FFF734FFCA
:1021A0000020FFF731FF1020FFF72EFFFB79DB0146
:1021B000084A134480211846FFF73EFFFB7901339C
:1021C000FB71FB79072BE5D900BF00BF0837BD467F
:1021D00080BD00BFF409002080B483B000AF034687
:1021E000FB710B46BB7113467B7197F90730002BCF
:1021F0003DDBBB793F2B3AD87B79012B1AD1FA7999
:10220000BB79DB08D8B20346DB0113441B4AD35C1D
:102210005AB2BB7903F00703012101FA03F35BB261
:10222000134359B2FA790346DB011344C9B2134A86
:10223000D1541DE0FA79BB79DB08D8B20346DB0143
:1022400013440E4AD35C5AB2BB7903F00703012151
:1022500001FA03F35BB2DB435BB2134059B2FA7984
:102260000346DB011344C9B2044AD15400E000BF65
:102270000C37BD465DF8047B704700BFF4090020B1
:1022800090B589B000AF0446381D80E806001A46B4
:102290002346FB731346BB73FB7B1F2B02D9FB7BCF
:1022A0007E2B01D900236DE0384B1B881A463B7901
:1022B0001344802B06DC354B5B881A467B7913442C
:1022C000402B01DD00235DE00023FB614CE0BA6898
:1022D000FB7B203B797901FB03F31946FB690B4437
:1022E0005B0013441B887B610023BB6134E07A6987
:1022F000BB6902FA03F303F40043002B12D0234B13
:102300001B88DAB2BB69DBB21344D8B21F4B5B88BF
:10231000DAB2FB69DBB21344DBB2BA7B1946FFF7D2
:102320005BFF16E0194B1B88DAB2BB69DBB21344C2
:10233000D8B2164B5B88DAB2FB69DBB21344D9B270
:10234000BB7B002B0CBF01230023DBB21A46FFF737
:1023500043FFBB690133BB613B791A46BB699342BA
:10236000C5D3FB690133FB617B791A46FB69934254
:10237000ADD3064B1A883B799BB213449AB2034BF8
:102380001A80FB7B18462437BD4690BDF40D002013
:1023900080B584B000AFF860381D80E80600FB709F
:1023A00012E0FB681878FB783A1D06CAFFF768FF51
:1023B00003461A46FB681B789A4202D0FB681B78DA
:1023C00008E0FB680133FB60FB681B78002BE8D159
:1023D000FB681B7818461037BD4680BD80B483B0BB
:1023E00000AF03460A46FB711346BB71FB799AB2F4
:1023F000054B1A80BB799AB2034B5A8000BF0C3749
:10240000BD465DF8047B7047F40D002080B584B0B4
:1024100000AF0346FB718123FB73FB7B1846FFF77C
:10242000F3FDFB791846FFF7EFFD00BF1037BD46FF
:1024300080BD000080B584B000AF0346FB71FB791E
:10244000002B05D0AF23FB73084B01225A7104E027
:10245000AE23FB73054B00225A71FB7B1846FFF736
:10246000D3FD00BF1037BD4680BD00BFF40D002076
:1024700080B500AF0E4B1B680D4A43F40073136028
:102480000B4B1B680A4A43F480631360084B1B68BC
:10249000074A43F480731360032000F0C1FB0F2050
:1024A00000F008F8FFF748FA0023184680BD00BF87
:1024B000003C024080B582B000AF7860124B1A68D1
:1024C000124B1B7819464FF47A73B3FBF1F3B2FB4E
:1024D000F3F3184600F0D9FB0346002B01D001238B
:1024E0000EE07B680F2B0AD8002279684FF0FF308E
:1024F00000F0A1FB064A7B681360002300E0012383
:1025000018460837BD4680BD5805002068050020E4
:102510006405002080B400AF064B1B781A46064BBA
:102520001B681344044A136000BFBD465DF8047B7A
:10253000704700BF68050020FC0D002080B400AF8C
:10254000034B1B681846BD465DF8047B704700BF0F
:10255000FC0D002080B584B000AF7860FFF7EEFF7F
:10256000B8607B68FB60FB68B3F1FF3F05D00A4BA6
:102570001B781A46FB681344FB6000BFFFF7DEFFC1
:102580000246BB68D31AFA689A42F7D800BF00BF68
:102590001037BD4680BD00BF6805002080B584B0FF
:1025A00000AF78600023FB737B68002B01D101230F
:1025B00033E07B681B6C002B09D17868FFF7E4F9E6
:1025C0007B6800225A647B68002283F83C207B6889
:1025D0001B6C03F01003002B18D17B681B6C23F4D9
:1025E000885323F0020343F002027B681A64786880
:1025F00000F04AF97B6800225A647B681B6C23F068
:10260000030343F001027B681A6401E00123FB73BA
:102610007B68002283F83C20FB7B18461037BD46C0
:1026200080BD000080B485B000AF786039600023C1
:10263000BB607B6893F83C30012B01D1022313E18E
:102640007B68012283F83C203B681B68092B25D955
:102650007B681B68D9683B681B689BB21A461346A7
:102660005B0013441E3B072202FA03F3DA437B6844
:102670001B680A40DA607B681B68D9683B689A6807
:102680003B681B689BB2184603465B0003441E3B35
:102690009A407B681B680A43DA6022E07B681B680B
:1026A00019693B681B689BB21A4613465B001344CA
:1026B000072202FA03F3DA437B681B680A401A61B7
:1026C0007B681B6819693B689A683B681B689BB20A
:1026D000184603465B0003449A407B681B680A4324
:1026E0001A613B685B68062B24D87B681B68596BB2
:1026F0003B685A6813469B001344053B1F2202FAAD
:1027000003F3DA437B681B680A405A637B681B68E3
:10271000596B3B681B689BB218463B685A68134666
:102720009B001344053B00FA03F27B681B680A43D5
:102730005A634CE03B685B680C2B24D87B681B68B1
:10274000196B3B685A6813469B001344233B1F22B6
:1027500002FA03F3DA437B681B680A401A637B685A
:102760001B68196B3B681B689BB218463B685A682C
:1027700013469B001344233B00FA03F27B681B685B
:102780000A431A6323E07B681B68D96A3B685A686E
:1027900013469B001344413B1F2202FA03F3DA4322
:1027A0007B681B680A40DA627B681B68D96A3B68F1
:1027B0001B689BB218463B685A6813469B0013443B
:1027C000413B00FA03F27B681B680A43DA62294B3B
:1027D000FB607B681B68284A93420FD13B681B68EB
:1027E000122B0BD1FB685B6823F40002FB685A6074
:1027F000FB685B6843F48002FB685A607B681B6877
:102800001D4A93422BD13B681B681C4A934203D05C
:102810003B681B68112B22D1FB685B6823F48002A4
:10282000FB685A60FB685B6843F40002FB685A600F
:102830003B681B68114A934211D1114B1B68114A26
:10284000A2FB03239A0C13469B0013445B00BB605E
:1028500002E0BB68013BBB60BB68002BF9D17B6821
:10286000002283F83C20002318461437BD465DF84B
:10287000047B70470023014000200140120000103B
:102880005805002083DE1B4380B485B000AF78601C
:10289000794BFB60FB685B6823F44032FB685A604D
:1028A000FB685A687B685B681A43FB685A607B6800
:1028B0001B685A687B681B6822F480725A607B68C8
:1028C0001B6859687B681B691A027B681B680A438E
:1028D0005A607B681B685A687B681B6822F04072EC
:1028E0005A607B681B6859687B689A687B681B68BC
:1028F0000A435A607B681B689A687B681B6822F4ED
:1029000000629A607B681B6899687B68DA687B68FC
:102910001B680A439A607B689B6A584A934222D09C
:102920007B681B689A687B681B6822F070629A60FB
:102930007B681B6899687B689A6A7B681B680A4396
:102940009A607B681B689A687B681B6822F040521B
:102950009A607B681B6899687B68DA6A7B681B6889
:102960000A439A600FE07B681B689A687B681B6863
:1029700022F070629A607B681B689A687B681B68AB
:1029800022F040529A607B681B689A687B681B68DB
:1029900022F002029A607B681B6899687B681B7E44
:1029A0005A007B681B680A439A607B6893F8203062
:1029B000002B1BD07B681B685A687B681B6842F43D
:1029C00000625A607B681B685A687B681B6822F447
:1029D00060425A607B681B6859687B685B6A013B90
:1029E0005A037B681B680A435A6007E07B681B68D0
:1029F0005A687B681B6822F400625A607B681B6817
:102A0000DA6A7B681B6822F47002DA627B681B68F2
:102A1000D96A7B68DB69013B1A057B681B680A433E
:102A2000DA627B681B689A687B681B6822F4007214
:102A30009A607B681B6899687B6893F830305A020B
:102A40007B681B680A439A607B681B689A687B688E
:102A50001B6822F480629A607B681B6899687B68B7
:102A60005B699A027B681B680A439A6000BF14374F
:102A7000BD465DF8047B7047002301400100000F54
:102A800080B485B000AF78607B6803F00703FB601B
:102A90000C4BDB68BB60BA684FF6FF031340BB60AA
:102AA000FB681A02BB68134343F0BF6343F400336F
:102AB000BB60044ABB68D36000BF1437BD465DF8F5
:102AC000047B704700ED00E080B400AF044BDB688E
:102AD0001B0A03F007031846BD465DF8047B7047E8
:102AE00000ED00E080B483B000AF0346FB7197F9BE
:102AF0000730002B0BDBFB7903F01F02074997F926
:102B000007305B09012000FA02F241F8232000BFE0
:102B10000C37BD465DF8047B704700BF00E100E064
:102B200080B483B000AF03463960FB7197F907307A
:102B3000002B0ADB3B68DAB20C4997F90730120127
:102B4000D2B20B4483F800230AE03B68DAB20849AA
:102B5000FB7903F00F03043B1201D2B20B441A7647
:102B600000BF0C37BD465DF8047B704700E100E014
:102B700000ED00E080B489B000AFF860B9607A6021
:102B8000FB6803F00703FB61FB69C3F10703042B38
:102B900028BF0423BB61FB690433062B02D9FB6900
:102BA000033B00E000237B614FF0FF32BB6902FA78
:102BB00003F3DA43BB681A407B699A404FF0FF3158
:102BC0007B6901FA03F3D9437B680B401343184632
:102BD0002437BD465DF8047B7047000080B582B0A5
:102BE00000AF78607B68013BB3F1807F01D30123A4
:102BF0000FE00A4A7B68013B53600F214FF0FF3022
:102C0000FFF78EFF054B00229A60044B07221A60E3
:102C1000002318460837BD4680BD00BF10E000E025
:102C200080B582B000AF78607868FFF729FF00BFF9
:102C30000837BD4680BD80B586B000AF0346B96099
:102C40007A60FB7300237B61FFF73EFF78617A684F
:102C5000B9687869FFF78EFF024697F90F30114681
:102C60001846FFF75DFF00BF1837BD4680BD80B531
:102C700082B000AF0346FB7197F907301846FFF7A3
:102C800031FF00BF0837BD4680BD80B582B000AFC0
:102C900078607868FFF7A2FF034618460837BD46FC
:102CA00080BD000080B489B000AF78603960002337
:102CB0007B6100233B610023BB610023FB6159E181
:102CC0000122FB6902FA03F37B613B681B687A69A6
:102CD00013403B613A697B699A4240F048813B6806
:102CE0005B6803F00303012B05D03B685B6803F0CE
:102CF0000303022B30D17B689B68BB61FB695B00DF
:102D0000032202FA03F3DB43BA691340BB613B6859
:102D1000DA68FB695B0002FA03F3BA691343BB612B
:102D20007B68BA699A607B685B68BB610122FB695A
:102D300002FA03F3DB43BA691340BB613B685B688B
:102D40001B0903F00102FB6902FA03F3BA6913439A
:102D5000BB617B68BA695A603B685B6803F0030338
:102D6000032B17D07B68DB68BB61FB695B00032228
:102D700002FA03F3DB43BA691340BB613B689A680C
:102D8000FB695B0002FA03F3BA691343BB617B681A
:102D9000BA69DA603B685B6803F00303022B23D156
:102DA000FB69DA087B68083253F82230BB61FB69A3
:102DB00003F007039B000F2202FA03F3DB43BA6917
:102DC0001340BB613B681A69FB6903F007039B0072
:102DD00002FA03F3BA691343BB61FB69DA087B6843
:102DE0000832B96943F822107B681B68BB61FB6934
:102DF0005B00032202FA03F3DB43BA691340BB61B1
:102E00003B685B6803F00302FB695B0002FA03F3B3
:102E1000BA691343BB617B68BA691A603B685B6837
:102E200003F44033002B00F0A2800023FB60574BDB
:102E30005B6C564A43F480435364544B5B6C03F41D
:102E40008043FB60FB68524AFB699B08023352F8DF
:102E50002330BB61FB6903F003039B000F2202FADE
:102E600003F3DB43BA691340BB617B68494A934271
:102E700019D07B68484A934213D07B68474A9342F3
:102E80000DD07B68464A934207D07B68454A9342FF
:102E900001D1042308E0072306E0032304E0022312
:102EA00002E0012300E00023FA6902F0030292002D
:102EB0009340BA691343BB613549FB699B080233F0
:102EC000BA6941F82320384B9B68BB613B69DB43FF
:102ED000BA691340BB613B685B6803F48013002B45
:102EE00003D0BA693B691343BB612F4ABB69936046
:102EF0002D4BDB68BB613B69DB43BA691340BB61A7
:102F00003B685B6803F40013002B03D0BA693B698C
:102F10001343BB61244ABB69D360234B5B68BB612D
:102F20003B69DB43BA691340BB613B685B6803F4F0
:102F30000033002B03D0BA693B691343BB611A4AC3
:102F4000BB695360184B1B68BB613B69DB43BA69C3
:102F50001340BB613B685B6803F48033002B03D0F4
:102F6000BA693B691343BB610F4ABB691360FB69D4
:102F70000133FB61FB690F2B7FF6A2AE00BF00BFE0
:102F80002437BD465DF8047B704700BF003802401F
:102F900000380140000002400004024000080240E6
:102FA000000C024000100240003C014080B485B09B
:102FB00000AF78600B467B807B681A697B88134082
:102FC000002B02D00123FB7301E00023FB73FB7B8A
:102FD00018461437BD465DF8047B704780B483B053
:102FE00000AF78600B467B8013467B707B78002BAC
:102FF00003D07A887B689A6103E07B881A047B6837
:103000009A6100BF0C37BD465DF8047B7047000035
:1030100080B582B000AF0346FB80084B5A69FB883D
:103020001340002B06D0054AFB885361FB881846E5
:10303000FEF71AF800BF0837BD4680BD003C0140CE
:1030400080B584B000AF78607B68002B01D101238C
:103050002BE17B6893F83D30DBB2002B06D17B6817
:10306000002283F83C207868FEF7D2FC7B6824229B
:1030700083F83D207B681B681A687B681B6822F018
:1030800001021A607B681B681A687B681B6842F43F
:1030900000421A607B681B681A687B681B6822F410
:1030A00000421A6001F058F8F8607B685B68814A5A
:1030B000934207D8FB68804A934294BF01230023C0
:1030C000DBB206E0FB687D4A934294BF01230023F4
:1030D000DBB2002B01D00123E7E0FB68784AA2FBBA
:1030E00003239B0CBB607B681B685B6823F03F017C
:1030F0007B681B68BA680A435A607B681B681B6A56
:1031000023F03F017B685B686A4A934202D8BB6840
:10311000013309E0BB684FF4967202FB03F3694A7E
:10312000A2FB03239B0901337A6812680B431362E5
:103130007B681B68DB6923F44F4222F0FF027B6847
:103140005B685C498B4219D8FB68591E7B685B68D9
:103150005B00B1FBF3F3591C40F6FC730B40002BF2
:103160000AD0FB68591E7B685B685B00B1FBF3F318
:103170000133C3F30B0351E004234FE07B689B68EA
:10318000002B11D1FB68581E7B6859680B465B0009
:103190000B44B0FBF3F30133C3F30B03002B0CBF61
:1031A00001230023DBB212E0FB68581E7B685968DC
:1031B0000B469B000B4499000B44B0FBF3F3013327
:1031C000C3F30B03002B0CBF01230023DBB2002B46
:1031D00001D0012322E07B689B68002B0ED1FB68A5
:1031E000581E7B6859680B465B000B44B0FBF3F339
:1031F0000133C3F30B0343F400430FE0FB68581E95
:103200007B6859680B469B000B4499000B44B0FB4C
:10321000F3F30133C3F30B0343F4404379680968C4
:103220001343CB617B681B681B6823F0C0017B687C
:10323000DA697B681B6A1A437B681B680A431A6059
:103240007B681B689B6823F4034323F0FF037A68C1
:1032500011697A68D26811437A6812680B439360E7
:103260007B681B68DB6823F0FF017B685A697B6819
:103270009B691A437B681B680A43DA607B681B689A
:103280001A687B681B6842F001021A607B680022A2
:103290001A647B68202283F83D207B6800221A6331
:1032A0007B68002283F83E20002318461037BD4675
:1032B00080BD00BFA08601007F841E00FF083D0086
:1032C00083DE1B43D34D621080B588B002AFF86037
:1032D000084611461A4603467B810B463B8113463E
:1032E000FB80FFF72BF97861FB6893F83D30DBB288
:1032F000202B40F0D9807B690093192301226D496E
:10330000F86800F071F90346002B01D00223CCE0ED
:10331000FB6893F83C30012B01D10223C5E0FB6828
:10332000012283F83C20FB681B681B6803F0010343
:10333000012B07D0FB681B681A68FB681B6842F00A
:1033400001021A60FB681B681A68FB681B6822F49C
:1033500000621A60FB68212283F83D20FB6840224E
:1033600083F83E20FB6800221A64FB683A6A5A62BE
:10337000FB68BA8C5A85FB685B8D9AB2FB681A852C
:10338000FB684D4ADA62F8883A8979897B6901934A
:10339000BB6A00930346F86800F090F80346002BE0
:1033A00052D0012381E07A69B96AF86800F0F2F935
:1033B0000346002B0DD0FB681B6C042B07D1FB6868
:1033C0001B681A68FB681B6842F400721A600123CC
:1033D0006BE0FB685B6A1A78FB681B681A61FB6824
:1033E0005B6A5A1CFB685A62FB681B8D013B9AB2F0
:1033F000FB681A85FB685B8D9BB2013B9AB2FB6848
:103400005A85FB681B685B6903F00403042B1BD11E
:10341000FB681B8D002B17D0FB685B6A1A78FB6872
:103420001B681A61FB685B6A5A1CFB685A62FB687E
:103430001B8D013B9AB2FB681A85FB685B8D9BB2C2
:10344000013B9AB2FB685A85FB681B8D002BAAD101
:103450007A69B96AF86800F0DEF90346002B0DD0EE
:10346000FB681B6C042B07D1FB681B681A68FB68A0
:103470001B6842F400721A60012316E0FB681B68A7
:103480001A68FB681B6842F400721A60FB6820220D
:1034900083F83D20FB68002283F83E20FB68002271
:1034A00083F83C20002300E0022318461837BD466D
:1034B00080BD00BF020010000000FFFF80B588B093
:1034C00002AFF860084611461A4603467B810B4658
:1034D0003B811346FB80FB681B681A68FB681B680E
:1034E00042F480721A607B6A00933B6A00224FF0BC
:1034F0000111F86800F078F80346002B0DD0FB6846
:103500001B681B6803F48073B3F5807F03D1FB68ED
:103510004FF400721A6403235FE07B89DBB21A4622
:10352000FB681B6802F0FE021A617B6A3A6A2D4949
:10353000F86800F0B0F80346002B01D001234CE0FE
:1035400000237B61FB681B685B697B61FB681B6810
:103550009B697B617B697A6A396AF86800F01AF9BD
:103560000346002B0DD0FB681B6C042B07D1FB68B6
:103570001B681A68FB681B6842F400721A6001231A
:103580002BE0FB88012B05D13B89DAB2FB681B6875
:103590001A6121E03B891B0A9BB2DAB2FB681B6807
:1035A0001A617A6A396AF86800F0F4F80346002B69
:1035B0000DD0FB681B6C042B07D1FB681B681A68D5
:1035C000FB681B6842F400721A60012305E03B8926
:1035D000DAB2FB681B681A61002318461837BD462B
:1035E00080BD00BF0200010080B584B000AFF8606C
:1035F000B9603B601346FB7125E03B68B3F1FF3FC8
:1036000021D0FEF79BFF0246BB69D31A3A689A4263
:1036100002D33B68002B16D1FB6800221A63FB68BB
:10362000202283F83D20FB68002283F83E20FB68BF
:103630001B6C43F02002FB681A64FB68002283F8CD
:103640003C20012323E0BB681B0CDBB2012B0DD116
:10365000FB681B685B69DA43BB6813409BB2002BB5
:103660000CBF01230023DBB21A460CE0FB681B6889
:103670009B69DA43BB6813409BB2002B0CBF01234C
:103680000023DBB21A46FB799A42B6D000231846D3
:103690001037BD4680BD80B584B000AFF860B9601A
:1036A0007A603B6051E0FB681B685B6903F48063F0
:1036B000B3F5806F23D1FB681B681A68FB681B6831
:1036C00042F400721A60FB681B686FF480625A61F2
:1036D000FB6800221A63FB68202283F83D20FB6808
:1036E000002283F83E20FB681B6C43F00402FB6859
:1036F0001A64FB68002283F83C20012346E07B68C3
:10370000B3F1FF3F21D0FEF719FF02463B68D31A01
:103710007A689A4202D37B68002B16D1FB6800229C
:103720001A63FB68202283F83D20FB68002283F89F
:103730003E20FB681B6C43F02002FB681A64FB68A8
:10374000002283F83C20012320E0BB681B0CDBB285
:10375000012B0CD1FB681B685B69DA43BB68134023
:103760009BB2002B14BF01230023DBB20BE0FB68EC
:103770001B689B69DA43BB6813409BB2002B14BFE4
:1037800001230023DBB2002B8DD100231846103714
:10379000BD4680BD80B584B000AFF860B9607A6086
:1037A0002DE0F86800F078F80346002B01D00123E3
:1037B0002DE0BB68B3F1FF3F21D0FEF7BFFE02460C
:1037C0007B68D31ABA689A4202D3BB68002B16D121
:1037D000FB6800221A63FB68202283F83D20FB6807
:1037E000002283F83E20FB681B6C43F02002FB683C
:1037F0001A64FB68002283F83C20012307E0FB6881
:103800001B685B6903F08003802BCAD10023184634
:103810001037BD4680BD80B584B000AFF860B96098
:103820007A602DE0F86800F037F80346002B01D0ED
:1038300001232DE0BB68B3F1FF3F21D0FEF77EFEF0
:1038400002467B68D31ABA689A4202D3BB68002B3F
:1038500016D1FB6800221A63FB68202283F83D2002
:10386000FB68002283F83E20FB681B6C43F02002BB
:10387000FB681A64FB68002283F83C20012307E000
:10388000FB681B685B6903F00403042BCAD10023A7
:1038900018461037BD4680BD80B483B000AF786055
:1038A0007B681B685B6903F48063B3F5806F1BD191
:1038B0007B681B686FF480625A617B6800221A6320
:1038C0007B68202283F83D207B68002283F83E201D
:1038D0007B681B6C43F004027B681A647B680022DF
:1038E00083F83C20012300E0002318460C37BD4636
:1038F0005DF8047B7047000080B586B000AF78604B
:103900007B68002B01D1012367E27B681B6803F011
:103910000103002B75D0884B9B6803F00C03042B2C
:103920000CD0854B9B6803F00C03082B12D1824B03
:103930005B6803F48003B3F5800F0BD17E4B1B68EB
:1039400003F40033002B5BD07B685B68002B57D1FE
:10395000012342E27B685B68B3F5803F06D1764B7A
:103960001B68754A43F4803313601DE07B685B6815
:10397000B3F5A02F0CD1704B1B686F4A43F4802322
:1039800013606D4B1B686C4A43F4803313600BE08B
:10399000694B1B68684A23F480331360664B1B68CD
:1039A000654A23F4802313607B685B68002B13D087
:1039B000FEF7C4FD386108E0FEF7C0FD02463B6932
:1039C000D31A642B01D9032307E25B4B1B6803F472
:1039D0000033002BF0D014E0FEF7B0FD386108E0B2
:1039E000FEF7ACFD02463B69D31A642B01D90323D1
:1039F000F3E1514B1B6803F40033002BF0D100E0DE
:103A000000BF7B681B6803F00203002B63D04A4BA6
:103A10009B6803F00C03002B0BD0474B9B6803F013
:103A20000C03082B1CD1444B5B6803F48003002B70
:103A300016D1414B1B6803F00203002B05D07B68B5
:103A4000DB68012B01D00123C7E13B4B1B6823F04E
:103A5000F8027B681B69DB00374913430B603AE0CF
:103A60007B68DB68002B20D0344B01221A60FEF704
:103A700065FD386108E0FEF761FD02463B69D31A37
:103A8000022B01D90323A8E12B4B1B6803F002038F
:103A9000002BF0D0284B1B6823F0F8027B681B69D1
:103AA000DB00254913430B6015E0244B00221A600C
:103AB000FEF744FD386108E0FEF740FD02463B6931
:103AC000D31A022B01D9032387E11B4B1B6803F098
:103AD0000203002BF0D17B681B6803F00803002B66
:103AE00036D07B685B69002B16D0154B01221A601B
:103AF000FEF724FD386108E0FEF720FD02463B6931
:103B0000D31A022B01D9032367E10B4B5B6F03F040
:103B10000203002BF0D01BE0094B00221A60FEF7D5
:103B20000DFD38610EE0FEF709FD02463B69D31A30
:103B3000022B07D9032350E100380240000047421E
:103B4000800E4742884B5B6F03F00203002BEAD1E3
:103B50007B681B6803F00403002B00F097800023B0
:103B6000FB75814B1B6C03F08053002B0FD100239E
:103B7000BB607D4B1B6C7C4A43F0805313647A4BD3
:103B80001B6C03F08053BB60BB680123FB75774B54
:103B90001B6803F48073002B18D1744B1B68734AA5
:103BA00043F480731360FEF7C9FC386108E0FEF748
:103BB000C5FC02463B69D31A022B01D903230CE151
:103BC0006A4B1B6803F48073002BF0D07B689B6802
:103BD000012B06D1644B1B6F634A43F0010313674B
:103BE0001CE07B689B68052B0CD15F4B1B6F5E4A0A
:103BF00043F0040313675C4B1B6F5B4A43F0010304
:103C000013670BE0584B1B6F574A23F001031367F0
:103C1000554B1B6F544A23F0040313677B689B6862
:103C2000002B15D0FEF78AFC38610AE0FEF786FC0F
:103C300002463B69D31A41F28832934201D90323E9
:103C4000CBE0494B1B6F03F00203002BEED014E0D6
:103C5000FEF774FC38610AE0FEF770FC02463B692F
:103C6000D31A41F28832934201D90323B5E03E4B87
:103C70001B6F03F00203002BEED1FB7D012B05D15E
:103C8000394B1B6C384A23F0805313647B689B6963
:103C9000002B00F0A180344B9B6803F00C03082B31
:103CA0005CD07B689B69022B41D1314B00221A60AA
:103CB000FEF744FC386108E0FEF740FC02463B6931
:103CC000D31A022B01D9032387E0274B1B6803F08B
:103CD0000073002BF0D17B68DA697B681B6A1A439A
:103CE0007B685B6A9B011A437B689B6A5B08013BAC
:103CF0001B041A437B68DB6A1B061B4913434B609A
:103D00001B4B01221A60FEF719FC386108E0FEF730
:103D100015FC02463B69D31A022B01D903235CE050
:103D2000114B1B6803F00073002BF0D054E0104BD4
:103D300000221A60FEF702FC386108E0FEF7FEFB85
:103D400002463B69D31A022B01D9032345E0064BF7
:103D50001B6803F00073002BF0D13DE07B689B698A
:103D6000012B07D1012338E00038024000700040E9
:103D7000600047421B4B5B68FB607B689B69012BC3
:103D800028D0FB6803F480027B68DB699A4221D16A
:103D9000FB6803F03F027B681B6A9A421AD1FA68FB
:103DA00047F6C07313407A68526A9201934211D168
:103DB000FB6803F440327B689B6A5B08013B1B0491
:103DC0009A4207D1FB6803F070627B68DB6A1B06CE
:103DD0009A4201D0012300E0002318461837BD465F
:103DE00080BD00BF0038024080B584B000AF78606D
:103DF00039607B68002B01D10123CCE0684B1B6844
:103E000003F007033A689A420CD9654B3A68D2B27C
:103E10001A70634B1B6803F007033A689A4201D09B
:103E20000123B8E07B681B6803F00203002B20D05D
:103E30007B681B6803F00403002B05D0594B9B687B
:103E4000584A43F4E05393607B681B6803F008030F
:103E5000002B05D0534B9B68524A43F46043936058
:103E6000504B9B6823F0F0027B689B684D491343DD
:103E70008B607B681B6803F00103002B44D07B68D8
:103E80005B68012B07D1474B1B6803F40033002B01
:103E900019D101237FE07B685B68022B03D07B682C
:103EA0005B68032B07D13F4B1B6803F00073002BAB
:103EB00009D101236FE03B4B1B6803F00203002B89
:103EC00001D1012367E0374B9B6823F003027B6835
:103ED0005B68344913438B60FEF730FBF8600AE0FF
:103EE000FEF72CFB0246FB68D31A41F2883293425C
:103EF00001D903234FE02B4B9B6803F00C027B6836
:103F00005B689B009A42EBD1254B1B6803F00703CB
:103F10003A689A420CD2224B3A68D2B21A70204BBD
:103F20001B6803F007033A689A4201D0012332E08C
:103F30007B681B6803F00403002B08D0194B9B68B7
:103F400023F4E0527B68DB68164913438B607B687F
:103F50001B6803F00803002B09D0124B9B6823F465
:103F600060427B681B69DB000E4913438B6000F0E5
:103F700021F802460B4B9B681B0903F00F030A490B
:103F8000CB5C22FA03F3094A1360094B1B681846FD
:103F9000FEF790FA002318461037BD4680BD00BFDB
:103FA000003C024000380240B4810008580500205F
:103FB000640500202DE9B04F90B000AF00237B6373
:103FC0000023FB6300233B630023BB63594B9B68C7
:103FD00003F00C03082B0DD0082B00F2A180002B5E
:103FE00002D0042B03D09BE0534BBB639BE0534BAD
:103FF000BB6398E04F4B5B6803F03F037B634D4B23
:104000005B6803F48003002B28D04A4B5B689B0954
:1040100000223B627A623B6AC3F308000021474BEF
:1040200003FB01F2002300FB03F31344434AA0FB0C
:104030000212FA620A46BA62FA6A1344FB627B6BA6
:104040000022BB61FA61D7E90623D7E90A01FCF730
:10405000B3FD02460B461346FB6353E0354B5B68EA
:104060009B0900223B617A613B69C3F3080A4FF068
:10407000000B52465B464FF000004FF00001590123
:1040800041EAD261500102460B46B2EB0A0863EBEB
:104090000B094FF000024FF000034FEA891343EA87
:1040A00098634FEA8812B2EB080463EB09054FF0FE
:1040B00000024FF00003EB0043EA5473E2001446A1
:1040C0001D4614EB0A033B6045EB0B037B604FF08E
:1040D00000024FF00003D7E9004529468B02214634
:1040E00043EA915321468A02104619467B6B00220F
:1040F000BB60FA60D7E90223FCF75EFD02460B467F
:104100001346FB630B4B5B681B0C03F0030301338B
:104110005B003B63FA6B3B6BB2FBF3F3BB6302E008
:10412000054BBB6300BFBB6B18464037BD46BDE8BF
:10413000B08F00BF003802400024F40040787D01B9
:1041400080B400AF034B1B681846BD465DF8047B86
:10415000704700BF5805002080B500AFFFF7F0FFA3
:104160000246054B9B689B0A03F007030349CB5C9F
:1041700022FA03F3184680BD00380240C4810008CB
:1041800080B500AFFFF7DCFF0246054B9B685B0B79
:1041900003F007030349CB5C22FA03F3184680BD02
:1041A00000380240C481000880B582B000AF78605A
:1041B0007B68002B01D101237BE07B685B6A002BCD
:1041C00008D17B685B68B3F5827F09D07B680022E9
:1041D000DA6105E07B6800221A617B6800225A617F
:1041E0007B6800229A627B6893F85130DBB2002B27
:1041F00006D17B68002283F850207868FDF796FC92
:104200007B68022283F851207B681B681A687B68F0
:104210001B6822F040021A607B685B6803F48272BC
:104220007B689B6803F404431A437B68DB6803F4F0
:1042300000631A437B681B6903F002031A437B681F
:104240005B6903F001031A437B689B6903F4007305
:104250001A437B68DB6903F038031A437B681B6AE7
:1042600003F0800342EA03017B689B6A03F4005277
:104270007B681B680A431A607B689B691B0C03F010
:1042800004017B685B6A03F010027B681B680A43C9
:104290005A607B681B68DA697B681B6822F40062DD
:1042A000DA617B6800225A657B68012283F851201D
:1042B000002318460837BD4680BD80B582B000AFE8
:1042C00078607B68002B01D1012341E07B6893F883
:1042D0003D30DBB2002B06D17B68002283F83C2006
:1042E0007868FDF7BBFC7B68022283F83D207B6881
:1042F0001A687B6804331946104600F07DFB7B6822
:10430000012283F846207B68012283F83E207B68E7
:10431000012283F83F207B68012283F840207B68DC
:10432000012283F841207B68012283F842207B68C8
:10433000012283F843207B68012283F844207B68B4
:10434000012283F845207B68012283F83D20002369
:1043500018460837BD4680BD80B485B000AF786090
:104360007B6893F83D30DBB2012B01D001233CE0A8
:104370007B68022283F83D207B681B681E4A9342BB
:1043800018D07B681B68B3F1804F13D07B681B6823
:104390001A4A93420ED07B681B68194A934209D08F
:1043A0007B681B68174A934204D07B681B68164AD7
:1043B000934211D17B681B689B6803F00703FB6085
:1043C000FB68062B10D07B681B681A687B681B682B
:1043D00042F001021A6007E07B681B681A687B687C
:1043E0001B6842F001021A60002318461437BD46CC
:1043F0005DF8047B704700BF0000014000040040EE
:1044000000080040000C00400040014080B485B02E
:1044100000AF78607B6893F83D30DBB2012B01D0B0
:10442000012344E07B68022283F83D207B681B68FF
:10443000DA687B681B6842F00102DA607B681B68FF
:104440001E4A934218D07B681B68B3F1804F13D08B
:104450007B681B681A4A93420ED07B681B68194A16
:10446000934209D07B681B68174A934204D07B684B
:104470001B68164A934211D17B681B689B6803F046
:104480000703FB60FB68062B10D07B681B681A686B
:104490007B681B6842F001021A6007E07B681B68BA
:1044A0001A687B681B6842F001021A6000231846F4
:1044B0001437BD465DF8047B704700BF0000014023
:1044C0000004004000080040000C00400040014093
:1044D00080B483B000AF78607B681B68DA687B6863
:1044E0001B6822F00102DA607B681B681A6A41F2DD
:1044F00011131340002B0FD17B681B681A6A40F21E
:1045000044431340002B07D17B681B681A687B6803
:104510001B6822F001021A607B68012283F83D20AB
:10452000002318460C37BD465DF8047B704780B504
:1045300086B000AF786039607B68002B01D1012321
:1045400097E07B6893F83D30DBB2002B06D17B68A7
:10455000002283F83C207868FDF730FB7B6802225C
:1045600083F83D207B681B689B687A68126823F497
:10457000804323F0070393607B681A687B680433E9
:104580001946104600F038FA7B681B689B687B610F
:104590007B681B689B693B617B681B681B6AFB60CF
:1045A0003B681B687A6913437B613B6923F4407362
:1045B00023F003033B613B689A683B689B691B02DD
:1045C00013433A6913433B613B6923F4406323F08F
:1045D0000C033B613B6923F4704323F0F0033B6120
:1045E0003B68DA683B68DB691B0213433A69134393
:1045F0003B613B681B691A013B681B6A1B03134341
:104600003A6913433B61FB6823F02203FB60FB68BC
:1046100023F08803FB603B685A683B685B691B01B9
:104620001343FA681343FB607B681B687A699A60DE
:104630007B681B683A699A617B681B68FA681A6232
:104640007B68012283F846207B68012283F83E20A4
:104650007B68012283F83F207B68012283F8422097
:104660007B68012283F843207B68012283F83D2088
:10467000002318461837BD4680BD80B584B000AF12
:10468000786039607B6893F83E30FB737B6893F801
:104690003F30BB737B6893F842307B737B6893F841
:1046A00043303B733B68002B10D1FB7B012B02D1C5
:1046B0007B7B012B01D0012369E07B68022283F818
:1046C0003E207B68022283F8422031E03B68042BC5
:1046D00010D1BB7B012B02D13B7B012B01D00123ED
:1046E00055E07B68022283F83F207B68022283F832
:1046F00043201DE0FB7B012B08D1BB7B012B05D1A7
:104700007B7B012B02D13B7B012B01D001233EE0BF
:104710007B68022283F83E207B68022283F83F20D8
:104720007B68022283F842207B68022283F84320C0
:104730003B68002B03D03B68042B08D00FE07B685C
:104740001B6801220021184600F0D6F916E07B68AC
:104750001B6801220421184600F0CEF90EE07B68A8
:104760001B6801220021184600F0C6F97B681B680F
:1047700001220421184600F0BFF900BF7B681B68C6
:104780001A687B681B6842F001021A600023184611
:104790001037BD4680BD80B582B000AF78607B68C1
:1047A0001B681B6903F00203022B22D17B681B6884
:1047B000DB6803F00203022B1BD17B681B686FF0E0
:1047C00002021A617B6801221A777B681B689B6969
:1047D00003F00303002B03D0786800F0EEF805E047
:1047E000786800F0E0F8786800F0F1F87B68002263
:1047F0001A777B681B681B6903F00403042B22D122
:104800007B681B68DB6803F00403042B1BD17B6807
:104810001B686FF004021A617B6802221A777B68BA
:104820001B689B6903F44073002B03D0786800F089
:10483000C4F805E0786800F0B6F8786800F0C7F8CA
:104840007B6800221A777B681B681B6903F00803EA
:10485000082B22D17B681B68DB6803F00803082B58
:104860001BD17B681B686FF008021A617B68042209
:104870001A777B681B68DB6903F00303002B03D006
:10488000786800F09AF805E0786800F08CF87868AD
:1048900000F09DF87B6800221A777B681B681B6913
:1048A00003F01003102B22D17B681B68DB6803F038
:1048B0001003102B1BD17B681B686FF010021A616C
:1048C0007B6808221A777B681B68DB6903F44073F6
:1048D000002B03D0786800F070F805E0786800F0ED
:1048E00062F8786800F073F87B6800221A777B68BA
:1048F0001B681B6903F00103012B0ED17B681B6849
:10490000DB6803F00103012B07D17B681B686FF0A4
:1049100001021A617868FCF743FB7B681B681B691E
:1049200003F08003802B0ED17B681B68DB6803F0EB
:104930008003802B07D17B681B686FF080021A61AF
:10494000786800F077F97B681B681B6903F0400307
:10495000402B0ED17B681B68DB6803F04003402BC3
:1049600007D17B681B686FF040021A61786800F01D
:1049700038F87B681B681B6903F02003202B0ED1DD
:104980007B681B68DB6803F02003202B07D17B6862
:104990001B686FF020021A61786800F041F900BFCF
:1049A0000837BD4680BD80B483B000AF786000BFDB
:1049B0000C37BD465DF8047B704780B483B000AF10
:1049C000786000BF0C37BD465DF8047B704780B44B
:1049D00083B000AF786000BF0C37BD465DF8047B44
:1049E000704780B483B000AF786000BF0C37BD461D
:1049F0005DF8047B7047000080B485B000AF78603C
:104A000039607B681B68FB607B68344A93420FD037
:104A10007B68B3F1804F0BD07B68314A934207D05B
:104A20007B68304A934203D07B682F4A934208D177
:104A3000FB6823F07003FB603B685B68FA68134314
:104A4000FB607B68254A93421BD07B68B3F1804FA3
:104A500017D07B68224A934213D07B68214A934245
:104A60000FD07B68204A93420BD07B681F4A934249
:104A700007D07B681E4A934203D07B681D4A93424D
:104A800008D1FB6823F44073FB603B68DB68FA687D
:104A90001343FB60FB6823F080023B685B691343B0
:104AA000FB607B68FA681A603B689A687B68DA6228
:104AB0003B681A687B689A627B68084A934203D114
:104AC0003B681A697B681A637B6801225A6100BFE0
:104AD0001437BD465DF8047B704700BF00000140FD
:104AE0000004004000080040000C0040004001406D
:104AF000004401400048014080B487B000AFF86036
:104B0000B9607A60BB6803F01F03012202FA03F365
:104B10007B61FB681A6A7B69DB431A40FB681A6297
:104B2000FB681A6ABB6803F01F03796801FA03F394
:104B30001A43FB681A6200BF1C37BD465DF8047B50
:104B40007047000080B485B000AF786039607B6842
:104B500093F83C30012B01D1022350E07B68012205
:104B600083F83C207B68022283F83D207B681B6829
:104B70005B68FB607B681B689B68BB60FB6823F01D
:104B80007003FB603B681B68FA681343FB607B683B
:104B90001B68FA685A607B681B681C4A934218D0ED
:104BA0007B681B68B3F1804F13D07B681B68184A81
:104BB00093420ED07B681B68164A934209D07B68EB
:104BC0001B68154A934204D07B681B68134A9342C2
:104BD0000CD1BB6823F08003BB603B685B68BA689C
:104BE0001343BB607B681B68BA689A607B680122CC
:104BF00083F83D207B68002283F83C200023184680
:104C00001437BD465DF8047B704700BF00000140CB
:104C10000004004000080040000C0040004001403B
:104C200080B483B000AF786000BF0C37BD465DF83C
:104C3000047B704780B483B000AF786000BF0C374E
:104C4000BD465DF8047B704780B582B000AF7860E8
:104C50007B68002B01D101233FE07B6893F83D3056
:104C6000DBB2002B06D17B68002283F83C207868F9
:104C7000FDF732F87B68242283F83D207B681B68AF
:104C8000DA687B681B6822F40052DA60786800F00A
:104C900029F97B681B681A697B681B6822F49042BB
:104CA0001A617B681B685A697B681B6822F02A02BC
:104CB0005A617B681B68DA687B681B6842F40052A3
:104CC000DA607B6800221A647B68202283F83D202A
:104CD0007B68202283F83E20002318460837BD4613
:104CE00080BD80B58AB002AFF860B9603B60134602
:104CF000FB8000237B61FB6893F83D30DBB2202B07
:104D00007CD1BB68002B02D0FB88002B01D1012392
:104D100075E0FB6893F83C30012B01D102236EE073
:104D2000FB68012283F83C20FB6800221A64FB68C0
:104D3000212283F83D20FDF701FC7861FB68FA88A9
:104D40009A84FB68FA88DA84FB689B68B3F5805F15
:104D500008D1FB681B69002B04D10023FB61BB68F1
:104D6000BB6103E0BB68FB610023BB61FB68002201
:104D700083F83C202AE03B6800937B690022802175
:104D8000F86800F040F80346002B01D0032336E01A
:104D9000FB69002B0BD1BB691B881A46FB681B689B
:104DA000C2F308025A60BB690233BB6107E0FB69CA
:104DB0001A78FB681B685A60FB690133FB61FB686A
:104DC000DB8C9BB2013B9AB2FB68DA84FB68DB8C1C
:104DD0009BB2002BCFD13B6800937B69002240211E
:104DE000F86800F010F80346002B01D0032306E01A
:104DF000FB68202283F83D20002300E002231846B0
:104E00002037BD4680BD80B590B000AFF860B96076
:104E10003B601346FB7150E0BB6CB3F1FF3F4CD0DD
:104E2000BB6C002B07D0FDF789FB02463B68D31A09
:104E3000BA6C9A4241D2FB681B680C33BB62BB6AF6
:104E400053E8003F7B627B6A23F4D073FB63FB680B
:104E50001B680C33FA6B7A633B63396B7A6B41E8FE
:104E60000023FB62FB6A002BE5D1FB681B6814334F
:104E70007B617B6953E8003F3B613B6923F00103A1
:104E8000BB63FB681B681433BA6B3A62FB61F96958
:104E90003A6A41E80023BB61BB69002BE5D1FB689E
:104EA000202283F83D20FB68202283F83E20FB6807
:104EB000002283F83C2003230FE0FB681B681A687C
:104EC000BB681340BA689A420CBF01230023DBB2CF
:104ED0001A46FB799A429FD0002318464037BD46B8
:104EE00080BD00002DE9B04FC0B000AFC7F8F4009E
:104EF000D7F8F4301B681B6923F44050D7F8F4301E
:104F0000D968D7F8F4301A6840EA01031361D7F87A
:104F1000F4309A68D7F8F4301B691A43D7F8F430A4
:104F20005B691A43D7F8F430DB691343C7F8F830EC
:104F3000D7F8F4301B68DB6823F4164121F00C012C
:104F4000D7F8F4301A68D7F8F8300B43D360D7F8A5
:104F5000F4301B685B6923F44070D7F8F43099692A
:104F6000D7F8F4301A6840EA01035361D7F8F430F7
:104F70001A688F4B9A4205D0D7F8F4301A688D4BD7
:104F80009A4204D1FFF7FCF8C7F8FC0003E0FFF7F2
:104F9000E3F8C7F8FC00D7F8F430DB69B3F5004F4D
:104FA00040F00C81D7F8FC300022C7F8E830C7F891
:104FB000EC20D7E93A4522462B469118B9655B416A
:104FC000FB65D7E91623214612EB0108294643EB7E
:104FD00001094FF000024FF000034FEAC90343EA12
:104FE00058734FEAC80290469946234618EB0303CC
:104FF000C7F8E0302B4649EB0303C7F8E430D7F895
:10500000F4305B680022C7F8D830C7F8DC20D7E955
:1050100036120B46DB183B65134642EB03037B65F8
:10502000D7E91423D7E93801FBF7C6FD02460B4642
:10503000614BA3FB02235B091C01D7F8FC30002263
:10504000C7F8D030C7F8D420D7E9348942464B4658
:105050009118B9645B41FB64D7E91223414612EB16
:10506000010A494643EB010B4FF000024FF00003E9
:105070004FEACB0343EA5A734FEACA0292469B4671
:1050800043461AEB0303C7F8C8304B464BEB030308
:10509000C7F8CC30D7F8F4305B680022C7F8C030CE
:1050A000C7F8C420D7E930120B46DB183B6413461F
:1050B00042EB03037B64D7E91023D7E93201FBF706
:1050C0007BFD02460B4611463B4BA3FB01235B09CC
:1050D000642202FB03F3CB1ADB0003F13202364BEE
:1050E000A3FB02235B095B0003F4F8731C44D7F8AD
:1050F000FC300022C7F8B830C7F8BC20D7E92E89A9
:1051000042464B469118B9635B41FB63D7E90E23D6
:1051100041465118396349464B417B634FF00002C9
:105120004FF00003D7E90CAB5946CB00514643EA98
:1051300051735146CA0010461946034642469B1811
:10514000C7F8B0304B460A4642EB0303C7F8B43009
:10515000D7F8F4305B680022C7F8A830C7F8AC2055
:10516000D7E92A120B46DB18BB62134642EB030356
:10517000FB62D7E90A23D7E92C01FBF71DFD0246A4
:105180000B460D4BA3FB02135B09642101FB03F3E8
:10519000D31ADB003233084AA2FB03235B0903F076
:1051A0000702D7F8F4301B6822449A6006E100BF7A
:1051B00000100140001401401F85EB51D7F8FC306E
:1051C0000022C7F8A030C7F8A420D7E928894246B2
:1051D0004B46911839625B417B62D7E9082341460F
:1051E0005418494643EB01054FF000024FF000030D
:1051F000EB0043EA5473E20014461D464346E318AD
:10520000C7F898304B4645EB0303C7F89C30D7F8F6
:10521000F4305B680022C7F89030C7F894204FF054
:1052200000024FF00003D7E9244529468B002146B0
:1052300043EA917321468A00D7E92601FBF7BCFCBB
:1052400002460B46604BA3FB02235B091C01D7F807
:10525000FC300022C7F88830C7F88C20D7E92289B3
:1052600042464B469118B9615B41FB61D7E9062381
:1052700041465118396149464B417B614FF000026C
:105280004FF00003D7E904AB5946CB00514643EA3F
:1052900051735146CA0010461946034642469B18B0
:1052A000C7F880304B460A4642EB0303C7F8843008
:1052B000D7F8F4305B680022BB67FA674FF0000252
:1052C0004FF00003D7E91E8949468B00414643EA67
:1052D000917341468A00D7E92001FBF76DFC024635
:1052E0000B461146384BA3FB01235B09642202FBEA
:1052F00003F3CB1A1B013233334AA2FB03235B09AE
:1053000003F0F0031C44D7F8FC3000223B677A67B7
:10531000D7E91C8942464B469118B9605B41FB6056
:10532000D7E9022341465118396049464B417B6019
:105330004FF000024FF00003D7E900AB5946CB0015
:10534000514643EA51735146CA0010461946034676
:1053500042469B18BB664B460A4642EB0303FB667C
:10536000D7F8F4305B6800223B667A664FF00002A3
:105370004FF00003D7E9188949468B00414643EABC
:10538000917341468A00D7E91A01FBF715FC0246E2
:105390000B460D4BA3FB02135B09642101FB03F3D6
:1053A000D31A1B013233084AA2FB03235B0903F023
:1053B0000F02D7F8F4301B6822449A6000BF07F54B
:1053C0008077BD46BDE8B08F1F85EB512DE9FF47C3
:1053D00055EC104B002D0E4619462B46BBBF05F170
:1053E00000431D4600232D230B700D9BDDF830A0DC
:1053F000914623F02008BCBF22461446B8F1460F60
:1054000005D0B8F1450F00D10136022100E003219B
:1054100003AB019302AB009345EC104B534632466D
:1054200000F092FEB8F1470F074602D119F0010FC4
:1054300022D0B8F1460F07EB060910D13B78302B8C
:105440000AD10022002320462946FBF745FB18B964
:10545000C6F10106CAF80060DAF80030994400226B
:10546000002320462946FBF737FB08B1CDF80C9006
:105470003022039B4B4507D3039B0E9ADB1B384618
:10548000136004B0BDE8F087591C03911A70F0E76F
:10549000F7B503460029B8BF494203F8022BB4BF51
:1054A0002D222B22092942702ADD0DF10702174611
:1054B0000A26944691FBF6F506FB151430340CF8D9
:1054C000014C0C46632C02F1FF322946F1DC3031ED
:1054D000ACF1020402F8011C411C2246BA420AD374
:1054E0000DF10902A2EB0C02BC4288BF002213445A
:1054F000181A03B0F0BD12F8015B01F8015FEDE787
:10550000302330318370C170031DF1E72DE9F04F76
:105510002DED028B8DB00C46DDF8608016461F46DF
:10552000054600F001FDD0F800A05046FAF7A8FEAD
:1055300000230A9323680593D8F8003094F818B034
:10554000073323F0070303F10802C8F80020D3E96A
:10555000008929F000430793CDF8188008EE100A5F
:10556000C4E91289DDE906019E4B4FF0FF32FBF7DB
:10557000E5FA88BBDDE906019A4B4FF0FF32FBF7F5
:10558000BFFA48BB0022002340464946FBF7AEFA6B
:1055900010B12D2384F84330934A944BBBF1470F4D
:1055A00094BF9046984603232361059B23F0040390
:1055B00023604FF00009009733460BAA2146284686
:1055C00000F0DAF9013040F090804FF0FF300DB07C
:1055D000BDEC028BBDE8F08F42464B464046494643
:1055E000FBF7ACFA40B14B46002BBCBF2D2384F82F
:1055F00043307F4A7F4BD1E763680BF0DF020692AE
:105600005A1C3FD106236360059B616843F48062A6
:10561000002303930AABCDE901B309AB49EC108B2E
:10562000009322600DF123032846FFF7CFFE069B6F
:105630000999472B804608D1C81C02DB6368994250
:1056400041DDABF102035FFA83FBBBF1650F20D8AC
:1056500001395A4604F150000991FFF719FF0A9ADF
:105660001318012A8146236102DC2268D20701D582
:10567000013323619DF82330002B9CD02D2384F827
:10568000433098E7069A472ABED1002BBCD10123AC
:10569000B9E7BBF1660F18D1002963680BDD216102
:1056A00013B92268D00702D501330B442361A165E9
:1056B0004FF00009DEE713B92268D20701D50233A3
:1056C000F4E70123F2E74FF0670B0A9B994205DBF1
:1056D00023682161D807EAD54B1CE7E70029D4BF2E
:1056E000C1F1020201221344E0E723685A0507D4FE
:1056F0002369424631462846B84701302CD164E739
:10570000BBF1650F40F2E080D4E9120100220023D2
:10571000FBF7E2F9002834D0374A01233146284606
:10572000B84701303FF451AFDDE909239A4202DB6B
:105730002368D80710D518EE103A5246314628464D
:10574000B84701303FF441AF4FF0000804F11A09A7
:105750000A9B013B434509DC23689B0700F1078155
:10576000E0680B9B9842B8BF184630E701234A46D1
:1057700031462846B84701303FF427AF08F1010809
:10578000E6E7099B002B39DC1B4A012331462846FA
:10579000B84701303FF419AFDDE90932134302D1B4
:1057A0002368D907D8D518EE103A52463146284614
:1057B000B84701303FF409AF4FF0000904F11A0A6D
:1057C000099B5B424B4501DC0A9B92E70123524651
:1057D00031462846B84701303FF4F7AE09F10109D8
:1057E000EEE700BFFFFFEF7FBC870008C08700081F
:1057F000C4870008C8870008CC8700080A9AA36DF0
:105800009A42A8BF1A46002A914637DC4FF0000B97
:1058100029EAE97904F11A02A36D0593A3EB0903C0
:105820005B4533DCDDE909239A423BDB2368DA0779
:1058300038D4DDE90932A2EB0309059BD21A914560
:10584000A8BF9146B9F1000F35DC4FF0000829EAF6
:10585000E97904F11A0ADDE909239B1AA3EB09038C
:1058600043457FF779AF0123524631462846B84772
:1058700001303FF4AAAE08F10108ECE713463146C7
:1058800042462846B8470130C0D19EE60123314642
:1058900028460592B84701303FF497AE059A0BF1C0
:1058A000010BB9E718EE103A524631462846B84780
:1058B0000130BED189E6059A4B464244314628461E
:1058C000B8470130C1D180E60A9A012A01DCDB0722
:1058D0003AD50123424631462846B84701303FF4C5
:1058E00074AE18EE103A524631462846B847013099
:1058F0003FF46BAED4E9120100220023DDF828A0AA
:10590000FBF7EAF8D8B90AF1FF3308F10102314692
:105910002846B84701300ED157E60123524631469A
:105920002846B84701303FF450AE08F101080A9B01
:10593000013B4345F1DC4B4604F15002DAE64FF0FF
:10594000000804F11A0AF2E701234246DFE70123C7
:105950004A4631462846B84701303FF436AE08F192
:105960000108E3680B995B1A4345F0DCF8E64FF059
:10597000000804F11909F4E72DE9F04716469946A5
:105980008A680B69DDF820809342B8BF1346336004
:1059900091F8432007460C460AB10133336023686F
:1059A000990642BF336802333360256815F0060557
:1059B00006D104F1190AE36832689B1AAB4226DC6F
:1059C00094F84320131E226818BF012392062BD49B
:1059D00004F1430249463846C04701301ED02368CF
:1059E000226903F00603042B02BFE5683368ED1A51
:1059F000A3680CBF25EAE57500259342C4BF9B1A36
:105A0000ED1800261A34B5421AD1002008E001230F
:105A1000524649463846C047013003D14FF0FF3067
:105A2000BDE8F0870135C6E7E1185A1C302081F83F
:105A30004300224494F8451082F843100233C7E72C
:105A40000123224649463846C0470130E6D0013698
:105A5000D9E700002DE9FF470F7E0C9D782F914676
:105A600080460C469A4601F1430207D8622F0AD8B5
:105A7000002F00F0D480582F00F0C08004F14205C0
:105A800084F842703AE0A7F16303152BF6D801A120
:105A900051F823F0ED5A0008015B00087D5A000818
:105AA0007D5A00087D5A00087D5A0008015B0008F5
:105AB0007D5A00087D5A00087D5A00087D5A00086A
:105AC000055C00082D5B0008BF5B00087D5A0008DC
:105AD0007D5A0008275C00087D5A00082D5B0008ED
