:020000040800F2
:100000000000022025260008B5230008BB230008B5
:10001000C1230008C7230008CD230008000000000A
:10002000000000000000000000000000D3230008D2
:10003000E123000800000000EF230008FD23000872
:100040007526000875260008752600087526000824
:100050007526000875260008752600087526000814
:100060007526000875260008752600087526000804
:1000700075260008752600087526000875260008F4
:100080007526000875260008752600080000000087
:10009000000000000000000000000000092400082B
:1000A0007526000819240008352400087526000864
:1000B00051240008752600087526000875260008DA
:1000C00075260008752600087526000875260008A4
:1000D0007526000875260008752600080000000037
:1000E0006524000875260008752600080000000039
:1000F000000000000000000000000000752600085D
:100100000000000075260008752600087526000806
:1001100000000000000000000000000000000000DF
:100120007526000875260008752600087526000843
:10013000752600080000000000000000000000001C
:10014000000000000000000000000000752600080C
:100150007526000875260008752600087526000813
:100160007526000875260008000000000000000049
:10017000000000000000000000000000000000007F
:1001800000000000752600080000000000000000CC
:08019000752600087526000821
:1001A00010B5054C237833B9044B13B10448AFF3B1
:1001B00000800123237010BD4407002000000000D0
:1001C000E093000808B5034B1BB103490348AFF3A4
:1001D000008008BD0000000048070020E0930008F0
:1001E00001F0FF01102A2BDB10F0070F08D010F8E8
:1001F000013B013A8B422DD010F0070F42B3F6D1EC
:10020000F0B441EA012141EA014122F007047FF004
:1002100000070023F0E80256083C85EA010586EA5B
:10022000010685FA47F5A3FA87F586FA47F6A5FA97
:1002300087F68EB9EED1F0BC01F0FF0102F00702A3
:1002400032B110F8013B013A83EA010313B1F8D14E
:100250000020704701387047002D06BF354603382F
:10026000073815F0010F07D1013015F4807F02BF68
:10027000013015F4C03F0130F0BC0138704700BFB9
:10028000034613F8012B002AFBD1181A01387047D6
:1002900081F0004102E000BF83F0004330B54FEA37
:1002A00041044FEA430594EA050F08BF90EA020FA4
:1002B0001FBF54EA000C55EA020C7FEA645C7FEA37
:1002C000655C00F0E2804FEA5454D4EB5555B8BF5A
:1002D0006D420CDD2C4480EA020281EA030382EACB
:1002E000000083EA010180EA020281EA0303362D5D
:1002F00088BF30BD11F0004F4FEA01314FF4801C30
:100300004CEA113102D0404261EB410113F0004F41
:100310004FEA03334CEA133302D0524263EB4303F8
:1003200094EA050F00F0A780A4F10104D5F1200E96
:100330000DDB02FA0EFC22FA05F2801841F10001F1
:1003400003FA0EF2801843FA05F359410EE0A5F1C5
:1003500020050EF1200E012A03FA0EFC28BF4CF0F6
:10036000020C43FA05F3C01851EBE37101F00045AC
:1003700007D54FF0000EDCF1000C7EEB00006EEBB9
:100380000101B1F5801F1BD3B1F5001F0CD3490843
:100390005FEA30004FEA3C0C04F101044FEA44529A
:1003A00012F5800F80F09A80BCF1004F08BF5FEA21
:1003B000500C50F1000041EB045141EA050130BD01
:1003C0005FEA4C0C404141EB0101013C28BFB1F513
:1003D000801FE9D291F0000F04BF01460020B1FA5E
:1003E00081F308BF2033A3F10B03B3F120020CDA31
:1003F0000C3208DD02F1140CC2F10C0201FA0CF00F
:1004000021FA02F10CE002F11402D8BFC2F1200C73
:1004100001FA02F120FA0CFCDCBF41EA0C01904029
:10042000E41AA2BF01EB0451294330BD6FEA040472
:100430001F3C1CDA0C340EDC04F11404C4F120025D
:1004400020FA04F001FA02F340EA030021FA04F36F
:1004500045EA030130BDC4F10C04C4F1200220FAC6
:1004600002F001FA04F340EA0300294630BD21FA04
:1004700004F0294630BD94F0000F83F4801306BFCA
:1004800081F480110134013D4EE77FEA645C18BFBE
:100490007FEA655C29D094EA050F08BF90EA020F55
:1004A00005D054EA000C04BF1946104630BD91EA4D
:1004B000030F1EBF0021002030BD5FEA545C05D150
:1004C0004000494128BF41F0004130BD14F580048F
:1004D0003CBF01F5801130BD01F0004545F0FE4103
:1004E00041F470014FF0000030BD7FEA645C1ABF38
:1004F000194610467FEA655C1CBF0B46024650EA6F
:10050000013406BF52EA033591EA030F41F400219A
:1005100030BD00BF90F0000F04BF0021704730B520
:100520004FF4806404F132044FF000054FF00001F5
:1005300050E700BF90F0000F04BF0021704730B5B6
:100540004FF4806404F1320410F0004548BF40428B
:100550004FF000013EE700BF42004FEAE2014FEAE0
:1005600031014FEA02701FBF12F07F4393F07F4FBB
:1005700081F06051704732F07F4208BF704793F0BE
:100580007F4F04BF41F40021704730B54FF46074D1
:1005900001F0004521F000411CE700BF50EA0102D4
:1005A00008BF704730B54FF000050AE050EA01027D
:1005B00008BF704730B511F0004502D5404261EBED
:1005C00041014FF4806404F132045FEA915C3FF42E
:1005D000D8AE4FF003025FEADC0C18BF03325FEACB
:1005E000DC0C18BF033202EBDC02C2F1200300FA7C
:1005F00003FC20FA02F001FA03FE40EA0E0021FAA1
:1006000002F11444BDE600BF70B54FF0FF0C4CF48E
:10061000E06C1CEA11541DBF1CEA135594EA0C0F40
:1006200095EA0C0F00F0DEF82C4481EA030621EA7B
:100630004C5123EA4C5350EA013518BF52EA0335B6
:1006400041F4801143F4801338D0A0FB02CE4FF068
:100650000005E1FB02E506F00042E0FB03E54FF098
:100660000006E1FB03569CF0000F18BF4EF0010E90
:10067000A4F1FF04B6F5007F64F5407404D25FEA8C
:100680004E0E6D4146EB060642EAC62141EA55513F
:100690004FEAC52040EA5E504FEACE2EB4F1FD0C81
:1006A00088BFBCF5E06F1ED8BEF1004F08BF5FEAFF
:1006B000500E50F1000041EB045170BD06F00046B1
:1006C00046EA010140EA020081EA0301B4EB5C045E
:1006D000C2BFD4EB0C0541EA045170BD41F4801156
:1006E0004FF0000E013C00F3AB8014F1360FDEBF7B
:1006F000002001F0004170BDC4F10004203C35DA57
:100700000C341BDC04F11404C4F1200500FA05F3D9
:1007100020FA04F001FA05F240EA020001F000427A
:1007200021F0004110EBD37021FA04F642EB0601F0
:100730005EEA430E08BF20EAD37070BDC4F10C041A
:10074000C4F1200500FA04F320FA05F001FA04F2DE
:1007500040EA020001F0004110EBD37041F10001CA
:100760005EEA430E08BF20EAD37070BDC4F12005D5
:1007700000FA05F24EEA020E20FA04F301FA05F23D
:1007800043EA020321FA04F001F0004121FA04F2E5
:1007900020EA020000EBD3705EEA430E08BF20EAB5
:1007A000D37070BD94F0000F0FD101F000464000EF
:1007B00041EB010111F4801F08BF013CF7D041EA71
:1007C000060195F0000F18BF704703F00046520075
:1007D00043EB030313F4801F08BF013DF7D043EA46
:1007E0000603704794EA0C0F0CEA135518BF95EAFC
:1007F0000C0F0CD050EA410618BF52EA4306D1D183
:1008000081EA030101F000414FF0000070BD50EAA1
:10081000410606BF1046194652EA430619D094EA2B
:100820000C0F02D150EA013613D195EA0C0F05D115
:1008300052EA03361CBF104619460AD181EA030169
:1008400001F0004141F0FE4141F470014FF0000021
:1008500070BD41F0FE4141F4780170BD70B54FF0BC
:10086000FF0C4CF4E06C1CEA11541DBF1CEA13553C
:1008700094EA0C0F95EA0C0F00F0A7F8A4EB05041E
:1008800081EA030E52EA03354FEA013100F0888015
:100890004FEA03334FF0805545EA131343EA1263DE
:1008A0004FEA022245EA111545EA10654FEA002693
:1008B0000EF000419D4208BF964244F1FD0404F54C
:1008C000407402D25B084FEA3202B61A65EB0305A8
:1008D0005B084FEA32024FF480104FF4002CB6EB65
:1008E000020E75EB030E22BFB61A754640EA0C00E5
:1008F0005B084FEA3202B6EB020E75EB030E22BF25
:10090000B61A754640EA5C005B084FEA3202B6EB65
:10091000020E75EB030E22BFB61A754640EA9C0024
:100920005B084FEA3202B6EB020E75EB030E22BFF4
:10093000B61A754640EADC0055EA060E18D04FEAB2
:10094000051545EA16754FEA06164FEAC30343EA52
:1009500052734FEAC2025FEA1C1CC0D111F4801F1F
:100960000BD141EA00014FF000004FF0004CB6E718
:1009700011F4801F04BF01430020B4F1FD0C88BFB7
:10098000BCF5E06F3FF6AFAEB5EB030C04BFB6EBC2
:10099000020C5FEA500C50F1000041EB045170BDB5
:1009A0000EF0004E4EEA113114EB5C04C2BFD4EBE2
:1009B0000C0541EA045170BD41F480114FF0000E66
:1009C000013C90E645EA060E8DE60CEA135594EAE2
:1009D0000C0F08BF95EA0C0F3FF43BAF94EA0C0FE5
:1009E0000AD150EA01347FF434AF95EA0C0F7FF45A
:1009F00025AF104619462CE795EA0C0F06D152EAAE
:100A000003353FF4FDAE1046194622E750EA410691
:100A100018BF52EA43067FF4C5AE50EA41047FF4A2
:100A20000DAF52EA43057FF4EBAE12E74FF0FF3C07
:100A300006E000BF4FF0010C02E000BF4FF0010CD8
:100A40004DF804CD4FEA410C7FEA6C5C4FEA430C51
:100A500018BF7FEA6C5C1BD001B050EA410C0CBFA0
:100A600052EA430C91EA030F02BF90EA020F002002
:100A7000704710F1000F91EA030F58BF994208BF69
:100A800090422CBFD8176FEAE37040F00100704726
:100A90004FEA410C7FEA6C5C02D150EA013C07D17D
:100AA0004FEA430C7FEA6C5CD6D152EA033CD3D0C8
:100AB0005DF8040B704700BF8446104662468C46C2
:100AC0001946634600E000BF01B5FFF7B7FF0028F5
:100AD00048BF10F1000F01BD4DF808EDFFF7F4FF1E
:100AE0000CBF012000205DF808FB00BF4DF808EDA9
:100AF000FFF7EAFF34BF012000205DF808FB00BFCC
:100B00004DF808EDFFF7E0FF94BF012000205DF8ED
:100B100008FB00BF4DF808EDFFF7CEFF94BF0120A2
:100B200000205DF808FB00BF4DF808EDFFF7C4FF9B
:100B300034BF012000205DF808FB00BF4FEA410CE4
:100B40007FEA6C5C02D150EA013C0AD14FEA430CC7
:100B50007FEA6C5C02D152EA033C02D14FF0000004
:100B600070474FF0010070474FEA410212F5001242
:100B700015D211D56FF47873B3EB625212D94FEAE4
:100B8000C12343F0004343EA505311F0004F23FACE
:100B900002F018BF404270474FF00000704750EA23
:100BA000013005D111F0004008BF6FF000407047E0
:100BB0004FF00000704700BF53B94AB9002908BF81
:100BC00000281CBF4FF0FF314FF0FF3000F070B92C
:100BD000ADF1080C6DE904CE00F006F8DDF804E094
:100BE000DDE9022304B070472DE9F047089E0D4669
:100BF00004460F46002B4AD18A42944665D9B2FA80
:100C000082F343B102FA03FCC3F120029F4020FAB1
:100C100002F217439C404FEA1C4E1FFA8CF5B7FBBB
:100C2000FEF1220C0EFB117742EA074201FB05F0B0
:100C300090420AD91CEB020201F1FF3780F01C81BF
:100C4000904240F2198102396244121AA4B2B2FBF6
:100C5000FEF00EFB102244EA024400FB05F5A5421B
:100C60000AD91CEB040400F1FF3280F00781A54291
:100C700040F204816444023840EA0140641B0021D0
:100C80001EB1DC400023C6E90043BDE8F0878B427B
:100C900008D9002E00F0ED800021C6E900050846C5
:100CA000BDE8F087B3FA83F1002949D1AB4202D302
:100CB000824200F2F880841A65EB03020120174695
:100CC000002EE2D0C6E90047DFE702B9FFDEB2FA44
:100CD00082F3002B40F090808A1A4FEA1C471FFADB
:100CE0008CFE0121B2FBF7F507FB1520220C42EA2E
:100CF00000420EFB05F0904208D91CEB020205F100
:100D0000FF3802D2904200F2CB804546121AA4B2BC
:100D1000B2FBF7F007FB102244EA02440EFB00FE90
:100D2000A64508D91CEB040400F1FF3202D2A64507
:100D300000F2BB801046A4EB0E0440EA05409FE79A
:100D4000C1F120078B4022FA07FC4CEA030C05FA9C
:100D500001F420FA07F3FD404FEA1C492343B5FB99
:100D6000F9F81FFA8CFE09FB18551C0C44EA0544DF
:100D700008FB0EF5A54202FA01F200FA01F00BD9C8
:100D80001CEB040408F1FF3A80F08880A54240F291
:100D90008580A8F102086444641B9DB2B4FBF9F39A
:100DA00009FB134445EA044403FB0EFEA64508D99B
:100DB0001CEB040403F1FF356CD2A6456AD9023B53
:100DC000644443EA0843A3FB0295A4EB0E04AC423F
:100DD000C846AE4656D353D056B1B0EB080264EBCA
:100DE0000E0404FA07F7CA40CC401743C6E9007462
:100DF00018460021BDE8F087C3F1200102FA03FC88
:100E000020FA01F225FA01F19D402A434FEA1C47DE
:100E10001FFA8CFEB1FBF7F007FB1015110C41EA2D
:100E2000054100FB0EF58D4204FA03F408D91CEBD2
:100E3000010100F1FF382FD28D422DD902386144D3
:100E4000491B92B2B1FBF7F507FB151142EA0142CB
:100E500005FB0EF1914208D91CEB020205F1FF38A7
:100E600016D2914214D9023D6244521A45EA004119
:100E700038E73146304608E73946E6E61046FBE6F5
:100E80004845A9D2B9EB020865EB0C0E013BA3E77C
:100E90004546EAE72B4694E74046D1E7D0467BE754
:100EA000023D624432E708460AE76444023842E7FA
:100EB000704700BF80B483B000AF7860044A7B689D
:100EC000136000BF0C37BD465DF8047B704700BF60
:100ED0006007002080B483B000AF7860094B1B68C6
:100EE0001B6800225A6200BF064B1B681B685B6AC6
:100EF0007A689A42F8D800BF00BF0C37BD465DF84B
:100F0000047B70476007002080B582B000AF0022EC
:100F10000221114802F0ECFC4FF4F070FFF7DAFF09
:100F2000012202210C4802F0E3FC4620FFF7D2FF29
:100F30000221094802F0C4FC03467B604FF4CD70E7
:100F4000FFF7C8FF7B68002B01D1002300E00123DD
:100F500018460837BD4680BD0004024080B582B007
:100F600000AF78607B68002B10D00022022111486E
:100F700002F0BEFC0620FFF7ADFF012202210D4862
:100F800002F0B6FC4020FFF7A5FF0FE0002202218F
:100F9000084802F0ADFC3C20FFF79CFF0122022133
:100FA000044802F0A5FC0A20FFF794FF00BF0837B1
:100FB000BD4680BD0004024080B582B000AF002273
:100FC00002210E4802F094FC0620FFF783FF012265
:100FD00002210A4802F08CFC0920FFF77BFF022166
:100FE000064802F06DFC03467B603720FFF772FF76
:100FF0007B6818460837BD4680BD00BF000402402C
:1010000080B584B000AF0346FB710023FB600BE0AA
:10101000FB7903F001031846FFF7A0FFFB795B089B
:10102000FB71FB680133FB60FB68072BF0DD00BF41
:1010300000BF1037BD4680BD80B582B000AF002331
:10104000FB7100233B600EE0FB795B08FB71FFF74F
:10105000B3FF0346002B03D0FB7963F07F03FB71E2
:101060003B6801333B603B68072BEDDDFB7918469D
:101070000837BD4680BD000080B483B000AF034692
:101080000A46FB801346BB80074B1B681B68BA8867
:10109000DA62054B1B68BA88DA6000BF0C37BD46C0
:1010A0005DF8047B704700BF6407002080B483B004
:1010B00000AF0346FB80054B1B681B68FA885A6229
:1010C00000BF0C37BD465DF8047B70476407002005
:1010D00080B400AF044B1B681B685B6A1846BD46B2
:1010E0005DF8047B704700BF6407002080B483B0C4
:1010F00000AF7860044A7B68136000BF0C37BD46C0
:101100005DF8047B704700BF6407002080B582B0A3
:1011100000AF0346FB80FFF7DBFF0246B7F906305E
:101120009A4201D1012300E0002318460837BD464A
:1011300080BD80B582B000AF0346FB80FFF7C8FFDB
:101140000246B7F906309A4206D100F0BDF80346D0
:10115000002B01D0012300E0002318460837BD46CC
:1011600080BD000080B582B000AF78607B681B68EE
:101170000A4A93420DD1786803F034FE4FF480712F
:10118000074802F09DFB0346002B02D1054B0122CC
:101190001A7000BF0837BD4680BD00BF004801403F
:1011A00000040240140A002080B584B000AF7860CB
:1011B0007B681B7F012B0ED10021786804F018FB9F
:1011C000F860244B01221A707B681A68FB6803F5EB
:1011D000D053033353637B681B7F022B0ED1042152
:1011E000786804F005FBF8601B4B01221A707B68DD
:1011F0001A68FB6803F552533C3393637B681B7F8B
:10120000042B0ED10821786804F0F2FAF860134B31
:1012100001221A707B681A68FB6803F50C43A0333F
:10122000D3637B681B7F082B0FD10C21786804F0F7
:10123000DFFAF8600A4B01221A707B681A68FB68B3
:1012400003F5823303F5DC73136400BF1037BD462A
:1012500080BD00BF150A0020160A0020170A0020D2
:10126000180A002080B400AF0C4BDB6803F08073D9
:10127000002B0ED1094BDB68084A43F08073D36022
:10128000074B00225A60064B1B68054A43F00103D6
:10129000136000BFBD465DF8047B7047F0ED00E0D1
:1012A000001000E080B582B000AF0346FB80FB88F1
:1012B000B3F5807F02D1034803F032FD00BF083749
:1012C000BD4680BD8809002080B400AF074B93F96C
:1012D0000030012B04D1054B00221A70012300E0DD
:1012E00000231846BD465DF8047B7047140A0020B1
:1012F00080B586B002AF01F0F9FB00F0D5F800F040
:1013000095FB00F039F900F097F900F0C3F900F00F
:10131000EFF900F023FA00F05FFB00F015FB00F09E
:1013200037FB00F071FAFFF79DFF5048FFF7DEFE34
:101330004F48FFF7BFFD4F4800F034FC4C4803F026
:1013400095FC00F0EDFDFFF7DFFD00237B733C21F2
:10135000464803F073FF0021474803F0CBFD04210A
:10136000454803F0C7FD0821434803F0C3FD0C21A5
:10137000414803F0BFFD7B7B002B3BD03F4B93F9F3
:101380000030012B09D14FF0FF3312223C4939487C
:1013900004F02BFE394B00221A703A4B93F90030BF
:1013A000012B09D14FF0FF3312223749314804F0A5
:1013B0001CFE344B00221A70344B93F90030012B81
:1013C00009D14FF0FF33122231492A4804F00DFEB3
:1013D0002E4B00221A702F4B93F90030012B09D1AC
:1013E0004FF0FF3312222C49224804F0FEFD294B16
:1013F00000221A70294801F053FC4FF0FF312748B2
:1014000001F002FD254801F08AFD03463B604FF0E4
:10141000FF31224801F0F8FC204801F080FD03462E
:101420007B60124B1B685B6A7B81B7F90A20B7F9B6
:101430000E309A4216D0B7F90A2039687B680093BB
:101440000B461749174805F06DFE1648FEF718FFC2
:1014500003469AB24FF0FF331249064804F0C5FD27
:101460007B89FB8100F036FD85E700BFB0080020D6
:1014700040090020D0090020F8080020150A0020AB
:10148000F8930008160A00200C940008170A0020A0
:1014900020940008180A00203494000868070020EF
:1014A000489400081C0A002080B594B000AF07F1F2
:1014B000200330220021184605F0B1FE07F10C038D
:1014C00000221A605A609A60DA601A610023BB60D9
:1014D000274B1B6C264A43F080531364244B1B6C30
:1014E00003F08053BB60BB6800237B60214B1B680B
:1014F000204A43F4404313601E4B1B6803F44043EF
:101500007B607B6802233B620123FB6210233B6309
:101510000223BB630023FB6308233B6450237B64EB
:101520000223BB640423FB6407F12003184602F086
:101530006DFE0346002B01D000F02EFB0F23FB6055
:1015400002233B6100237B614FF48053BB61002386
:10155000FB6107F10C030221184603F0CFF80346A4
:10156000002B01D000F018FB00BF5037BD4680BDF6
:10157000003802400070004080B584B000AF3B46A8
:1015800000221A605A609A60DA60284B284A1A6072
:10159000264B4FF480325A60244B00229A60234B32
:1015A00001221A61214B00221A76204B002283F877
:1015B00020201E4B0022DA621C4B1E4A9A621B4BF3
:1015C0000022DA60194B0222DA61184B002283F8FC
:1015D0003020164B01225A61144801F01DFB0346CE
:1015E000002B01D000F0D8FA00233B6001237B6080
:1015F0000323BB603B4619460C4801F09DFC0346A3
:10160000002B01D000F0C8FA01233B6002237B606D
:101610003B461946054801F08FFC0346002B01D0DC
:1016200000F0BAFA00BF1037BD4680BD6807002041
:10163000002001400100000F80B500AF124B134A9B
:101640001A60114B124A5A600F4B00229A600E4BDF
:101650000022DA600C4B4FF480421A610A4B0022E0
:101660005A61094B00229A61074B0022DA61064B4E
:1016700000221A62044802F06DF90346002B01D0E3
:1016800000F08AFA00BF80BDB0070020005400407F
:10169000A086010080B500AF124B134A1A60114BAF
:1016A000124A5A600F4B00229A600E4B0022DA60F9
:1016B0000C4B4FF480421A610A4B00225A61094BCD
:1016C00000229A61074B0022DA61064B00221A625F
:1016D000044802F03FF90346002B01D000F05CFA09
:1016E00000BF80BD0408002000580040A086010013
:1016F00080B500AF174B184A1A60164B4FF4827230
:101700005A60144B00229A60124B0022DA60114B8F
:1017100000221A610F4B00225A610E4B4FF40072E7
:101720009A610C4B0022DA610A4B00221A62094BC3
:1017300000225A62074B00229A62064B0A22DA62A2
:10174000044803F0BBF90346002B01D000F024FA53
:1017500000BF80BD580800200030014080B58CB02B
:1017600000AF07F10C0324220021184605F057FDB5
:101770003B1D00221A605A60214B224A1A60204BFE
:1017800001225A601E4B00229A601D4B2822DA600B
:101790001B4B00221A611A4B00225A61184B00227F
:1017A0009A610123FB6000233B6101237B610023DD
:1017B000BB610F23FB6100233B6201237B6200239B
:1017C000BB620F23FB6207F10C0319460C4803F0C0
:1017D0008FFC0346002B01D000F0DEF900237B6074
:1017E0000023BB603B1D1946054804F02FFB034650
:1017F000002B01D000F0D0F900BF3037BD4680BDCE
:10180000B00800200000014080B58EB000AF07F1A5
:10181000280300221A605A609A60DA6007F12003F8
:1018200000221A605A603B1D00221A605A609A60BA
:10183000DA601A615A619A61414B4FF080421A6036
:101840003F4B42F6E0625A603D4B00229A603C4BAF
:101850004FF0FF32DA603A4B00221A61384B002217
:101860009A61374803F0B3F90346002B01D000F02A
:1018700093F94FF48053BB6207F1280319463048AF
:1018800003F0EEFE0346002B01D000F085F92C4852
:1018900003F0D7FA0346002B01D000F07DF90023B6
:1018A0003B6200237B6207F120031946244804F0C1
:1018B000CDFA0346002B01D000F06EF930237B6097
:1018C00041F60323BB600023FB6000237B613B1DCB
:1018D000002219461A4803F067FE0346002B01D088
:1018E00000F05AF943F2BC43BB603B1D0422194689
:1018F000134803F059FE0346002B01D000F04CF9C9
:1019000048F6A043BB603B1D082219460C4803F073
:101910004BFE0346002B01D000F03EF9094BBB60A3
:101920003B1D0C221946064803F03EFE0346002BE1
:1019300001D000F031F900BF3837BD4680BD00BF8F
:10194000F8080020B805010080B500AF0E4B0F4A23
:101950001A600D4B4F225A600B4B00229A600A4BC3
:101960004FF6FF72DA60084B00221A61064B002224
:101970009A61054803F02BF90346002B01D000F0D3
:101980000BF900BF80BD00BF4009002000440140AA
:1019900080B500AF0E4B0F4A1A600D4B0A225A60F9
:1019A0000B4B00229A600A4B4FF6FF72DA60084B2D
:1019B00000221A61064B00229A61054803F007F9DC
:1019C0000346002B01D000F0E7F800BF80BD00BF48
:1019D000880900200048014080B500AF114B124A31
:1019E0001A60104B4FF4E1325A600E4B00229A609D
:1019F0000C4B0022DA600B4B00221A61094B0C22BF
:101A00005A61084B00229A61064B0022DA610548B0
:101A100004F09EFA0346002B01D000F0BDF800BF91
:101A200080BD00BFD00900200014014080B588B0FF
:101A300000AF07F10C0300221A605A609A60DA6066
:101A40001A610023BB60504B1B6B4F4A43F00403E9
:101A500013634D4B1B6B03F00403BB60BB68002397
:101A60007B60494B1B6B484A43F001031363464BB1
:101A70001B6B03F001037B607B6800233B60424BE0
:101A80001B6B414A43F0020313633F4B1B6B03F094
:101A900002033B603B68002248F210013B4801F022
:101AA00027FF012202213A4801F022FF002243F2DF
:101AB0001801374801F01CFF4FF40043FB604FF45E
:101AC00088133B6100237B6107F10C031946314801
:101AD00001F072FD48F21003FB6001233B6100231B
:101AE0007B610023BB6107F10C031946274801F015
:101AF00063FD0223FB6011233B6101237B61002313
:101B0000BB6107F10C031946214801F055FD042380
:101B1000FB6000233B6100237B6107F10C03194646
:101B20001B4801F049FD43F21803FB6001233B61B0
:101B300000237B610023BB6107F10C0319461448A5
:101B400001F03AFD4FF48073FB604FF404133B61E6
:101B500000237B6107F10C0319460D4801F02CFDB1
:101B600000220021172001F0F0FC172001F009FDF0
:101B700000220021282001F0E8FC282001F001FDCE
:101B800000BF2037BD4680BD003802400000024043
:101B9000000402400008024080B400AF72B600BFEB
:101BA000FEE7000080B483B000AF7860044A7B6831
:101BB000136000BF0C37BD465DF8047B704700BF63
:101BC000500A002080B582B000AF0346FB710B467F
:101BD000BB711346BB803821002000F03DFFFB792C
:101BE0001BB21846FFF792FA034683F00103DBB2FB
:101BF0000B4A06CA0B4800F009FFFB791BB21846D6
:101C0000FFF797FA0346002B05D00020FFF74EFAA6
:101C1000054ABB79137000BF0837BD4680BD00BFC1
:101C20005C050020649400084E0A002090B585B041
:101C300000AF78600023FB602EE0FB68DBB2DB00C6
:101C4000DBB21946002000F007FFFB681BB2184604
:101C5000FFF76FFA0346002B07D07B68FA68013262
:101C600013F83220114B1A701CE07A68FB680133BC
:101C7000DB0013445C68FB681BB21846FFF746FAAA
:101C8000034683F00103DBB2094A06CA204600F08E
:101C9000BDFEFB680133FB607B685B68FA689A42B3
:101CA000CBDB00BF00BF1437BD4690BD4E0A0020FD
:101CB0005C05002080B584B000AF7860272100204B
:101CC000FFF7DAF97868FFF7B1FFFFF701FAF8607C
:101CD00007F10803FA680949184605F023FA1E219E
:101CE000002000F0B9FE064A07F10800012306CAE9
:101CF00000F08CFE00BF1037BD4680BD6C9400081C
:101D00006C05002080B582B000AF78600321002010
:101D1000FFF7B2F97868FFF789FF0122002103205D
:101D2000FFF750FF00BF0837BD4680BD80B582B0C9
:101D300000AF786001210020FFF79EF97868FFF777
:101D400075FF002200210020FFF73CFF00BF08378D
:101D5000BD4680BD90B591B000AF786001210020F4
:101D6000FFF78AF9FFF7D0F8CC20FFF749F94420B4
:101D7000FFF746F95F2000F02BFFFFF7C5F8CC20F6
:101D8000FFF73EF9BE20FFF73BF90023FB630CE0B1
:101D9000FFF752F90346194607F12C02FB6B134477
:101DA0000A461A70FB6B0133FB63FB6B082BEFDDFC
:101DB00097F82D301B0297F82C20134307EE903A2A
:101DC000F8EEE77AC7ED0E7A97ED0E7AF3EE006A39
:101DD000C7EE267AC7ED0E7A0021002000F03CFE07
:101DE000194A012306CA194800F010FE0C210020F0
:101DF00000F032FEB86BFEF7AFFB02460B4607F170
:101E00000C00134905F08EF9124A07F10C0001236A
:101E100006CA00F0FBFD104B1C6807F10C031846C6
:101E2000FEF72EFA03469AB207F10C014FF0FF338A
:101E3000204604F0DAF8012200210120FFF7C2FE5B
:101E400000BF4437BD4690BD640500207094000873
:101E5000849400086C050020500A002080B582B0F0
:101E600000AF78607868FFF7E1FE00BF0837BD4635
:101E700080BD80B582B000AF78607868FFF7D6FE8D
:101E8000012200210120FFF79DFE00BF0837BD465B
:101E900080BD80B582B000AF78607868FFF7C6FE7D
:101EA000012200210120FFF78DFE00BF0837BD464B
:101EB00080BD80B582B000AF78607868FFF7B6FE6D
:101EC000012200210120FFF77DFE00BF0837BD463B
:101ED00080BD000080B500AF002000F06FFC0E4B0D
:101EE0001B7819460D4A0B46DB000B44DB001344FC
:101EF0001A68094B1B7819460B46DB000B44DB00C4
:101F000006490B441846904700F07CFC012000F085
:101F10005FFE00BF80BD00BF4E0A00200000002011
:101F200080B500AF00F0E0FB00BF80BD80B483B09F
:101F300000AF00237B60104B5B6C0F4A43F480437F
:101F400053640D4B5B6C03F480437B607B68002320
:101F50003B60094B1B6C084A43F080531364064BEB
:101F60001B6C03F080533B603B6800BF0C37BD46E1
:101F70005DF8047B704700BF0038024080B58AB02E
:101F800000AF786007F1140300221A605A609A606B
:101F9000DA601A617B681B68174A934227D10023D5
:101FA0003B61164B5B6C154A43F480735364134BCF
:101FB0005B6C03F480733B613B690023FB600F4B58
:101FC0001B6B0E4A43F0010313630C4B1B6B03F0B6
:101FD0000103FB60FB680F237B610323BB610023CC
:101FE000FB6107F114031946054801F0E5FA00BF4B
:101FF0002837BD4680BD00BF0020014000380240A8
:102000000000024080B58CB000AF786007F11C037F
:1020100000221A605A609A60DA601A617B681B6855
:102020003B4A93422CD10023BB613A4B1B6B394A8C
:1020300043F002031363374B1B6B03F00203BB61D6
:10204000BB69C023FB6112233B6200237B62032335
:10205000BB620423FB6207F11C0319462E4801F002
:10206000ABFA00237B612B4B1B6C2A4A43F4001311
:102070001364284B1B6C03F400137B617B6942E003
:102080007B681B68254A93423DD100233B61214B6D
:102090001B6B204A43F0020313631E4B1B6B03F0C0
:1020A00002033B613B694FF48063FB6112233B6297
:1020B00000237B620323BB620423FB6207F11C0342
:1020C0001946154801F078FA4FF40073FB611223AA
:1020D0003B6200237B620323BB620923FB6207F19F
:1020E0001C0319460C4801F067FA0023FB60094BFA
:1020F0001B6C084A43F480031364064B1B6C03F407
:102100008003FB60FB6800BF3037BD4680BD00BF69
:1021100000540040003802400004024000580040D3
:1021200080B58AB000AF786007F1140300221A600E
:102130005A609A60DA601A617B681B68194A934298
:102140002BD100233B61184B5B6C174A43F480533F
:102150005364154B5B6C03F480533B613B69002374
:10216000FB60114B1B6B104A43F0010313630E4BD2
:102170001B6B03F00103FB60FB68E0237B61022320
:10218000BB610023FB6103233B6205237B6207F1F4
:1021900014031946054801F00FFA00BF2837BD4661
:1021A00080BD00BF00300140003802400000024006
:1021B00080B58AB000AF786007F1140300221A607E
:1021C0005A609A60DA601A617B681B68214A934200
:1021D0003CD100233B61204B5B6C1F4A43F0010361
:1021E00053641D4B5B6C03F001033B613B690023AF
:1021F000FB60194B1B6B184A43F001031363164B2A
:102200001B6B03F00103FB60FB684FF440737B61C1
:102210000223BB610023FB6100233B6201237B623D
:1022200007F1140319460D4801F0C6F900220021F8
:10223000192001F08AF9192001F0A3F900220021E8
:102240001A2001F082F91A2001F09BF900BF28370B
:10225000BD4680BD00000140003802400000024041
:1022600080B586B000AF78607B681B68B3F1804FA3
:1022700016D100237B61284B1B6C274A43F00103D6
:102280001364254B1B6C03F001037B617B69002207
:1022900000211C2001F059F91C2001F072F936E0F0
:1022A0007B681B681D4A934216D100233B611A4B81
:1022B0005B6C194A43F400335364174B5B6C03F4B3
:1022C00000333B613B6900220021192001F03DF9F8
:1022D000192001F056F91AE07B681B68104A9342F6
:1022E00015D10023FB600C4B5B6C0B4A43F480233D
:1022F0005364094B5B6C03F48023FB60FB68002292
:1023000000211A2001F021F91A2001F03AF900BF4A
:102310001837BD4680BD00BF003802400044014070
:102320000048014080B58AB000AF786007F114031F
:1023300000221A605A609A60DA601A617B681B6832
:10234000194A93422CD100233B61184B5B6C174A0E
:1023500043F020035364154B5B6C03F020033B6197
:102360003B690023FB60114B1B6B104A43F00103D8
:1023700013630E4B1B6B03F00103FB60FB684FF410
:10238000C0537B610223BB610023FB6103233B62DB
:1023900008237B6207F114031946054801F00CF984
:1023A00000BF2837BD4680BD001401400038024000
:1023B0000000024080B400AFFEE780B400AFFEE74B
:1023C00080B400AFFEE780B400AFFEE780B400AF9A
:1023D000FEE780B400AF00BFBD465DF8047B7047E8
:1023E00080B400AF00BFBD465DF8047B704780B489
:1023F00000AF00BFBD465DF8047B704780B500AFFD
:1024000000F0C6FB00BF80BD80B500AF4FF4807008
:1024100001F088FA00BF80BD80B500AF034802F02C
:10242000BBFF034802F0B8FF00BF80BDB00800202A
:102430004009002080B500AF034802F0ADFF03481B
:1024400002F0AAFF00BF80BDB0080020880900206C
:1024500080B500AF024802F09FFF00BF80BD00BF03
:10246000F808002080B500AF4FF4004001F05AFAA0
:1024700000BF80BD80B400AF01231846BD465DF8A3
:10248000047B704780B582B000AF7860396004F09B
:1024900019FF034616221A604FF0FF33184608371B
:1024A000BD4680BD80B582B000AF78604FF0FF318F
:1024B0007868FFF7E7FFFEE780B586B000AFF86009
:1024C000B9607A6000237B610AE0AFF300800146C7
:1024D000BB685A1CBA60CAB21A707B6901337B614F
:1024E0007A697B689A42F0DB7B6818461837BD46EC
:1024F00080BD80B586B000AFF860B9607A60002317
:102500007B6109E0BB685A1CBA601B781846AFF3C0
:1025100000807B6901337B617A697B689A42F1DBD9
:102520007B6818461837BD4680BD80B483B000AFC5
:1025300078604FF0FF3318460C37BD465DF8047BDA
:10254000704780B483B000AF786039603B684FF467
:1025500000525A60002318460C37BD465DF8047BD4
:10256000704780B483B000AF7860012318460C3701
:10257000BD465DF8047B704780B485B000AFF8605D
:10258000B9607A60002318461437BD465DF8047BB5
:102590007047000080B586B000AF7860144A154BD4
:1025A000D31A7B617B693B61134B1B68002B02D103
:1025B000114B124A1A60104B1A687B6813443A692F
:1025C0009A4207D204F07EFE03460C221A604FF0B6
:1025D000FF3309E0084B1B68FB60074B1A687B68F8
:1025E0001344054A1360FB6818461837BD4680BD82
:1025F0000000022000040000540A0020B00F002058
:1026000080B400AF064BD3F88830054A43F470031A
:10261000C2F8883000BFBD465DF8047B704700BF3C
:1026200000ED00E0DFF834D00D480E490E4A0023DB
:1026300002E0D458C4500433C4188C42F9D30B4A76
:102640000B4C002301E013600432A242FBD3FFF7DE
:10265000D7FF04F03DFEFEF74BFE7047000002205E
:10266000000000204407002004B8000844070020B0
:10267000B00F0020FEE780B400AF00BFBD465DF89C
:10268000047B704780B586B004AF0346FB714FF002
:10269000FF33029301230193FB1D009301230022CA
:1026A0007821034801F09AFA00BF0837BD4680BD83
:1026B000B007002080B586B004AF786039603B6811
:1026C0009BB24FF0FF32029201937B68009301238B
:1026D00040227821034801F081FA00BF0837BD4647
:1026E00080BD00BFB007002080B500AFFFF7C3FF7B
:1026F000642000F06DFA002000F0DAF92020FFF7E6
:10270000C1FF0020FFF7BEFFB020FFF7BBFFC820CE
:10271000FFF7B8FF0020FFF7B5FF1020FFF7B2FF6B
:102720004020FFF7AFFFFF2000F0AEF9A120FFF738
:10273000A9FFA620FFF7A6FFA820FFF7A3FF3F20D1
:10274000FFF7A0FFA420FFF79DFFD320FFF79AFF1C
:102750000020FFF797FFD520FFF794FFF020FFF749
:1027600091FFD920FFF78EFF2220FFF78BFFDA20A1
:10277000FFF788FF1220FFF785FFDB20FFF782FFBE
:102780002020FFF77FFF8D20FFF77CFF1420FFF74D
:1027900079FF012000F08CF9002000F00FF800F024
:1027A00031F8054B00221A80034B00225A80024B5D
:1027B00001221A7100BF80BD580E002080B485B080
:1027C00000AF0346FB710023FB600DE0FB79002B9B
:1027D00001D1002100E0FF21094AFB6813440A46A9
:1027E0001A70FB680133FB60FB68B3F5806FEDD3B3
:1027F00000BF00BF1437BD465DF8047B704700BFC3
:10280000580A002080B582B000AF0023FB7116E0AB
:10281000FB79503BDBB21846FFF734FF0020FFF78F
:1028200031FF1020FFF72EFFFB79DB01084A13442C
:1028300080211846FFF73EFFFB790133FB71FB79DE
:10284000072BE5D900BF00BF0837BD4680BD00BFDC
:10285000580A002080B483B000AF0346FB710B46DA
:10286000BB7113467B7197F90730002B3DDBBB79B9
:102870003F2B3AD87B79012B1AD1FA79BB79DB0847
:10288000D8B20346DB0113441B4AD35C5AB2BB796E
:1028900003F00703012101FA03F35BB2134359B2BA
:1028A000FA790346DB011344C9B2134AD1541DE03F
:1028B000FA79BB79DB08D8B20346DB0113440E4A30
:1028C000D35C5AB2BB7903F00703012101FA03F389
:1028D0005BB2DB435BB2134059B2FA790346DB01CA
:1028E0001344C9B2044AD15400E000BF0C37BD46BE
:1028F0005DF8047B704700BF580A002090B589B08E
:1029000000AF0446381D80E806001A462346FB73D4
:102910001346BB73FB7B1F2B02D9FB7B7E2B01D99C
:1029200000236DE0384B1B881A463B791344802BFB
:1029300006DC354B5B881A467B791344402B01DD5E
:1029400000235DE00023FB614CE0BA68FB7B203B89
:10295000797901FB03F31946FB690B445B001344CF
:102960001B887B610023BB6134E07A69BB6902FA92
:1029700003F303F40043002B12D0234B1B88DAB27D
:10298000BB69DBB21344D8B21F4B5B88DAB2FB6978
:10299000DBB21344DBB2BA7B1946FFF75BFF16E0EC
:1029A000194B1B88DAB2BB69DBB21344D8B2164BA1
:1029B0005B88DAB2FB69DBB21344D9B2BB7B002B74
:1029C0000CBF01230023DBB21A46FFF743FFBB69AC
:1029D0000133BB613B791A46BB699342C5D3FB699E
:1029E0000133FB617B791A46FB699342ADD3064BF9
:1029F0001A883B799BB213449AB2034B1A80FB7B33
:102A000018462437BD4690BD580E002080B584B0CE
:102A100000AFF860381D80E80600FB7012E0FB682C
:102A20001878FB783A1D06CAFFF768FF03461A4676
:102A3000FB681B789A4202D0FB681B7808E0FB68B1
:102A40000133FB60FB681B78002BE8D1FB681B7827
:102A500018461037BD4680BD80B483B000AF034632
:102A60000A46FB711346BB71FB799AB2054B1A807B
:102A7000BB799AB2034B5A8000BF0C37BD465DF854
:102A8000047B7047580E002080B584B000AF034629
:102A9000FB718123FB73FB7B1846FFF7F3FDFB798A
:102AA0001846FFF7EFFD00BF1037BD4680BD0000A0
:102AB00080B584B000AF0346FB71FB79002B05D0D5
:102AC000AF23FB73084B01225A7104E0AE23FB7362
:102AD000054B00225A71FB7B1846FFF7D3FD00BF60
:102AE0001037BD4680BD00BF580E002080B500AF36
:102AF0000E4B1B680D4A43F4007313600B4B1B68AD
:102B00000A4A43F480631360084B1B68074A43F486
:102B100080731360032000F00DFD0F2000F008F813
:102B2000FFF704FA0023184680BD00BF003C0240B6
:102B300080B582B000AF7860124B1A68124B1B78D8
:102B400019464FF47A73B3FBF1F3B2FBF3F3184673
:102B500000F025FD0346002B01D001230EE07B6829
:102B60000F2B0AD8002279684FF0FF3000F0EDFCFF
:102B7000064A7B681360002300E0012318460837EB
:102B8000BD4680BD58050020780500207405002052
:102B900080B400AF064B1B781A46064B1B681344E3
:102BA000044A136000BFBD465DF8047B704700BF58
:102BB00078050020600E002080B400AF034B1B6836
:102BC0001846BD465DF8047B704700BF600E0020CC
:102BD00080B584B000AF7860FFF7EEFFB8607B6827
:102BE000FB60FB68B3F1FF3F05D00A4B1B781A4628
:102BF000FB681344FB6000BFFFF7DEFF0246BB68C3
:102C0000D31AFA689A42F7D800BF00BF1037BD4602
:102C100080BD00BF7805002080B584B000AF78602B
:102C20000023FB737B68002B01D1012333E07B6819
:102C30001B6C002B09D17868FFF7A0F97B68002294
:102C40005A647B68002283F83C207B681B6C03F08D
:102C50001003002B18D17B681B6C23F4885323F0DE
:102C6000020343F002027B681A64786800F096FA67
:102C70007B6800225A647B681B6C23F0030343F0DB
:102C800001027B681A6401E00123FB737B68002268
:102C900083F83C20FB7B18461037BD4680BD000002
:102CA00080B485B000AF78600023BB607B6893F888
:102CB0003C30012B01D1022397E07B68012283F88D
:102CC0003C207B681B689B6803F00103012B18D034
:102CD0007B681B689A687B681B6842F001029A60F7
:102CE000454B1B68454AA2FB03239A0C13465B0025
:102CF0001344BB6002E0BB68013BBB60BB68002BB8
:102D0000F9D17B681B689B6803F00103012B5FD13D
:102D10007B681B6C23F4E06323F0010343F48072AF
:102D20007B681A647B681B685B6803F48063002B14
:102D300007D07B681B6C23F4405343F480527B68BC
:102D40001A647B681B6C03F48053B3F5805F06D173
:102D50007B685B6C23F006027B685A6402E07B6848
:102D600000225A647B68002283F83C20244BFB60DD
:102D70007B681B686FF022021A60FB685B6803F0D7
:102D80001F03002B0FD17B681B689B6803F0405327
:102D9000002B29D17B681B689A687B681B6842F00E
:102DA00080429A6020E07B681B68164A93421BD1E0
:102DB0007B681B689B6803F04053002B14D17B6831
:102DC0001B689A687B681B6842F080429A600BE03F
:102DD0007B681B6C43F010027B681A647B685B6C39
:102DE00043F001027B685A64002318461437BD463D
:102DF0005DF8047B704700BF5805002083DE1B434D
:102E0000002301400020014080B584B000AF78600D
:102E100039600023FB607B681B689B6803F4806358
:102E2000B3F5806F13D17B681B689B6803F48073D4
:102E3000B3F5807F0BD17B681B6C43F020027B686D
:102E40001A647B68002283F83C20012363E0FFF7CB
:102E5000B3FEF86021E03B68B3F1FF3F1DD03B6853
:102E6000002B07D0FFF7A8FE0246FB68D31A3A688A
:102E70009A4212D27B681B681B6803F00203022B84
:102E80000BD07B681B6C43F004027B681A647B6880
:102E9000002283F83C2003233DE07B681B681B680D
:102EA00003F00203022BD6D17B681B686FF012027D
:102EB0001A607B681B6C43F400727B681A647B6841
:102EC0001B689B6803F04053002B23D17B681B7E5B
:102ED000002B1FD17B681B68DB6A03F47003002B97
:102EE00006D07B681B689B6803F48063002B11D1BC
:102EF0007B681B6C23F480727B681A647B681B6C94
:102F000003F48053002B05D17B681B6C43F0010256
:102F10007B681A64002318461037BD4680BD80B414
:102F200083B000AF78607B681B68DB6C18460C3799
:102F3000BD465DF8047B704780B485B000AF786013
:102F400039600023BB607B6893F83C30012B01D1D2
:102F5000022313E17B68012283F83C203B681B6855
:102F6000092B25D97B681B68D9683B681B689BB215
:102F70001A4613465B0013441E3B072202FA03F372
:102F8000DA437B681B680A40DA607B681B68D96893
:102F90003B689A683B681B689BB2184603465B0017
:102FA00003441E3B9A407B681B680A43DA6022E0B8
:102FB0007B681B6819693B681B689BB21A461346FD
:102FC0005B001344072202FA03F3DA437B681B68B1
:102FD0000A401A617B681B6819693B689A683B68FC
:102FE0001B689BB2184603465B0003449A407B680B
:102FF0001B680A431A613B685B68062B24D87B6810
:103000001B68596B3B685A6813469B001344053B89
:103010001F2202FA03F3DA437B681B680A405A63F3
:103020007B681B68596B3B681B689BB218463B6802
:103030005A6813469B001344053B00FA03F27B6871
:103040001B680A435A634CE03B685B680C2B24D82E
:103050007B681B68196B3B685A6813469B001344D6
:10306000233B1F2202FA03F3DA437B681B680A4002
:103070001A637B681B68196B3B681B689BB2184618
:103080003B685A6813469B001344233B00FA03F243
:103090007B681B680A431A6323E07B681B68D96A54
:1030A0003B685A6813469B001344413B1F2202FAB7
:1030B00003F3DA437B681B680A40DA627B681B68AB
:1030C000D96A3B681B689BB218463B685A6813462E
:1030D0009B001344413B00FA03F27B681B680A43E0
:1030E000DA62294BFB607B681B68284A93420FD148
:1030F0003B681B68122B0BD1FB685B6823F4000252
:10310000FB685A60FB685B6843F48002FB685A60A6
:103110007B681B681D4A93422BD13B681B681C4A85
:10312000934203D03B681B68112B22D1FB685B687C
:1031300023F48002FB685A60FB685B6843F400027A
:10314000FB685A603B681B68114A934211D1114BCE
:103150001B68114AA2FB03239A0C13469B001344DD
:103160005B00BB6002E0BB68013BBB60BB68002B3F
:10317000F9D17B68002283F83C20002318461437DD
:10318000BD465DF8047B70470023014000200140EC
:10319000120000105805002083DE1B4380B485B068
:1031A00000AF7860794BFB60FB685B6823F44032CA
:1031B000FB685A60FB685A687B685B681A43FB6867
:1031C0005A607B681B685A687B681B6822F48072AF
:1031D0005A607B681B6859687B681B691A027B68A8
:1031E0001B680A435A607B681B685A687B681B68C7
:1031F00022F040725A607B681B6859687B689A6845
:103200007B681B680A435A607B681B689A687B6806
:103210001B6822F400629A607B681B6899687B686F
:10322000DA687B681B680A439A607B689B6A584A25
:10323000934222D07B681B689A687B681B6822F0E7
:1032400070629A607B681B6899687B689A6A7B6881
:103250001B680A439A607B681B689A687B681B68D6
:1032600022F040529A607B681B6899687B68DA6A32
:103270007B681B680A439A600FE07B681B689A684A
:103280007B681B6822F070629A607B681B689A6892
:103290007B681B6822F040529A607B681B689A68C2
:1032A0007B681B6822F002029A607B681B68996841
:1032B0007B681B7E5A007B681B680A439A607B68A8
:1032C00093F82030002B1BD07B681B685A687B6802
:1032D0001B6842F400625A607B681B685A687B680E
:1032E0001B6822F460425A607B681B6859687B68DF
:1032F0005B6A013B5A037B681B680A435A6007E01C
:103300007B681B685A687B681B6822F400625A60FD
:103310007B681B68DA6A7B681B6822F47002DA62D9
:103320007B681B68D96A7B68DB69013B1A057B688F
:103330001B680A43DA627B681B689A687B681B68B3
:1033400022F400729A607B681B6899687B6893F826
:1033500030305A027B681B680A439A607B681B689E
:103360009A687B681B6822F480629A607B681B689D
:1033700099687B685B699A027B681B680A439A605C
:1033800000BF1437BD465DF8047B70470023014041
:103390000100000F80B485B000AF78607B6803F057
:1033A0000703FB600C4BDB68BB60BA684FF6FF039A
:1033B0001340BB60FB681A02BB68134343F0BF6352
:1033C00043F40033BB60044ABB68D36000BF1437CA
:1033D000BD465DF8047B704700ED00E080B400AFAF
:1033E000044BDB681B0A03F007031846BD465DF873
:1033F000047B704700ED00E080B483B000AF03466B
:10340000FB7197F90730002B0BDBFB7903F01F02F0
:10341000074997F907305B09012000FA02F241F8E9
:10342000232000BF0C37BD465DF8047B704700BF0A
:1034300000E100E080B483B000AF03463960FB7167
:1034400097F90730002B0ADB3B68DAB20C4997F991
:1034500007301201D2B20B4483F800230AE03B6824
:10346000DAB20849FB7903F00F03043B1201D2B230
:103470000B441A7600BF0C37BD465DF8047B7047DD
:1034800000E100E000ED00E080B489B000AFF8603A
:10349000B9607A60FB6803F00703FB61FB69C3F165
:1034A0000703042B28BF0423BB61FB690433062BED
:1034B00002D9FB69033B00E000237B614FF0FF3240
:1034C000BB6902FA03F3DA43BB681A407B699A408E
:1034D0004FF0FF317B6901FA03F3D9437B680B405E
:1034E000134318462437BD465DF8047B704700003F
:1034F00080B582B000AF78607B68013BB3F1807F1C
:1035000001D301230FE00A4A7B68013B53600F217E
:103510004FF0FF30FFF78EFF054B00229A60044BFF
:1035200007221A60002318460837BD4680BD00BF39
:1035300010E000E080B582B000AF78607868FFF7F7
:1035400029FF00BF0837BD4680BD80B586B000AFFB
:103550000346B9607A60FB7300237B61FFF73EFF8F
:1035600078617A68B9687869FFF78EFF024697F943
:103570000F3011461846FFF75DFF00BF1837BD46F4
:1035800080BD80B582B000AF0346FB7197F907306C
:103590001846FFF731FF00BF0837BD4680BD80B534
:1035A00082B000AF78607868FFF7A2FF0346184644
:1035B0000837BD4680BD000080B489B000AF786098
:1035C000396000237B6100233B610023BB61002342
:1035D000FB6159E10122FB6902FA03F37B613B685D
:1035E0001B687A6913403B613A697B699A4240F0F3
:1035F00048813B685B6803F00303012B05D03B68FF
:103600005B6803F00303022B30D17B689B68BB61CE
:10361000FB695B00032202FA03F3DB43BA69134040
:10362000BB613B68DA68FB695B0002FA03F3BA69C5
:103630001343BB617B68BA699A607B685B68BB6156
:103640000122FB6902FA03F3DB43BA691340BB6151
:103650003B685B681B0903F00102FB6902FA03F394
:10366000BA691343BB617B68BA695A603B685B689F
:1036700003F00303032B17D07B68DB68BB61FB6996
:103680005B00032202FA03F3DB43BA691340BB6118
:103690003B689A68FB695B0002FA03F3BA6913435B
:1036A000BB617B68BA69DA603B685B6803F003035F
:1036B000022B23D1FB69DA087B68083253F82230E9
:1036C000BB61FB6903F007039B000F2202FA03F3BF
:1036D000DB43BA691340BB613B681A69FB6903F0BD
:1036E00007039B0002FA03F3BA691343BB61FB694A
:1036F000DA087B680832B96943F822107B681B68D6
:10370000BB61FB695B00032202FA03F3DB43BA6986
:103710001340BB613B685B6803F00302FB695B001D
:1037200002FA03F3BA691343BB617B68BA691A6092
:103730003B685B6803F44033002B00F0A280002359
:10374000FB60574B5B6C564A43F480435364544BC5
:103750005B6C03F48043FB60FB68524AFB699B0887
:10376000023352F82330BB61FB6903F003039B0073
:103770000F2202FA03F3DB43BA691340BB617B6893
:10378000494A934219D07B68484A934213D07B68D8
:10379000474A93420DD07B68464A934207D07B68E4
:1037A000454A934201D1042308E0072306E003239E
:1037B00004E0022302E0012300E00023FA6902F0A2
:1037C000030292009340BA691343BB613549FB6918
:1037D0009B080233BA6941F82320384B9B68BB61D0
:1037E0003B69DB43BA691340BB613B685B6803F428
:1037F0008013002B03D0BA693B691343BB612F4A86
:10380000BB6993602D4BDB68BB613B69DB43BA69E5
:103810001340BB613B685B6803F40013002B03D0CB
:10382000BA693B691343BB61244ABB69D360234B2C
:103830005B68BB613B69DB43BA691340BB613B68B2
:103840005B6803F40033002B03D0BA693B69134370
:10385000BB611A4ABB695360184B1B68BB613B696B
:10386000DB43BA691340BB613B685B6803F4803398
:10387000002B03D0BA693B691343BB610F4ABB6994
:103880001360FB690133FB61FB690F2B7FF6A2AE6E
:1038900000BF00BF2437BD465DF8047B704700BF02
:1038A000003802400038014000000240000402409D
:1038B00000080240000C024000100240003C0140A1
:1038C00080B485B000AF78600B467B807B681A6956
:1038D0007B881340002B02D00123FB7301E00023FF
:1038E000FB73FB7B18461437BD465DF8047B7047BD
:1038F00080B483B000AF78600B467B8013467B704A
:103900007B78002B03D07A887B689A6103E07B8800
:103910001A047B689A6100BF0C37BD465DF8047BD2
:103920007047000080B582B000AF0346FB80084BB3
:103930005A69FB881340002B06D0054AFB88536167
:10394000FB881846FDF7AEFC00BF0837BD4680BDBA
:10395000003C014080B584B000AF78607B68002BEC
:1039600001D101232BE17B6893F83D30DBB2002BC2
:1039700006D17B68002283F83C207868FEF742FB82
:103980007B68242283F83D207B681B681A687B686B
:103990001B6822F001021A607B681B681A687B684A
:1039A0001B6842F400421A607B681B681A687B68D7
:1039B0001B6822F400421A6001F058F8F8607B6836
:1039C0005B68814A934207D8FB68804A934294BF60
:1039D00001230023DBB206E0FB687D4A934294BFDB
:1039E00001230023DBB2002B01D00123E7E0FB68B9
:1039F000784AA2FB03239B0CBB607B681B685B6857
:103A000023F03F017B681B68BA680A435A607B68F1
:103A10001B681B6A23F03F017B685B686A4A93421C
:103A200002D8BB68013309E0BB684FF4967202FB11
:103A300003F3694AA2FB03239B0901337A681268E6
:103A40000B4313627B681B68DB6923F44F4222F04F
:103A5000FF027B685B685C498B4219D8FB68591E82
:103A60007B685B685B00B1FBF3F3591C40F6FC73A9
:103A70000B40002B0AD0FB68591E7B685B685B001B
:103A8000B1FBF3F30133C3F30B0351E004234FE025
:103A90007B689B68002B11D1FB68581E7B685968B6
:103AA0000B465B000B44B0FBF3F30133C3F30B0392
:103AB000002B0CBF01230023DBB212E0FB68581E71
:103AC0007B6859680B469B000B4499000B44B0FB84
:103AD000F3F30133C3F30B03002B0CBF01230023CB
:103AE000DBB2002B01D0012322E07B689B68002B16
:103AF0000ED1FB68581E7B6859680B465B000B446F
:103B0000B0FBF3F30133C3F30B0343F400430FE0C3
:103B1000FB68581E7B6859680B469B000B44990054
:103B20000B44B0FBF3F30133C3F30B0343F4404303
:103B3000796809681343CB617B681B681B6823F0B5
:103B4000C0017B68DA697B681B6A1A437B681B6863
:103B50000A431A607B681B689B6823F4034323F0C5
:103B6000FF037A6811697A68D26811437A6812682B
:103B70000B4393607B681B68DB6823F0FF017B6865
:103B80005A697B689B691A437B681B680A43DA6041
:103B90007B681B681A687B681B6842F001021A6028
:103BA0007B6800221A647B68202283F83D207B68B2
:103BB00000221A637B68002283F83E200023184607
:103BC0001037BD4680BD00BFA08601007F841E0067
:103BD000FF083D0083DE1B43D34D621080B588B0E3
:103BE00002AFF860084611461A4603467B810B4631
:103BF0003B811346FB80FEF7DFFF7861FB6893F89B
:103C00003D30DBB2202B40F0D9807B690093192333
:103C100001226D49F86800F071F90346002B01D0CC
:103C20000223CCE0FB6893F83C30012B01D1022346
:103C3000C5E0FB68012283F83C20FB681B681B6819
:103C400003F00103012B07D0FB681B681A68FB68AF
:103C50001B6842F001021A60FB681B681A68FB6867
:103C60001B6822F400621A60FB68212283F83D2061
:103C7000FB68402283F83E20FB6800221A64FB6840
:103C80003A6A5A62FB68BA8C5A85FB685B8D9AB2B5
:103C9000FB681A85FB684D4ADA62F8883A897989A7
:103CA0007B690193BB6A00930346F86800F090F8C3
:103CB0000346002B52D0012381E07A69B96AF86883
:103CC00000F0F2F90346002B0DD0FB681B6C042BAF
:103CD00007D1FB681B681A68FB681B6842F4007216
:103CE0001A6001236BE0FB685B6A1A78FB681B684B
:103CF0001A61FB685B6A5A1CFB685A62FB681B8D81
:103D0000013B9AB2FB681A85FB685B8D9BB2013B55
:103D10009AB2FB685A85FB681B685B6903F0040371
:103D2000042B1BD1FB681B8D002B17D0FB685B6A33
:103D30001A78FB681B681A61FB685B6A5A1CFB688F
:103D40005A62FB681B8D013B9AB2FB681A85FB68BF
:103D50005B8D9BB2013B9AB2FB685A85FB681B8D59
:103D6000002BAAD17A69B96AF86800F0DEF9034637
:103D7000002B0DD0FB681B6C042B07D1FB681B6864
:103D80001A68FB681B6842F400721A60012316E08F
:103D9000FB681B681A68FB681B6842F400721A60B3
:103DA000FB68202283F83D20FB68002283F83E2038
:103DB000FB68002283F83C20002300E00223184621
:103DC0001837BD4680BD00BF020010000000FFFF95
:103DD00080B588B002AFF860084611461A4603461F
:103DE0007B810B463B811346FB80FB681B681A688E
:103DF000FB681B6842F480721A607B6A00933B6A1E
:103E000000224FF00111F86800F078F80346002B0B
:103E10000DD0FB681B681B6803F48073B3F5807FCB
:103E200003D1FB684FF400721A6403235FE07B89BF
:103E3000DBB21A46FB681B6802F0FE021A617B6A5D
:103E40003A6A2D49F86800F0B0F80346002B01D01B
:103E500001234CE000237B61FB681B685B697B618D
:103E6000FB681B689B697B617B697A6A396AF868C1
:103E700000F01AF90346002B0DD0FB681B6C042BD5
:103E800007D1FB681B681A68FB681B6842F4007264
:103E90001A6001232BE0FB88012B05D13B89DAB2A4
:103EA000FB681B681A6121E03B891B0A9BB2DAB2EE
:103EB000FB681B681A617A6A396AF86800F0F4F8DE
:103EC0000346002B0DD0FB681B6C042B07D1FB684D
:103ED0001B681A68FB681B6842F400721A600123B1
:103EE00005E03B89DAB2FB681B681A6100231846BB
:103EF0001837BD4680BD00BF0200010080B584B008
:103F000000AFF860B9603B601346FB7125E03B6889
:103F1000B3F1FF3F21D0FEF74FFE0246BB69D31A33
:103F20003A689A4202D33B68002B16D1FB68002204
:103F30001A63FB68202283F83D20FB68002283F887
:103F40003E20FB681B6C43F02002FB681A64FB6890
:103F5000002283F83C20012323E0BB681B0CDBB26A
:103F6000012B0DD1FB681B685B69DA43BB6813400A
:103F70009BB2002B0CBF01230023DBB21A460CE0DE
:103F8000FB681B689B69DA43BB6813409BB2002B3C
:103F90000CBF01230023DBB21A46FB799A42B6D04C
:103FA000002318461037BD4680BD80B584B000AFF1
:103FB000F860B9607A603B6051E0FB681B685B6940
:103FC00003F48063B3F5806F23D1FB681B681A6824
:103FD000FB681B6842F400721A60FB681B686FF490
:103FE00080625A61FB6800221A63FB68202283F812
:103FF0003D20FB68002283F83E20FB681B6C43F0E9
:104000000402FB681A64FB68002283F83C20012349
:1040100046E07B68B3F1FF3F21D0FEF7CDFD0246BD
:104020003B68D31A7A689A4202D37B68002B16D178
:10403000FB6800221A63FB68202283F83D20FB689E
:10404000002283F83E20FB681B6C43F02002FB68D3
:104050001A64FB68002283F83C20012320E0BB683F
:104060001B0CDBB2012B0CD1FB681B685B69DA43CC
:10407000BB6813409BB2002B14BF01230023DBB2AB
:104080000BE0FB681B689B69DA43BB6813409BB27B
:10409000002B14BF01230023DBB2002B8DD10023A2
:1040A00018461037BD4680BD80B584B000AFF860BB
:1040B000B9607A602DE0F86800F078F80346002BCC
:1040C00001D001232DE0BB68B3F1FF3F21D0FEF703
:1040D00073FD02467B68D31ABA689A4202D3BB6862
:1040E000002B16D1FB6800221A63FB68202283F89C
:1040F0003D20FB68002283F83E20FB681B6C43F0E8
:104100002002FB681A64FB68002283F83C2001232C
:1041100007E0FB681B685B6903F08003802BCAD152
:10412000002318461037BD4680BD80B584B000AF6F
:10413000F860B9607A602DE0F86800F037F803465F
:10414000002B01D001232DE0BB68B3F1FF3F21D04C
:10415000FEF732FD02467B68D31ABA689A4202D350
:10416000BB68002B16D1FB6800221A63FB68202273
:1041700083F83D20FB68002283F83E20FB681B6C1F
:1041800043F02002FB681A64FB68002283F83C209D
:10419000012307E0FB681B685B6903F00403042B41
:1041A000CAD1002318461037BD4680BD80B483B005
:1041B00000AF78607B681B685B6903F48063B3F5CC
:1041C000806F1BD17B681B686FF480625A617B68CB
:1041D00000221A637B68202283F83D207B6800223E
:1041E00083F83E207B681B6C43F004027B681A64F2
:1041F0007B68002283F83C20012300E0002318465E
:104200000C37BD465DF8047B7047000080B586B072
:1042100000AF78607B68002B01D1012367E27B68E7
:104220001B6803F00103002B75D0884B9B6803F0DB
:104230000C03042B0CD0854B9B6803F00C03082B5C
:1042400012D1824B5B6803F48003B3F5800F0BD16E
:104250007E4B1B6803F40033002B5BD07B685B68EC
:10426000002B57D1012342E27B685B68B3F5803FA6
:1042700006D1764B1B68754A43F4803313601DE00A
:104280007B685B68B3F5A02F0CD1704B1B686F4A3D
:1042900043F4802313606D4B1B686C4A43F48033F6
:1042A00013600BE0694B1B68684A23F4803313608A
:1042B000664B1B68654A23F4802313607B685B6848
:1042C000002B13D0FEF778FC386108E0FEF774FC91
:1042D00002463B69D31A642B01D9032307E25B4BE7
:1042E0001B6803F40033002BF0D014E0FEF764FCED
:1042F000386108E0FEF760FC02463B69D31A642B84
:1043000001D90323F3E1514B1B6803F40033002B65
:10431000F0D100E000BF7B681B6803F00203002BB4
:1043200063D04A4B9B6803F00C03002B0BD0474B28
:104330009B6803F00C03082B1CD1444B5B6803F40F
:104340008003002B16D1414B1B6803F00203002BA6
:1043500005D07B68DB68012B01D00123C7E13B4B13
:104360001B6823F0F8027B681B69DB0037491343A5
:104370000B603AE07B68DB68002B20D0344B0122D5
:104380001A60FEF719FC386108E0FEF715FC0246DA
:104390003B69D31A022B01D90323A8E12B4B1B68DD
:1043A00003F00203002BF0D0284B1B6823F0F80227
:1043B0007B681B69DB00254913430B6015E0244B28
:1043C00000221A60FEF7F8FB386108E0FEF7F4FB04
:1043D00002463B69D31A022B01D9032387E11B4B09
:1043E0001B6803F00203002BF0D17B681B6803F00D
:1043F0000803002B36D07B685B69002B16D0154B69
:1044000001221A60FEF7D8FB386108E0FEF7D4FB02
:1044100002463B69D31A022B01D9032367E10B4BF8
:104420005B6F03F00203002BF0D01BE0094B00226E
:104430001A60FEF7C1FB38610EE0FEF7BDFB0246D5
:104440003B69D31A022B07D9032350E100380240FD
:1044500000004742800E4742884B5B6F03F0020327
:10446000002BEAD17B681B6803F00403002B00F0EB
:1044700097800023FB75814B1B6C03F08053002B4E
:104480000FD10023BB607D4B1B6C7C4A43F08053F3
:1044900013647A4B1B6C03F08053BB60BB68012331
:1044A000FB75774B1B6803F48073002B18D1744B9A
:1044B0001B68734A43F480731360FEF77DFB386119
:1044C00008E0FEF779FB02463B69D31A022B01D9BB
:1044D00003230CE16A4B1B6803F48073002BF0D0BC
:1044E0007B689B68012B06D1644B1B6F634A43F0CA
:1044F000010313671CE07B689B68052B0CD15F4BA5
:104500001B6F5E4A43F0040313675C4B1B6F5B4AEF
:1045100043F0010313670BE0584B1B6F574A23F01E
:1045200001031367554B1B6F544A23F004031367B1
:104530007B689B68002B15D0FEF73EFB38610AE0D4
:10454000FEF73AFB02463B69D31A41F288329342A6
:1045500001D90323CBE0494B1B6F03F00203002B6F
:10456000EED014E0FEF728FB38610AE0FEF724FBEA
:1045700002463B69D31A41F28832934201D90323A0
:10458000B5E03E4B1B6F03F00203002BEED1FB7D29
:10459000012B05D1394B1B6C384A23F0805313642F
:1045A0007B689B69002B00F0A180344B9B6803F073
:1045B0000C03082B5CD07B689B69022B41D1314BEB
:1045C00000221A60FEF7F8FA386108E0FEF7F4FA04
:1045D00002463B69D31A022B01D9032387E0274BFC
:1045E0001B6803F00073002BF0D17B68DA697B68ED
:1045F0001B6A1A437B685B6A9B011A437B689B6A50
:104600005B08013B1B041A437B68DB6A1B061B49E2
:1046100013434B601B4B01221A60FEF7CDFA386141
:1046200008E0FEF7C9FA02463B69D31A022B01D90A
:1046300003235CE0114B1B6803F00073002BF0D0E8
:1046400054E0104B00221A60FEF7B6FA386108E019
:10465000FEF7B2FA02463B69D31A022B01D90323B3
:1046600045E0064B1B6803F00073002BF0D13DE0E2
:104670007B689B69012B07D1012338E00038024099
:1046800000700040600047421B4B5B68FB607B682A
:104690009B69012B28D0FB6803F480027B68DB69EF
:1046A0009A4221D1FB6803F03F027B681B6A9A4261
:1046B0001AD1FA6847F6C07313407A68526A9201B9
:1046C000934211D1FB6803F440327B689B6A5B081C
:1046D000013B1B049A4207D1FB6803F070627B68C0
:1046E000DB6A1B069A4201D0012300E00023184632
:1046F0001837BD4680BD00BF0038024080B584B089
:1047000000AF786039607B68002B01D10123CCE0D9
:10471000684B1B6803F007033A689A420CD9654B53
:104720003A68D2B21A70634B1B6803F007033A6809
:104730009A4201D00123B8E07B681B6803F00203B2
:10474000002B20D07B681B6803F00403002B05D0EE
:10475000594B9B68584A43F4E05393607B681B684D
:1047600003F00803002B05D0534B9B68524A43F4D7
:1047700060439360504B9B6823F0F0027B689B681A
:104780004D4913438B607B681B6803F00103002BCA
:1047900044D07B685B68012B07D1474B1B6803F44F
:1047A0000033002B19D101237FE07B685B68022B6B
:1047B00003D07B685B68032B07D13F4B1B6803F07A
:1047C0000073002B09D101236FE03B4B1B6803F002
:1047D0000203002B01D1012367E0374B9B6823F0D4
:1047E00003027B685B68344913438B60FEF7E4F98E
:1047F000F8600AE0FEF7E0F90246FB68D31A41F2DE
:104800008832934201D903234FE02B4B9B6803F07E
:104810000C027B685B689B009A42EBD1254B1B68BE
:1048200003F007033A689A420CD2224B3A68D2B29C
:104830001A70204B1B6803F007033A689A4201D0B4
:10484000012332E07B681B6803F00403002B08D0CF
:10485000194B9B6823F4E0527B68DB6816491343CD
:104860008B607B681B6803F00803002B09D0124B98
:104870009B6823F460427B681B69DB000E4913438D
:104880008B6000F021F802460B4B9B681B0903F07C
:104890000F030A49CB5C22FA03F3094A1360094B60
:1048A0001B681846FEF744F9002318461037BD462A
:1048B00080BD00BF003C0240003802404095000827
:1048C00058050020740500202DE9B04F90B000AFCE
:1048D00000237B630023FB6300233B630023BB6354
:1048E000594B9B6803F00C03082B0DD0082B00F2EA
:1048F000A180002B02D0042B03D09BE0534BBB6361
:104900009BE0534BBB6398E04F4B5B6803F03F0366
:104910007B634D4B5B6803F48003002B28D04A4B2C
:104920005B689B0900223B627A623B6AC3F3080022
:104930000021474B03FB01F2002300FB03F3134468
:10494000434AA0FB0212FA620A46BA62FA6A1344A8
:10495000FB627B6B0022BB61FA61D7E90623D7E9D2
:104960000A01FCF729F902460B461346FB6353E0A4
:10497000354B5B689B0900223B617A613B69C3F35D
:10498000080A4FF0000B52465B464FF000004FF014
:104990000001590141EAD261500102460B46B2EBD7
:1049A0000A0863EB0B094FF000024FF000034FEAD7
:1049B000891343EA98634FEA8812B2EB080463EB69
:1049C00009054FF000024FF00003EB0043EA547377
:1049D000E20014461D4614EB0A033B6045EB0B0353
:1049E0007B604FF000024FF00003D7E900452946F5
:1049F0008B02214643EA915321468A02104619460A
:104A00007B6B0022BB60FA60D7E90223FCF7D4F885
:104A100002460B461346FB630B4B5B681B0C03F013
:104A2000030301335B003B63FA6B3B6BB2FBF3F3B5
:104A3000BB6302E0054BBB6300BFBB6B184640374E
:104A4000BD46BDE8B08F00BF003802400024F4002E
:104A500040787D0180B400AF034B1B681846BD460B
:104A60005DF8047B704700BF5805002080B500AF9B
:104A7000FFF7F0FF0246054B9B689B0A03F0070314
:104A80000349CB5C22FA03F3184680BD003802408C
:104A90005095000880B500AFFFF7DCFF0246054BDC
:104AA0009B685B0B03F007030349CB5C22FA03F31B
:104AB000184680BD003802405095000880B582B08D
:104AC00000AF78607B68002B01D101237BE07B681D
:104AD0005B6A002B08D17B685B68B3F5827F09D0E5
:104AE0007B680022DA6105E07B6800221A617B683E
:104AF00000225A617B6800229A627B6893F85130E9
:104B0000DBB2002B06D17B68002283F85020786846
:104B1000FDF706FB7B68022283F851207B681B6847
:104B20001A687B681B6822F040021A607B685B6829
:104B300003F482727B689B6803F404431A437B6826
:104B4000DB6803F400631A437B681B6903F002030C
:104B50001A437B685B6903F001031A437B689B6916
:104B600003F400731A437B68DB6903F038031A43CC
:104B70007B681B6A03F0800342EA03017B689B6A3F
:104B800003F400527B681B680A431A607B689B69C8
:104B90001B0C03F004017B685B6A03F010027B6866
:104BA0001B680A435A607B681B68DA697B681B686C
:104BB00022F40062DA617B6800225A657B68012278
:104BC00083F85120002318460837BD4680BD80B5C4
:104BD00082B000AF78607B68002B01D1012341E0F7
:104BE0007B6893F83D30DBB2002B06D17B68002256
:104BF00083F83C207868FDF733FB7B68022283F85A
:104C00003D207B681A687B6804331946104600F023
:104C100051FE7B68012283F846207B68012283F8DD
:104C20003E207B68012283F83F207B68012283F8C5
:104C300040207B68012283F841207B68012283F8B1
:104C400042207B68012283F843207B68012283F89D
:104C500044207B68012283F845207B68012283F889
:104C60003D20002318460837BD4680BD80B485B07E
:104C700000AF78607B6893F83D30DBB2012B01D048
:104C800001233CE07B68022283F83D207B681B689F
:104C90001E4A934218D07B681B68B3F1804F13D033
:104CA0007B681B681A4A93420ED07B681B68194ABE
:104CB000934209D07B681B68174A934204D07B68F3
:104CC0001B68164A934211D17B681B689B6803F0EE
:104CD0000703FB60FB68062B10D07B681B681A6813
:104CE0007B681B6842F001021A6007E07B681B6862
:104CF0001A687B681B6842F001021A60002318469C
:104D00001437BD465DF8047B704700BF00000140CA
:104D10000004004000080040000C0040004001403A
:104D200080B485B000AF78607B6893F83D30DBB22B
:104D3000012B01D0012344E07B68022283F83D204F
:104D40007B681B68DA687B681B6842F00102DA60E6
:104D50007B681B681E4A934218D07B681B68B3F1BE
:104D6000804F13D07B681B681A4A93420ED07B6831
:104D70001B68194A934209D07B681B68174A934203
:104D800004D07B681B68164A934211D17B681B686C
:104D90009B6803F00703FB60FB68062B10D07B6861
:104DA0001B681A687B681B6842F001021A6007E002
:104DB0007B681B681A687B681B6842F001021A60F6
:104DC000002318461437BD465DF8047B704700BFCA
:104DD000000001400004004000080040000C0040BA
:104DE0000040014080B483B000AF78607B681B68EE
:104DF000DA687B681B6822F00102DA607B681B6856
:104E00001A6A41F211131340002B0FD17B681B6803
:104E10001A6A40F244431340002B07D17B681B6899
:104E20001A687B681B6822F001021A607B68012205
:104E300083F83D20002318460C37BD465DF8047BFF
:104E4000704780B582B000AF78607B68002B01D1DD
:104E5000012341E07B6893F83D30DBB2002B06D1A3
:104E60007B68002283F83C20786800F039F87B6882
:104E7000022283F83D207B681A687B680433194658
:104E8000104600F017FD7B68012283F846207B68FE
:104E9000012283F83E207B68012283F83F207B6853
:104EA000012283F840207B68012283F841207B683F
:104EB000012283F842207B68012283F843207B682B
:104EC000012283F844207B68012283F845207B6817
:104ED000012283F83D20002318460837BD4680BDD7
:104EE00080B483B000AF786000BF0C37BD465DF87A
:104EF000047B704780B584B000AF786039600023D0
:104F0000FB733B68002B09D17B6893F83E30DBB222
:104F1000012B14BF01230023DBB222E03B68042BEA
:104F200009D17B6893F83F30DBB2012B14BF01231A
:104F30000023DBB215E03B68082B09D17B6893F8AE
:104F40004030DBB2012B14BF01230023DBB208E0A9
:104F50007B6893F84130DBB2012B14BF012300239F
:104F6000DBB2002B01D00123B3E03B68002B04D15E
:104F70007B68022283F83E2013E03B68042B04D1B7
:104F80007B68022283F83F200BE03B68082B04D1AA
:104F90007B68022283F8402003E07B68022283F8CA
:104FA00041203B680C2B41D801A252F823F000BFEE
:104FB000E54F00082D5000082D5000082D50000826
:104FC000F74F00082D5000082D5000082D50000804
:104FD000095000082D5000082D5000082D500008E1
:104FE0001B5000087B681B68DA687B681B6842F00E
:104FF0000202DA601DE07B681B68DA687B681B6868
:1050000042F00402DA6014E07B681B68DA687B68AF
:105010001B6842F00802DA600BE07B681B68DA6804
:105020007B681B6842F01002DA6002E00123FB7328
:1050300000BFFB7B002B4BD17B681B6801223968CA
:10504000184600F0DDFE7B681B68244A934207D1B6
:105050007B681B685A6C7B681B6842F400425A6488
:105060007B681B681D4A934218D07B681B68B3F1AC
:10507000804F13D07B681B68194A93420ED07B681F
:105080001B68184A934209D07B681B68164A9342F2
:1050900004D07B681B68154A934211D17B681B685A
:1050A0009B6803F00703BB60BB68062B10D07B68CE
:1050B0001B681A687B681B6842F001021A6007E0EF
:1050C0007B681B681A687B681B6842F001021A60E3
:1050D000FB7B18461037BD4680BD00BF0000014075
:1050E0000004004000080040000C00400040014067
:1050F00080B586B000AF786039607B68002B01D145
:10510000012397E07B6893F83D30DBB2002B06D19A
:105110007B68002283F83C207868FDF749F87B68BB
:10512000022283F83D207B681B689B687A681268BE
:1051300023F4804323F0070393607B681A687B683D
:1051400004331946104600F0B5FB7B681B689B686A
:105150007B617B681B689B693B617B681B681B6A82
:10516000FB603B681B687A6913437B613B6923F4EE
:10517000407323F003033B613B689A683B689B697B
:105180001B0213433A6913433B613B6923F44063B9
:1051900023F00C033B613B6923F4704323F0F003DD
:1051A0003B613B68DA683B68DB691B0213433A6981
:1051B00013433B613B681B691A013B681B6A1B0375
:1051C00013433A6913433B61FB6823F02203FB60FE
:1051D000FB6823F08803FB603B685A683B685B69A7
:1051E0001B011343FA681343FB607B681B687A69F1
:1051F0009A607B681B683A699A617B681B68FA68E9
:105200001A627B68012283F846207B68012283F8BA
:105210003E207B68012283F83F207B68012283F8CF
:1052200042207B68012283F843207B68012283F8B7
:105230003D20002318461837BD4680BD80B584B098
:1052400000AF786039607B6893F83E30FB737B6811
:1052500093F83F30BB737B6893F842307B737B6875
:1052600093F843303B733B68002B10D1FB7B012B41
:1052700002D17B7B012B01D0012389E07B680222D4
:1052800083F83E207B68022283F8422031E03B68AD
:10529000042B10D1BB7B012B02D13B7B012B01D016
:1052A000012375E07B68022283F83F207B6802229D
:1052B00083F843201DE0FB7B012B08D1BB7B012B36
:1052C00005D17B7B012B02D13B7B012B01D001233C
:1052D0005EE07B68022283F83E207B68022283F82E
:1052E0003F207B68022283F842207B68022283F8F9
:1052F00043203B68002B03D03B68042B10D01FE0F9
:105300007B681B6801220021184600F079FD7B684C
:105310001B68DA687B681B6842F00202DA602EE0E4
:105320007B681B6801220421184600F069FD7B6838
:105330001B68DA687B681B6842F00402DA601EE0D2
:105340007B681B6801220021184600F059FD7B682C
:105350001B6801220421184600F052FD7B681B687F
:10536000DA687B681B6842F00202DA607B681B68BF
:10537000DA687B681B6842F00402DA6000BF7B6871
:105380001B681A687B681B6842F001021A600023E0
:1053900018461037BD4680BD80B582B000AF78603A
:1053A0007B681B681B6903F00203022B22D17B6818
:1053B0001B68DB6803F00203022B1BD17B681B68B0
:1053C0006FF002021A617B6801221A777B681B6802
:1053D0009B6903F00303002B03D0786800F04CFABC
:1053E00005E07868FBF7E0FE786800F04FFA7B682C
:1053F00000221A777B681B681B6903F00403042BE7
:1054000022D17B681B68DB6803F00403042B1BD1EB
:105410007B681B686FF004021A617B6802221A77AE
:105420007B681B689B6903F44073002B03D078688A
:1054300000F022FA05E07868FBF7B6FE786800F025
:1054400025FA7B6800221A777B681B681B6903F0CA
:105450000803082B22D17B681B68DB6803F0080374
:10546000082B1BD17B681B686FF008021A617B68F0
:1054700004221A777B681B68DB6903F00303002BA7
:1054800003D0786800F0F8F905E07868FBF78CFE47
:10549000786800F0FBF97B6800221A777B681B684C
:1054A0001B6903F01003102B22D17B681B68DB689B
:1054B00003F01003102B1BD17B681B686FF01002E8
:1054C0001A617B6808221A777B681B68DB6903F422
:1054D0004073002B03D0786800F0CEF905E07868BF
:1054E000FBF762FE786800F0D1F97B6800221A773A
:1054F0007B681B681B6903F00103012B0ED17B68DD
:105500001B68DB6803F00103012B07D17B681B6874
:105510006FF001021A617868FBF724FE7B681B6854
:105520001B6903F08003802B0ED17B681B68DB684E
:1055300003F08003802B07D17B681B686FF080022B
:105540001A61786800F0FAFC7B681B681B6903F03D
:105550004003402B0ED17B681B68DB6803F04003DF
:10556000402B07D17B681B686FF040021A61786896
:1055700000F096F97B681B681B6903F02003202B61
:105580000ED17B681B68DB6803F02003202B07D15A
:105590007B681B686FF020021A61786800F0C4FC19
:1055A00000BF0837BD4680BD80B586B000AFF8604B
:1055B000B9607A600023FB75FB6893F83C30012BDF
:1055C00001D1022348E0FB68012283F83C207B687C
:1055D0000C2B39D801A252F823F000BF1156000855
:1055E0004956000849560008495600081F56000849
:1055F0004956000849560008495600082D5600082B
:105600004956000849560008495600083B5600080C
:10561000FB681B68B968184600F0CCF917E0FB6816
:105620001B68B968184600F02BFA10E0FB681B688D
:10563000B968184600F090FA09E0FB681B68B96881
:10564000184600F0F3FA02E00123FB7500BFFB6887
:10565000002283F83C20FB7D18461837BD4680BDEC
:1056600080B584B000AF786039600023FB737B683D
:1056700093F83C30012B01D10223B4E07B68012276
:1056800083F83C207B68022283F83D207B681B68FE
:105690009B68BB60BB6823F07703BB60BB6823F4E7
:1056A0007F43BB607B681B68BA689A603B681B6875
:1056B000B3F5005F3ED0B3F5005F00F28780B3F52D
:1056C000805F00F08680B3F5805F7FD8702B1AD0A2
:1056D000702B7BD8602B50D0602B77D8502B3CD0D0
:1056E000502B73D8402B58D0402B6FD8302B64D020
:1056F000302B6BD8202B60D0202B67D8002B5CD0B0
:10570000102B5AD062E07B6818683B6899683B6848
:105710005A683B68DB6800F053FB7B681B689B683A
:10572000BB60BB6843F07703BB607B681B68BA68EB
:105730009A604FE07B6818683B6899683B685A68D4
:105740003B68DB6800F03CFB7B681B689A687B6801
:105750001B6842F480429A603CE07B6818683B68B2
:1057600059683B68DB681A4600F0B0FA7B681B6832
:105770005021184600F009FB2CE07B6818683B6854
:1057800059683B68DB681A4600F0CFFA7B681B68F3
:105790006021184600F0F9FA1CE07B6818683B6845
:1057A00059683B68DB681A4600F090FA7B681B6812
:1057B0004021184600F0E9FA0CE07B681A683B6863
:1057C0001B681946104600F0E0FA03E00123FB7362
:1057D00000E000BF7B68012283F83D207B68002247
:1057E00083F83C20FB7B18461037BD4680BD000087
:1057F00080B485B000AF786039600023FB603B68FF
:105800000C2B31D801A252F823F000BF41580008F8
:105810006958000869580008695800084B58000882
:105820006958000869580008695800085558000868
:105830006958000869580008695800085F5800084E
:105840007B681B685B6BFB600FE07B681B689B6B76
:10585000FB600AE07B681B68DB6BFB6005E07B6834
:105860001B681B6CFB6000E000BFFB681846143728
:10587000BD465DF8047B704780B483B000AF7860AC
:1058800000BF0C37BD465DF8047B704780B483B021
:1058900000AF786000BF0C37BD465DF8047B7047F1
:1058A00080B483B000AF786000BF0C37BD465DF8B0
:1058B000047B704780B485B000AF786039607B6846
:1058C0001B68FB607B68344A93420FD07B68B3F15E
:1058D000804F0BD07B68314A934207D07B68304AB7
:1058E000934203D07B682F4A934208D1FB6823F090
:1058F0007003FB603B685B68FA681343FB607B687E
:10590000254A93421BD07B68B3F1804F17D07B6848
:10591000224A934213D07B68214A93420FD07B687E
:10592000204A93420BD07B681F4A934207D07B6882
:105930001E4A934203D07B681D4A934208D1FB68FC
:1059400023F44073FB603B68DB68FA681343FB6039
:10595000FB6823F080023B685B691343FB607B6854
:10596000FA681A603B689A687B68DA623B681A6872
:105970007B689A627B68084A934203D13B681A6944
:105980007B681A637B6801225A6100BF1437BD46E9
:105990005DF8047B704700BF000001400004004038
:1059A00000080040000C004000400140004401405D
:1059B0000048014080B487B000AF786039607B68F0
:1059C0001B6A23F001027B681A627B681B6A7B6199
:1059D0007B685B683B617B689B69FB60FB6823F0CD
:1059E0007003FB60FB6823F00303FB603B681B68EC
:1059F000FA681343FB607B6923F002037B613B6819
:105A00009B687A6913437B617B681C4A93420CD183
:105A10007B6923F008037B613B68DB687A69134389
:105A20007B617B6923F004037B617B68134A9342AB
:105A300011D13B6923F480733B613B6923F400730C
:105A40003B613B685B693A6913433B613B689B6917
:105A50003A6913433B617B683A695A607B68FA682C
:105A60009A613B685A687B685A637B687A691A62F4
:105A700000BF1C37BD465DF8047B70470000014045
:105A800080B487B000AF786039607B681B6A23F010
:105A900010027B681A627B681B6A7B617B685B68AB
:105AA0003B617B689B69FB60FB6823F4E043FB6020
:105AB000FB6823F44073FB603B681B681B02FA68B9
:105AC0001343FB607B6923F020037B613B689B6889
:105AD0001B017A6913437B617B681E4A93420DD197
