:020000040800F2
:1000000000000220754D0008394100083F410008FA
:10001000454100084B410008514100080000000024
:100020000000000000000000000000005741000830
:10003000654100080000000073410008814100088C
:10004000C54D0008C54D0008C54D0008C54D000848
:10005000C54D0008C54D0008C54D0008C54D000838
:10006000C54D0008C54D0008C54D0008C54D000828
:10007000C54D0008C54D0008C54D0008C54D000818
:10008000C54D0008C54D0008C54D00080000000022
:10009000000000000000000000000000B541000862
:1000A000C54D0008C5410008E1410008C54D0008E4
:1000B000FD410008C54D0008C54D0008C54D0008AC
:1000C000C54D0008C54D0008C54D0008C54D0008C8
:1000D000C54D0008C54D0008C54D000800000000D2
:1000E000C54D0008C54D0008C54D000800000000C2
:1000F000000000000000000000000000C54D0008E6
:1001000000000000C54D0008C54D0008C54D0008A1
:1001100000000000000000000000000000000000DF
:10012000C54D0008C54D0008C54D0008C54D000867
:10013000C54D0008000000000000000000000000A5
:10014000000000000000000000000000C54D000895
:10015000C54D0008C54D0008C54D0008C54D000837
:10016000C54D0008C54D000800000000000000005B
:10017000000000000000000000000000000000007F
:1001800000000000C54D0008000000000000000055
:08019000C54D0008C54D000833
:1001A00010B5054C237833B9044B13B10448AFF3B1
:1001B00000800123237010BD400B002000000000D0
:1001C00050FF000808B5034B1BB103490348AFF3C8
:1001D000008008BD00000000440B002050FF000814
:1001E00010F8012B11F8013B012A28BF9A42F7D0E1
:1001F000D01A70470000000000000000000000005E
:1002000001F0FF01102A2BDB10F0070F08D010F8C7
:10021000013B013A8B422DD010F0070F42B3F6D1CB
:10022000F0B441EA012141EA014122F007047FF0E4
:1002300000070023F0E80256083C85EA010586EA3B
:10024000010685FA47F5A3FA87F586FA47F6A5FA77
:1002500087F68EB9EED1F0BC01F0FF0102F0070283
:1002600032B110F8013B013A83EA010313B1F8D12E
:100270000020704701387047002D06BF354603380F
:10028000073815F0010F07D1013015F4807F02BF48
:10029000013015F4C03F0130F0BC0138704700BF99
:1002A000034613F8012B002AFBD1181A01387047B6
:1002B00081F0004102E000BF83F0004330B54FEA17
:1002C00041044FEA430594EA050F08BF90EA020F84
:1002D0001FBF54EA000C55EA020C7FEA645C7FEA17
:1002E000655C00F0E2804FEA5454D4EB5555B8BF3A
:1002F0006D420CDD2C4480EA020281EA030382EAAB
:10030000000083EA010180EA020281EA0303362D3C
:1003100088BF30BD11F0004F4FEA01314FF4801C0F
:100320004CEA113102D0404261EB410113F0004F21
:100330004FEA03334CEA133302D0524263EB4303D8
:1003400094EA050F00F0A780A4F10104D5F1200E76
:100350000DDB02FA0EFC22FA05F2801841F10001D1
:1003600003FA0EF2801843FA05F359410EE0A5F1A5
:1003700020050EF1200E012A03FA0EFC28BF4CF0D6
:10038000020C43FA05F3C01851EBE37101F000458C
:1003900007D54FF0000EDCF1000C7EEB00006EEB99
:1003A0000101B1F5801F1BD3B1F5001F0CD3490823
:1003B0005FEA30004FEA3C0C04F101044FEA44527A
:1003C00012F5800F80F09A80BCF1004F08BF5FEA01
:1003D000500C50F1000041EB045141EA050130BDE1
:1003E0005FEA4C0C404141EB0101013C28BFB1F5F3
:1003F000801FE9D291F0000F04BF01460020B1FA3E
:1004000081F308BF2033A3F10B03B3F120020CDA10
:100410000C3208DD02F1140CC2F10C0201FA0CF0EE
:1004200021FA02F10CE002F11402D8BFC2F1200C53
:1004300001FA02F120FA0CFCDCBF41EA0C01904009
:10044000E41AA2BF01EB0451294330BD6FEA040452
:100450001F3C1CDA0C340EDC04F11404C4F120023D
:1004600020FA04F001FA02F340EA030021FA04F34F
:1004700045EA030130BDC4F10C04C4F1200220FAA6
:1004800002F001FA04F340EA0300294630BD21FAE4
:1004900004F0294630BD94F0000F83F4801306BFAA
:1004A00081F480110134013D4EE77FEA645C18BF9E
:1004B0007FEA655C29D094EA050F08BF90EA020F35
:1004C00005D054EA000C04BF1946104630BD91EA2D
:1004D000030F1EBF0021002030BD5FEA545C05D130
:1004E0004000494128BF41F0004130BD14F580046F
:1004F0003CBF01F5801130BD01F0004545F0FE41E3
:1005000041F470014FF0000030BD7FEA645C1ABF17
:10051000194610467FEA655C1CBF0B46024650EA4E
:10052000013406BF52EA033591EA030F41F400217A
:1005300030BD00BF90F0000F04BF0021704730B500
:100540004FF4806404F132044FF000054FF00001D5
:1005500050E700BF90F0000F04BF0021704730B596
:100560004FF4806404F1320410F0004548BF40426B
:100570004FF000013EE700BF42004FEAE2014FEAC0
:1005800031014FEA02701FBF12F07F4393F07F4F9B
:1005900081F06051704732F07F4208BF704793F09E
:1005A0007F4F04BF41F40021704730B54FF46074B1
:1005B00001F0004521F000411CE700BF50EA0102B4
:1005C00008BF704730B54FF000050AE050EA01025D
:1005D00008BF704730B511F0004502D5404261EBCD
:1005E00041014FF4806404F132045FEA915C3FF40E
:1005F000D8AE4FF003025FEADC0C18BF03325FEAAB
:10060000DC0C18BF033202EBDC02C2F1200300FA5B
:1006100003FC20FA02F001FA03FE40EA0E0021FA80
:1006200002F11444BDE600BF70B54FF0FF0C4CF46E
:10063000E06C1CEA11541DBF1CEA135594EA0C0F20
:1006400095EA0C0F00F0DEF82C4481EA030621EA5B
:100650004C5123EA4C5350EA013518BF52EA033596
:1006600041F4801143F4801338D0A0FB02CE4FF048
:100670000005E1FB02E506F00042E0FB03E54FF078
:100680000006E1FB03569CF0000F18BF4EF0010E70
:10069000A4F1FF04B6F5007F64F5407404D25FEA6C
:1006A0004E0E6D4146EB060642EAC62141EA55511F
:1006B0004FEAC52040EA5E504FEACE2EB4F1FD0C61
:1006C00088BFBCF5E06F1ED8BEF1004F08BF5FEADF
:1006D000500E50F1000041EB045170BD06F0004691
:1006E00046EA010140EA020081EA0301B4EB5C043E
:1006F000C2BFD4EB0C0541EA045170BD41F4801136
:100700004FF0000E013C00F3AB8014F1360FDEBF5A
:10071000002001F0004170BDC4F10004203C35DA36
:100720000C341BDC04F11404C4F1200500FA05F3B9
:1007300020FA04F001FA05F240EA020001F000425A
:1007400021F0004110EBD37021FA04F642EB0601D0
:100750005EEA430E08BF20EAD37070BDC4F10C04FA
:10076000C4F1200500FA04F320FA05F001FA04F2BE
:1007700040EA020001F0004110EBD37041F10001AA
:100780005EEA430E08BF20EAD37070BDC4F12005B5
:1007900000FA05F24EEA020E20FA04F301FA05F21D
:1007A00043EA020321FA04F001F0004121FA04F2C5
:1007B00020EA020000EBD3705EEA430E08BF20EA95
:1007C000D37070BD94F0000F0FD101F000464000CF
:1007D00041EB010111F4801F08BF013CF7D041EA51
:1007E000060195F0000F18BF704703F00046520055
:1007F00043EB030313F4801F08BF013DF7D043EA26
:100800000603704794EA0C0F0CEA135518BF95EADB
:100810000C0F0CD050EA410618BF52EA4306D1D162
:1008200081EA030101F000414FF0000070BD50EA81
:10083000410606BF1046194652EA430619D094EA0B
:100840000C0F02D150EA013613D195EA0C0F05D1F5
:1008500052EA03361CBF104619460AD181EA030149
:1008600001F0004141F0FE4141F470014FF0000001
:1008700070BD41F0FE4141F4780170BD70B54FF09C
:10088000FF0C4CF4E06C1CEA11541DBF1CEA13551C
:1008900094EA0C0F95EA0C0F00F0A7F8A4EB0504FE
:1008A00081EA030E52EA03354FEA013100F08880F5
:1008B0004FEA03334FF0805545EA131343EA1263BE
:1008C0004FEA022245EA111545EA10654FEA002673
:1008D0000EF000419D4208BF964244F1FD0404F52C
:1008E000407402D25B084FEA3202B61A65EB030588
:1008F0005B084FEA32024FF480104FF4002CB6EB45
:10090000020E75EB030E22BFB61A754640EA0C00C4
:100910005B084FEA3202B6EB020E75EB030E22BF04
:10092000B61A754640EA5C005B084FEA3202B6EB45
:10093000020E75EB030E22BFB61A754640EA9C0004
:100940005B084FEA3202B6EB020E75EB030E22BFD4
:10095000B61A754640EADC0055EA060E18D04FEA92
:10096000051545EA16754FEA06164FEAC30343EA32
:1009700052734FEAC2025FEA1C1CC0D111F4801FFF
:100980000BD141EA00014FF000004FF0004CB6E7F8
:1009900011F4801F04BF01430020B4F1FD0C88BF97
:1009A000BCF5E06F3FF6AFAEB5EB030C04BFB6EBA2
:1009B000020C5FEA500C50F1000041EB045170BD95
:1009C0000EF0004E4EEA113114EB5C04C2BFD4EBC2
:1009D0000C0541EA045170BD41F480114FF0000E46
:1009E000013C90E645EA060E8DE60CEA135594EAC2
:1009F0000C0F08BF95EA0C0F3FF43BAF94EA0C0FC5
:100A00000AD150EA01347FF434AF95EA0C0F7FF439
:100A100025AF104619462CE795EA0C0F06D152EA8D
:100A200003353FF4FDAE1046194622E750EA410671
:100A300018BF52EA43067FF4C5AE50EA41047FF482
:100A40000DAF52EA43057FF4EBAE12E74FF0FF3CE7
:100A500006E000BF4FF0010C02E000BF4FF0010CB8
:100A60004DF804CD4FEA410C7FEA6C5C4FEA430C31
:100A700018BF7FEA6C5C1BD001B050EA410C0CBF80
:100A800052EA430C91EA030F02BF90EA020F0020E2
:100A9000704710F1000F91EA030F58BF994208BF49
:100AA00090422CBFD8176FEAE37040F00100704706
:100AB0004FEA410C7FEA6C5C02D150EA013C07D15D
:100AC0004FEA430C7FEA6C5CD6D152EA033CD3D0A8
:100AD0005DF8040B704700BF8446104662468C46A2
:100AE0001946634600E000BF01B5FFF7B7FF0028D5
:100AF00048BF10F1000F01BD4DF808EDFFF7F4FFFE
:100B00000CBF012000205DF808FB00BF4DF808ED88
:100B1000FFF7EAFF34BF012000205DF808FB00BFAB
:100B20004DF808EDFFF7E0FF94BF012000205DF8CD
:100B300008FB00BF4DF808EDFFF7CEFF94BF012082
:100B400000205DF808FB00BF4DF808EDFFF7C4FF7B
:100B500034BF012000205DF808FB00BF4FEA410CC4
:100B60007FEA6C5C02D150EA013C0AD14FEA430CA7
:100B70007FEA6C5C02D152EA033C02D14FF00000E4
:100B800070474FF0010070474FEA410212F5001222
:100B900015D211D56FF47873B3EB625212D94FEAC4
:100BA000C12343F0004343EA505311F0004F23FAAE
:100BB00002F018BF404270474FF00000704750EA03
:100BC000013005D111F0004008BF6FF000407047C0
:100BD0004FF00000704700BF4FEA4102B2F1E0431E
:100BE00024BFB3F5001CDCF1FE5C0DD901F0004C14
:100BF0004FEAC0024CEA5070B2F1004F40EB830064
:100C000008BF20F00100704711F0804F21D113F18F
:100C10003872BCBF01F00040704741F480114FEAC8
:100C20005252C2F11802C2F1200C10FA0CF320FA51
:100C300002F018BF40F001004FEAC1234FEAD3236E
:100C400003FA0CFC40EA0C0023FA02F34FEA4303D8
:100C5000CCE77FEA625307D150EA01331EBF4FF061
:100C6000FE4040F44000704701F0004040F0FE407C
:100C700040F40000704700BF53B94AB9002908BFCB
:100C800000281CBF4FF0FF314FF0FF3000F070B96B
:100C9000ADF1080C6DE904CE00F006F8DDF804E0D3
:100CA000DDE9022304B070472DE9F047089E0D46A8
:100CB00004460F46002B4AD18A42944665D9B2FABF
:100CC00082F343B102FA03FCC3F120029F4020FAF1
:100CD00002F217439C404FEA1C4E1FFA8CF5B7FBFB
:100CE000FEF1220C0EFB117742EA074201FB05F0F0
:100CF00090420AD91CEB020201F1FF3780F01C81FF
:100D0000904240F2198102396244121AA4B2B2FB35
:100D1000FEF00EFB102244EA024400FB05F5A5425A
:100D20000AD91CEB040400F1FF3280F00781A542D0
:100D300040F204816444023840EA0140641B00210F
:100D40001EB1DC400023C6E90043BDE8F0878B42BA
:100D500008D9002E00F0ED800021C6E90005084604
:100D6000BDE8F087B3FA83F1002949D1AB4202D341
:100D7000824200F2F880841A65EB030201201746D4
:100D8000002EE2D0C6E90047DFE702B9FFDEB2FA83
:100D900082F3002B40F090808A1A4FEA1C471FFA1A
:100DA0008CFE0121B2FBF7F507FB1520220C42EA6D
:100DB00000420EFB05F0904208D91CEB020205F13F
:100DC000FF3802D2904200F2CB804546121AA4B2FC
:100DD000B2FBF7F007FB102244EA02440EFB00FED0
:100DE000A64508D91CEB040400F1FF3202D2A64547
:100DF00000F2BB801046A4EB0E0440EA05409FE7DA
:100E0000C1F120078B4022FA07FC4CEA030C05FADB
:100E100001F420FA07F3FD404FEA1C492343B5FBD8
:100E2000F9F81FFA8CFE09FB18551C0C44EA05441E
:100E300008FB0EF5A54202FA01F200FA01F00BD907
:100E40001CEB040408F1FF3A80F08880A54240F2D0
:100E50008580A8F102086444641B9DB2B4FBF9F3D9
:100E600009FB134445EA044403FB0EFEA64508D9DA
:100E70001CEB040403F1FF356CD2A6456AD9023B92
:100E8000644443EA0843A3FB0295A4EB0E04AC427E
:100E9000C846AE4656D353D056B1B0EB080264EB09
:100EA0000E0404FA07F7CA40CC401743C6E90074A1
:100EB00018460021BDE8F087C3F1200102FA03FCC7
:100EC00020FA01F225FA01F19D402A434FEA1C471E
:100ED0001FFA8CFEB1FBF7F007FB1015110C41EA6D
:100EE000054100FB0EF58D4204FA03F408D91CEB12
:100EF000010100F1FF382FD28D422DD90238614413
:100F0000491B92B2B1FBF7F507FB151142EA01420A
:100F100005FB0EF1914208D91CEB020205F1FF38E6
:100F200016D2914214D9023D6244521A45EA004158
:100F300038E73146304608E73946E6E61046FBE634
:100F40004845A9D2B9EB020865EB0C0E013BA3E7BB
:100F50004546EAE72B4694E74046D1E7D0467BE793
:100F6000023D624432E708460AE76444023842E739
:100F7000704700BF80B483B000AF7860044A7B68DC
:100F8000136000BF0C37BD465DF8047B704700BF9F
:100F90005C0B002080B483B000AF7860044A7B68AB
:100FA000136000BF0C37BD465DF8047B704700BF7F
:100FB000600B002080B586B000AF786007F10803B1
:100FC00000221A605A609A60DA607B68BB60012375
:100FD000FB6000233B61084B1B6807F108021146C8
:100FE000184604F051FB0346002B01D001F042FBF0
:100FF00000BF1837BD4680BD5C0B0020000000001C
:1010000080B584B002AF01233B70C3237B70832380
:10101000BB70234B18683A464FF0FF33009303230D
:10102000902105F083F900233B701D4B18683A4668
:101030004FF0FF3300930123902105F077F90A2048
:1010400004F06EF9164B18683A464FF0FF330093E0
:101050000223902105F068FA3B781B021AB27B78D4
:101060001BB21343FB80B7F906301846FFF772FA3C
:1010700009A3D3E90023FFF7D7FA02460B4610462F
:101080001946FFF7A9FD034607EE903AB0EE670A4E
:101090000837BD4680BD00BFFCA9F1D24D62203F9C
:1010A000600B00200000000080B584B002AF012377
:1010B0003B70D3237B708323BB70234B18683A4665
:1010C0004FF0FF3300930323902105F02FF9002305
:1010D0003B701D4B18683A464FF0FF3300930123D5
:1010E000902105F023F90A2004F01AF9164B18682C
:1010F0003A464FF0FF3300930223902105F014FA93
:101100003B781B021AB27B781BB21343FB80B7F902
:1011100006301846FFF71EFA09A3D3E90023FFF7AC
:1011200083FA02460B4610461946FFF755FD034663
:1011300007EE903AB0EE670A0837BD4680BD00BFA3
:10114000FCA9F1D24D62203F600B0020000000009E
:1011500080B584B002AF01233B70E3237B7083230F
:10116000BB70234B18683A464FF0FF3300930323BC
:10117000902105F0DBF800233B701D4B18683A46C0
:101180004FF0FF3300930123902105F0CFF80A20A0
:1011900004F0C6F8164B18683A464FF0FF33009338
:1011A0000223902105F0C0F93B781B021AB27B782C
:1011B0001BB21343FB80B7F906301846FFF7CAF994
:1011C00009A3D3E90023FFF72FFA02460B46104686
:1011D0001946FFF701FD034607EE903AB0EE670AA5
:1011E0000837BD4680BD00BFFCA9F1D24D62203F4B
:1011F000600B00200000000080B584B002AF012326
:101200003B70F3237B708323BB70234B18683A46F3
:101210004FF0FF3300930323902105F087F800235C
:101220003B701D4B18683A464FF0FF330093012383
:10123000902105F07BF80A2004F072F8164B18682C
:101240003A464FF0FF3300930223902105F06CF9EA
:101250003B781B021AB27B781BB21343FB80B7F9B1
:1012600006301846FFF776F909A3D3E90023FFF704
:10127000DBF902460B4610461946FFF7ADFC034664
:1012800007EE903AB0EE670A0837BD4680BD00BF52
:10129000FCA9F1D24D62203F600B002080B582B0E6
:1012A00000AF0020FFF786FE124B1B68184604F0C3
:1012B0009FF8104B1B684FF0FF31184604F04CF9B3
:1012C0000C4B1B68184604F0D2F978607B6807EE77
:1012D000903AF8EE677A9FED087A67EE877A9FED8D
:1012E000077AC7EE876AF0EE667AB0EE670A0837CB
:1012F000BD4680BD5C0B0020333353400000804569
:1013000080B582B000AF0120FFF754FE124B1B687E
:10131000184604F06DF8104B1B684FF0FF3118466B
:1013200004F01AF90C4B1B68184604F0A0F9786019
:101330007B6807EE903AF8EE677A9FED087A67EEE1
:10134000877A9FED077AC7EE876AF0EE667AB0EE8D
:10135000670A0837BD4680BD5C0B0020333353401D
:101360000000804580B582B000AF0220FFF722FE6A
:10137000124B1B68184604F03BF8104B1B684FF0EB
:10138000FF31184604F0E8F80C4B1B68184604F0CF
:101390006EF978607B6807EE903AF8EE677A9FED19
:1013A000087A67EE877A9FED077AC7EE876AF0EED4
:1013B000667AB0EE670A0837BD4680BD5C0B002038
:1013C000333353400000804580B582B000AF032026
:1013D000FFF7F0FD124B1B68184604F009F8104B9C
:1013E0001B684FF0FF31184604F0B6F80C4B1B6831
:1013F000184604F03CF978607B6807EE903AF8EE06
:10140000677A9FED087A67EE877A9FED077AC7EED5
:10141000876AF0EE667AB0EE670A0837BD4680BD8F
:101420005C0B0020333353400000804580B584B00E
:1014300000AF1E22002126480CF0B0FC1E22002125
:1014400024480CF0ABFC00F0A9F9332000F018FAA6
:101450000023FB6033E000F02FFA034619461E4AD2
:10146000FB6813440A461A70FB68062B0BDC1A4A09
:10147000FB6813441B78DBB21A463B1D174918461C
:101480000CF07AFB0AE0144AFB6813441B78DBB2C9
:101490001A463B1D124918460CF06EFBFB68032BE5
:1014A00005DC3B1D19460A480CF080FC04E03B1D9E
:1014B000194608480CF07AFCFB680133FB60FB68B6
:1014C000072BC8DD00BF00BF1037BD4680BD00BF81
:1014D000800B0020A00B0020C00B002068FF00083C
:1014E00070FF000880B588B000AF00F057F95520B4
:1014F00000F0C6F90023FB610AE02C4AFB691344A3
:101500001B78DBB2184600F0BBF9FB690133FB61C5
:10151000FB69072BF1DD442000F0B2F95F2003F0F6
:10152000FFFE00F03BF9552000F0AAF90023BB6153
:101530000AE01E4ABB6913441B78DBB2184600F070
:101540009FF9BB690133BB61BB69072BF1DDBE208D
:1015500000F096F900237B610BE000F0ADF9034643
:1015600019463A1D7B6913440A461A707B69013398
:101570007B617B69082BF0DD7B791B023A79134391
:1015800007EE903AF8EEE77AC7ED047A97ED047A21
:10159000F3EE006AC7EE267AC7ED047A3B6907EEE0
:1015A000903AB0EE670A2037BD4680BD680B002038
:1015B00080B588B000AF00F0F1F8552000F060F978
:1015C0000023FB610AE02C4AFB6913441B78DBB261
:1015D000184600F055F9FB690133FB61FB69072BE5
:1015E000F1DD442000F04CF95F2003F099FE00F09B
:1015F000D5F8552000F044F90023BB610AE01E4AEB
:10160000BB6913441B78DBB2184600F039F9BB699B
:101610000133BB61BB69072BF1DDBE2000F030F95F
:1016200000237B610BE000F047F9034619463A1DA1
:101630007B6913440A461A707B6901337B617B69BD
:10164000082BF0DD7B791B023A79134307EE903AC1
:10165000F8EEE77AC7ED047A97ED047AF3EE006AC4
:10166000C7EE267AC7ED047A3B6907EE903AB0EEF2
:10167000670A2037BD4680BD700B002080B588B05A
:1016800000AF00F08BF8552000F0FAF80023FB6162
:101690000AE02C4AFB6913441B78DBB2184600F0C1
:1016A000EFF8FB690133FB61FB69072BF1DD442097
:1016B00000F0E6F85F2003F033FE00F06FF85520ED
:1016C00000F0DEF80023BB610AE01E4ABB69134448
:1016D0001B78DBB2184600F0D3F8BB690133BB615D
:1016E000BB69072BF1DDBE2000F0CAF800237B6147
:1016F0000BE000F0E1F8034619463A1D7B691344FC
:101700000A461A707B6901337B617B69082BF0DD27
:101710007B791B023A79134307EE903AF8EEE77AA9
:10172000C7ED047A97ED047AF3EE006AC7EE267AE5
:10173000C7ED047A3B6907EE903AB0EE670A2037AE
:10174000BD4680BD780B002080B483B000AF7860C8
:10175000044A7B68136000BF0C37BD465DF8047B0C
:10176000704700BF640B002080B483B000AF786086
:10177000094B1B681B6800225A6200BF064B1B689E
:101780001B685B6A7A689A42F8D800BF00BF0C37C2
:10179000BD465DF8047B7047640B002080B500AF48
:1017A000002202210C4804F04BFC4FF4F070FFF7CC
:1017B000DBFF01220221084804F042FC4620FFF72B
:1017C000D3FF0221044804F023FC4FF4CD70FFF74F
:1017D000CBFF00BF80BD00BF0004024080B582B0D7
:1017E00000AF78607B68002B10D0002202211148E6
:1017F00004F026FC0A20FFF7B7FF012202210D4862
:1018000004F01EFC4120FFF7AFFF0FE00022022191
:10181000084804F015FC4120FFF7A6FF0122022131
:10182000044804F00DFC1420FFF79EFF00BF0837AA
:10183000BD4680BD0004024080B582B000AF0022EA
:1018400002210E4804F0FCFB0A20FFF78DFF012265
:1018500002210A4804F0F4FB0F20FFF785FF022164
:10186000064804F0D5FB03467B604620FFF77CFF6B
:101870007B6818460837BD4680BD00BF00040240A3
:1018800080B584B000AF0346FB710023FB600BE022
:10189000FB7903F001031846FFF7A0FFFB795B0813
:1018A000FB71FB680133FB60FB68072BF0DD00BFB9
:1018B00000BF1037BD4680BD80B582B000AF0023A9
:1018C000FB7100233B600EE0FB795B08FB71FFF7C7
:1018D000B3FF0346002B03D0FB7963F07F03FB715A
:1018E0003B6801333B603B68072BEDDDFB79184615
:1018F0000837BD4680BD000080B483B000AF03460A
:101900000A46FB801346BB80074B1B681B68BA88DE
:10191000DA62054B1B68BA88DA6000BF0C37BD4637
:101920005DF8047B704700BFC80B002080B483B013
:1019300000AF0346FB80054B1B681B68FA885A62A0
:1019400000BF0C37BD465DF8047B7047C80B002014
:1019500080B400AF044B1B681B685B6A1846BD4629
:101960005DF8047B704700BFC80B002080B483B0D3
:1019700000AF7860044A7B68136000BF0C37BD4637
:101980005DF8047B704700BFC80B002080B582B0B3
:1019900000AF0346FB80FFF7DBFF0246B7F90630D6
:1019A0009A4201D1012300E0002318460837BD46C2
:1019B00080BD80B582B000AF0346FB80FFF7C8FF53
:1019C0000246B7F906309A4206D100F0B5F8034650
:1019D000002B01D0012300E0002318460837BD4644
:1019E00080BD000080B584B000AF78607868FEF7F5
:1019F00057FC0346FB73FB7B9AB24FF0FF337968C9
:101A0000034808F0FCFA00BF1037BD4680BD00BF98
:101A1000540E002080B582B000AF78607B681B68F0
:101A20000A4A93420DD1786807F0E6F94FF48071C5
:101A3000074804F0EDFA0346002B02D1054B0122C2
:101A40001A7000BF0837BD4680BD00BF0048014086
:101A500000040240980E002080B584B000AF78608A
:101A60007B681B7F012B0ED10021786807F0CAFE2E
:101A7000F860244B01221A707B681A68FB6803F532
:101A80004343503353637B681B7F022B0ED10421E9
:101A9000786807F0B7FEF8601B4B01221A707B686C
:101AA0001A68FB6803F5C333A03393637B681B7F1D
:101AB000042B0FD10821786807F0A4FEF860134BBF
:101AC00001221A707B681A68FB6803F5433303F53B
:101AD000A073D3637B681B7F082B0FD10C21786820
:101AE00007F090FEF8600A4B01221A707B681A68B2
:101AF000FB6803F5C32303F52073136400BF10379D
:101B0000BD4680BD990E00209A0E00209B0E00203D
:101B10009C0E002080B582B000AF0346FB80FB889E
:101B2000B3F5807F02D1034807F004F900BF0837FE
:101B3000BD4680BD0C0E002080B400AF074B93F96A
:101B40000030012B04D1054B00221A70012300E064
:101B500000231846BD465DF8047B7047980E0020B0
:101B600080B59CB002AF00221849194806F018FA57
:101B700000221849164806F0F5FA144B1B781A464D
:101B8000124B5B781946114B9B7807F13400009398
:101B90000B4611490BF0F0FF0E4B9B781A460D4B8C
:101BA0005B7819460B4BDB78384600930B460B49A4
:101BB0000BF0E2FF3B4607F13402094909480BF0FC
:101BC000DBFF084B18466837BD4680BDA00E0020DD
:101BD000BC0C0020B40E00208CFF00089CFF000805
:101BE000ACFF0008C00E002080B5ADF5086D02AF57
:101BF00003F024FB00F09CF900F0ACFC00F002FACA
:101C000000F052FA00F07EFA00F004FB00F038FB1E
:101C100000F076FC00F02CFC00F04EFC00F086FB9F
:101C200008F062FD00F09CFAAC48FFF79FFEAC485C
:101C3000FFF78AFDAB48FFF79DF9AB48FFF7AAF91C
:101C4000AA4800F021FDAA4800F02EFDA44807F0A4
:101C500017F801F029FDA74801F02CFD01F0ECFD7B
:101C6000A54B00221A703C219C4807F0F1FA002194
:101C7000A24807F049F90421A04807F045F90821D6
:101C80009E4807F041F90C219C4807F03DF99A4B1A
:101C90001B78002B00F0E780002387F87738984BFB
:101CA00093F90030012B07D101F046F8944B002244
:101CB0001A70012387F87738924B93F90030012B83
:101CC00007D1904B00221A7001F096F8012387F893
:101CD00077388D4B93F90030012B07D18A4B0022C6
:101CE0001A7001F0E9F8012387F87738874B93F9E8
:101CF0000030012B07D1854B00221A7001F03CF90E
:101D0000012387F8773897F87738002B00F0A68002
:101D1000FFF726FFC7F8680807F67803A3F5016305
:101D200000221A60043340F2FC72002118460CF0C5
:101D300035F8012387F8763807F16800D7F8683856
:101D4000734A4FF400610BF0E3FE0023C7F87038CC
:101D500054E0704AD7F870385B0113441C331B7889
:101D6000002B16D06B4AD7F870385B011344183338
:101D70001B681846FEF700FC02460B46381DCDE9ED
:101D80000023654A64210BF0C3FE002387F87638F0
:101D900005E03B1D614A642118460BF0B9FE07F1CE
:101DA00068031846FEF77CFA0346C3F5FF63073362
:101DB000391D07F168001A460CF007F8D7F870389B
:101DC000092B0EDC07F168031846FEF769FA034693
:101DD000C3F5FF63073307F168001A4650490BF05B
:101DE000F4FF4C4AD7F870385B0113441C330022CF
:101DF0001A70D7F870380133C7F87038D7F87038D0
:101E00000A2BA6DD07F168031846FEF749FA0346D8
:101E1000C3F5FF63073307F168001A4641490BF029
:101E2000D4FF97F8763883F00103DBB2002B05D09E
:101E300007F1680319462F4801F054FC2D4801F0C2
:101E4000A3FC0346384A1360374B1B681846FFF75C
:101E5000C9FD354B1B68184601F078FD334B012254
:101E600083F8262003E0314B002283F8262001F07E
:101E7000D9FB0023C7F86C382BE02C4AD7F86C3814
:101E8000DB0013449B79002B0FD0284AD7F86C381D
:101E900052F83300254AD7F86C38DB0013449B888E
:101EA0000122194604F0CCF80EE0204AD7F86C382D
:101EB00052F833001D4AD7F86C38DB0013449B8876
:101EC0000022194604F0BCF8D7F86C380133C7F883
:101ED0006C38D7F86C38042BCFD9D8E6340D0020F5
:101EE000C40D0020CC0B0020680C0020540E0020F4
:101EF000BC0C00204C0F0020B80E00207C0D0020F0
:101F0000990E00209A0E00209B0E00209C0E0020AF
:101F1000B4FF00083C000020B8FF0008BCFF000828
:101F2000C0FF0008C4FF0008BC0E00200000002015
:101F300080B594B000AF07F120033022002118468D
:101F40000BF02CFF07F10C0300221A605A609A6014
:101F5000DA601A610023BB60284B1B6C274A43F0F0
:101F600080531364254B1B6C03F08053BB60BB682C
:101F700000237B60224B1B68214A43F440431360DB
:101F80001F4B1B6803F440437B607B680A233B6262
:101F90000123FB6210233B6301237B630223BB63AA
:101FA0000023FB6308233B6464237B640223BB643C
:101FB0000423FB6407F12003184605F099F9034652
:101FC000002B01D000F056FB0F23FB6002233B6186
:101FD00000237B614FF48053BB610023FB6107F159
:101FE0000C030321184605F0FBFB0346002B01D030
:101FF00000F040FB00BF5037BD4680BD00380240B6
:102000000070004080B584B000AF3B4600221A60EB
:102010005A609A60DA60214B214A1A601F4B4FF4D4
:1020200080325A601D4B00229A601C4B00221A61BC
:102030001A4B00221A76194B002283F82020174BE6
:102040000022DA62154B174A9A62144B0022DA60BA
:10205000124B0122DA61114B002283F830200F4B22
:1020600001225A610D4803F07FF90346002B01D08D
:1020700000F000FB00233B6001237B600223BB6078
:102080003B461946054803F0FFFA0346002B01D0F2
:1020900000F0F0FA00BF1037BD4680BDCC0B002029
:1020A000002001400100000F80B500AF124B134A21
:1020B0001A60114B124A5A600F4B00229A600E4B65
:1020C0000022DA600C4B4FF480421A610A4B002266
:1020D0005A61094B00229A61074B0022DA61064BD4
:1020E00000221A62044803F0DDFF0346002B01D0F2
:1020F00000F0C0FA00BF80BD140C00200054004066
:10210000A086010080B500AF124B134A1A60114B34
:10211000124A5A600F4B00229A600E4B0022DA607E
:102120000C4B4FF480421A610A4B00225A61094B52
:1021300000229A61074B0022DA61064B00221A62E4
:10214000044803F0AFFF0346002B01D000F092FAE1
:1021500000BF80BD680C002000580040A086010030
:1021600080B586B000AF3B1D00221A605A609A60AD
:10217000DA601A6100233B60244B254A1A60234B26
:1021800000225A60214B7F229A60204BFF22DA60A6
:102190001E4B00221A611D4B00225A611B4B00226C
:1021A0009A611A4805F0ECFD0346002B01D000F0BF
:1021B00061FA01233B7100237B710023BB71002373
:1021C0003B6100237B613B1D012219460F4805F04E
:1021D0004DFE0346002B01D000F04CFA03233B7068
:1021E00012237B700623BB702323FB703B46012226
:1021F0001946064805F032FF0346002B01D000F0D7
:1022000039FA00BF1837BD4680BD00BFBC0C0020A6
:102210000028004080B500AF174B184A1A60164BD3
:102220004FF482725A60144B00229A60124B0022C3
:10223000DA60114B00221A610F4B00225A610E4BDB
:102240004FF400729A610C4B2022DA610A4B002293
:102250001A62094B00225A62074B00229A62064B0F
:102260000A22DA62044806F089F80346002B01D0FE
:1022700000F000FA00BF80BDDC0C002000300140FF
:1022800080B58CB000AF07F10C0324220021184662
:102290000BF084FD3B1D00221A605A60214B224A3C
:1022A0001A60204B01225A601E4B00229A601D4B7F
:1022B0002822DA601B4B00221A611A4B00225A6155
:1022C000184B00229A610123FB6000233B6101232C
:1022D0007B610023BB610F23FB6100233B62012371
:1022E0007B620023BB620F23FB6207F10C031946DC
:1022F0000C4806F007FF0346002B01D000F0BAF9A6
:1023000000237B600023BB603B1D1946054807F096
:10231000A7FD0346002B01D000F0ACF900BF303719
:10232000BD4680BD340D00200000014080B58EB058
:1023300000AF07F1280300221A605A609A60DA6041
:1023400007F1200300221A605A603B1D00221A6028
:102350005A609A60DA601A615A619A61404B4FF094
:1023600080421A603E4B40F2E7325A603C4B0022FA
:102370009A603B4B4FF0FF32DA60394B00221A6112
:10238000374B00229A61364806F02AFC0346002BA0
:1023900001D000F06FF94FF48053BB6207F12803BE
:1023A00019462F4807F066F90346002B01D000F0CC
:1023B00061F92B4806F04FFD0346002B01D000F0D9
:1023C00059F900233B6200237B6207F12003194681
:1023D000234807F045FD0346002B01D000F04AF9E1
:1023E00030237B604CF25033BB600023FB60002342
:1023F0007B613B1D00221946194807F0DFF80346B0
:10240000002B01D000F036F9164BBB603B1D0422B7
:102410001946134807F0D2F80346002B01D000F00C
:1024200029F9114BBB603B1D082219460C4807F0E7
:10243000C5F80346002B01D000F01CF90B4BBB6024
:102440003B1D0C221946064807F0B8F80346002B3E
:1024500001D000F00FF900BF3837BD4680BD00BF86
:102460007C0D0020A0860100400D0300801A0600AC
:1024700080B500AF0E4B0F4A1A600D4B4F225A60C9
:102480000B4B00229A600A4B4FF6FF72DA60084B42
:1024900000221A61064B00229A61054806F0A0FB53
:1024A0000346002B01D000F0E5F800BF80BD00BF5F
:1024B000C40D00200044014080B500AF0E4B0F4A10
:1024C0001A600D4B0A225A600B4B00229A600A4B8D
:1024D0004FF6FF72DA60084B00221A61064B0022A9
:1024E0009A61054806F07CFB0346002B01D000F002
:1024F000C1F800BF80BD00BF0C0E002000480140A5
:1025000080B500AF114B124A1A60104B4FF4E13204
:102510005A600E4B00229A600C4B0022DA600B4B83
:1025200000221A61094B0C225A61084B00229A6161
:10253000064B0022DA61054807F014FD0346002B24
:1025400001D000F097F800BF80BD00BF540E0020FE
:102550000014014080B588B000AF07F10C030022E1
:102560001A605A609A60DA601A610023BB603E4BC1
:102570001B6B3D4A43F0010313633B4B1B6B03F0A2
:102580000103BB60BB6800237B60374B1B6B364A83
:1025900043F002031363344B1B6B03F002037B60B5
:1025A0007B68002248F21001304803F049FD012207
:1025B00002212F4803F044FD002243F218012C4869
:1025C00003F03EFD48F21003FB6001233B61002352
:1025D0007B610023BB6107F10C031946234803F01C
:1025E00093FB0223FB6011233B6101237B610023EA
:1025F000BB6107F10C0319461D4803F085FB04235A
:10260000FB6000233B6100237B6107F10C0319464B
:10261000174803F079FB43F21803FB6001233B6189
:1026200000237B610023BB6107F10C0319461048AE
:1026300003F06AFB4FF48073FB604FF404133B61BB
:1026400000237B6107F10C031946094803F05CFB8A
:1026500000220021172003F020FB172003F039FB94
:1026600000BF2037BD4680BD003802400000024058
:102670000004024080B500AF72B600BF0148FFF70A
:10268000B1F9FBE7C8FF000880B483B000AF786001
:10269000044A7B68136000BF0C37BD465DF8047BBD
:1026A000704700BF280F002080B483B000AF78606F
:1026B000044A7B68136000BF0C37BD465DF8047B9D
:1026C000704700BF2C0F002080B582B000AF0346DA
:1026D0000A46FB711346BB713821002002F064FDED
:1026E000FB791BB21846FFF751F9034683F001034B
:1026F000DBB20D4A06CA0D4802F030FDFB791BB271
:102700001846FFF756F90346002B08D00020FFF7C4
:102710000DF9074B01221A60064ABB79137000BFFE
:102720000837BD4680BD00BF44090020DCFF00081B
:102730002C000020240F002090B585B000AF7860F9
:102740000023FB6034E0FB68DBB2DB00DBB2194640
:10275000002002F029FDFB681BB21846FFF729F99B
:102760000346002B0DD07B68FA68013213F8322043
:10277000154B1A70FB68082B20D10120FFF7D6F803
:102780001CE07A68FB680133DB0013445C68FB687B
:102790001BB21846FFF7FAF8034683F00103DBB2D9
:1027A0000A4A06CA204602F0D9FCFB680133FB60E6
:1027B0007B685B68FA689A42C5DB00E000BF00BF37
:1027C0001437BD4690BD00BF240F002044090020EF
:1027D00080B582B000AF78600B46FB700621002008
:1027E000FFF78AF87868FFF7A7FF00BF0837BD46F4
:1027F00080BD80B582B000AF78600B46FB700321CE
:102800000020FFF779F87868FFF796FF0021032092
:10281000FFF75AFF00BF0837BD4680BD80B582B0C4
:1028200000AF78600B46FB7001210020FFF764F8D1
:102830000021002002F0B8FC464A012306CA46489F
:1028400002F08CFC0021462002F0AEFC434B1B78CA
:1028500083F00103DBB2002B22D03E4A012306CADB
:102860003F4802F07BFC0A21002002F09DFC3D4B1A
:102870001B78DBB2184601F0CBF8364A012306CAB2
:1028800002F06CFC1421002002F08EFC314A01237E
:1028900006CA354802F062FC344B01229A7550E0BA
:1028A000304B1B78DBB2184601F0B2F8294A0123FD
:1028B00006CA02F053FC0A21002002F075FC002039
:1028C000FFF764F8034683F00103DBB2214A06CA2E
:1028D000274802F043FC0020FFF758F80346002B7E
:1028E00019D00020FFF765F80346002B13D000F045
:1028F0008DFF204B01221A701F4B204A1A601E4B7D
:102900001F4A1A601F4B204A1A601E4B1F4A1A604A
:10291000164B01229A751421002002F045FC164B3B
:1029200018680C4A012306CA02F018FC1E21002078
:1029300002F03AFC134B1868064A012306CA02F05B
:102940000DFC00210120FFF7BFFE00BF0837BD4688
:1029500080BD00BF4C090020E8FF00085C9A012000
:10296000F4FF0008549A0120FCFF0008000000203A
:102970000C000108300F0020300000201800010872
:102980003000010834000020400001085400010814
:1029900080B582B000AF78600B46FB700421002048
:1029A000FEF7AAFF7868FFF7C7FE00210420FFF7B3
:1029B0008BFE00BF0837BD4680BD80B582B000AF3A
:1029C00078600B46FB7004210020FEF795FF7868C5
:1029D000FFF7B2FE00210420FFF776FE00BF0837A4
:1029E000BD4680BD80B582B000AF78600B46FB70FD
:1029F00003210020FEF780FF7868FFF79DFE00218D
:102A00000320FFF761FE00BF0837BD4680BD000010
:102A100080B582B000AF78600B46FB7002210020C9
:102A2000FEF76AFF0021002002F0BEFB0020FEF747
:102A3000ADFF034683F00103DBB2424A06CA4248B7
:102A400002F08CFB0821002002F0AEFB0120FEF713
:102A50009DFF034683F00103DBB23A4A06CA3B48B6
:102A600002F07CFB1021002002F09EFB384B18681E
:102A7000344A012306CA02F071FB0020FEF786FFEC
:102A80000346002B23D00020FEF793FF0346002BC4
:102A90001DD0082200212F480BF080F908220021C8
:102AA0002D480BF07BF9082200212C480BF076F919
:102AB00028492B4801F064F827492A4801F060F8BA
:102AC0002649294801F05CF8214B284A1A60012068
:102AD000FEF75CFF0346002B0DD00120FEF769FFD7
:102AE0000346002B07D01A4B214A1A60184B214A83
:102AF0001A60FEF79BFC1821002002F055FB114ADA
:102B0000012306CA1C4802F029FB2021002002F004
:102B10004BFB0C4A012306CA184802F01FFB302168
:102B2000002002F041FB074A012306CA144802F0C4
:102B300015FB00210220FFF7C7FD00BF0837BD4687
:102B400080BD00BF4409002064000108780001082E
:102B500038000020680B0020700B0020780B00204C
:102B60009000010898000108A0000108A8000108D1
:102B7000C0000108D8000108800B0020A00B002035
:102B8000EC00010880B588B000AF0346FB71FB790B
:102B90005B014E4A98184E4A012306CA02F0DEFA3B
:102BA0001221002002F000FB0020FEF7EFFE03469A
:102BB000002B1FD00020FEF7FCFE0346002B19D08F
:102BC000FB79424A5B01134414331B7883F0010301
:102BD000DBB2002B07D0FB793C4A5B011344143372
:102BE00001221A7006E0FB79384A5B011344143362
:102BF00000221A70FB79354A5B01134414331B78A9
:102C0000002B01D0334A00E0334A07F10C0333496B
:102C100018460AF0B1FF0020FEF7B8FE034683F025
:102C20000103DBB22E4A07F10C0006CA02F096FA45
:102C30001C21002002F0B8FA294A012306CA2948BB
:102C400002F08CFA1C21462002F0AEFAFB791F4AF2
:102C50005B01134416331B881A46234923480AF0A4
:102C60008BFF0120FEF792FE034683F00103DBB2E7
:102C70001B4A06CA1D4802F071FA0120FEF786FEC3
:102C80000346002B1ED00120FEF793FE0346002BC7
:102C900018D0174B1B680133154A1360144B1B687F
:102CA000042B02DD124B01221A60114B1B685A1EC5
:102CB000FB79104931F81210044A5B0113441633B2
:102CC0000A461A8000BF2037BD4680BD3C00002068
:102CD000540900200001010804010108080101084D
:102CE0004C0900201401010820010108AC02002059
:102CF000340F0020A402002080B582B000AF7860BD
:102D00000B46FB7002210020FEF7F6FD002100209B
:102D100002F04AFA074B1B78DBB20C3BDBB21846D9
:102D2000FFF730FF00210220FFF7CEFC00BF08377D
:102D3000BD4680BD240F002080B582B000AF0023C7
:102D40007B604BE0294A7B685B01134416331B8888
:102D5000B3F5FA7F3FD1254A7B685B0113441433F6
:102D60001B78002B37D000233B6031E07B685B0190
:102D70001E4A98183A6813465B001344DB001C4A4D
:102D800013441946FDF72CFA0346002B1DD11849B0
:102D90003A6813465B001344DB000B4414331B6892
:102DA0009847F0EE407A134BC3ED007A114B1A6846
:102DB0000E497B685B010B4418331A600B4A7B6831
:102DC0005B0113441C3301221A703B6801333B60E2
:102DD0003B680A2BCAD97B6801337B607B680A2B6E
:102DE000B0DD00BF00BF0837BD4680BD3C000020FD
:102DF0009C010020380F002080B582B000AF002376
:102E00007B604BE0294A7B685B01134416331B88C7
:102E1000B3F57A7F3FD1254A7B685B0113441433B5
:102E20001B78002B37D000233B6031E07B685B01CF
:102E30001E4A98183A6813465B001344DB001C4A8C
:102E400013441946FDF7CCF90346002B1DD1184950
:102E50003A6813465B001344DB000B4414331B68D1
:102E60009847F0EE407A134BC3ED007A114B1A6885
:102E70000E497B685B010B4418331A600B4A7B6870
:102E80005B0113441C3301221A703B6801333B6021
:102E90003B680A2BCAD97B6801337B607B680A2BAD
:102EA000B0DD00BF00BF0837BD4680BD3C0000203C
:102EB0009C010020380F002080B582B000AF0023B5
:102EC0007B604BE0294A7B685B01134416331B8807
:102ED000B3F5FA6F3FD1254A7B685B011344143385
:102EE0001B78002B37D000233B6031E07B685B010F
:102EF0001E4A98183A6813465B001344DB001C4ACC
:102F000013441946FDF76CF90346002B1DD11849EF
:102F10003A6813465B001344DB000B4414331B6810
:102F20009847F0EE407A134BC3ED007A114B1A68C4
:102F30000E497B685B010B4418331A600B4A7B68AF
:102F40005B0113441C3301221A703B6801333B6060
:102F50003B680A2BCAD97B6801337B607B680A2BEC
:102F6000B0DD00BF00BF0837BD4680BD3C0000207B
:102F70009C010020380F002080B582B000AF0023F4
:102F80007B604BE0294A7B685B01134416331B8846
:102F9000B3F57A6F3FD1254A7B685B011344143344
:102FA0001B78002B37D000233B6031E07B685B014E
:102FB0001E4A98183A6813465B001344DB001C4A0B
:102FC00013441946FDF70CF90346002B1DD118498F
:102FD0003A6813465B001344DB000B4414331B6850
:102FE0009847F0EE407A134BC3ED007A114B1A6804
:102FF0000E497B685B010B4418331A600B4A7B68EF
:103000005B0113441C3301221A703B6801333B609F
:103010003B680A2BCAD97B6801337B607B680A2B2B
:10302000B0DD00BF00BF0837BD4680BD3C000020BA
:103030009C010020380F002080B58CB000AF786074
:103040000B46FB7000210020FEF756FC0020FEF727
:103050006DFC0021002002F0A7F8FEF71FF910EE2A
:10306000103A1846FDF788FA02460B4607F10800A9
:103070002E490AF081FD2E4A07F10800012306CAF5
:1030800002F06CF80A21002002F08EF8FEF738F901
:1030900010EE103A1846FDF76FFA02460B4607F19C
:1030A000080024490AF068FD214A07F108000123BD
:1030B00006CA02F053F81421002002F075F8FEF75A
:1030C00051F910EE103A1846FDF756FA02460B4633
:1030D00007F1080018490AF04FFD154A07F10800EA
:1030E000012306CA02F03AF81E21002002F05CF823
:1030F000FEF76AF910EE103A1846FDF73DFA02465F
:103100000B4607F108000D490AF036FD084A07F1A1
:103110000800012306CA02F021F800210020FFF771
:10312000D3FA00BF3037BD4680BD00BF280101087B
:103130004C09002038010108480101085801010824
:1031400080B58CB000AF78600B46FB70002100208A
:10315000FEF7D2FB0020FEF7E9FBFDF751FF10EE72
:10316000103A1846FDF708FA02460B4607F1080028
:1031700030490AF001FD0021002002F015F82E4A26
:1031800007F10800012306CA01F0E8FF0A21002028
:1031900002F00AF8FDF788FF10EE103A1846FDF726
:1031A000EBF902460B4607F1080024490AF0E4FC5B
:1031B000214A07F10800012306CA01F0CFFF1421BC
:1031C000002001F0F1FFFDF7C3FF10EE103A1846A2
:1031D000FDF7D2F902460B4607F1080018490AF03C
:1031E000CBFC154A07F10800012306CA01F0B6FF1F
:1031F0001E21002001F0D8FFFDF7FEFF10EE103A6F
:103200001846FDF7B9F902460B4607F108000D49CB
:103210000AF0B2FC084A07F10800012306CA01F0CF
:103220009DFF00210020FFF74FFA00BF3037BD4659
:1032300080BD00BF680101084C0900207801010829
:10324000880101089801010880B58CB000AF786052
:103250000B46FB704A4B1B68002B05D00020FEF785
:1032600065FB474B00221A6001210020FEF744FB5A
:10327000444B1B78002B14D0FEF734F9F0EE407A63
:10328000414BC3ED007AFEF793F9F0EE407A3F4BE5
:10329000C3ED007AFEF7F2F9F0EE407A3C4BC3ED55
:1032A000007A384B00221A700021002001F07CFFC8
:1032B000354B1B681846FDF75FF902460B4607F1D0
:1032C000080034490AF058FC334A07F1080001238A
:1032D00006CA01F043FF0A21002001F065FF2B4BD5
:1032E0001B681846FDF748F902460B4607F108002F
:1032F0002A490AF041FC284A07F10800012306CABE
:1033000001F02CFF1421002001F04EFF204B1B6820
:103310001846FDF731F902460B4607F1080020492F
:103320000AF02AFC1C4A07F10800012306CA01F032
:1033300015FF1E21002001F037FF0020FEF726FBBD
:10334000034683F00103DBB2164A06CA164801F0B1
:1033500005FF0020FEF71AFB0346002B08D00020D3
:10336000FEF727FB0346002B02D0064B01221A7002
:1033700000210120FFF7A8F900BF3037BD4680BD0E
:103380002C0000203C0F0020400F0020440F0020A4
:10339000480F0020A80101084C090020B8010108CD
:1033A000C801010844090020D801010880B584B093
:1033B00000AF78600B46FB70804B1B68002B05D07C
:1033C0000020FEF7B3FA7D4B00221A600221002094
:1033D000FEF792FA00210020FFF776F9784B1B7870
:1033E00083F00103DBB2002B28D00021002001F084
:1033F000DBFE744A012306CA734801F0AFFE1221B6
:10340000002001F0D1FE714B1B78DBB2184600F0B2
:10341000FFFA6F4A012306CA01F0A0FE1C2100201A
:1034200001F0C2FE6A4A012306CA6A4801F096FE0C
:10343000694B01229A750023FB73BAE0674B1B7836
:10344000002B21D00021002001F0AEFE5D4A0123B7
:1034500006CA634801F082FE1221002001F0A4FE9A
:10346000584A012306CA5F4801F078FE2421002053
:1034700001F09AFE5C4A012306CA5C4801F06EFE28
:10348000554B01229A7594E0534B00229A75002106
:10349000002001F089FEF823FB7302210020FEF7D3
:1034A0002BFA0021002001F07FFE0120FEF76EFACA
:1034B000034683F00103DBB2424A06CA4C4801F0DE
:1034C0004DFE1221002001F06FFE0220FEF75EFA91
:1034D000034683F00103DBB23A4A06CA454801F0CD
:1034E0003DFE0120FEF752FA0346002B34D00120A6
:1034F000FEF75FFA0346002B2ED03F4B1B78002BC4
:1035000006D03E4B3E4A1A603C4B3E4A1A6023E0CE
:1035100000F0CCF90346002B12D13B4800F016FA1C
:103520000346002B18D1394800F010FA324B012223
:103530001A70324B324A1A60304B354A1A600BE02F
:103540002E4B2F4A1A602D4B324A1A60324B334AA7
:103550001A60214B01229A750220FEF717FA0346E2
:10356000002B10D00220FEF724FA0346002B0AD0CD
:10357000214B00221A7000F031FA204B204A1A60C9
:103580001E4B274A1A602421002001F00DFE1B4B20
:103590001868154A012306CA01F0E0FD2E2100201B
:1035A00001F002FE1C4B18680F4A012306CA01F005
:1035B000D5FD00BF1037BD4680BD00BF2C000020E8
:1035C0005C9A012054090020EC010108549A012062
:1035D0004C090020F801010800000020300F0020F5
:1035E000080201081002010844090020180201081D
:1035F0002802010830020108B80E0020B80200209D
:10360000380201084C0201085C020108740201083A
:103610000003010810030108BC0200202003010878
:103620002C03010880B500AF002001F06FFC1A4B9D
:103630001B78DAB2194B1B78DBB29A4203D1184BD4
:1036400000221A7002E0164B01221A70124B1B78EE
:10365000DBB21946134A0B46DB000B44DB00134474
:103660001A680D4B1B78DBB219460B46DB000B4486
:10367000DB000C490B440A49097818469047064B71
:103680001B78DAB2054B1A7001F064FC012001F0DE
:1036900047FE00BF80BD00BF240F0020280000208F
:1036A000310F0020C002002080B500AF01F0C4FB44
:1036B00000BF80BD80B483B000AF78607B6803F545
:1036C000C0331A460023C2F8A0367B6803F5C03326
:1036D0001A460023C2F8A43600BF0C37BD465DF879
:1036E000047B704780B582B000AF786039607B683A
:1036F00003F5C033D3F8A0364FF47A7202FB03F31C
:103700007A6813444FF47A72396818460AF070FBED
:103710007B6803F5C033D3F8A0365A1C194B83FBE2
:1037200002135911D317CB1A642101FB03F3D31AE7
:103730007A6802F5C032C2F8A0367B6803F5C03360
:10374000D3F8A0267B6803F5C033D3F8A4369A4299
:1037500014D17B6803F5C033D3F8A4365A1C094B47
:1037600083FB02135911D317CB1A642101FB03F316
:10377000D31A7A6802F5C032C2F8A43600BF0837FF
:10378000BD4680BD1F85EB5180B584B000AF786029
:103790007B6803F5C033D3F8A0267B6803F5C033FC
:1037A000D3F8A4369A4204D115480AF0A9F9154B6A
:1037B00021E07B6803F5C033D3F8A4364FF47A7266
:1037C00002FB03F37A681344FB607B6803F5C033A4
:1037D000D3F8A4365A1C0C4B83FB02135911D31790
:1037E000CB1A642101FB03F3D31A7A6802F5C032C5
:1037F000C2F8A436FB6818461037BD4680BD00BF2E
:1038000034040108480401081F85EB5180B500AF5E
:1038100000220649002008F013FD03461A46044B17
:103820001A700448FEF7DEF800BF80BD4C040108A2
:10383000549A01205004010880B500AF01221249BA
:10384000124808F0FDFC03461A46114B1A70104B43
:103850001B78DBB2002B09D10E4B01221A700E48E7
:10386000FEF7C0F80D48FEF7BDF80BE0094B00224B
:103870001A700B48FEF7B6F80A48FEF7B3F80A4B81
:1038800001229A7300BF80BD64040108F4950120F1
:10389000549A01205C9A0120680401087C04010804
:1038A00090040108A40401080000002080B584B041
:1038B00000AF1D4B1B78002B2BD01C4B1A683B1DF7
:1038C0001B4918460AF058F93B1D3322194619487E
:1038D00008F0FCFC03461A46174B1A70164B1B786F
:1038E000DBB2002B09D0104B00221A701348FEF7F0
:1038F00079F8134B01229A7307E00C4B1B680133D4
:103900000A4A13600F48FEF76DF80B4B1B78DBB2C9
:1039100005E00D48FEF766F8074B1B78DBB218464A
:103920001037BD4680BD00BF5C9A012038090020D9
:10393000FC04010824980120549A0120080501087C
:10394000000000202C0501083C05010880B582B06C
:1039500000AF78601A4B1B78002B25D01949786886
:1039600009F045FA0346002B01DA012323E0164B48
:103970001B680133144A1360134B1B6844F61F6223
:10398000934209D9104B00221A6000F027F8FFF784
:103990008DFF0E48FFF7DAFF0A4809F009F90C48D5
:1039A000FEF720F8002306E00A48FEF71BF80A4B52
:1039B00001229A73012318460837BD4680BD00BF17
:1039C0005C9A012024980120609A01206405010876
:1039D000F0050108040601080000002080B500AFD2
:1039E000074B1B78002B09D0064809F05FF9034606
:1039F0001A46054B1A700548FDF7F4FF00BF80BD5D
:103A00005C9A012024980120549A0120280601087C
:103A100080B483B000AF0346FB71FB79132B53D8FE
:103A200001A252F823F000BF793A00087D3A00085D
:103A3000813A0008853A0008893A00088D3A000862
:103A4000913A0008953A0008993A00089D3A000812
:103A5000A13A0008A53A0008A93A0008AD3A0008C2
:103A6000B13A0008B53A0008B93A0008BD3A000872
:103A7000C13A0008C53A0008174B26E0174B24E06E
:103A8000174B22E0174B20E0174B1EE0174B1CE0B2
:103A9000174B1AE0174B18E0174B16E0174B14E0C2
:103AA000174B12E0174B10E0174B0EE0174B0CE0D2
:103AB000174B0AE0174B08E0174B06E0174B04E0E2
:103AC000174B02E0174B00E0174B18460C37BD466A
:103AD0005DF8047B704700BF3C06010844060108FE
:103AE000500601085C0601086C060108780601080A
:103AF0008406010894060108A0060108AC06010826
:103B0000C0060108D4060108E8060108F806010805
:103B10000C0701081C0701082807010834070108E1
:103B200048070108600701087807010880B584B0DC
:103B300000AF78603960114978680AF06DF9F86073
:103B40000023BB6012E010220021F86809F052FA4D
:103B50000146BB685A1CBA601A463B681344CAB295
:103B60001A70064900200AF057F9F860FB68002B2C
:103B7000E9D100BF00BF1037BD4680BD88070108EE
:103B800080B594B000AF7860396007F10803462231
:103B9000002118460AF002F901227968114808F05C
:103BA00095FB03461A46104B1A700F4B1B78DBB27D
:103BB000002B12D107F108010C4B4622094808F0EE
:103BC00043FD084808F0F4FF064809F06FF807F1D4
:103BD000080339681846FFF7A9FF00BF5037BD46F4
:103BE00080BD00BF24980120549A0120589A0120DA
:103BF00080B483B000AF00237B60104B5B6C0F4A36
:103C000043F4804353640D4B5B6C03F480437B604F
:103C10007B6800233B60094B1B6C084A43F08053D0
:103C20001364064B1B6C03F080533B603B6800BF82
:103C30000C37BD465DF8047B704700BF003802407A
:103C400080B58AB000AF786007F1140300221A60D3
:103C50005A609A60DA601A617B681B68174A93425F
:103C600027D100233B61164B5B6C154A43F48073EC
:103C70005364134B5B6C03F480733B613B6900231B
:103C8000FB600F4B1B6B0E4A43F0010313630C4B9D
:103C90001B6B03F00103FB60FB680F237B610323B5
:103CA000BB610023FB6107F114031946054802F0CC
:103CB0002BF800BF2837BD4680BD00BF0020014063
:103CC000003802400000024080B58CB000AF786040
:103CD00007F11C0300221A605A609A60DA601A61C8
:103CE0007B681B683B4A93422CD10023BB613A4B53
:103CF0001B6B394A43F002031363374B1B6B03F012
:103D00000203BB61BB69C023FB6112233B6200233A
:103D10007B620323BB620423FB6207F11C03194689
:103D20002E4801F0F1FF00237B612B4B1B6C2A4ACC
:103D300043F400131364284B1B6C03F400137B61E2
:103D40007B6942E07B681B68254A93423DD1002392
:103D50003B61214B1B6B204A43F0020313631E4B54
:103D60001B6B03F002033B613B694FF48063FB6113
:103D700012233B6200237B620323BB620423FB62AA
:103D800007F11C031946154801F0BEFF4FF40073FC
:103D9000FB6112233B6200237B620323BB62092386
:103DA000FB6207F11C0319460C4801F0ADFF00232C
:103DB000FB60094B1B6C084A43F480031364064BF9
:103DC0001B6C03F48003FB60FB6800BF3037BD460B
:103DD00080BD00BF00540040003802400004024093
:103DE0000058004080B588B000AF786007F1080344
:103DF00000221A605A609A60DA601A615A617B6820
:103E00001B680C4A934211D10223BB604FF400732C
:103E1000BB6107F10803184603F0C2FE0346002BFE
:103E200001D0FEF727FC044B01221A6000BF2037A7
:103E3000BD4680BD002800403C0E474280B58AB098
:103E400000AF786007F1140300221A605A609A608C
:103E5000DA601A617B681B68214A93423BD10023D8
:103E60003B61204B5B6C1F4A43F4805353641D4BF2
:103E70005B6C03F480533B613B690023FB60194B8F
:103E80001B6B184A43F001031363164B1B6B03F0C3
:103E90000103FB60FB6820237B610223BB610023DD
:103EA000FB6103233B6205237B6207F11403194680
:103EB0000D4801F029FFC0237B610223BB61012370
:103EC000FB6103233B6205237B6207F11403194660
:103ED000054801F019FF00BF2837BD4680BD00BF6F
:103EE00000300140003802400000024080B58AB036
:103EF00000AF786007F1140300221A605A609A60DC
:103F0000DA601A617B681B68214A93423CD1002326
:103F10003B61204B5B6C1F4A43F0010353641D4B14
:103F20005B6C03F001033B613B690023FB60194BB1
:103F30001B6B184A43F001031363164B1B6B03F012
:103F40000103FB60FB684FF440737B610223BB619C
:103F50000023FB6100233B6201237B6207F1140312
:103F600019460D4801F0D0FE00220021192001F071
:103F700094FE192001F0ADFE002200211A2001F06C
:103F80008CFE1A2001F0A5FE00BF2837BD4680BD7B
:103F900000000140003802400000024080B586B0B9
:103FA00000AF78607B681B68B3F1804F16D10023A7
:103FB0007B61284B1B6C274A43F001031364254B9C
:103FC0001B6C03F001037B617B69002200211C2034
:103FD00001F063FE1C2001F07CFE36E07B681B686C
:103FE0001D4A934216D100233B611A4B5B6C194A60
:103FF00043F400335364174B5B6C03F400333B61B1
:104000003B6900220021192001F047FE192001F030
:1040100060FE1AE07B681B68104A934215D10023AA
:10402000FB600C4B5B6C0B4A43F480235364094BDD
:104030005B6C03F48023FB60FB68002200211A20E4
:1040400001F02BFE1A2001F044FE00BF1837BD46D8
:1040500080BD00BF003802400044014000480140DC
:1040600080B58AB000AF786007F1140300221A60AF
:104070005A609A60DA601A617B681B68194A934239
:104080002CD100233B61184B5B6C174A43F0200393
:104090005364154B5B6C03F020033B613B690023C9
:1040A000FB60114B1B6B104A43F0010313630E4B73
:1040B0001B6B03F00103FB60FB684FF4C0537B6193
:1040C0000223BB610023FB6103233B6208237B6265
:1040D00007F114031946054801F016FE00BF283702
:1040E000BD4680BD0014014000380240000002407F
:1040F00080B400AF0E4B1B78DBB2002B06D00C4B0C
:104100001B78DBB2013BDAB2094B1A70094B1B7802
:10411000DBB2002B06D0074B1B78DBB2013BDAB2D7
:10412000044B1A7000BFBD465DF8047B704700BFAA
:10413000659A0120669A012080B400AFFEE780B442
:1041400000AFFEE780B400AFFEE780B400AFFEE74B
:1041500080B400AFFEE780B400AF00BFBD465DF89D
:10416000047B704780B400AF00BFBD465DF8047BA0
:10417000704780B400AF00BFBD465DF8047B704758
:1041800080B500AF0A4B1B78DBB20133DAB2084BC3
:104190001A70074B1B78DBB2092B04D9044B0022A1
:1041A0001A70FFF7A5FF01F09BF800BF80BD00BFAC
:1041B000649A012080B500AF4FF4807001F05AFF7F
:1041C00000BF80BD80B500AF034805F0EFF803489D
:1041D00005F0ECF800BF80BD340D0020C40D0020B8
:1041E00080B500AF034805F0E1F8034805F0DEF8BC
:1041F00000BF80BD340D00200C0E002080B500AF44
:10420000024805F0D3F800BF80BD00BF7C0D002040
:1042100080B400AF01231846BD465DF8047B7047AB
:1042200080B582B000AF7860396009F09BFE03462C
:1042300016221A604FF0FF3318460837BD4680BD7E
:1042400080B582B000AF78604FF0FF317868FFF73B
:10425000E7FFFEE780B586B000AFF860B9607A602E
:1042600000237B610AE0AFF300800146BB685A1C63
:10427000BA60CAB21A707B6901337B617A697B6864
:104280009A42F0DB7B6818461837BD4680BD80B582
:1042900086B000AFF860B9607A6000237B6109E006
:1042A000BB685A1CBA601B781846AFF300807B6964
:1042B00001337B617A697B689A42F1DB7B6818463F
:1042C0001837BD4680BD80B483B000AF78604FF032
:1042D000FF3318460C37BD465DF8047B704780B449
:1042E00083B000AF786039603B684FF400525A6089
:1042F000002318460C37BD465DF8047B704780B438
:1043000083B000AF7860012318460C37BD465DF8D6
:10431000047B704780B485B000AFF860B9607A6004
:10432000002318461437BD465DF8047B7047000033
:1043300080B586B000AF7860144A154BD31A7B6104
:104340007B693B61134B1B68002B02D1114B124A56
:104350001A60104B1A687B6813443A699A4207D274
:1043600009F000FE03460C221A604FF0FF3309E00B
:10437000084B1B68FB60074B1A687B681344054AAF
:104380001360FB6818461837BD4680BD0000022048
:1043900000040000689A012010A0012080B400AF42
:1043A000064BD3F88830054A43F47003C2F88830CE
:1043B00000BFBD465DF8047B704700BF00ED00E024
:1043C00080B582B000AF786000F09EFF0346044ADB
:1043D0001360044A7B68136000BF0837BD4680BD88
:1043E000709A0120749A012080B500AF00F08CFF14
:1043F0000246064B1B68D21A054B1B689A4234BF13
:1044000001230023DBB2184680BD00BF709A012053
:10441000749A012080B586B002AF0346FB7107F1A4
:104420000F02F91D322300930123044804F06BF9B5
:10443000FB7B18461037BD4680BD00BFDC0C00205A
:1044400090B585B000AF786039600023FB600AE06A
:104450007A68FB68D418FF20FFF7DCFF034623705F
:10446000FB680133FB60FA683B689A42F0D300BFF7
:1044700000BF1437BD4690BD80B582B000AF7860F4
:1044800039603B689AB24FF0FF337968034803F014
:10449000FEFF00BF0837BD4680BD00BFDC0C00201A
:1044A00080B586B000AF786000F02EFF78617B6841
:1044B0003B61FF20FFF7AEFF0346FB73FB7BFF2B47
:1044C00007D000F021FF02467B69D31A3A699A426D
:1044D000EFD8FB7BFF2B0CBF01230023DBB2184678
:1044E0001837BD4680BD000080B500AF0122102105
:1044F000034801F0A5FDFF20FFF78CFF00BF80BD42
:104500000000024080B500AF00221021094801F0F0
:1045100097FDFF20FFF77EFF4FF4FA70FFF7C0FF13
:104520000346002B01D0012302E0FFF7DDFF00234B
:10453000184680BD0000024080B584B000AF7860AE
:104540003960C820FFF73CFFFF20FFF763FF0346F9
:10455000FB73FB7BFF2B04D1FFF746FF0346002BC9
:10456000F2D1FB7BFE2B01D000230AE0396878688A
:10457000FFF766FFFF20FFF74DFFFF20FFF74AFF21
:10458000012318461037BD4680BD80B584B000AF0A
:1045900078600B46FB704FF4FA70FFF781FF03461B
:1045A000002B01D100231EE0FB781846FFF732FFF5
:1045B000FB78FD2B16D04FF400717868FFF75CFF95
:1045C000FF20FFF727FFFF20FFF724FFFF20FFF763
:1045D00021FF0346FB73FB7B03F01F03052B01D078
:1045E000002300E0012318461037BD4680BD80B58A
:1045F00084B000AF03463960FB7197F90730002B98
:104600000EDAFB7903F07F03FB7100213720FFF7FF
:10461000EEFF0346BB73BB7B012B01D9BB7B51E093
:10462000FB790C2B08D0FFF75FFFFFF76BFF03460A
:10463000002B01D1FF2345E0FB7943F04003DBB2BF
:104640001846FFF7E7FE3B681B0EDBB21846FFF784
:10465000E1FE3B681B0CDBB21846FFF7DBFE3B6854
:104660001B0ADBB21846FFF7D5FE3B68DBB21846E3
:10467000FFF7D0FE0123FB73FB79002B01D19523BB
:10468000FB73FB79082B01D18723FB73FB7B184657
:10469000FFF7C0FEFB790C2B02D1FF20FFF7BAFE1B
:1046A0000A23FB73FF20FFF7B5FE0346BB7397F9A0
:1046B0000E30002B05DAFB7B013BFB73FB7B002BF1
:1046C000F0D1BB7B18461037BD4680BD90B585B094
:1046D00000AF0346FB71FB79002B01D00123D6E02C
:1046E0006D4B1B78DBB203F00203002B03D06A4B47
:1046F0001B78DBB2CBE0694B1B681B6823F03802E8
:10470000664B1B6842F030021A600A23FB7305E017
:10471000FF20FFF77FFEFB7B013BFB73FB7B002B46
:10472000F6D100237B7300210020FFF760FF0346D2
:10473000012B40F08B804FF47A70FFF741FE4FF46D
:10474000D5710820FFF753FF0346012B51D10023F9
:10475000FB730DE0FC7BFF20FFF75CFE03461A466F
:1047600004F110033B4403F8082CFB7B0133FB737B
:10477000FB7B032BEED9BB7A012B67D1FB7AAA2BEB
:1047800064D100BFFFF730FE0346002B07D04FF087
:104790008041A920FFF72BFF0346002BF2D1FFF742
:1047A00023FE0346002B51D000213A20FFF71FFFC4
:1047B0000346002B4AD10023FB730DE0FC7BFF2056
:1047C000FFF728FE03461A4604F110033B4403F8A2
:1047D000082CFB7B0133FB73FB7B032BEED93B7A6D
:1047E00003F04003002B01D00C2300E004237B7373
:1047F0002CE00021A920FFF7FAFE0346012B04D884
:1048000002237B73A923BB7303E001237B73012382
:10481000BB7300BFFFF7E8FD0346002B07D0BB7B4F
:1048200000211846FFF7E3FE0346002BF2D1FFF705
:10483000DBFD0346002B07D04FF400711020FFF77B
:10484000D6FE0346002B01D000237B73144A7B7BEA
:104850001370FFF749FE7B7B002B12D00F4B1B68B8
:104860001B6823F038020D4B1B6842F010021A60DF
:10487000094B1B78DBB223F00103DAB2064B1A7046
:1048800002E0054B01221A70034B1B78DBB218467D
:104890001437BD4690BD00BF40090020DC0C00204D
:1048A0006C9A012080B483B000AF0346FB71FB79A2
:1048B000002B01D0012302E0044B1B78DBB2184629
:1048C0000C37BD465DF8047B704700BF40090020EF
:1048D00080B584B000AFB9607A603B600346FB737B
:1048E000FB7B002B02D13B68002B01D104234DE060
:1048F000284B1B78DBB203F00103002B01D003230C
:1049000044E0254B1B7803F00803002B02D17B68A1
:104910005B027B603B68012B11D179681120FFF7A6
:1049200066FE0346002B29D14FF40071B868FFF7EB
:1049300003FE0346002B21D000233B601EE0796874
:104940001220FFF754FE0346002B17D14FF40071DD
:10495000B868FFF7F1FD0346002B0AD0BB6803F5EA
:104960000073BB603B68013B3B603B68002BEDD1B3
:1049700000E000BF00210C20FFF739FEFFF7B4FD77
:104980003B68002B14BF01230023DBB2184610370D
:10499000BD4680BD400900206C9A012080B584B0DE
:1049A00000AFB9607A603B600346FB73FB7B002B72
:1049B00002D13B68002B01D1042363E0334B1B7809
:1049C000DBB203F00103002B01D003235AE02F4B8D
:1049D0001B78DBB203F00403002B01D0022351E06B
:1049E0002B4B1B7803F00803002B02D17B685B0282
:1049F0007B603B68012B10D179681820FFF7F7FD29
:104A00000346002B36D1FE21B868FFF7BEFD0346F2
:104A1000002B2FD000233B602CE01D4B1B7803F0B4
:104A20000603002B03D039689720FFF7E0FD796873
:104A30001920FFF7DCFD0346002B1BD1FC21B868D1
:104A4000FFF7A3FD0346002B0AD0BB6803F50073F4
:104A5000BB603B68013B3B603B68002BEED100E054
:104A600000BFFD210020FFF790FD0346002B01D180
:104A700001233B60FFF738FD3B68002B14BF012387
:104A80000023DBB218461037BD4680BD4009002028
:104A90006C9A012080B58CB000AF03463A60FB7180
:104AA0000B46BB71FB79002B01D004235AE1AF4BBD
:104AB0001B78DBB203F00103002B01D0032351E18B
:104AC000012387F82F30BB79042B00F2368101A235
:104AD00052F823F0E94A0008FD4A00083B4D00085F
:104AE000A94B00089F4C0008FFF70CFD0346002B64
:104AF00000F02781002387F82F3022E100210920D0
:104B0000FFF775FD0346002B40F01D8107F10C03F4
:104B100010211846FFF710FD0346002B00F013810B
:104B20003B7B9B09DBB2012B11D17B7D1A463B7D80
:104B30001B0213441A46FB7C1B0403F47C1313442E
:104B40000133FB61FB699A023B681A6028E07B7CB9
:104B500003F00F03DAB2BB7DDB09DBB21344DAB238
:104B60007B7D5B00DBB203F00603DBB21344DBB2F8
:104B7000023387F82E303B7D9B09DBB21A46FB7C63
:104B80009B001A44BB7C9B0203F440631344013333
:104B9000FB6197F82E30093BFA699A403B681A602E
:104BA000002387F82F30CEE0714B1B7803F004030D
:104BB000002B31D000218D20FFF719FD0346002B7B
:104BC00040F0C380FF20FFF725FC07F10C03102104
:104BD0001846FFF7B1FC0346002B00F0B6803023E7
:104BE00087F82E3007E0FF20FFF714FC97F82E30EF
:104BF000013B87F82E3097F82E30002BF3D1BB7D88
:104C00001B09DBB21A46102303FA02F23B681A6052
:104C1000002387F82F3098E000210920FFF7E7FCF8
:104C20000346002B40F0918007F10C031021184639
:104C3000FFF782FC0346002B00F087804C4B1B786B
:104C400003F00203002B12D0BB7D5B0003F07E0358
:104C5000FA7DD209D2B213445A1C7B7E9B09DBB287
:104C6000013B02FA03F31A463B681A6013E0BB7D6E
:104C70009B109BB203F01F030133FA7DD20002F0B8
:104C80001802F97D4909C9B20A44013202FB03F353
:104C90001A463B681A60002387F82F3055E0344BE2
:104CA0001B7803F00603002B51D007F10C02FB79AF
:104CB0000B211846FFF7EEFE0346002B49D13B7B44
:104CC0009B09DBB2002B04D1BB7D03F04003002B1A
:104CD00041D03B683B623B6A1B68BB623B6A5B68D6
:104CE0007B62234B1B7803F00803002B05D1BB6AC2
:104CF0005B02BB627B6A5B027B62B96A2020FFF7C2
:104D000076FC0346002B28D1796A2120FFF76FFC3F
:104D10000346002B21D100212620FFF768FC034623
:104D2000002B1AD147F23050FFF7BAFB0346002B95
:104D300013D0002387F82F300FE0042387F82F309B
:104D40000CE000BF0AE000BF08E000BF06E000BFC3
:104D500004E000BF02E000BF00E000BFFFF7C4FBBB
:104D600097F82F3018463037BD4680BD40090020E7
:104D70006C9A0120DFF834D00D480E490E4A00230A
:104D800002E0D458C4500433C4188C42F9D30B4AFF
:104D90000B4C002301E013600432A242FBD3FFF767
:104DA000FDFA09F0E5F8FCF71FFF7047000002204C
:104DB00000000020400B002000270108400B0020CD
:104DC0000CA00120FEE780B400AF00BFBD465DF837
:104DD000047B704780B586B004AF0346FB714FF08B
:104DE000FF33029301230193FB1D00930123002253
:104DF0007821034801F0BEFD00BF0837BD4680BDE5
:104E0000140C002080B586B004AF786039603B6830
:104E10009BB24FF0FF32029201937B680093012313
:104E200040227821034801F0A5FD00BF0837BD46A8
:104E300080BD00BF140C002080B500AFFFF7C3FF9A
:104E4000642000F06DFA002000F0DAF92020FFF76E
:104E5000C1FF0020FFF7BEFFB020FFF7BBFFC82057
:104E6000FFF7B8FF0020FFF7B5FF1020FFF7B2FFF4
:104E70004020FFF7AFFFFF2000F0AEF9A120FFF7C1
:104E8000A9FFA620FFF7A6FFA820FFF7A3FF3F205A
:104E9000FFF7A0FFA420FFF79DFFD320FFF79AFFA5
:104EA0000020FFF797FFD520FFF794FFF020FFF7D2
:104EB00091FFD920FFF78EFF2220FFF78BFFDA202A
:104EC000FFF788FF1220FFF785FFDB20FFF782FF47
:104ED0002020FFF77FFF8D20FFF77CFF1420FFF7D6
:104EE00079FF012000F08CF9002000F00FF800F0AD
:104EF00031F8054B00221A80034B00225A80024BE6
:104F000001221A7100BF80BD789E012080B485B057
:104F100000AF0346FB710023FB600DE0FB79002B23
:104F200001D1002100E0FF21094AFB6813440A4631
:104F30001A70FB680133FB60FB68B3F5806FEDD33B
:104F400000BF00BF1437BD465DF8047B704700BF4B
:104F5000789A012080B582B000AF0023FB7116E083
:104F6000FB79503BDBB21846FFF734FF0020FFF718
:104F700031FF1020FFF72EFFFB79DB01084A1344B5
:104F800080211846FFF73EFFFB790133FB71FB7967
:104F9000072BE5D900BF00BF0837BD4680BD00BF65
:104FA000789A012080B483B000AF0346FB710B46B2
:104FB000BB7113467B7197F90730002B3DDBBB7942
:104FC0003F2B3AD87B79012B1AD1FA79BB79DB08D0
:104FD000D8B20346DB0113441B4AD35C5AB2BB79F7
:104FE00003F00703012101FA03F35BB2134359B243
:104FF000FA790346DB011344C9B2134AD1541DE0C8
:10500000FA79BB79DB08D8B20346DB0113440E4AB8
:10501000D35C5AB2BB7903F00703012101FA03F311
:105020005BB2DB435BB2134059B2FA790346DB0152
:105030001344C9B2044AD15400E000BF0C37BD4646
:105040005DF8047B704700BF789A012090B589B065
:1050500000AF0446381D80E806001A462346FB735D
:105060001346BB73FB7B1F2B02D9FB7B7E2B01D925
:1050700000236DE0384B1B881A463B791344802B84
:1050800006DC354B5B881A467B791344402B01DDE7
:1050900000235DE00023FB614CE0BA68FB7B203B12
:1050A000797901FB03F31946FB690B445B00134458
:1050B0001B887B610023BB6134E07A69BB6902FA1B
:1050C00003F303F40043002B12D0234B1B88DAB206
:1050D000BB69DBB21344D8B21F4B5B88DAB2FB6901
:1050E000DBB21344DBB2BA7B1946FFF75BFF16E075
:1050F000194B1B88DAB2BB69DBB21344D8B2164B2A
:105100005B88DAB2FB69DBB21344D9B2BB7B002BFC
:105110000CBF01230023DBB21A46FFF743FFBB6934
:105120000133BB613B791A46BB699342C5D3FB6926
:105130000133FB617B791A46FB699342ADD3064B81
:105140001A883B799BB213449AB2034B1A80FB7BBB
:1051500018462437BD4690BD789E012080B584B0A6
:1051600000AFF860381D80E80600FB7012E0FB68B5
:105170001878FB783A1D06CAFFF768FF03461A46FF
:10518000FB681B789A4202D0FB681B7808E0FB683A
:105190000133FB60FB681B78002BE8D1FB681B78B0
:1051A00018461037BD4680BD80B483B000AF0346BB
:1051B0000A46FB711346BB71FB799AB2054B1A8004
:1051C000BB799AB2034B5A8000BF0C37BD465DF8DD
:1051D000047B7047789E012080B584B000AF034601
:1051E000FB718123FB73FB7B1846FFF7F3FDFB7913
:1051F0001846FFF7EFFD00BF1037BD4680BD000029
:1052000080B584B000AF0346FB71FB79002B05D05D
:10521000AF23FB73084B01225A7104E0AE23FB73EA
:10522000054B00225A71FB7B1846FFF7D3FD00BFE8
:105230001037BD4680BD00BF789E012080B500AF0D
:105240000E4B1B680D4A43F4007313600B4B1B6835
:105250000A4A43F480631360084B1B68074A43F40F
:1052600080731360032000F00DFD0F2000F008F89C
:10527000FEF7BEFC0023184680BD00BF003C024084
:1052800080B582B000AF7860124B1A68124B1B7861
:1052900019464FF47A73B3FBF1F3B2FBF3F31846FC
:1052A00000F025FD0346002B01D001230EE07B68B2
:1052B0000F2B0AD8002279684FF0FF3000F0EDFC88
:1052C000064A7B681360002300E001231846083774
:1052D000BD4680BD3C090020600900205C0900201B
:1052E00080B400AF064B1B781A46064B1B6813446C
:1052F000044A136000BFBD465DF8047B704700BFE1
:1053000060090020809E012080B400AF034B1B6821
:105310001846BD465DF8047B704700BF809E0120A3
:1053200080B584B000AF7860FFF7EEFFB8607B68AF
:10533000FB60FB68B3F1FF3F05D00A4B1B781A46B0
:10534000FB681344FB6000BFFFF7DEFF0246BB684B
:10535000D31AFA689A42F7D800BF00BF1037BD468B
:1053600080BD00BF6009002080B584B000AF7860C8
:105370000023FB737B68002B01D1012333E07B68A2
:105380001B6C002B09D17868FEF75AFC7B68002261
:105390005A647B68002283F83C207B681B6C03F016
:1053A0001003002B18D17B681B6C23F4885323F067
:1053B000020343F002027B681A64786800F096FAF0
:1053C0007B6800225A647B681B6C23F0030343F064
:1053D00001027B681A6401E00123FB737B680022F1
:1053E00083F83C20FB7B18461037BD4680BD00008B
:1053F00080B485B000AF78600023BB607B6893F811
:105400003C30012B01D1022397E07B68012283F815
:105410003C207B681B689B6803F00103012B18D0BC
:105420007B681B689A687B681B6842F001029A607F
:10543000454B1B68454AA2FB03239A0C13465B00AD
:105440001344BB6002E0BB68013BBB60BB68002B40
:10545000F9D17B681B689B6803F00103012B5FD1C6
:105460007B681B6C23F4E06323F0010343F4807238
:105470007B681A647B681B685B6803F48063002B9D
:1054800007D07B681B6C23F4405343F480527B6845
:105490001A647B681B6C03F48053B3F5805F06D1FC
:1054A0007B685B6C23F006027B685A6402E07B68D1
:1054B00000225A647B68002283F83C20244BFB6066
:1054C0007B681B686FF022021A60FB685B6803F060
:1054D0001F03002B0FD17B681B689B6803F04053B0
:1054E000002B29D17B681B689A687B681B6842F097
:1054F00080429A6020E07B681B68164A93421BD169
:105500007B681B689B6803F04053002B14D17B68B9
:105510001B689A687B681B6842F080429A600BE0C7
:105520007B681B6C43F010027B681A647B685B6CC1
:1055300043F001027B685A64002318461437BD46C5
:105540005DF8047B704700BF3C09002083DE1B43ED
:10555000002301400020014080B584B000AF786096
:1055600039600023FB607B681B689B6803F48063E1
:10557000B3F5806F13D17B681B689B6803F480735D
:10558000B3F5807F0BD17B681B6C43F020027B68F6
:105590001A647B68002283F83C20012363E0FFF754
:1055A000B3FEF86021E03B68B3F1FF3F1DD03B68DC
:1055B000002B07D0FFF7A8FE0246FB68D31A3A6813
:1055C0009A4212D27B681B681B6803F00203022B0D
:1055D0000BD07B681B6C43F004027B681A647B6809
:1055E000002283F83C2003233DE07B681B681B6896
:1055F00003F00203022BD6D17B681B686FF0120206
:105600001A607B681B6C43F400727B681A647B68C9
:105610001B689B6803F04053002B23D17B681B7EE3
:10562000002B1FD17B681B68DB6A03F47003002B1F
:1056300006D07B681B689B6803F48063002B11D144
:105640007B681B6C23F480727B681A647B681B6C1C
:1056500003F48053002B05D17B681B6C43F00102DF
:105660007B681A64002318461037BD4680BD80B49D
:1056700083B000AF78607B681B68DB6C18460C3722
:10568000BD465DF8047B704780B485B000AF78609C
:1056900039600023BB607B6893F83C30012B01D15B
:1056A000022313E17B68012283F83C203B681B68DE
:1056B000092B25D97B681B68D9683B681B689BB29E
:1056C0001A4613465B0013441E3B072202FA03F3FB
:1056D000DA437B681B680A40DA607B681B68D9681C
:1056E0003B689A683B681B689BB2184603465B00A0
:1056F00003441E3B9A407B681B680A43DA6022E041
:105700007B681B6819693B681B689BB21A46134685
:105710005B001344072202FA03F3DA437B681B6839
:105720000A401A617B681B6819693B689A683B6884
:105730001B689BB2184603465B0003449A407B6893
:105740001B680A431A613B685B68062B24D87B6898
:105750001B68596B3B685A6813469B001344053B12
:105760001F2202FA03F3DA437B681B680A405A637C
:105770007B681B68596B3B681B689BB218463B688B
:105780005A6813469B001344053B00FA03F27B68FA
:105790001B680A435A634CE03B685B680C2B24D8B7
:1057A0007B681B68196B3B685A6813469B0013445F
:1057B000233B1F2202FA03F3DA437B681B680A408B
:1057C0001A637B681B68196B3B681B689BB21846A1
:1057D0003B685A6813469B001344233B00FA03F2CC
:1057E0007B681B680A431A6323E07B681B68D96ADD
:1057F0003B685A6813469B001344413B1F2202FA40
:1058000003F3DA437B681B680A40DA627B681B6833
:10581000D96A3B681B689BB218463B685A681346B6
:105820009B001344413B00FA03F27B681B680A4368
:10583000DA62294BFB607B681B68284A93420FD1D0
:105840003B681B68122B0BD1FB685B6823F40002DA
:10585000FB685A60FB685B6843F48002FB685A602F
:105860007B681B681D4A93422BD13B681B681C4A0E
:10587000934203D03B681B68112B22D1FB685B6805
:1058800023F48002FB685A60FB685B6843F4000203
:10589000FB685A603B681B68114A934211D1114B57
:1058A0001B68114AA2FB03239A0C13469B00134466
:1058B0005B00BB6002E0BB68013BBB60BB68002BC8
:1058C000F9D17B68002283F83C2000231846143766
:1058D000BD465DF8047B7047002301400020014075
:1058E000120000103C09002083DE1B4380B485B009
:1058F00000AF7860794BFB60FB685B6823F4403253
:10590000FB685A60FB685A687B685B681A43FB68EF
:105910005A607B681B685A687B681B6822F4807237
:105920005A607B681B6859687B681B691A027B6830
:105930001B680A435A607B681B685A687B681B684F
:1059400022F040725A607B681B6859687B689A68CD
:105950007B681B680A435A607B681B689A687B688F
:105960001B6822F400629A607B681B6899687B68F8
:10597000DA687B681B680A439A607B689B6A584AAE
:10598000934222D07B681B689A687B681B6822F070
:1059900070629A607B681B6899687B689A6A7B680A
:1059A0001B680A439A607B681B689A687B681B685F
:1059B00022F040529A607B681B6899687B68DA6ABB
:1059C0007B681B680A439A600FE07B681B689A68D3
:1059D0007B681B6822F070629A607B681B689A681B
:1059E0007B681B6822F040529A607B681B689A684B
:1059F0007B681B6822F002029A607B681B689968CA
:105A00007B681B7E5A007B681B680A439A607B6830
:105A100093F82030002B1BD07B681B685A687B688A
:105A20001B6842F400625A607B681B685A687B6896
:105A30001B6822F460425A607B681B6859687B6867
:105A40005B6A013B5A037B681B680A435A6007E0A4
:105A50007B681B685A687B681B6822F400625A6086
:105A60007B681B68DA6A7B681B6822F47002DA6262
:105A70007B681B68D96A7B68DB69013B1A057B6818
:105A80001B680A43DA627B681B689A687B681B683C
:105A900022F400729A607B681B6899687B6893F8AF
:105AA00030305A027B681B680A439A607B681B6827
:105AB0009A687B681B6822F480629A607B681B6826
:105AC00099687B685B699A027B681B680A439A60E5
:105AD00000BF1437BD465DF8047B704700230140CA
