:020000040800F2
:1000000000000220F13A0008B52E0008BB2E0008BF
:10001000C12E0008C72E0008CD2E000800000000E9
:10002000000000000000000000000000D32E0008C7
:10003000E12E000800000000EF2E0008FD2E000851
:10004000413B0008413B0008413B0008413B0008A0
:10005000413B0008413B0008413B0008413B000890
:10006000413B0008413B0008413B0008413B000880
:10007000413B0008413B0008413B0008413B000870
:10008000413B0008413B0008413B000800000000E4
:10009000000000000000000000000000312F0008F8
:1000A000413B0008412F00085D2F0008413B00083C
:1000B000792F0008413B0008413B0008413B000804
:1000C000413B0008413B0008413B0008413B000820
:1000D000413B0008413B0008413B00080000000094
:1000E000413B0008413B0008413B00080000000084
:1000F000000000000000000000000000413B00087C
:1001000000000000413B0008413B0008413B000863
:1001100000000000000000000000000000000000DF
:10012000413B0008413B0008413B0008413B0008BF
:10013000413B00080000000000000000000000003B
:10014000000000000000000000000000413B00082B
:10015000413B0008413B0008413B0008413B00088F
:10016000413B0008413B0008000000000000000087
:10017000000000000000000000000000000000007F
:1001800000000000413B00080000000000000000EB
:08019000413B0008413B00085F
:1001A00010B5054C237833B9044B13B10448AFF3B1
:1001B00000800123237010BD78080020000000009B
:1001C000A4C5000808B5034B1BB103490348AFF3AE
:1001D000008008BD000000007C080020A4C50008C5
:1001E00001F0FF01102A2BDB10F0070F08D010F8E8
:1001F000013B013A8B422DD010F0070F42B3F6D1EC
:10020000F0B441EA012141EA014122F007047FF004
:1002100000070023F0E80256083C85EA010586EA5B
:10022000010685FA47F5A3FA87F586FA47F6A5FA97
:1002300087F68EB9EED1F0BC01F0FF0102F00702A3
:1002400032B110F8013B013A83EA010313B1F8D14E
:100250000020704701387047002D06BF354603382F
:10026000073815F0010F07D1013015F4807F02BF68
:10027000013015F4C03F0130F0BC0138704700BFB9
:10028000034613F8012B002AFBD1181A01387047D6
:1002900081F0004102E000BF83F0004330B54FEA37
:1002A00041044FEA430594EA050F08BF90EA020FA4
:1002B0001FBF54EA000C55EA020C7FEA645C7FEA37
:1002C000655C00F0E2804FEA5454D4EB5555B8BF5A
:1002D0006D420CDD2C4480EA020281EA030382EACB
:1002E000000083EA010180EA020281EA0303362D5D
:1002F00088BF30BD11F0004F4FEA01314FF4801C30
:100300004CEA113102D0404261EB410113F0004F41
:100310004FEA03334CEA133302D0524263EB4303F8
:1003200094EA050F00F0A780A4F10104D5F1200E96
:100330000DDB02FA0EFC22FA05F2801841F10001F1
:1003400003FA0EF2801843FA05F359410EE0A5F1C5
:1003500020050EF1200E012A03FA0EFC28BF4CF0F6
:10036000020C43FA05F3C01851EBE37101F00045AC
:1003700007D54FF0000EDCF1000C7EEB00006EEBB9
:100380000101B1F5801F1BD3B1F5001F0CD3490843
:100390005FEA30004FEA3C0C04F101044FEA44529A
:1003A00012F5800F80F09A80BCF1004F08BF5FEA21
:1003B000500C50F1000041EB045141EA050130BD01
:1003C0005FEA4C0C404141EB0101013C28BFB1F513
:1003D000801FE9D291F0000F04BF01460020B1FA5E
:1003E00081F308BF2033A3F10B03B3F120020CDA31
:1003F0000C3208DD02F1140CC2F10C0201FA0CF00F
:1004000021FA02F10CE002F11402D8BFC2F1200C73
:1004100001FA02F120FA0CFCDCBF41EA0C01904029
:10042000E41AA2BF01EB0451294330BD6FEA040472
:100430001F3C1CDA0C340EDC04F11404C4F120025D
:1004400020FA04F001FA02F340EA030021FA04F36F
:1004500045EA030130BDC4F10C04C4F1200220FAC6
:1004600002F001FA04F340EA0300294630BD21FA04
:1004700004F0294630BD94F0000F83F4801306BFCA
:1004800081F480110134013D4EE77FEA645C18BFBE
:100490007FEA655C29D094EA050F08BF90EA020F55
:1004A00005D054EA000C04BF1946104630BD91EA4D
:1004B000030F1EBF0021002030BD5FEA545C05D150
:1004C0004000494128BF41F0004130BD14F580048F
:1004D0003CBF01F5801130BD01F0004545F0FE4103
:1004E00041F470014FF0000030BD7FEA645C1ABF38
:1004F000194610467FEA655C1CBF0B46024650EA6F
:10050000013406BF52EA033591EA030F41F400219A
:1005100030BD00BF90F0000F04BF0021704730B520
:100520004FF4806404F132044FF000054FF00001F5
:1005300050E700BF90F0000F04BF0021704730B5B6
:100540004FF4806404F1320410F0004548BF40428B
:100550004FF000013EE700BF42004FEAE2014FEAE0
:1005600031014FEA02701FBF12F07F4393F07F4FBB
:1005700081F06051704732F07F4208BF704793F0BE
:100580007F4F04BF41F40021704730B54FF46074D1
:1005900001F0004521F000411CE700BF50EA0102D4
:1005A00008BF704730B54FF000050AE050EA01027D
:1005B00008BF704730B511F0004502D5404261EBED
:1005C00041014FF4806404F132045FEA915C3FF42E
:1005D000D8AE4FF003025FEADC0C18BF03325FEACB
:1005E000DC0C18BF033202EBDC02C2F1200300FA7C
:1005F00003FC20FA02F001FA03FE40EA0E0021FAA1
:1006000002F11444BDE600BF70B54FF0FF0C4CF48E
:10061000E06C1CEA11541DBF1CEA135594EA0C0F40
:1006200095EA0C0F00F0DEF82C4481EA030621EA7B
:100630004C5123EA4C5350EA013518BF52EA0335B6
:1006400041F4801143F4801338D0A0FB02CE4FF068
:100650000005E1FB02E506F00042E0FB03E54FF098
:100660000006E1FB03569CF0000F18BF4EF0010E90
:10067000A4F1FF04B6F5007F64F5407404D25FEA8C
:100680004E0E6D4146EB060642EAC62141EA55513F
:100690004FEAC52040EA5E504FEACE2EB4F1FD0C81
:1006A00088BFBCF5E06F1ED8BEF1004F08BF5FEAFF
:1006B000500E50F1000041EB045170BD06F00046B1
:1006C00046EA010140EA020081EA0301B4EB5C045E
:1006D000C2BFD4EB0C0541EA045170BD41F4801156
:1006E0004FF0000E013C00F3AB8014F1360FDEBF7B
:1006F000002001F0004170BDC4F10004203C35DA57
:100700000C341BDC04F11404C4F1200500FA05F3D9
:1007100020FA04F001FA05F240EA020001F000427A
:1007200021F0004110EBD37021FA04F642EB0601F0
:100730005EEA430E08BF20EAD37070BDC4F10C041A
:10074000C4F1200500FA04F320FA05F001FA04F2DE
:1007500040EA020001F0004110EBD37041F10001CA
:100760005EEA430E08BF20EAD37070BDC4F12005D5
:1007700000FA05F24EEA020E20FA04F301FA05F23D
:1007800043EA020321FA04F001F0004121FA04F2E5
:1007900020EA020000EBD3705EEA430E08BF20EAB5
:1007A000D37070BD94F0000F0FD101F000464000EF
:1007B00041EB010111F4801F08BF013CF7D041EA71
:1007C000060195F0000F18BF704703F00046520075
:1007D00043EB030313F4801F08BF013DF7D043EA46
:1007E0000603704794EA0C0F0CEA135518BF95EAFC
:1007F0000C0F0CD050EA410618BF52EA4306D1D183
:1008000081EA030101F000414FF0000070BD50EAA1
:10081000410606BF1046194652EA430619D094EA2B
:100820000C0F02D150EA013613D195EA0C0F05D115
:1008300052EA03361CBF104619460AD181EA030169
:1008400001F0004141F0FE4141F470014FF0000021
:1008500070BD41F0FE4141F4780170BD70B54FF0BC
:10086000FF0C4CF4E06C1CEA11541DBF1CEA13553C
:1008700094EA0C0F95EA0C0F00F0A7F8A4EB05041E
:1008800081EA030E52EA03354FEA013100F0888015
:100890004FEA03334FF0805545EA131343EA1263DE
:1008A0004FEA022245EA111545EA10654FEA002693
:1008B0000EF000419D4208BF964244F1FD0404F54C
:1008C000407402D25B084FEA3202B61A65EB0305A8
:1008D0005B084FEA32024FF480104FF4002CB6EB65
:1008E000020E75EB030E22BFB61A754640EA0C00E5
:1008F0005B084FEA3202B6EB020E75EB030E22BF25
:10090000B61A754640EA5C005B084FEA3202B6EB65
:10091000020E75EB030E22BFB61A754640EA9C0024
:100920005B084FEA3202B6EB020E75EB030E22BFF4
:10093000B61A754640EADC0055EA060E18D04FEAB2
:10094000051545EA16754FEA06164FEAC30343EA52
:1009500052734FEAC2025FEA1C1CC0D111F4801F1F
:100960000BD141EA00014FF000004FF0004CB6E718
:1009700011F4801F04BF01430020B4F1FD0C88BFB7
:10098000BCF5E06F3FF6AFAEB5EB030C04BFB6EBC2
:10099000020C5FEA500C50F1000041EB045170BDB5
:1009A0000EF0004E4EEA113114EB5C04C2BFD4EBE2
:1009B0000C0541EA045170BD41F480114FF0000E66
:1009C000013C90E645EA060E8DE60CEA135594EAE2
:1009D0000C0F08BF95EA0C0F3FF43BAF94EA0C0FE5
:1009E0000AD150EA01347FF434AF95EA0C0F7FF45A
:1009F00025AF104619462CE795EA0C0F06D152EAAE
:100A000003353FF4FDAE1046194622E750EA410691
:100A100018BF52EA43067FF4C5AE50EA41047FF4A2
:100A20000DAF52EA43057FF4EBAE12E74FF0FF3C07
:100A300006E000BF4FF0010C02E000BF4FF0010CD8
:100A40004DF804CD4FEA410C7FEA6C5C4FEA430C51
:100A500018BF7FEA6C5C1BD001B050EA410C0CBFA0
:100A600052EA430C91EA030F02BF90EA020F002002
:100A7000704710F1000F91EA030F58BF994208BF69
:100A800090422CBFD8176FEAE37040F00100704726
:100A90004FEA410C7FEA6C5C02D150EA013C07D17D
:100AA0004FEA430C7FEA6C5CD6D152EA033CD3D0C8
:100AB0005DF8040B704700BF8446104662468C46C2
:100AC0001946634600E000BF01B5FFF7B7FF0028F5
:100AD00048BF10F1000F01BD4DF808EDFFF7F4FF1E
:100AE0000CBF012000205DF808FB00BF4DF808EDA9
:100AF000FFF7EAFF34BF012000205DF808FB00BFCC
:100B00004DF808EDFFF7E0FF94BF012000205DF8ED
:100B100008FB00BF4DF808EDFFF7CEFF94BF0120A2
:100B200000205DF808FB00BF4DF808EDFFF7C4FF9B
:100B300034BF012000205DF808FB00BF4FEA410CE4
:100B40007FEA6C5C02D150EA013C0AD14FEA430CC7
:100B50007FEA6C5C02D152EA033C02D14FF0000004
:100B600070474FF0010070474FEA410212F5001242
:100B700015D211D56FF47873B3EB625212D94FEAE4
:100B8000C12343F0004343EA505311F0004F23FACE
:100B900002F018BF404270474FF00000704750EA23
:100BA000013005D111F0004008BF6FF000407047E0
:100BB0004FF00000704700BF4A0011D212F500123A
:100BC00011D20DD56FF47873B3EB62520ED44FEAA5
:100BD000C12343F0004343EA505323FA02F0704725
:100BE0004FF00000704750EA013002D14FF0FF3063
:100BF00070474FF00000704753B94AB9002908BF49
:100C000000281CBF4FF0FF314FF0FF3000F070B9EB
:100C1000ADF1080C6DE904CE00F006F8DDF804E053
:100C2000DDE9022304B070472DE9F047089E0D4628
:100C300004460F46002B4AD18A42944665D9B2FA3F
:100C400082F343B102FA03FCC3F120029F4020FA71
:100C500002F217439C404FEA1C4E1FFA8CF5B7FB7B
:100C6000FEF1220C0EFB117742EA074201FB05F070
:100C700090420AD91CEB020201F1FF3780F01C817F
:100C8000904240F2198102396244121AA4B2B2FBB6
:100C9000FEF00EFB102244EA024400FB05F5A542DB
:100CA0000AD91CEB040400F1FF3280F00781A54251
:100CB00040F204816444023840EA0140641B002190
:100CC0001EB1DC400023C6E90043BDE8F0878B423B
:100CD00008D9002E00F0ED800021C6E90005084685
:100CE000BDE8F087B3FA83F1002949D1AB4202D3C2
:100CF000824200F2F880841A65EB03020120174655
:100D0000002EE2D0C6E90047DFE702B9FFDEB2FA03
:100D100082F3002B40F090808A1A4FEA1C471FFA9A
:100D20008CFE0121B2FBF7F507FB1520220C42EAED
:100D300000420EFB05F0904208D91CEB020205F1BF
:100D4000FF3802D2904200F2CB804546121AA4B27C
:100D5000B2FBF7F007FB102244EA02440EFB00FE50
:100D6000A64508D91CEB040400F1FF3202D2A645C7
:100D700000F2BB801046A4EB0E0440EA05409FE75A
:100D8000C1F120078B4022FA07FC4CEA030C05FA5C
:100D900001F420FA07F3FD404FEA1C492343B5FB59
:100DA000F9F81FFA8CFE09FB18551C0C44EA05449F
:100DB00008FB0EF5A54202FA01F200FA01F00BD988
:100DC0001CEB040408F1FF3A80F08880A54240F251
:100DD0008580A8F102086444641B9DB2B4FBF9F35A
:100DE00009FB134445EA044403FB0EFEA64508D95B
:100DF0001CEB040403F1FF356CD2A6456AD9023B13
:100E0000644443EA0843A3FB0295A4EB0E04AC42FE
:100E1000C846AE4656D353D056B1B0EB080264EB89
:100E20000E0404FA07F7CA40CC401743C6E9007421
:100E300018460021BDE8F087C3F1200102FA03FC47
:100E400020FA01F225FA01F19D402A434FEA1C479E
:100E50001FFA8CFEB1FBF7F007FB1015110C41EAED
:100E6000054100FB0EF58D4204FA03F408D91CEB92
:100E7000010100F1FF382FD28D422DD90238614493
:100E8000491B92B2B1FBF7F507FB151142EA01428B
:100E900005FB0EF1914208D91CEB020205F1FF3867
:100EA00016D2914214D9023D6244521A45EA0041D9
:100EB00038E73146304608E73946E6E61046FBE6B5
:100EC0004845A9D2B9EB020865EB0C0E013BA3E73C
:100ED0004546EAE72B4694E74046D1E7D0467BE714
:100EE000023D624432E708460AE76444023842E7BA
:100EF000704700BF80B483B000AF7860044A7B685D
:100F0000136000BF0C37BD465DF8047B704700BF1F
:100F10009408002080B586B000AF786007F1080320
:100F200000221A605A609A60DA607B68BB60012315
:100F3000FB6000233B61084B1B6807F10802114668
:100F4000184603F05FFA0346002B01D000F0BCFF07
:100F500000BF1837BD4680BD9408002080B5B6B0EC
:100F600002AF0120FFF7D6FF384B1B68184603F08D
:100F7000FDF8364B1B684FF0FF31184603F0AAF915
:100F8000324B1B68184603F030FAC7F8CC00D7F88C
:100F9000CC3007EE903AF8EE677A9FED2D7A27EE87
:100FA000877ADFED2C6AC7EE267AC7ED327AD7F85A
:100FB000C800FFF7D1FA02460B463846CDE90023B8
:100FC000D7F8CC20244909F07FF93B46184600F0B9
:100FD000E1F90320FFF79EFF1C4B1B68184603F046
:100FE000C5F81A4B1B684FF0FF31184603F072F931
:100FF000164B1B68184603F0F8F9C7F8CC00D7F871
:10100000CC3007EE903AF8EE677A9FED117A27EE32
:10101000877ADFED106AC7EE267AC7ED327AD7F805
:10102000C800FFF799FA02460B463846CDE900237F
:10103000D7F8CC20094909F047F93B46184600F09B
:10104000A9F900BFD037BD4680BD00BF940800207D
:101050003333534000008045C0C50008D4C50008A4
:1010600080B483B000AF7860044A7B68136000BF2F
:101070000C37BD465DF8047B704700BF9808002020
:1010800080B586B000AF00F057F8CC2000F0D0F863
:10109000442000F0CDF85F2003F000F800F04CF899
:1010A000CC2000F0C5F8BE2000F0C2F800237B6120
:1010B0000BE000F0D9F8034619463A1D7B6913444A
:1010C0000A461A707B6901337B617B69082BF0DD6E
:1010D0007B791B023A79134307EE903AF8EEE77AF0
:1010E000C7ED047A97ED047AF3EE006AC7EE267A2C
:1010F000C7ED047A3B6907EE903AB0EE670A1837FD
:10110000BD4680BD80B483B000AF7860094B1B68DA
:101110001B6800225A6200BF064B1B681B685B6A93
:101120007A689A42F8D800BF00BF0C37BD465DF818
:10113000047B70479808002080B582B000AF002281
:101140000221114803F03AFE4FF4F070FFF7DAFF86
:10115000012202210C4803F031FE4620FFF7D2FFA6
:101160000221094803F012FE03467B604FF4CD7064
:10117000FFF7C8FF7B68002B01D1002300E00123AB
:1011800018460837BD4680BD0004024080B582B0D5
:1011900000AF78607B68002B10D00022022111483C
:1011A00003F00CFE0620FFF7ADFF012202210D48DF
:1011B00003F004FE4020FFF7A5FF0FE0002202210C
:1011C000084803F0FBFD3C20FFF79CFF01220221B1
:1011D000044803F0F3FD0A20FFF794FF00BF08372F
:1011E000BD4680BD0004024080B582B000AF002241
:1011F00002210E4803F0E2FD0620FFF783FF0122E3
:1012000002210A4803F0DAFD0920FFF77BFF0221E3
:10121000064803F0BBFD03467B603720FFF772FFF3
:101220007B6818460837BD4680BD00BF00040240F9
:1012300080B584B000AF0346FB710023FB600BE078
:10124000FB7903F001031846FFF7A0FFFB795B0869
:10125000FB71FB680133FB60FB68072BF0DD00BF0F
:1012600000BF1037BD4680BD80B582B000AF0023FF
:10127000FB7100233B600EE0FB795B08FB71FFF71D
:10128000B3FF0346002B03D0FB7963F07F03FB71B0
:101290003B6801333B603B68072BEDDDFB7918466B
:1012A0000837BD4680BD000080B483B000AF034660
:1012B0000A46FB801346BB80074B1B681B68BA8835
:1012C000DA62054B1B68BA88DA6000BF0C37BD468E
:1012D0005DF8047B704700BF9C08002080B483B099
:1012E00000AF0346FB80054B1B681B68FA885A62F7
:1012F00000BF0C37BD465DF8047B70479C0800209A
:1013000080B400AF044B1B681B685B6A1846BD467F
:101310005DF8047B704700BF9C08002080B483B058
:1013200000AF7860044A7B68136000BF0C37BD468D
:101330005DF8047B704700BF9C08002080B582B038
:1013400000AF0346FB80FFF7DBFF0246B7F906302C
:101350009A4201D1012300E0002318460837BD4618
:1013600080BD80B582B000AF0346FB80FFF7C8FFA9
:101370000246B7F906309A4206D100F0B5F80346A6
:10138000002B01D0012300E0002318460837BD469A
:1013900080BD000080B584B000AF78607868FEF74B
:1013A0006FFF0346FB73FB7B9AB24FF0FF33796804
:1013B000034807F018F800BF1037BD4680BD00BFD6
:1013C000280B002080B582B000AF78607B681B6876
:1013D0000A4A93420DD1786805F002FF4FF48071FC
:1013E000074803F0D3FC0346002B02D1054B012232
:1013F0001A7000BF0837BD4680BD00BF00480140DD
:10140000000402406C0B002080B584B000AF78600F
:101410007B681B7F012B0ED10021786806F0E6FB6C
:10142000F860244B01221A707B681A68FB6803F588
:10143000D053033353637B681B7F022B0ED10421EF
:10144000786806F0D3FBF8601B4B01221A707B68AA
:101450001A68FB6803F552533C3393637B681B7F28
:10146000042B0ED10821786806F0C0FBF860134BFE
:1014700001221A707B681A68FB6803F50C43A033DD
:10148000D3637B681B7F082B0FD10C21786806F093
:10149000ADFBF8600A4B01221A707B681A68FB6882
:1014A00003F5823303F5DC73136400BF1037BD46C8
:1014B00080BD00BF6D0B00206E0B00206F0B002065
:1014C000700B002080B582B000AF0346FB80FB8824
:1014D000B3F5807F02D1034805F020FE00BF083736
:1014E000BD4680BDE00A002080B400AF074B93F9F1
:1014F0000030012B04D1054B00221A70012300E0BB
:1015000000231846BD465DF8047B70476C0B002035
:1015100080B588B000AF786007F10C007B680B4A9B
:10152000142108F09DFE07F10C031846FEF7A8FEF3
:1015300003469AB207F10C014FF0FF33044806F05E
:1015400052FF00BF2037BD4680BD00BFE8C5000880
:10155000280B002080B59CB002AF00221849194822
:1015600004F012FF00221849164804F0EFFF144B54
:101570001B781A46124B5B781946114B9B7807F182
:10158000340000930B46114908F09EFE0E4B9B78E9
:101590001A460D4B5B7819460B4BDB7838460093A7
:1015A0000B460B4908F090FE3B4607F1340209490F
:1015B000094808F089FE084B18466837BD4680BDCB
:1015C000740B002090090020880B0020F0C5000853
:1015D00000C6000810C600088C0B002080B582B041
:1015E00000AF02F0E9FC00F0B3F800F0C1FB00F03E
:1015F00019F900F069F900F095F900F01BFA00F014
:101600004FFA00F08BFB00F041FB00F063FB00F0B1
:101610009DFA07F05DFA00F0B3F93F48FFF77EFE50
:101620003E48FFF71DFD3E48FFF764FC3D4800F0D3
:1016300055FC3D4800F062FC384805F015FD01F00E
:101640009FF8FFF779FD394801F0A0F801F006F99D
:101650003748FFF79FFE01F061F903461846FFF790
:1016600057FF3448FFF796FE01F022F9034618466B
:10167000FFF74EFF3048FFF78DFE0123FB713C2141
:10168000254805F0D9FF00212C4805F031FE042142
:101690002A4805F02DFE0821284805F029FE0C21D6
:1016A000264805F025FEFB79002B31D00023BB71C5
:1016B000234B93F90030012B06D100F0ABFE204BF9
:1016C00000221A700123BB711E4B93F90030012BCD
:1016D00006D100F0CDFE1B4B00221A700123BB7116
:1016E000194B93F90030012B06D100F0F1FE164B97
:1016F00000221A700123BB71144B93F90030012BA7
:1017000006D100F013FF114B00221A700123BB71A8
:1017100001F00EF8C7E700BF080A0020980A002071
:10172000A0080020280B0020900900200C0C0020AD
:1017300018C6000820C600082CC60008500A002061
:101740006D0B00206E0B00206F0B0020700B002033
:1017500080B594B000AF07F1200330220021184675
:1017600008F0C4FE07F10C0300221A605A609A6068
:10177000DA601A610023BB60284B1B6C274A43F0D8
:1017800080531364254B1B6C03F08053BB60BB6814
:1017900000237B60224B1B68214A43F440431360C3
:1017A0001F4B1B6803F440437B607B6806233B624E
:1017B0000123BB620123FB6210233B630223BB6353
:1017C0000023FB6308233B6450237B640223BB6438
:1017D0000423FB6407F12003184603F07DFF034652
:1017E000002B01D000F070FB0F23FB6002233B6154
:1017F00000237B614FF48053BB610023FB6107F141
:101800000C030221184604F0DFF90346002B01D037
:1018100000F05AFB00BF5037BD4680BD0038024083
:101820000070004080B584B000AF3B4600221A60D3
:101830005A609A60DA60214B214A1A601F4B4FF4BC
:1018400080325A601D4B00229A601C4B00221A61A4
:101850001A4B00221A76194B002283F82020174BCE
:101860000022DA62154B174A9A62144B0022DA60A2
:10187000124B0122DA61114B002283F830200F4B0A
:1018800001225A610D4802F02DFC0346002B01D0C5
:1018900000F01AFB00233B6001237B600023BB6048
:1018A0003B461946054802F0ADFD0346002B01D02A
:1018B00000F00AFB00BF1037BD4680BDA008002025
:1018C000002001400100000F80B500AF124B134A09
:1018D0001A60114B124A5A600F4B00229A600E4B4D
:1018E0000022DA600C4B4FF480421A610A4B00224E
:1018F0005A61094B00229A61074B0022DA61064BBC
:1019000000221A62044803F08BFA0346002B01D030
:1019100000F0DAFA00BF80BDE80800200054004063
:10192000A086010080B500AF124B134A1A60114B1C
:10193000124A5A600F4B00229A600E4B0022DA6066
:101940000C4B4FF480421A610A4B00225A61094B3A
:1019500000229A61074B0022DA61064B00221A62CC
:10196000044803F05DFA0346002B01D000F0ACFA06
:1019700000BF80BD3C09002000580040A086010047
:1019800080B586B000AF3B1D00221A605A609A6095
:10199000DA601A6100233B60244B254A1A60234B0E
:1019A00000225A60214B7F229A60204BFF22DA608E
:1019B0001E4B00221A611D4B00225A611B4B002254
:1019C0009A611A4804F0D0FB0346002B01D000F0C6
:1019D0007BFA01233B7100237B710023BB71002341
:1019E0003B6100237B613B1D012219460F4804F037
:1019F00031FC0346002B01D000F066FA03233B7054
:101A000012237B700623BB702323FB703B4601220D
:101A10001946064804F016FD0346002B01D000F0DD
:101A200053FA00BF1837BD4680BD00BF90090020A3
:101A30000028004080B500AF174B184A1A60164BBB
:101A40004FF482725A60144B00229A60124B0022AB
:101A5000DA60114B00221A610F4B00225A610E4BC3
:101A60004FF400729A610C4B2022DA610A4B00227B
:101A70001A62094B00225A62074B00229A62064BF7
:101A80000A22DA62044804F06DFE0346002B01D0FE
:101A900000F01AFA00BF80BDB009002000300140FC
:101AA00080B58CB000AF07F10C032422002118464A
:101AB00008F01CFD3B1D00221A605A60214B224A8F
:101AC0001A60204B01225A601E4B00229A601D4B67
:101AD0002822DA601B4B00221A611A4B00225A613D
:101AE000184B00229A610123FB6000233B61012314
:101AF0007B610023BB610F23FB6100233B62012359
:101B00007B620023BB620F23FB6207F10C031946C3
:101B10000C4805F0EBFC0346002B01D000F0D4F993
:101B200000237B600023BB603B1D1946054806F07F
:101B30008BFB0346002B01D000F0C6F900BF303705
:101B4000BD4680BD080A00200000014080B58EB06F
:101B500000AF07F1280300221A605A609A60DA6029
:101B600007F1200300221A605A603B1D00221A6010
:101B70005A609A60DA601A615A619A61414B4FF07B
:101B800080421A603F4B42F6E0625A603D4B0022B1
:101B90009A603C4B4FF0FF32DA603A4B00221A61F8
:101BA000384B00229A61374805F00EFA0346002BA5
:101BB00001D000F089F94FF48053BB6207F128038C
:101BC0001946304805F04AFF0346002B01D000F0CB
:101BD0007BF92C4805F033FB0346002B01D000F0C5
:101BE00073F900233B6200237B6207F1200319464F
:101BF000244806F029FB0346002B01D000F064F9CD
:101C000030237B6041F60323BB600023FB6000238D
:101C10007B613B1D002219461A4805F0C3FE0346AE
:101C2000002B01D000F050F943F2BC43BB603B1DD8
:101C300004221946134805F0B5FE0346002B01D0D7
:101C400000F042F948F6A043BB603B1D082219464C
:101C50000C4805F0A7FE0346002B01D000F034F934
:101C6000094BBB603B1D0C221946064805F09AFE45
:101C70000346002B01D000F027F900BF3837BD46DE
:101C800080BD00BF500A0020B805010080B500AF3C
:101C90000E4B0F4A1A600D4B4F225A600B4B00221D
:101CA0009A600A4B4FF6FF72DA60084B00221A6105
:101CB000064B00229A61054805F086F90346002B81
:101CC00001D000F001F900BF80BD00BF980A0020DC
:101CD0000044014080B500AF0E4B0F4A1A600D4B17
:101CE0000A225A600B4B00229A600A4B4FF6FF7291
:101CF000DA60084B00221A61064B00229A610548FF
:101D000005F062F90346002B01D000F0DDF800BFBA
:101D100080BD00BFE00A00200048014080B500AF50
:101D2000114B124A1A60104B4FF4E1325A600E4BBD
:101D300000229A600C4B0022DA600B4B00221A61E1
:101D4000094B0C225A61084B00229A61064B002273
:101D5000DA61054806F0FAFA0346002B01D000F0DC
:101D6000B3F800BF80BD00BF280B00200014014065
:101D700080B58AB000AF07F1140300221A605A60E0
:101D80009A60DA601A6100233B614C4B1B6B4B4A33
:101D900043F004031363494B1B6B03F004033B61E3
:101DA0003B690023FB60454B1B6B444A43F08003B7
:101DB0001363424B1B6B03F08003FB60FB68002343
:101DC000BB603E4B1B6B3D4A43F0010313633B4B2F
:101DD0001B6B03F00103BB60BB6800237B60374BC8
:101DE0001B6B364A43F002031363344B1B6B03F047
:101DF00002037B607B68002248F21001304802F049
:101E0000DDFF012202212F4802F0D8FF002243F219
:101E100018012C4802F0D2FF48F210037B61012325
:101E2000BB610023FB6100233B6207F114031946E9
:101E3000234802F027FE02237B611123BB610123AB
:101E4000FB6100233B6207F1140319461D4802F0B1
:101E500019FE04237B610023BB610023FB6107F1B2
:101E600014031946174802F00DFE43F218037B6174
:101E70000123BB610023FB6100233B6207F11403D4
:101E80001946104802F0FEFD4FF480737B614FF459
:101E90000413BB610023FB6107F1140319460948D1
:101EA00002F0F0FD00220021172002F0B4FD1720FF
:101EB00002F0CDFD00BF2837BD4680BD003802408E
:101EC000000002400004024080B500AF72B600BFBF
:101ED0000148FFF75FFAFBE730C6000880B483B023
:101EE00000AF7860044A7B68136000BF0C37BD46C2
:101EF0005DF8047B704700BFF40B002080B483B012
:101F000000AF7860044A7B68136000BF0C37BD46A1
:101F10005DF8047B704700BFF80B002080B582B0ED
:101F200000AF0346FB710B46BB711346BB803821E3
:101F3000002001F0F7FFFB791BB21846FFF7FEF90E
:101F4000034683F00103DBB20B4A06CA0B4801F0DB
:101F5000C3FFFB791BB21846FFF703FA0346002BB9
:101F600005D00020FFF7BAF9054ABB79137000BF0E
:101F70000837BD4680BD00BF7C06002044C600086F
:101F8000F00B002090B585B000AF78600023FB60B7
:101F900031E0FB68DBB21A46920013445B00DBB20F
:101FA0001946002001F0BEFFFB681BB21846FFF780
:101FB000D8F90346002B07D07B68FA68013213F882
:101FC0003220124B1A701CE07A68FB680133DB0088
:101FD00013445C68FB681BB21846FFF7AFF9034671
:101FE00083F00103DBB20A4A06CA204601F074FFFF
:101FF000FB680133FB607B685B68FA689A42C8DB68
:1020000000BF00BF1437BD4690BD00BFF00B0020DD
:102010008406002080B584B000AF786002210020E3
:10202000FFF742F97868FFF7ADFFFFF769F9F8604D
:1020300007F10803FA680F49184608F045F92C2102
:10204000002001F06FFF0C4A07F10800012306CAC7
:1020500001F042FF3621002001F064FFFFF77AFA19
:10206000054A012306CA01F037FF00BF1037BD46FD
:1020700080BD00BF4CC600088406002080B582B039
:1020800000AF786003210020FFF70EF97868FFF7B2
:1020900079FF012200210320FFF740FF00BF08372E
:1020A000BD4680BD80B582B000AF786001210020C0
:1020B000FFF7FAF80021002001F034FF344A012331
:1020C00006CA344801F008FF0021462001F02AFF2B
:1020D000314B1B7883F00103DBB2002B06D02C4A76
:1020E000012306CA2D4801F0F7FE05E0284A012326
:1020F00006CA2B4801F0F0FE0A21002001F012FF71
:10210000234A012306CA274801F0E6FE0020FFF714
:1021100015F90346002B14D00020FFF722F90346DF
:10212000002B0ED0204B1B78DBB283F00103DBB217
:10213000002B03D01C4B01221A7002E01A4B002224
:102140001A700A214B2001F0EDFE174B1B78DBB211
:10215000002B01D0154B00E0154B1A4615491648C7
:1021600008F0B2F80020FFF7E9F8034683F0010316
:10217000DBB2074A06CA104801F0AEFE0022002179
:102180000120FFF7CBFE00BF0837BD4680BD00BF72
:102190008406002050C60008683500205CC6000890
:1021A00064C6000868C60008FC0B002074C600085E
:1021B0007CC6000884C60008000C002080B582B0F0
:1021C00000AF786004210020FFF76EF87868FFF711
:1021D000D9FE042200210420FFF7A0FE00BF08372B
:1021E000BD4680BD80B582B000AF7860042100207C
:1021F000FFF75AF87868FFF7C5FE04220021042093
:10220000FFF78CFE00BF0837BD4680BD80B582B0A9
:1022100000AF786001210020FFF746F87868FFF7EB
:10222000B1FE032200210320FFF778FE00BF08372C
:10223000BD4680BD80B588B000AF0346FB71FA791A
:1022400013465B001344DB00574A9818574A012392
:1022500006CA01F041FE1221002001F063FE0020B9
:10226000FFF76CF80346002B28D00020FFF779F821
:102270000346002B22D0FA794B4913465B001344E6
:10228000DB000B4414331B7883F00103DBB2002B1B
:102290000AD0FA79444913465B001344DB000B442F
:1022A000143301221A7009E0FA793F4913465B00A2
:1022B0001344DB000B44143300221A70FA793A49B4
:1022C00013465B001344DB000B4414331B78002BD4
:1022D00001D0374A00E0374A07F10C033649184667
:1022E00007F0F2FF0020FFF729F8034683F001030F
:1022F000DBB2324A07F10C0006CA01F0EDFD1C21E9
:10230000002001F00FFE2D4A012306CA2C4801F0DF
:10231000E3FD1C215A2001F005FEFA7922491346FB
:102320005B001344DB000B4416331B881A46254917
:10233000254807F0C9FF0120FFF700F8034683F0A6
:102340000103DBB21D4A06CA1F4801F0C5FD01208A
:10235000FEF7F4FF0346002B21D00120FFF701F820
:102360000346002B1BD0194B1B680133174A13601F
:10237000164B1B68042B02DD144B01221A60134B11
:102380001B68013BFA79124931F8130006491346DC
:102390005B001344DB000B44163302461A8000BF77
:1023A0002037BD4680BD00BF000000208C06002005
:1023B00074C600087CC6000888C600088406002091
:1023C00094C60008A4C6000810010020080C0020D4
:1023D0000801002080B582B000AF786002210020A3
:1023E000FEF762FF0021002001F09CFD084B1B78E6
:1023F000DBB2083BDBB21846FFF71CFF02220021CC
:102400000220FFF78BFD00BF0837BD4680BD00BF2F
:10241000F00B002080B582B000AF00237B601BE092
:1024200011497A6813465B001344DB000B441633F2
:102430001B880A2B0DD10C497A6813465B001344A4
:10244000DB000B4414331B78002B02D00748FEF747
:10245000A1FF7B6801337B607B68092BE0DD00BF57
:1024600000BF0837BD4680BD00000020ACC6000894
:1024700080B582B000AF00237B601EE013497A680C
:1024800013465B001344DB000B4416331B88322BCE
:1024900010D10E497A6813465B001344DB000B44ED
:1024A00014331B78002B05D0FFF754F80346184669
:1024B000FEF770FF7B6801337B607B68092BDDDDF5
:1024C00000BF00BF0837BD4680BD00BF0000002030
:1024D00080B582B000AF00237B601BE011497A68B1
:1024E00013465B001344DB000B4416331B88642B3C
:1024F0000DD10C497A6813465B001344DB000B4492
:1025000014331B78002B02D00748FEF743FF7B688B
:1025100001337B607B68092BE0DD00BF00BF08371B
:10252000BD4680BD00000020B4C6000880B582B062
:1025300000AF00237B601CE012497A6813465B0001
:102540001344DB000B4416331B88B3F5FA7F0DD11F
:102550000C497A6813465B001344DB000B441433C8
:102560001B78002B02D00848FEF714FF7B6801336C
:102570007B607B68092BDFDD00BF00BF0837BD46ED
:1025800080BD00BF00000020BCC6000880B592B02E
:1025900000AF78605C4B1B7883F00103DBB2002B4B
:1025A00011D00021002001F0BDFC584A012306CAC9
:1025B000574801F091FC0821002001F0B3FC0023F2
:1025C00087F8473006E00021002001F0ABFCF8233B
:1025D00087F8473002210020FEF766FE00233B64A7
:1025E00037E04C493A6C13465B001344DB000B4464
:1025F00014331B78002B29D03A6C13465B0013442C
:10260000DB00444A991843483A6C13465B00134474
:10261000DB00034416331B8807F11C000A463E49C1
:1026200007F052FE97F847300833DBB21946002016
:1026300001F078FC97F84730083387F84730334A81
:1026400007F11C00012306CA01F046FC3B6C013374
:102650003B643B6C0A2BC4DD1021002001F062FCBE
:102660000020FEF76BFE034683F00103DBB22B4A2A
:1026700006CA2B4801F030FC0020FEF75FFE03463F
:10268000002B19D00020FEF76CFE0346002B13D060
:10269000FEF7F6FC87ED0F0AF86BFDF75DFF0246CB
:1026A0000B4607F108001F4907F00EFE07F108036B
:1026B00019461D4800F082F81A21002001F032FC72
:1026C0000120FEF73BFE034683F00103DBB2134A11
:1026D00006CA164801F000FC0120FEF72FFE034653
:1026E000002B07D00120FEF73CFE0346002B01D053
:1026F000FEF734FC022200210220FFF70FFC00BF8E
:102700004837BD4680BD00BF683500207C060020EC
:10271000C4C6000800000020D4C6000884060020BB
:10272000E0C60008ECC600080C0C0020F4C6000847
:1027300080B500AF002001F0A7FA0F4B1B78DBB289
:1027400019460E4A0B46DB000B44DB0013441A68A3
:10275000094B1B78DBB219460B46DB000B44DB0050
:1027600006490B441846904701F0B2FA012001F0E7
:1027700095FC00BF80BD00BFF00B00201C010020B5
:1027800080B500AF01F016FA00BF80BD80B483B001
:1027900000AF78607B6803F500531A460023C2F847
:1027A00010377B6803F500531A460023C2F814372C
:1027B00000BF0C37BD465DF8047B704780B582B022
:1027C00000AF786039607B6803F50053D3F81037A9
:1027D000642202FB03F37A681344642239681846C2
:1027E00007F08CFE7B6803F50053D3F810375A1CB2
:1027F000194B83FB02135911D317CB1A642101FB28
:1028000003F3D31A7A6802F50052C2F810377B68D6
:1028100003F50053D3F810277B6803F50053D3F872
:1028200014379A4214D17B6803F50053D3F8143758
:102830005A1C094B83FB02135911D317CB1A64217D
:1028400001FB03F3D31A7A6802F50052C2F8143779
:1028500000BF0837BD4680BD1F85EB5180B500AF76
:1028600001220D490D4806F07BFE03461A460C4B2B
:102870001A700B4B1B78002B06D10A4B01221A70E1
:102880000948FEF787FD05E0064B00221A7007484D
:10289000FEF780FD00BF80BDC4C7000824330020C0
:1028A0005435002068350020C8C70008DCC7000880
:1028B00080B500AF134B1B78002B20D0124A134970
:1028C000134806F093FE104B1B685B891A460F4BAA
:1028D0001B6802FB03F31846FDF71CFE4FF00002D5
:1028E0000C4BFDF791FE02460B4610461946FEF7CB
:1028F00063F90346084A1360074B1B6800E0002396
:10290000184680BD68350020583500205C35002011
:10291000C0C700080000E03F6435002080B500AF6C
:10292000144B1B78002B21D0134A1449144806F08D
:102930005DFE114B1B685B69023B0F4A12685289AE
:1029400002FB03F31846FDF7E5FD4FF000020D4BC7
:10295000FDF75AFE02460B4610461946FEF72CF9C3
:102960000346094A1360084B1B6800E00023184621
:1029700080BD00BF68350020583500205C35002040
:10298000C0C700080000E03F6035002080B483B07D
:1029900000AF00237B60104B5B6C0F4A43F4804315
:1029A00053640D4B5B6C03F480437B607B680023B6
:1029B0003B60094B1B6C084A43F080531364064B81
:1029C0001B6C03F080533B603B6800BF0C37BD4677
:1029D0005DF8047B704700BF0038024080B58AB0C4
:1029E00000AF786007F1140300221A605A609A6001
:1029F000DA601A617B681B68174A934227D100236B
:102A00003B61164B5B6C154A43F480735364134B64
:102A10005B6C03F480733B613B690023FB600F4BED
:102A20001B6B0E4A43F0010313630C4B1B6B03F04B
:102A30000103FB60FB680F237B610323BB61002361
:102A4000FB6107F114031946054802F01BF800BFAB
:102A50002837BD4680BD00BF00200140003802403D
:102A60000000024080B58CB000AF786007F11C0315
:102A700000221A605A609A60DA601A617B681B68EB
:102A80003B4A93422CD10023BB613A4B1B6B394A22
:102A900043F002031363374B1B6B03F00203BB616C
:102AA000BB69C023FB6112233B6200237B620323CB
:102AB000BB620423FB6207F11C0319462E4801F098
:102AC000E1FF00237B612B4B1B6C2A4A43F400136C
:102AD0001364284B1B6C03F400137B617B6942E099
:102AE0007B681B68254A93423DD100233B61214B03
:102AF0001B6B204A43F0020313631E4B1B6B03F056
:102B000002033B613B694FF48063FB6112233B622C
:102B100000237B620323BB620423FB6207F11C03D7
:102B20001946154801F0AEFF4FF40073FB61122304
:102B30003B6200237B620323BB620923FB6207F134
:102B40001C0319460C4801F09DFF0023FB60094B54
:102B50001B6C084A43F480031364064B1B6C03F49C
:102B60008003FB60FB6800BF3037BD4680BD00BFFF
:102B70000054004000380240000402400058004069
:102B800080B588B000AF786007F1080300221A60B2
:102B90005A609A60DA601A615A617B681B680C4A55
:102BA000934211D10223BB604FF48073BB6107F1E4
:102BB0000803184603F0E8F90346002B01D0FFF79D
:102BC00083F9044B01221A6000BF2037BD4680BD47
:102BD000002800403C0E474280B58AB000AF7860C4
:102BE00007F1140300221A605A609A60DA601A61D1
:102BF0007B681B68194A93422BD100233B61184B19
:102C00005B6C174A43F480535364154B5B6C03F4BD
:102C100080533B613B690023FB60114B1B6B104AE7
:102C200043F0010313630E4B1B6B03F00103FB60C6
:102C3000FB68E0237B610223BB610023FB6103236C
:102C40003B6205237B6207F114031946054801F036
:102C500019FF00BF2837BD4680BD00BF00300140CE
:102C6000003802400000024080B58AB000AF7860B2
:102C700007F1140300221A605A609A60DA601A6140
:102C80007B681B68214A93423CD100233B61204B67
:102C90005B6C1F4A43F0010353641D4B5B6C03F0F4
:102CA00001033B613B690023FB60194B1B6B184A16
:102CB00043F001031363164B1B6B03F00103FB602E
:102CC000FB684FF440737B610223BB610023FB610F
:102CD00000233B6201237B6207F1140319460D4870
:102CE00001F0D0FE00220021192001F094FE1920ED
:102CF00001F0ADFE002200211A2001F08CFE1A2006
:102D000001F0A5FE00BF2837BD4680BD0000014090
:102D1000003802400000024080B586B000AF786005
:102D20007B681B68B3F1804F16D100237B61284B71
:102D30001B6C274A43F001031364254B1B6C03F003
:102D400001037B617B69002200211C2001F063FEEE
:102D50001C2001F07CFE36E07B681B681D4A934214
:102D600016D100233B611A4B5B6C194A43F40033C4
:102D70005364174B5B6C03F400333B613B690022E7
:102D80000021192001F047FE192001F060FE1AE031
:102D90007B681B68104A934215D10023FB600C4BE3
:102DA0005B6C0B4A43F480235364094B5B6C03F464
:102DB0008023FB60FB68002200211A2001F02BFE1B
:102DC0001A2001F044FE00BF1837BD4680BD00BF89
:102DD00000380240004401400048014080B58AB0FC
:102DE00000AF786007F1140300221A605A609A60FD
:102DF000DA601A617B681B68194A93422CD1002360
:102E00003B61184B5B6C174A43F020035364154B2E
:102E10005B6C03F020033B613B690023FB60114BBB
:102E20001B6B104A43F0010313630E4B1B6B03F043
:102E30000103FB60FB684FF4C0537B610223BB615D
:102E40000023FB6103233B6208237B6207F1140329
:102E50001946054801F016FE00BF2837BD4680BD63
:102E600000140140003802400000024080B400AF6E
:102E70000E4B1B78DBB2002B06D00C4B1B78DBB261
:102E8000013BDAB2094B1A70094B1B78DBB2002BFD
:102E900006D0074B1B78DBB2013BDAB2044B1A7049
:102EA00000BFBD465DF8047B704700BF6A35002057
:102EB0006B35002080B400AFFEE780B400AFFEE7C2
:102EC00080B400AFFEE780B400AFFEE780B400AF8F
:102ED000FEE780B400AF00BFBD465DF8047B7047DD
:102EE00080B400AF00BFBD465DF8047B704780B47E
:102EF00000AF00BFBD465DF8047B704780B500AFF2
:102F00000A4B1B78DBB20133DAB2084B1A70074B5D
:102F10001B78DBB2092B04D9044B00221A70FFF78F
:102F2000A5FF01F09BF800BF80BD00BF6935002000
:102F300080B500AF4FF4807001F05AFF00BF80BD34
:102F400080B500AF034804F025FC034804F022FCE0
:102F500000BF80BD080A0020980A002080B500AF9D
:102F6000034804F017FC034804F014FC00BF80BDC4
:102F7000080A0020E00A002080B500AF024804F0F3
:102F800009FC00BF80BD00BF500A002080B400AF24
:102F900001231846BD465DF8047B704780B582B0BA
:102FA00000AF7860396007F007FB034616221A600D
:102FB0004FF0FF3318460837BD4680BD80B582B05C
:102FC00000AF78604FF0FF317868FFF7E7FFFEE76A
:102FD00080B586B000AFF860B9607A6000237B618D
:102FE0000AE0AFF300800146BB685A1CBA60CAB25F
:102FF0001A707B6901337B617A697B689A42F0DBE6
:103000007B6818461837BD4680BD80B586B000AFD6
:10301000F860B9607A6000237B6109E0BB685A1CE4
:10302000BA601B781846AFF300807B6901337B617F
:103030007A697B689A42F1DB7B6818461837BD468F
:1030400080BD80B483B000AF78604FF0FF33184686
:103050000C37BD465DF8047B704780B483B000AF89
:10306000786039603B684FF400525A60002318467C
:103070000C37BD465DF8047B704780B483B000AF69
:103080007860012318460C37BD465DF8047B704715
:1030900080B485B000AFF860B9607A60002318464C
:1030A0001437BD465DF8047B7047000080B586B0DC
:1030B00000AF7860144A154BD31A7B617B693B6182
:1030C000134B1B68002B02D1114B124A1A60104B94
:1030D0001A687B6813443A699A4207D207F06CFA7F
:1030E00003460C221A604FF0FF3309E0084B1B68BF
:1030F000FB60074B1A687B681344054A1360FB6842
:1031000018461837BD4680BD0000022000040000AC
:103110006C350020103B002080B400AF064BD3F884
:103120008830054A43F47003C2F8883000BFBD46BA
:103130005DF8047B704700BF00ED00E080B582B011
:1031400000AF786000F09EFF0346044A1360044A13
:103150007B68136000BF0837BD4680BD7435002012
:103160007835002080B500AF00F08CFF0246064B9A
:103170001B68D21A054B1B689A4234BF01230023F7
:10318000DBB2184680BD00BF7435002078350020C2
:1031900080B586B002AF0346FB7107F10F02F91D3F
:1031A000322300930123044803F0A1FCFB7B184663
:1031B0001037BD4680BD00BFB009002090B585B076
:1031C00000AF786039600023FB600AE07A68FB6832
:1031D000D418FF20FFF7DCFF03462370FB680133A0
:1031E000FB60FA683B689A42F0D300BF00BF143717
:1031F000BD4690BD80B582B000AF786039603B6855
:103200009AB24FF0FF337968034803F034FB00BFF4
:103210000837BD4680BD00BFB009002080B586B02C
:1032200000AF786000F02EFF78617B683B61FF2083
:10323000FFF7AEFF0346FB73FB7BFF2B07D000F0CD
:1032400021FF02467B69D31A3A699A42EFD8FB7B89
:10325000FF2B0CBF01230023DBB218461837BD46F5
:1032600080BD000080B500AF01221021034801F0AD
:10327000A5FDFF20FFF78CFF00BF80BD00000240CE
:1032800080B500AF00221021094801F097FDFF2012
:10329000FFF77EFF4FF4FA70FFF7C0FF0346002BE5
:1032A00001D0012302E0FFF7DDFF0023184680BDB7
:1032B0000000024080B584B000AF78603960C8205B
:1032C000FFF73CFFFF20FFF763FF0346FB73FB7B29
:1032D000FF2B04D1FFF746FF0346002BF2D1FB7B07
:1032E000FE2B01D000230AE039687868FFF766FFFB
:1032F000FF20FFF74DFFFF20FFF74AFF012318468D
:103300001037BD4680BD80B584B000AF78600B46F5
:10331000FB704FF4FA70FFF781FF0346002B01D1D9
:1033200000231EE0FB781846FFF732FFFB78FD2BE9
:1033300016D04FF400717868FFF75CFFFF20FFF7AD
:1033400027FFFF20FFF724FFFF20FFF721FF0346A1
:10335000FB73FB7B03F01F03052B01D0002300E070
:10336000012318461037BD4680BD80B584B000AF3C
:1033700003463960FB7197F90730002B0EDAFB79B1
:1033800003F07F03FB7100213720FFF7EEFF0346B8
:10339000BB73BB7B012B01D9BB7B51E0FB790C2BB1
:1033A00008D0FFF75FFFFFF76BFF0346002B01D14B
:1033B000FF2345E0FB7943F04003DBB21846FFF7FB
:1033C000E7FE3B681B0EDBB21846FFF7E1FE3B68E9
:1033D0001B0CDBB21846FFF7DBFE3B681B0ADBB2B7
:1033E0001846FFF7D5FE3B68DBB21846FFF7D0FE64
:1033F0000123FB73FB79002B01D19523FB73FB7930
:10340000082B01D18723FB73FB7B1846FFF7C0FE17
:10341000FB790C2B02D1FF20FFF7BAFE0A23FB73C6
:10342000FF20FFF7B5FE0346BB7397F90E30002B64
:1034300005DAFB7B013BFB73FB7B002BF0D1BB7BF5
:1034400018461037BD4680BD90B585B000AF034625
:10345000FB71FB79002B01D00123D6E06D4B1B786B
:10346000DBB203F00203002B03D06A4B1B78DBB204
:10347000CBE0694B1B681B6823F03802664B1B6866
:1034800042F030021A600A23FB7305E0FF20FFF7C9
:103490007FFEFB7B013BFB73FB7B002BF6D1002304
:1034A0007B7300210020FFF760FF0346012B40F0F3
:1034B0008B804FF47A70FFF741FE4FF4D5710820EE
:1034C000FFF753FF0346012B51D10023FB730DE09F
:1034D000FC7BFF20FFF75CFE03461A4604F1100355
:1034E0003B4403F8082CFB7B0133FB73FB7B032B72
:1034F000EED9BB7A012B67D1FB7AAA2B64D100BF2E
:10350000FFF730FE0346002B07D04FF08041A92083
:10351000FFF72BFF0346002BF2D1FFF723FE0346F4
:10352000002B51D000213A20FFF71FFF0346002B4C
:103530004AD10023FB730DE0FC7BFF20FFF728FE40
:1035400003461A4604F110033B4403F8082CFB7BA6
:103550000133FB73FB7B032BEED93B7A03F0400373
:10356000002B01D00C2300E004237B732CE000210E
:10357000A920FFF7FAFE0346012B04D802237B7330
:10358000A923BB7303E001237B730123BB7300BF3B
:10359000FFF7E8FD0346002B07D0BB7B0021184650
:1035A000FFF7E3FE0346002BF2D1FFF7DBFD0346F6
:1035B000002B07D04FF400711020FFF7D6FE034612
:1035C000002B01D000237B73144A7B7B1370FFF721
:1035D00049FE7B7B002B12D00F4B1B681B6823F02E
:1035E00038020D4B1B6842F010021A60094B1B7821
:1035F000DBB223F00103DAB2064B1A7002E0054B8E
:1036000001221A70034B1B78DBB218461437BD46F3
:1036100090BD00BF78060020B00900207035002062
:1036200080B483B000AF0346FB71FB79002B01D05F
:10363000012302E0044B1B78DBB218460C37BD4671
:103640005DF8047B704700BF7806002080B584B029
:1036500000AFB9607A603B600346FB73FB7B002BD5
:1036600002D13B68002B01D104234DE0284B1B788D
:10367000DBB203F00103002B01D0032344E0254B10
:103680001B7803F00803002B02D17B685B027B6090
:103690003B68012B11D179681120FFF766FE0346C4
:1036A000002B29D14FF40071B868FFF703FE0346E1
:1036B000002B21D000233B601EE079681220FFF729
:1036C00054FE0346002B17D14FF40071B868FFF782
:1036D000F1FD0346002B0AD0BB6803F50073BB6005
:1036E0003B68013B3B603B68002BEDD100E000BF35
:1036F00000210C20FFF739FEFFF7B4FD3B68002BDB
:1037000014BF01230023DBB218461037BD4680BD2D
:10371000780600207035002080B584B000AFB96015
:103720007A603B600346FB73FB7B002B02D13B6856
:10373000002B01D1042363E0334B1B78DBB203F091
:103740000103002B01D003235AE02F4B1B78DBB27F
:1037500003F00403002B01D0022351E02B4B1B7814
:1037600003F00803002B02D17B685B027B603B689F
:10377000012B10D179681820FFF7F7FD0346002BC5
:1037800036D1FE21B868FFF7BEFD0346002B2FD0CF
:1037900000233B602CE01D4B1B7803F00603002B3D
:1037A00003D039689720FFF7E0FD79681920FFF70B
:1037B000DCFD0346002B1BD1FC21B868FFF7A3FDFD
:1037C0000346002B0AD0BB6803F50073BB603B685F
:1037D000013B3B603B68002BEED100E000BFFD21C8
:1037E0000020FFF790FD0346002B01D101233B6031
:1037F000FFF738FD3B68002B14BF01230023DBB229
:1038000018461037BD4680BD780600207035002070
:1038100080B58CB000AF03463A60FB710B46BB71BC
:10382000FB79002B01D004235AE1AF4B1B78DBB2AC
:1038300003F00103002B01D0032351E1012387F89A
:103840002F30BB79042B00F2368101A252F823F00D
:103850006538000879380008B73A000825390008AB
:103860001B3A0008FFF70CFD0346002B00F02781F0
:10387000002387F82F3022E100210920FFF775FD92
:103880000346002B40F01D8107F10C031021184660
:10389000FFF710FD0346002B00F013813B7B9B09D3
:1038A000DBB2012B11D17B7D1A463B7D1B021344F9
:1038B0001A46FB7C1B0403F47C1313440133FB61A5
:1038C000FB699A023B681A6028E07B7C03F00F03D7
:1038D000DAB2BB7DDB09DBB21344DAB27B7D5B007D
:1038E000DBB203F00603DBB21344DBB2023387F82A
:1038F0002E303B7D9B09DBB21A46FB7C9B001A44B1
:10390000BB7C9B0203F4406313440133FB6197F8D3
:103910002E30093BFA699A403B681A60002387F809
:103920002F30CEE0714B1B7803F00403002B31D015
:1039300000218D20FFF719FD0346002B40F0C380C6
:10394000FF20FFF725FC07F10C0310211846FFF7B5
:10395000B1FC0346002B00F0B680302387F82E30F0
:1039600007E0FF20FFF714FC97F82E30013B87F8A3
:103970002E3097F82E30002BF3D1BB7D1B09DBB224
:103980001A46102303FA02F23B681A60002387F8F4
:103990002F3098E000210920FFF7E7FC0346002BB9
:1039A00040F0918007F10C0310211846FFF782FCCC
:1039B0000346002B00F087804C4B1B7803F002037A
:1039C000002B12D0BB7D5B0003F07E03FA7DD20991
:1039D000D2B213445A1C7B7E9B09DBB2013B02FA34
:1039E00003F31A463B681A6013E0BB7D9B109BB241
:1039F00003F01F030133FA7DD20002F01802F97DB3
:103A00004909C9B20A44013202FB03F31A463B6872
:103A10001A60002387F82F3055E0344B1B7803F0F1
:103A20000603002B51D007F10C02FB790B2118463D
:103A3000FFF7EEFE0346002B49D13B7B9B09DBB22F
:103A4000002B04D1BB7D03F04003002B41D03B6829
:103A50003B623B6A1B68BB623B6A5B687B62234BD1
:103A60001B7803F00803002B05D1BB6A5B02BB6225
:103A70007B6A5B027B62B96A2020FFF776FC034613
:103A8000002B28D1796A2120FFF76FFC0346002B19
:103A900021D100212620FFF768FC0346002B1AD114
:103AA00047F23050FFF7BAFB0346002B13D0002338
:103AB00087F82F300FE0042387F82F300CE000BF89
:103AC0000AE000BF08E000BF06E000BF04E000BF5E
:103AD00002E000BF00E000BFFFF7C4FB97F82F3003
:103AE00018463037BD4680BD78060020703500206E
:103AF000DFF834D00D480E490E4A002302E0D458B6
:103B0000C4500433C4188C42F9D30B4A0B4C002325
:103B100001E013600432A242FBD3FFF7FDFA06F086
:103B200051FDFDF75BFD7047000002200000002002
:103B3000780800209CE6000878080020103B002050
:103B4000FEE780B400AF00BFBD465DF8047B704760
:103B500080B586B004AF0346FB714FF0FF3302938C
:103B600001230193FB1D00930123002278210348C8
:103B700001F09AFA00BF0837BD4680BDE808002072
:103B800080B586B004AF786039603B689BB24FF077
:103B9000FF32029201937B68009301234022782137
:103BA000034801F081FA00BF0837BD4680BD00BF61
:103BB000E808002080B500AFFFF7C3FF642000F0E5
:103BC0006DFA002000F0DAF92020FFF7C1FF002095
:103BD000FFF7BEFFB020FFF7BBFFC820FFF7B8FF1D
:103BE0000020FFF7B5FF1020FFF7B2FF4020FFF7DE
:103BF000AFFFFF2000F0AEF9A120FFF7A9FFA6203C
:103C0000FFF7A6FFA820FFF7A3FF3F20FFF7A0FFC5
:103C1000A420FFF79DFFD320FFF79AFF0020FFF7B6
:103C200097FFD520FFF794FFF020FFF791FFD920F1
:103C3000FFF78EFF2220FFF78BFFDA20FFF788FFC8
:103C40001220FFF785FFDB20FFF782FF2020FFF720
:103C50007FFF8D20FFF77CFF1420FFF779FF012005
:103C600000F08CF9002000F00FF800F031F8054B5F
:103C700000221A80034B00225A80024B01221A7143
:103C800000BF80BD7C39002080B485B000AF034602
:103C9000FB710023FB600DE0FB79002B01D10021BB
:103CA00000E0FF21094AFB6813440A461A70FB68CA
:103CB0000133FB60FB68B3F5806FEDD300BF00BF3D
:103CC0001437BD465DF8047B704700BF7C3500208B
:103CD00080B582B000AF0023FB7116E0FB79503B4A
:103CE000DBB21846FFF734FF0020FFF731FF10204A
:103CF000FFF72EFFFB79DB01084A134480211846A9
:103D0000FFF73EFFFB790133FB71FB79072BE5D908
:103D100000BF00BF0837BD4680BD00BF7C35002016
:103D200080B483B000AF0346FB710B46BB711346F2
:103D30007B7197F90730002B3DDBBB793F2B3AD8DD
:103D40007B79012B1AD1FA79BB79DB08D8B203460B
:103D5000DB0113441B4AD35C5AB2BB7903F007035F
:103D6000012101FA03F35BB2134359B2FA79034616
:103D7000DB011344C9B2134AD1541DE0FA79BB796F
:103D8000DB08D8B20346DB0113440E4AD35C5AB2B7
:103D9000BB7903F00703012101FA03F35BB2DB43B4
:103DA0005BB2134059B2FA790346DB011344C9B23E
:103DB000044AD15400E000BF0C37BD465DF8047BD7
:103DC000704700BF7C35002090B589B000AF044635
:103DD000381D80E806001A462346FB731346BB7362
:103DE000FB7B1F2B02D9FB7B7E2B01D900236DE0CF
:103DF000384B1B881A463B791344802B06DC354B25
:103E00005B881A467B791344402B01DD00235DE07B
:103E10000023FB614CE0BA68FB7B203B797901FB16
:103E200003F31946FB690B445B0013441B887B6159
:103E30000023BB6134E07A69BB6902FA03F303F43F
:103E40000043002B12D0234B1B88DAB2BB69DBB2D4
:103E50001344D8B21F4B5B88DAB2FB69DBB2134460
:103E6000DBB2BA7B1946FFF75BFF16E0194B1B88E4
:103E7000DAB2BB69DBB21344D8B2164B5B88DAB254
:103E8000FB69DBB21344D9B2BB7B002B0CBF01230F
:103E90000023DBB21A46FFF743FFBB690133BB6166
:103EA0003B791A46BB699342C5D3FB690133FB6179
:103EB0007B791A46FB699342ADD3064B1A883B794E
:103EC0009BB213449AB2034B1A80FB7B18462437EB
:103ED000BD4690BD7C39002080B584B000AFF8604D
:103EE000381D80E80600FB7012E0FB681878FB784C
:103EF0003A1D06CAFFF768FF03461A46FB681B789F
:103F00009A4202D0FB681B7808E0FB680133FB6033
:103F1000FB681B78002BE8D1FB681B78184610372C
:103F2000BD4680BD80B483B000AF03460A46FB7136
:103F30001346BB71FB799AB2054B1A80BB799AB2D2
:103F4000034B5A8000BF0C37BD465DF8047B7047B9
:103F50007C39002080B584B000AF0346FB7181231B
:103F6000FB73FB7B1846FFF7F3FDFB791846FFF761
:103F7000EFFD00BF1037BD4680BD000080B584B0A6
:103F800000AF0346FB71FB79002B05D0AF23FB7319
:103F9000084B01225A7104E0AE23FB73054B00224B
:103FA0005A71FB7B1846FFF7D3FD00BF1037BD46A3
:103FB00080BD00BF7C39002080B500AF0E4B1B6870
:103FC0000D4A43F4007313600B4B1B680A4A43F419
:103FD00080631360084B1B68074A43F480731360C7
:103FE000032000F00DFD0F2000F008F8FEF7CEFCD6
:103FF0000023184680BD00BF003C024080B582B05F
:1040000000AF7860124B1A68124B1B7819464FF4B8
:104010007A73B3FBF1F3B2FBF3F3184600F025FD1E
:104020000346002B01D001230EE07B680F2B0AD83A
:10403000002279684FF0FF3000F0EDFC064A7B6803
:104040001360002300E0012318460837BD4680BDF9
:1040500074060020980600209406002080B400AF6B
:10406000064B1B781A46064B1B681344044A136020
:1040700000BFBD465DF8047B704700BF9806002076
:104080008439002080B400AF034B1B681846BD463E
:104090005DF8047B704700BF8439002080B584B090
:1040A00000AF7860FFF7EEFFB8607B68FB60FB68ED
:1040B000B3F1FF3F05D00A4B1B781A46FB68134447
:1040C000FB6000BFFFF7DEFF0246BB68D31AFA6849
:1040D0009A42F7D800BF00BF1037BD4680BD00BF71
:1040E0009806002080B584B000AF78600023FB7391
:1040F0007B68002B01D1012333E07B681B6C002B14
:1041000009D17868FEF76AFC7B6800225A647B68F4
:10411000002283F83C207B681B6C03F01003002B0B
:1041200018D17B681B6C23F4885323F0020343F0FF
:1041300002027B681A64786800F096FA7B680022B5
:104140005A647B681B6C23F0030343F001027B6815
:104150001A6401E00123FB737B68002283F83C2092
:10416000FB7B18461037BD4680BD000080B485B08B
:1041700000AF78600023BB607B6893F83C30012B74
:1041800001D1022397E07B68012283F83C207B6801
:104190001B689B6803F00103012B18D07B681B6828
:1041A0009A687B681B6842F001029A60454B1B6865
:1041B000454AA2FB03239A0C13465B001344BB60E1
:1041C00002E0BB68013BBB60BB68002BF9D17B6898
:1041D0001B689B6803F00103012B5FD17B681B6C9C
:1041E00023F4E06323F0010343F480727B681A64D4
:1041F0007B681B685B6803F48063002B07D07B68D7
:104200001B6C23F4405343F480527B681A647B6830
:104210001B6C03F48053B3F5805F06D17B685B6C45
:1042200023F006027B685A6402E07B6800225A642D
:104230007B68002283F83C20244BFB607B681B6872
:104240006FF022021A60FB685B6803F01F03002B0B
:104250000FD17B681B689B6803F04053002B29D16A
:104260007B681B689A687B681B6842F080429A6092
:1042700020E07B681B68164A93421BD17B681B6851
:104280009B6803F04053002B14D17B681B689A682D
:104290007B681B6842F080429A600BE07B681B6C75
:1042A00043F010027B681A647B685B6C43F0010288
:1042B0007B685A64002318461437BD465DF8047BBA
:1042C000704700BF7406002083DE1B4300230140BB
:1042D0000020014080B584B000AF786039600023D1
:1042E000FB607B681B689B6803F48063B3F5806F99
:1042F00013D17B681B689B6803F48073B3F5807FE0
:104300000BD17B681B6C43F020027B681A647B68CE
:10431000002283F83C20012363E0FFF7B3FEF8603E
:1043200021E03B68B3F1FF3F1DD03B68002B07D075
:10433000FFF7A8FE0246FB68D31A3A689A4212D2E7
:104340007B681B681B6803F00203022B0BD07B68A1
:104350001B6C43F004027B681A647B68002283F8BC
:104360003C2003233DE07B681B681B6803F00203CD
:10437000022BD6D17B681B686FF012021A607B6833
:104380001B6C43F400727B681A647B681B689B6833
:1043900003F04053002B23D17B681B7E002B1FD1E1
:1043A0007B681B68DB6A03F47003002B06D07B6814
:1043B0001B689B6803F48063002B11D17B681B6C26
:1043C00023F480727B681A647B681B6C03F480534F
:1043D000002B05D17B681B6C43F001027B681A64DB
:1043E000002318461037BD4680BD80B483B000AFAF
:1043F00078607B681B68DB6C18460C37BD465DF83F
:10440000047B704780B485B000AF786039600023CA
:10441000BB607B6893F83C30012B01D1022313E190
:104420007B68012283F83C203B681B68092B25D957
:104430007B681B68D9683B681B689BB21A461346A9
:104440005B0013441E3B072202FA03F3DA437B6846
:104450001B680A40DA607B681B68D9683B689A6809
:104460003B681B689BB2184603465B0003441E3B37
:104470009A407B681B680A43DA6022E07B681B680D
:1044800019693B681B689BB21A4613465B001344CC
:10449000072202FA03F3DA437B681B680A401A61B9
:1044A0007B681B6819693B689A683B681B689BB20C
:1044B000184603465B0003449A407B681B680A4326
:1044C0001A613B685B68062B24D87B681B68596BB4
:1044D0003B685A6813469B001344053B1F2202FAAF
:1044E00003F3DA437B681B680A405A637B681B68E6
:1044F000596B3B681B689BB218463B685A68134669
:104500009B001344053B00FA03F27B681B680A43D7
:104510005A634CE03B685B680C2B24D87B681B68B3
:10452000196B3B685A6813469B001344233B1F22B8
:1045300002FA03F3DA437B681B680A401A637B685C
:104540001B68196B3B681B689BB218463B685A682E
:1045500013469B001344233B00FA03F27B681B685D
:104560000A431A6323E07B681B68D96A3B685A6870
:1045700013469B001344413B1F2202FA03F3DA4324
:104580007B681B680A40DA627B681B68D96A3B68F3
:104590001B689BB218463B685A6813469B0013443D
:1045A000413B00FA03F27B681B680A43DA62294B3D
:1045B000FB607B681B68284A93420FD13B681B68ED
:1045C000122B0BD1FB685B6823F40002FB685A6076
:1045D000FB685B6843F48002FB685A607B681B6879
:1045E0001D4A93422BD13B681B681C4A934203D05F
:1045F0003B681B68112B22D1FB685B6823F48002A7
:10460000FB685A60FB685B6843F40002FB685A6011
:104610003B681B68114A934211D1114B1B68114A28
:10462000A2FB03239A0C13469B0013445B00BB6060
:1046300002E0BB68013BBB60BB68002BF9D17B6823
:10464000002283F83C20002318461437BD465DF84D
:10465000047B70470023014000200140120000103D
:104660007406002083DE1B4380B485B000AF786001
:10467000794BFB60FB685B6823F44032FB685A604F
:10468000FB685A687B685B681A43FB685A607B6802
:104690001B685A687B681B6822F480725A607B68CA
:1046A0001B6859687B681B691A027B681B680A4390
:1046B0005A607B681B685A687B681B6822F04072EE
:1046C0005A607B681B6859687B689A687B681B68BE
:1046D0000A435A607B681B689A687B681B6822F4EF
:1046E00000629A607B681B6899687B68DA687B68FF
:1046F0001B680A439A607B689B6A584A934222D09F
:104700007B681B689A687B681B6822F070629A60FD
:104710007B681B6899687B689A6A7B681B680A4398
:104720009A607B681B689A687B681B6822F040521D
:104730009A607B681B6899687B68DA6A7B681B688B
:104740000A439A600FE07B681B689A687B681B6865
:1047500022F070629A607B681B689A687B681B68AD
:1047600022F040529A607B681B689A687B681B68DD
:1047700022F002029A607B681B6899687B681B7E46
:104780005A007B681B680A439A607B6893F8203064
:10479000002B1BD07B681B685A687B681B6842F43F
:1047A00000625A607B681B685A687B681B6822F449
:1047B00060425A607B681B6859687B685B6A013B92
:1047C0005A037B681B680A435A6007E07B681B68D2
:1047D0005A687B681B6822F400625A607B681B6819
:1047E000DA6A7B681B6822F47002DA627B681B68F5
:1047F000D96A7B68DB69013B1A057B681B680A4341
:10480000DA627B681B689A687B681B6822F4007216
:104810009A607B681B6899687B6893F830305A020D
:104820007B681B680A439A607B681B689A687B6890
:104830001B6822F480629A607B681B6899687B68B9
:104840005B699A027B681B680A439A6000BF143751
:10485000BD465DF8047B7047002301400100000F56
:1048600080B485B000AF78607B6803F00703FB601D
:104870000C4BDB68BB60BA684FF6FF031340BB60AC
:10488000FB681A02BB68134343F0BF6343F4003371
:10489000BB60044ABB68D36000BF1437BD465DF8F7
:1048A000047B704700ED00E080B400AF044BDB6890
:1048B0001B0A03F007031846BD465DF8047B7047EA
:1048C00000ED00E080B483B000AF0346FB7197F9C0
:1048D0000730002B0BDBFB7903F01F02074997F928
:1048E00007305B09012000FA02F241F8232000BFE3
:1048F0000C37BD465DF8047B704700BF00E100E067
:1049000080B483B000AF03463960FB7197F907307C
:10491000002B0ADB3B68DAB20C4997F90730120129
:10492000D2B20B4483F800230AE03B68DAB20849AC
:10493000FB7903F00F03043B1201D2B20B441A7649
:1049400000BF0C37BD465DF8047B704700E100E016
:1049500000ED00E080B489B000AFF860B9607A6023
:10496000FB6803F00703FB61FB69C3F10703042B3A
:1049700028BF0423BB61FB690433062B02D9FB6902
:10498000033B00E000237B614FF0FF32BB6902FA7A
:1049900003F3DA43BB681A407B699A404FF0FF315A
:1049A0007B6901FA03F3D9437B680B401343184634
:1049B0002437BD465DF8047B7047000080B582B0A7
:1049C00000AF78607B68013BB3F1807F01D30123A6
:1049D0000FE00A4A7B68013B53600F214FF0FF3024
:1049E000FFF78EFF054B00229A60044B07221A60E6
:1049F000002318460837BD4680BD00BF10E000E028
:104A000080B582B000AF78607868FFF729FF00BFFB
:104A10000837BD4680BD80B586B000AF0346B9609B
:104A20007A60FB7300237B61FFF73EFF78617A6851
:104A3000B9687869FFF78EFF024697F90F30114683
:104A40001846FFF75DFF00BF1837BD4680BD80B533
:104A500082B000AF0346FB7197F907301846FFF7A5
:104A600031FF00BF0837BD4680BD80B582B000AFC2
:104A700078607868FFF7A2FF034618460837BD46FE
:104A800080BD000080B489B000AF78603960002339
:104A90007B6100233B610023BB610023FB6159E183
:104AA0000122FB6902FA03F37B613B681B687A69A8
:104AB00013403B613A697B699A4240F048813B6808
:104AC0005B6803F00303012B05D03B685B6803F0D0
:104AD0000303022B30D17B689B68BB61FB695B00E1
:104AE000032202FA03F3DB43BA691340BB613B685C
:104AF000DA68FB695B0002FA03F3BA691343BB612E
:104B00007B68BA699A607B685B68BB610122FB695C
:104B100002FA03F3DB43BA691340BB613B685B688D
:104B20001B0903F00102FB6902FA03F3BA6913439C
:104B3000BB617B68BA695A603B685B6803F003033A
:104B4000032B17D07B68DB68BB61FB695B0003222A
:104B500002FA03F3DB43BA691340BB613B689A680E
:104B6000FB695B0002FA03F3BA691343BB617B681C
:104B7000BA69DA603B685B6803F00303022B23D158
:104B8000FB69DA087B68083253F82230BB61FB69A5
:104B900003F007039B000F2202FA03F3DB43BA6919
:104BA0001340BB613B681A69FB6903F007039B0074
:104BB00002FA03F3BA691343BB61FB69DA087B6845
:104BC0000832B96943F822107B681B68BB61FB6936
:104BD0005B00032202FA03F3DB43BA691340BB61B3
:104BE0003B685B6803F00302FB695B0002FA03F3B6
:104BF000BA691343BB617B68BA691A603B685B683A
:104C000003F44033002B00F0A2800023FB60574BDD
:104C10005B6C564A43F480435364544B5B6C03F41F
:104C20008043FB60FB68524AFB699B08023352F8E1
:104C30002330BB61FB6903F003039B000F2202FAE0
:104C400003F3DB43BA691340BB617B68494A934273
:104C500019D07B68484A934213D07B68474A9342F5
:104C60000DD07B68464A934207D07B68454A934201
:104C700001D1042308E0072306E0032304E0022314
:104C800002E0012300E00023FA6902F0030292002F
:104C90009340BA691343BB613549FB699B080233F2
:104CA000BA6941F82320384B9B68BB613B69DB4301
:104CB000BA691340BB613B685B6803F48013002B47
:104CC00003D0BA693B691343BB612F4ABB69936048
:104CD0002D4BDB68BB613B69DB43BA691340BB61A9
:104CE0003B685B6803F40013002B03D0BA693B698F
:104CF0001343BB61244ABB69D360234B5B68BB6130
:104D00003B69DB43BA691340BB613B685B6803F4F2
:104D10000033002B03D0BA693B691343BB611A4AC5
:104D2000BB695360184B1B68BB613B69DB43BA69C5
:104D30001340BB613B685B6803F48033002B03D0F6
:104D4000BA693B691343BB610F4ABB691360FB69D6
:104D50000133FB61FB690F2B7FF6A2AE00BF00BFE2
:104D60002437BD465DF8047B704700BF0038024021
:104D700000380140000002400004024000080240E8
:104D8000000C024000100240003C014080B485B09D
:104D900000AF78600B467B807B681A697B88134084
:104DA000002B02D00123FB7301E00023FB73FB7B8C
:104DB00018461437BD465DF8047B704780B483B055
:104DC00000AF78600B467B8013467B707B78002BAE
:104DD00003D07A887B689A6103E07B881A047B6839
:104DE0009A6100BF0C37BD465DF8047B7047000038
:104DF00080B582B000AF0346FB80084B5A69FB8840
:104E00001340002B06D0054AFB885361FB881846E7
:104E1000FCF758FB00BF0837BD4680BD003C014091
:104E200080B584B000AF78607B68002B01D101238E
:104E30002BE17B6893F83D30DBB2002B06D17B6819
:104E4000002283F83C207868FDF70CFE7B68242262
:104E500083F83D207B681B681A687B681B6822F01A
:104E600001021A607B681B681A687B681B6842F441
:104E700000421A607B681B681A687B681B6822F412
:104E800000421A6001F058F8F8607B685B68814A5C
:104E9000934207D8FB68804A934294BF01230023C2
:104EA000DBB206E0FB687D4A934294BF01230023F6
:104EB000DBB2002B01D00123E7E0FB68784AA2FBBC
:104EC00003239B0CBB607B681B685B6823F03F017E
:104ED0007B681B68BA680A435A607B681B681B6A58
:104EE00023F03F017B685B686A4A934202D8BB6843
:104EF000013309E0BB684FF4967202FB03F3694A81
:104F0000A2FB03239B0901337A6812680B431362E7
:104F10007B681B68DB6923F44F4222F0FF027B6849
:104F20005B685C498B4219D8FB68591E7B685B68DB
:104F30005B00B1FBF3F3591C40F6FC730B40002BF4
:104F40000AD0FB68591E7B685B685B00B1FBF3F31A
:104F50000133C3F30B0351E004234FE07B689B68EC
:104F6000002B11D1FB68581E7B6859680B465B000B
:104F70000B44B0FBF3F30133C3F30B03002B0CBF63
:104F800001230023DBB212E0FB68581E7B685968DE
:104F90000B469B000B4499000B44B0FBF3F3013329
:104FA000C3F30B03002B0CBF01230023DBB2002B48
:104FB00001D0012322E07B689B68002B0ED1FB68A7
:104FC000581E7B6859680B465B000B44B0FBF3F33B
:104FD0000133C3F30B0343F400430FE0FB68581E97
:104FE0007B6859680B469B000B4499000B44B0FB4F
:104FF000F3F30133C3F30B0343F4404379680968C7
:105000001343CB617B681B681B6823F0C0017B687E
:10501000DA697B681B6A1A437B681B680A431A605B
:105020007B681B689B6823F4034323F0FF037A68C3
:1050300011697A68D26811437A6812680B439360E9
:105040007B681B68DB6823F0FF017B685A697B681B
:105050009B691A437B681B680A43DA607B681B689C
:105060001A687B681B6842F001021A607B680022A4
:105070001A647B68202283F83D207B6800221A6333
:105080007B68002283F83E20002318461037BD4677
:1050900080BD00BFA08601007F841E00FF083D0088
:1050A00083DE1B43D34D621080B588B002AFF86039
:1050B000084611461A4603467B810B463B81134640
:1050C000FB80FEF7DFFF7861FB6893F83D30DBB2D1
:1050D000202B40F0D9807B690093192301226D4970
:1050E000F86800F071F90346002B01D00223CCE0F0
:1050F000FB6893F83C30012B01D10223C5E0FB682B
:10510000012283F83C20FB681B681B6803F0010345
:10511000012B07D0FB681B681A68FB681B6842F00C
:1051200001021A60FB681B681A68FB681B6822F49E
:1051300000621A60FB68212283F83D20FB68402250
:1051400083F83E20FB6800221A64FB683A6A5A62C0
:10515000FB68BA8C5A85FB685B8D9AB2FB681A852E
:10516000FB684D4ADA62F8883A8979897B6901934C
:10517000BB6A00930346F86800F090F80346002BE2
:1051800052D0012381E07A69B96AF86800F0F2F937
:105190000346002B0DD0FB681B6C042B07D1FB686A
:1051A0001B681A68FB681B6842F400721A600123CE
:1051B0006BE0FB685B6A1A78FB681B681A61FB6826
:1051C0005B6A5A1CFB685A62FB681B8D013B9AB2F2
:1051D000FB681A85FB685B8D9BB2013B9AB2FB684A
:1051E0005A85FB681B685B6903F00403042B1BD121
:1051F000FB681B8D002B17D0FB685B6A1A78FB6875
:105200001B681A61FB685B6A5A1CFB685A62FB6880
:105210001B8D013B9AB2FB681A85FB685B8D9BB2C4
:10522000013B9AB2FB685A85FB681B8D002BAAD103
:105230007A69B96AF86800F0DEF90346002B0DD0F0
:10524000FB681B6C042B07D1FB681B681A68FB68A2
:105250001B6842F400721A60012316E0FB681B68A9
:105260001A68FB681B6842F400721A60FB6820220F
:1052700083F83D20FB68002283F83E20FB68002273
:1052800083F83C20002300E0022318461837BD466F
:1052900080BD00BF020010000000FFFF80B588B095
:1052A00002AFF860084611461A4603467B810B465A
:1052B0003B811346FB80FB681B681A68FB681B6810
:1052C00042F480721A607B6A00933B6A00224FF0BE
:1052D0000111F86800F078F80346002B0DD0FB6848
:1052E0001B681B6803F48073B3F5807F03D1FB68F0
:1052F0004FF400721A6403235FE07B89DBB21A4625
:10530000FB681B6802F0FE021A617B6A3A6A2D494B
:10531000F86800F0B0F80346002B01D001234CE000
:1053200000237B61FB681B685B697B61FB681B6812
:105330009B697B617B697A6A396AF86800F01AF9BF
:105340000346002B0DD0FB681B6C042B07D1FB68B8
:105350001B681A68FB681B6842F400721A6001231C
:105360002BE0FB88012B05D13B89DAB2FB681B6877
:105370001A6121E03B891B0A9BB2DAB2FB681B6809
:105380001A617A6A396AF86800F0F4F80346002B6B
:105390000DD0FB681B6C042B07D1FB681B681A68D7
:1053A000FB681B6842F400721A60012305E03B8928
:1053B000DAB2FB681B681A61002318461837BD462D
:1053C00080BD00BF0200010080B584B000AFF8606E
:1053D000B9603B601346FB7125E03B68B3F1FF3FCA
:1053E00021D0FEF74FFE0246BB69D31A3A689A42B3
:1053F00002D33B68002B16D1FB6800221A63FB68BE
:10540000202283F83D20FB68002283F83E20FB68C1
:105410001B6C43F02002FB681A64FB68002283F8CF
:105420003C20012323E0BB681B0CDBB2012B0DD118
:10543000FB681B685B69DA43BB6813409BB2002BB7
:105440000CBF01230023DBB21A460CE0FB681B688B
:105450009B69DA43BB6813409BB2002B0CBF01234E
:105460000023DBB21A46FB799A42B6D000231846D5
:105470001037BD4680BD80B584B000AFF860B9601C
:105480007A603B6051E0FB681B685B6903F48063F2
:10549000B3F5806F23D1FB681B681A68FB681B6833
:1054A00042F400721A60FB681B686FF480625A61F4
:1054B000FB6800221A63FB68202283F83D20FB680A
:1054C000002283F83E20FB681B6C43F00402FB685B
:1054D0001A64FB68002283F83C20012346E07B68C5
:1054E000B3F1FF3F21D0FEF7CDFD02463B68D31A52
:1054F0007A689A4202D37B68002B16D1FB6800229F
:105500001A63FB68202283F83D20FB68002283F8A1
:105510003E20FB681B6C43F02002FB681A64FB68AA
:10552000002283F83C20012320E0BB681B0CDBB287
:10553000012B0CD1FB681B685B69DA43BB68134025
:105540009BB2002B14BF01230023DBB20BE0FB68EE
:105550001B689B69DA43BB6813409BB2002B14BFE6
:1055600001230023DBB2002B8DD100231846103716
:10557000BD4680BD80B584B000AFF860B9607A6088
:105580002DE0F86800F078F80346002B01D00123E5
:105590002DE0BB68B3F1FF3F21D0FEF773FD02465B
:1055A0007B68D31ABA689A4202D3BB68002B16D123
:1055B000FB6800221A63FB68202283F83D20FB6809
:1055C000002283F83E20FB681B6C43F02002FB683E
:1055D0001A64FB68002283F83C20012307E0FB6883
:1055E0001B685B6903F08003802BCAD10023184637
:1055F0001037BD4680BD80B584B000AFF860B9609B
:105600007A602DE0F86800F037F80346002B01D0EF
:1056100001232DE0BB68B3F1FF3F21D0FEF732FD3F
:1056200002467B68D31ABA689A4202D3BB68002B41
:1056300016D1FB6800221A63FB68202283F83D2004
:10564000FB68002283F83E20FB681B6C43F02002BD
:10565000FB681A64FB68002283F83C20012307E002
:10566000FB681B685B6903F00403042BCAD10023A9
:1056700018461037BD4680BD80B483B000AF786057
:105680007B681B685B6903F48063B3F5806F1BD193
:105690007B681B686FF480625A617B6800221A6322
:1056A0007B68202283F83D207B68002283F83E201F
:1056B0007B681B6C43F004027B681A647B680022E1
:1056C00083F83C20012300E0002318460C37BD4638
:1056D0005DF8047B7047000080B586B000AF78604D
:1056E0007B68002B01D1012367E27B681B6803F014
:1056F0000103002B75D0884B9B6803F00C03042B2F
:105700000CD0854B9B6803F00C03082B12D1824B05
:105710005B6803F48003B3F5800F0BD17E4B1B68ED
:1057200003F40033002B5BD07B685B68002B57D100
:10573000012342E27B685B68B3F5803F06D1764B7C
:105740001B68754A43F4803313601DE07B685B6817
:10575000B3F5A02F0CD1704B1B686F4A43F4802324
:1057600013606D4B1B686C4A43F4803313600BE08D
:10577000694B1B68684A23F480331360664B1B68CF
:10578000654A23F4802313607B685B68002B13D089
:10579000FEF778FC386108E0FEF774FC02463B69CE
:1057A000D31A642B01D9032307E25B4B1B6803F474
:1057B0000033002BF0D014E0FEF764FC386108E001
:1057C000FEF760FC02463B69D31A642B01D9032320
:1057D000F3E1514B1B6803F40033002BF0D100E0E0
:1057E00000BF7B681B6803F00203002B63D04A4BA9
:1057F0009B6803F00C03002B0BD0474B9B6803F016
:105800000C03082B1CD1444B5B6803F48003002B72
:1058100016D1414B1B6803F00203002B05D07B68B7
:10582000DB68012B01D00123C7E13B4B1B6823F050
:10583000F8027B681B69DB00374913430B603AE0D1
:105840007B68DB68002B20D0344B01221A60FEF706
:1058500019FC386108E0FEF715FC02463B69D31AD3
:10586000022B01D90323A8E12B4B1B6803F0020391
:10587000002BF0D0284B1B6823F0F8027B681B69D3
:10588000DB00254913430B6015E0244B00221A600E
:10589000FEF7F8FB386108E0FEF7F4FB02463B69CF
:1058A000D31A022B01D9032387E11B4B1B6803F09A
:1058B0000203002BF0D17B681B6803F00803002B68
:1058C00036D07B685B69002B16D0154B01221A601D
:1058D000FEF7D8FB386108E0FEF7D4FB02463B69CF
:1058E000D31A022B01D9032367E10B4B5B6F03F043
:1058F0000203002BF0D01BE0094B00221A60FEF7D8
:10590000C1FB38610EE0FEF7BDFB02463B69D31ACE
:10591000022B07D9032350E1003802400000474220
:10592000800E4742884B5B6F03F00203002BEAD1E5
:105930007B681B6803F00403002B00F097800023B2
:10594000FB75814B1B6C03F08053002B0FD10023A0
:10595000BB607D4B1B6C7C4A43F0805313647A4BD5
:105960001B6C03F08053BB60BB680123FB75774B56
:105970001B6803F48073002B18D1744B1B68734AA7
:1059800043F480731360FEF77DFB386108E0FEF797
:1059900079FB02463B69D31A022B01D903230CE1A0
:1059A0006A4B1B6803F48073002BF0D07B689B6804
:1059B000012B06D1644B1B6F634A43F0010313674D
:1059C0001CE07B689B68052B0CD15F4B1B6F5E4A0C
:1059D00043F0040313675C4B1B6F5B4A43F0010306
:1059E00013670BE0584B1B6F574A23F001031367F3
:1059F000554B1B6F544A23F0040313677B689B6865
:105A0000002B15D0FEF73EFB38610AE0FEF73AFBAB
:105A100002463B69D31A41F28832934201D90323EB
:105A2000CBE0494B1B6F03F00203002BEED014E0D8
:105A3000FEF728FB38610AE0FEF724FB02463B69CB
:105A4000D31A41F28832934201D90323B5E03E4B89
:105A50001B6F03F00203002BEED1FB7D012B05D160
:105A6000394B1B6C384A23F0805313647B689B6965
:105A7000002B00F0A180344B9B6803F00C03082B33
:105A80005CD07B689B69022B41D1314B00221A60AC
:105A9000FEF7F8FA386108E0FEF7F4FA02463B69CF
:105AA000D31A022B01D9032387E0274B1B6803F08D
:105AB0000073002BF0D17B68DA697B681B6A1A439C
:105AC0007B685B6A9B011A437B689B6A5B08013BAE
:105AD0001B041A437B68DB6A1B061B4913434B609C
