:020000040800F2
:1000000000000220DD440008A1380008A7380008DD
:10001000AD380008B3380008B93800080000000007
:10002000000000000000000000000000BF380008D1
:10003000CD38000800000000DB380008E93800086F
:100040002D4500082D4500082D4500082D450008C8
:100050002D4500082D4500082D4500082D450008B8
:100060002D4500082D4500082D4500082D450008A8
:100070002D4500082D4500082D4500082D45000898
:100080002D4500082D4500082D4500080000000002
:100090000000000000000000000000001D39000802
:1000A0002D4500082D390008493900082D45000864
:1000B000653900082D4500082D4500082D4500082C
:1000C0002D4500082D4500082D4500082D45000848
:1000D0002D4500082D4500082D45000800000000B2
:1000E0002D4500082D4500082D45000800000000A2
:1000F0000000000000000000000000002D45000886
:10010000000000002D4500082D4500082D45000881
:1001100000000000000000000000000000000000DF
:100120002D4500082D4500082D4500082D450008E7
:100130002D45000800000000000000000000000045
:100140000000000000000000000000002D45000835
:100150002D4500082D4500082D4500082D450008B7
:100160002D4500082D45000800000000000000009B
:10017000000000000000000000000000000000007F
:10018000000000002D4500080000000000000000F5
:080190002D4500082D45000873
:1001A00010B5054C237833B9044B13B10448AFF3B1
:1001B00000800123237010BD680A002000000000A9
:1001C00004DA000808B5034B1BB103490348AFF339
:1001D000008008BD000000006C0A002004DA00085E
:1001E00010F8012B11F8013B012A28BF9A42F7D0E1
:1001F000D01A70470000000000000000000000005E
:1002000001F0FF01102A2BDB10F0070F08D010F8C7
:10021000013B013A8B422DD010F0070F42B3F6D1CB
:10022000F0B441EA012141EA014122F007047FF0E4
:1002300000070023F0E80256083C85EA010586EA3B
:10024000010685FA47F5A3FA87F586FA47F6A5FA77
:1002500087F68EB9EED1F0BC01F0FF0102F0070283
:1002600032B110F8013B013A83EA010313B1F8D12E
:100270000020704701387047002D06BF354603380F
:10028000073815F0010F07D1013015F4807F02BF48
:10029000013015F4C03F0130F0BC0138704700BF99
:1002A000034613F8012B002AFBD1181A01387047B6
:1002B00081F0004102E000BF83F0004330B54FEA17
:1002C00041044FEA430594EA050F08BF90EA020F84
:1002D0001FBF54EA000C55EA020C7FEA645C7FEA17
:1002E000655C00F0E2804FEA5454D4EB5555B8BF3A
:1002F0006D420CDD2C4480EA020281EA030382EAAB
:10030000000083EA010180EA020281EA0303362D3C
:1003100088BF30BD11F0004F4FEA01314FF4801C0F
:100320004CEA113102D0404261EB410113F0004F21
:100330004FEA03334CEA133302D0524263EB4303D8
:1003400094EA050F00F0A780A4F10104D5F1200E76
:100350000DDB02FA0EFC22FA05F2801841F10001D1
:1003600003FA0EF2801843FA05F359410EE0A5F1A5
:1003700020050EF1200E012A03FA0EFC28BF4CF0D6
:10038000020C43FA05F3C01851EBE37101F000458C
:1003900007D54FF0000EDCF1000C7EEB00006EEB99
:1003A0000101B1F5801F1BD3B1F5001F0CD3490823
:1003B0005FEA30004FEA3C0C04F101044FEA44527A
:1003C00012F5800F80F09A80BCF1004F08BF5FEA01
:1003D000500C50F1000041EB045141EA050130BDE1
:1003E0005FEA4C0C404141EB0101013C28BFB1F5F3
:1003F000801FE9D291F0000F04BF01460020B1FA3E
:1004000081F308BF2033A3F10B03B3F120020CDA10
:100410000C3208DD02F1140CC2F10C0201FA0CF0EE
:1004200021FA02F10CE002F11402D8BFC2F1200C53
:1004300001FA02F120FA0CFCDCBF41EA0C01904009
:10044000E41AA2BF01EB0451294330BD6FEA040452
:100450001F3C1CDA0C340EDC04F11404C4F120023D
:1004600020FA04F001FA02F340EA030021FA04F34F
:1004700045EA030130BDC4F10C04C4F1200220FAA6
:1004800002F001FA04F340EA0300294630BD21FAE4
:1004900004F0294630BD94F0000F83F4801306BFAA
:1004A00081F480110134013D4EE77FEA645C18BF9E
:1004B0007FEA655C29D094EA050F08BF90EA020F35
:1004C00005D054EA000C04BF1946104630BD91EA2D
:1004D000030F1EBF0021002030BD5FEA545C05D130
:1004E0004000494128BF41F0004130BD14F580046F
:1004F0003CBF01F5801130BD01F0004545F0FE41E3
:1005000041F470014FF0000030BD7FEA645C1ABF17
:10051000194610467FEA655C1CBF0B46024650EA4E
:10052000013406BF52EA033591EA030F41F400217A
:1005300030BD00BF90F0000F04BF0021704730B500
:100540004FF4806404F132044FF000054FF00001D5
:1005500050E700BF90F0000F04BF0021704730B596
:100560004FF4806404F1320410F0004548BF40426B
:100570004FF000013EE700BF42004FEAE2014FEAC0
:1005800031014FEA02701FBF12F07F4393F07F4F9B
:1005900081F06051704732F07F4208BF704793F09E
:1005A0007F4F04BF41F40021704730B54FF46074B1
:1005B00001F0004521F000411CE700BF50EA0102B4
:1005C00008BF704730B54FF000050AE050EA01025D
:1005D00008BF704730B511F0004502D5404261EBCD
:1005E00041014FF4806404F132045FEA915C3FF40E
:1005F000D8AE4FF003025FEADC0C18BF03325FEAAB
:10060000DC0C18BF033202EBDC02C2F1200300FA5B
:1006100003FC20FA02F001FA03FE40EA0E0021FA80
:1006200002F11444BDE600BF70B54FF0FF0C4CF46E
:10063000E06C1CEA11541DBF1CEA135594EA0C0F20
:1006400095EA0C0F00F0DEF82C4481EA030621EA5B
:100650004C5123EA4C5350EA013518BF52EA033596
:1006600041F4801143F4801338D0A0FB02CE4FF048
:100670000005E1FB02E506F00042E0FB03E54FF078
:100680000006E1FB03569CF0000F18BF4EF0010E70
:10069000A4F1FF04B6F5007F64F5407404D25FEA6C
:1006A0004E0E6D4146EB060642EAC62141EA55511F
:1006B0004FEAC52040EA5E504FEACE2EB4F1FD0C61
:1006C00088BFBCF5E06F1ED8BEF1004F08BF5FEADF
:1006D000500E50F1000041EB045170BD06F0004691
:1006E00046EA010140EA020081EA0301B4EB5C043E
:1006F000C2BFD4EB0C0541EA045170BD41F4801136
:100700004FF0000E013C00F3AB8014F1360FDEBF5A
:10071000002001F0004170BDC4F10004203C35DA36
:100720000C341BDC04F11404C4F1200500FA05F3B9
:1007300020FA04F001FA05F240EA020001F000425A
:1007400021F0004110EBD37021FA04F642EB0601D0
:100750005EEA430E08BF20EAD37070BDC4F10C04FA
:10076000C4F1200500FA04F320FA05F001FA04F2BE
:1007700040EA020001F0004110EBD37041F10001AA
:100780005EEA430E08BF20EAD37070BDC4F12005B5
:1007900000FA05F24EEA020E20FA04F301FA05F21D
:1007A00043EA020321FA04F001F0004121FA04F2C5
:1007B00020EA020000EBD3705EEA430E08BF20EA95
:1007C000D37070BD94F0000F0FD101F000464000CF
:1007D00041EB010111F4801F08BF013CF7D041EA51
:1007E000060195F0000F18BF704703F00046520055
:1007F00043EB030313F4801F08BF013DF7D043EA26
:100800000603704794EA0C0F0CEA135518BF95EADB
:100810000C0F0CD050EA410618BF52EA4306D1D162
:1008200081EA030101F000414FF0000070BD50EA81
:10083000410606BF1046194652EA430619D094EA0B
:100840000C0F02D150EA013613D195EA0C0F05D1F5
:1008500052EA03361CBF104619460AD181EA030149
:1008600001F0004141F0FE4141F470014FF0000001
:1008700070BD41F0FE4141F4780170BD70B54FF09C
:10088000FF0C4CF4E06C1CEA11541DBF1CEA13551C
:1008900094EA0C0F95EA0C0F00F0A7F8A4EB0504FE
:1008A00081EA030E52EA03354FEA013100F08880F5
:1008B0004FEA03334FF0805545EA131343EA1263BE
:1008C0004FEA022245EA111545EA10654FEA002673
:1008D0000EF000419D4208BF964244F1FD0404F52C
:1008E000407402D25B084FEA3202B61A65EB030588
:1008F0005B084FEA32024FF480104FF4002CB6EB45
:10090000020E75EB030E22BFB61A754640EA0C00C4
:100910005B084FEA3202B6EB020E75EB030E22BF04
:10092000B61A754640EA5C005B084FEA3202B6EB45
:10093000020E75EB030E22BFB61A754640EA9C0004
:100940005B084FEA3202B6EB020E75EB030E22BFD4
:10095000B61A754640EADC0055EA060E18D04FEA92
:10096000051545EA16754FEA06164FEAC30343EA32
:1009700052734FEAC2025FEA1C1CC0D111F4801FFF
:100980000BD141EA00014FF000004FF0004CB6E7F8
:1009900011F4801F04BF01430020B4F1FD0C88BF97
:1009A000BCF5E06F3FF6AFAEB5EB030C04BFB6EBA2
:1009B000020C5FEA500C50F1000041EB045170BD95
:1009C0000EF0004E4EEA113114EB5C04C2BFD4EBC2
:1009D0000C0541EA045170BD41F480114FF0000E46
:1009E000013C90E645EA060E8DE60CEA135594EAC2
:1009F0000C0F08BF95EA0C0F3FF43BAF94EA0C0FC5
:100A00000AD150EA01347FF434AF95EA0C0F7FF439
:100A100025AF104619462CE795EA0C0F06D152EA8D
:100A200003353FF4FDAE1046194622E750EA410671
:100A300018BF52EA43067FF4C5AE50EA41047FF482
:100A40000DAF52EA43057FF4EBAE12E74FF0FF3CE7
:100A500006E000BF4FF0010C02E000BF4FF0010CB8
:100A60004DF804CD4FEA410C7FEA6C5C4FEA430C31
:100A700018BF7FEA6C5C1BD001B050EA410C0CBF80
:100A800052EA430C91EA030F02BF90EA020F0020E2
:100A9000704710F1000F91EA030F58BF994208BF49
:100AA00090422CBFD8176FEAE37040F00100704706
:100AB0004FEA410C7FEA6C5C02D150EA013C07D15D
:100AC0004FEA430C7FEA6C5CD6D152EA033CD3D0A8
:100AD0005DF8040B704700BF8446104662468C46A2
:100AE0001946634600E000BF01B5FFF7B7FF0028D5
:100AF00048BF10F1000F01BD4DF808EDFFF7F4FFFE
:100B00000CBF012000205DF808FB00BF4DF808ED88
:100B1000FFF7EAFF34BF012000205DF808FB00BFAB
:100B20004DF808EDFFF7E0FF94BF012000205DF8CD
:100B300008FB00BF4DF808EDFFF7CEFF94BF012082
:100B400000205DF808FB00BF4DF808EDFFF7C4FF7B
:100B500034BF012000205DF808FB00BF4FEA410CC4
:100B60007FEA6C5C02D150EA013C0AD14FEA430CA7
:100B70007FEA6C5C02D152EA033C02D14FF00000E4
:100B800070474FF0010070474FEA410212F5001222
:100B900015D211D56FF47873B3EB625212D94FEAC4
:100BA000C12343F0004343EA505311F0004F23FAAE
:100BB00002F018BF404270474FF00000704750EA03
:100BC000013005D111F0004008BF6FF000407047C0
:100BD0004FF00000704700BF4A0011D212F500121A
:100BE00011D20DD56FF47873B3EB62520ED44FEA85
:100BF000C12343F0004343EA505323FA02F0704705
:100C00004FF00000704750EA013002D14FF0FF3042
:100C100070474FF00000704753B94AB9002908BF28
:100C200000281CBF4FF0FF314FF0FF3000F070B9CB
:100C3000ADF1080C6DE904CE00F006F8DDF804E033
:100C4000DDE9022304B070472DE9F047089E0D4608
:100C500004460F46002B4AD18A42944665D9B2FA1F
:100C600082F343B102FA03FCC3F120029F4020FA51
:100C700002F217439C404FEA1C4E1FFA8CF5B7FB5B
:100C8000FEF1220C0EFB117742EA074201FB05F050
:100C900090420AD91CEB020201F1FF3780F01C815F
:100CA000904240F2198102396244121AA4B2B2FB96
:100CB000FEF00EFB102244EA024400FB05F5A542BB
:100CC0000AD91CEB040400F1FF3280F00781A54231
:100CD00040F204816444023840EA0140641B002170
:100CE0001EB1DC400023C6E90043BDE8F0878B421B
:100CF00008D9002E00F0ED800021C6E90005084665
:100D0000BDE8F087B3FA83F1002949D1AB4202D3A1
:100D1000824200F2F880841A65EB03020120174634
:100D2000002EE2D0C6E90047DFE702B9FFDEB2FAE3
:100D300082F3002B40F090808A1A4FEA1C471FFA7A
:100D40008CFE0121B2FBF7F507FB1520220C42EACD
:100D500000420EFB05F0904208D91CEB020205F19F
:100D6000FF3802D2904200F2CB804546121AA4B25C
:100D7000B2FBF7F007FB102244EA02440EFB00FE30
:100D8000A64508D91CEB040400F1FF3202D2A645A7
:100D900000F2BB801046A4EB0E0440EA05409FE73A
:100DA000C1F120078B4022FA07FC4CEA030C05FA3C
:100DB00001F420FA07F3FD404FEA1C492343B5FB39
:100DC000F9F81FFA8CFE09FB18551C0C44EA05447F
:100DD00008FB0EF5A54202FA01F200FA01F00BD968
:100DE0001CEB040408F1FF3A80F08880A54240F231
:100DF0008580A8F102086444641B9DB2B4FBF9F33A
:100E000009FB134445EA044403FB0EFEA64508D93A
:100E10001CEB040403F1FF356CD2A6456AD9023BF2
:100E2000644443EA0843A3FB0295A4EB0E04AC42DE
:100E3000C846AE4656D353D056B1B0EB080264EB69
:100E40000E0404FA07F7CA40CC401743C6E9007401
:100E500018460021BDE8F087C3F1200102FA03FC27
:100E600020FA01F225FA01F19D402A434FEA1C477E
:100E70001FFA8CFEB1FBF7F007FB1015110C41EACD
:100E8000054100FB0EF58D4204FA03F408D91CEB72
:100E9000010100F1FF382FD28D422DD90238614473
:100EA000491B92B2B1FBF7F507FB151142EA01426B
:100EB00005FB0EF1914208D91CEB020205F1FF3847
:100EC00016D2914214D9023D6244521A45EA0041B9
:100ED00038E73146304608E73946E6E61046FBE695
:100EE0004845A9D2B9EB020865EB0C0E013BA3E71C
:100EF0004546EAE72B4694E74046D1E7D0467BE7F4
:100F0000023D624432E708460AE76444023842E799
:100F1000704700BF80B483B000AF7860044A7B683C
:100F2000136000BF0C37BD465DF8047B704700BFFF
:100F3000840A002080B483B000AF7860044A7B68E4
:100F4000136000BF0C37BD465DF8047B704700BFDF
:100F5000880A002080B586B000AF786007F10803EA
:100F600000221A605A609A60DA607B68BB600123D5
:100F7000FB6000233B61084B1B6807F10802114628
:100F8000184603F035FF0346002B01D001F074FA38
:100F900000BF1837BD4680BD840A002080B588B0E8
:100FA00002AF244B3B6101233B72C1237B7283233D
:100FB000BB72214B186807F10802642300930323D6
:100FC000902104F067FD00233B721B4B186807F16A
:100FD0000802642300930123902104F05BFD142098
:100FE00003F052FD144B186807F1080264230093C4
:100FF0000223902104F04CFE3B7A1B021AB27B7A4A
:101000001BB21343FB82B7F91630002B01DA002321
:10101000FB82B7F9163007EE903AB8EEE77AD7EDD3
:10102000047A67EE277AC7ED017AB0EE670A1837BF
:10103000BD4680BDE3A54339880A002080B588B04D
:1010400002AF244B3B6101233B72D1237B7283238C
:10105000BB72214B186807F1080264230093032335
:10106000902104F017FD00233B721B4B186807F119
:101070000802642300930123902104F00BFD142047
:1010800003F002FD144B186807F108026423009373
:101090000223902104F0FCFD3B7A1B021AB27B7AFA
:1010A0001BB21343FB82B7F91630002B01DA002381
:1010B000FB82B7F9163007EE903AB8EEE77AD7ED33
:1010C000047A67EE277AC7ED017AB0EE670A18371F
:1010D000BD4680BDE3A54339880A002080B588B0AD
:1010E00002AF244B3B6101233B72E1237B728323DC
:1010F000BB72214B186807F1080264230093032395
:10110000902104F0C7FC00233B721B4B186807F1C9
:101110000802642300930123902104F0BBFC1420F7
:1011200003F0B2FC144B186807F108026423009323
:101130000223902104F0ACFD3B7A1B021AB27B7AA9
:101140001BB21343FB82B7F91630002B01DA0023E0
:10115000FB82B7F9163007EE903AB8EEE77AD7ED92
:10116000047A67EE277AC7ED017AB0EE670A18377E
:10117000BD4680BDE3A54339880A002080B588B00C
:1011800002AF244B3B6101233B72F1237B7283232B
:10119000BB72214B186807F10802642300930323F4
:1011A000902104F077FC00233B721B4B186807F179
:1011B0000802642300930123902104F06BFC1420A7
:1011C00003F062FC144B186807F1080264230093D3
:1011D0000223902104F05CFD3B7A1B021AB27B7A59
:1011E0001BB21343FB82B7F91630002B01DA002340
:1011F000FB82B7F9163007EE903AB8EEE77AD7EDF2
:10120000047A67EE277AC7ED017AB0EE670A1837DD
:10121000BD4680BDE3A54339880A002080B582B071
:1012200000AF0020FFF796FE144B1B68184603F032
:1012300093FC124B1B684FF0FF31184603F040FD42
:101240000E4B1B68184603F0C6FD78607B6807EEFE
:10125000903AF8EE677A9FED0A7A27EE877ADFED0B
:10126000096AC7EE267AC7ED007A3B6807EE903A26
:10127000B0EE670A0837BD4680BD00BF840A002073
:10128000333353400000804580B582B000AF012069
:10129000FFF760FE144B1B68184603F05DFC124B11
:1012A0001B684FF0FF31184603F00AFD0E4B1B6818
:1012B000184603F090FD78607B6807EE903AF8EEF0
:1012C000677A9FED0A7A27EE877ADFED096AC7EE23
:1012D000267AC7ED007A3B6807EE903AB0EE670ACF
:1012E0000837BD4680BD00BF840A00203333534019
:1012F0000000804580B582B000AF0220FFF72AFED3
:10130000144B1B68184603F027FC124B1B684FF068
:10131000FF31184603F0D4FC0E4B1B68184603F04F
:101320005AFD78607B6807EE903AF8EE677A9FED99
:101330000A7A27EE877ADFED096AC7EE267AC7EDCB
:10134000007A3B6807EE903AB0EE670A0837BD4670
:1013500080BD00BF840A0020333353400000804525
:1013600080B582B000AF0320FFF7F4FD144B1B687B
:10137000184603F0F1FB124B1B684FF0FF31184683
:1013800003F09EFC0E4B1B68184603F024FD7860AA
:101390007B6807EE903AF8EE677A9FED0A7A27EEBF
:1013A000877ADFED096AC7EE267AC7ED007A3B68D7
:1013B00007EE903AB0EE670A0837BD4680BD00BF21
:1013C000840A0020333353400000804580B586B046
:1013D00000AF00F0EBF8CC2000F064F9442000F0FE
:1013E00061F95F2003F050FB00F0E0F8CC2000F042
:1013F00059F9BE2000F056F900237B610BE000F0A4
:101400006DF9034619463A1D7B6913440A461A7062
:101410007B6901337B617B69082BF0DD7B791B02E3
:101420003A79134307EE903AF8EEE77AC7ED047A7B
:1014300097ED047AF3EE006AC7EE267AC7ED047AD8
:101440003B6907EE903AB0EE670A1837BD4680BD9B
:1014500080B586B000AF00F0A9F8CC2000F022F9EA
:10146000442000F01FF95F2003F00EFB00F09EF80F
:10147000CC2000F017F9BE2000F014F900237B61A6
:101480000BE000F02BF9034619463A1D7B69134423
:101490000A461A707B6901337B617B69082BF0DD9A
:1014A0007B791B023A79134307EE903AF8EEE77A1C
:1014B000C7ED047A97ED047AF3EE006AC7EE267A58
:1014C000C7ED047A3B6907EE903AB0EE670A183729
:1014D000BD4680BD80B586B000AF00F067F8CC2077
:1014E00000F0E0F8442000F0DDF85F2003F0CCFAD3
:1014F00000F05CF8CC2000F0D5F8BE2000F0D2F867
:1015000000237B610BE000F0E9F8034619463A1D21
:101510007B6913440A461A707B6901337B617B69DE
:10152000082BF0DD7B791B023A79134307EE903AE2
:10153000F8EEE77AC7ED047A97ED047AF3EE006AE5
:10154000C7EE267AC7ED047A3B6907EE903AB0EE13
:10155000670A1837BD4680BD80B483B000AF78609D
:10156000044A7B68136000BF0C37BD465DF8047BFE
:10157000704700BF8C0A002080B483B000AF786051
:10158000094B1B681B6800225A6200BF064B1B6890
:101590001B685B6A7A689A42F8D800BF00BF0C37B4
:1015A000BD465DF8047B70478C0A002080B582B090
:1015B00000AF00220221114804F0F6F84FF4F07059
:1015C000FFF7DAFF012202210C4804F0EDF8462073
:1015D000FFF7D2FF0221094804F0CEF803467B60F2
:1015E0004FF4CD70FFF7C8FF7B68002B01D10023BB
:1015F00000E0012318460837BD4680BD00040240C4
:1016000080B582B000AF78607B68002B10D00022DC
:101610000221114804F0C8F80620FFF7ADFF0122AF
:1016200002210D4804F0C0F84020FFF7A5FF0FE0AD
:1016300000220221084804F0B7F83C20FFF79CFF85
:1016400001220221044804F0AFF80A20FFF794FFBA
:1016500000BF0837BD4680BD0004024080B582B09F
:1016600000AF002202210E4804F09EF80620FFF78A
:1016700083FF012202210A4804F096F80920FFF7AF
:101680007BFF0221064804F077F803467B60372091
:10169000FFF772FF7B6818460837BD4680BD00BF64
:1016A0000004024080B584B000AF0346FB71002304
:1016B000FB600BE0FB7903F001031846FFF7A0FF86
:1016C000FB795B08FB71FB680133FB60FB68072B50
:1016D000F0DD00BF00BF1037BD4680BD80B582B0D1
:1016E00000AF0023FB7100233B600EE0FB795B0839
:1016F000FB71FFF7B3FF0346002B03D0FB7963F0C8
:101700007F03FB713B6801333B603B68072BEDDDDA
:10171000FB7918460837BD4680BD000080B483B011
:1017200000AF03460A46FB801346BB80074B1B688D
:101730001B68BA88DA62054B1B68BA88DA6000BF9A
:101740000C37BD465DF8047B704700BF900A00204F
:1017500080B483B000AF0346FB80054B1B681B6859
:10176000FA885A6200BF0C37BD465DF8047B7047AB
:10177000900A002080B400AF044B1B681B685B6AB2
:101780001846BD465DF8047B704700BF900A0020F4
:1017900080B483B000AF7860044A7B68136000BFF8
:1017A0000C37BD465DF8047B704700BF900A0020EF
:1017B00080B582B000AF0346FB80FFF7DBFF024637
:1017C000B7F906309A4201D1012300E00023184600
:1017D0000837BD4680BD80B582B000AF0346FB80B0
:1017E000FFF7C8FF0246B7F906309A4206D100F06B
:1017F000B3F80346002B01D0012300E00023184674
:101800000837BD4680BD000080B584B000AF786069
:101810007868FEF745FD0346FB73FB7B9AB24FF0F9
:10182000FF337968034807F09EFF00BF1037BD46BD
:1018300080BD00BF1C0D002080B582B000AF786075
:101840007B681B680A4A93420DD1786806F088FECF
:101850004FF48071074803F08FFF0346002B02D13D
:10186000054B01221A7000BF0837BD4680BD00BF7E
:101870000048014000040240600D002080B584B0A3
:1018800000AF78607B681B7F012B0DD10021786849
:1018900007F06CFBF860234B01221A707B681B6811
:1018A000FA6802F663225A637B681B7F022B0ED113
:1018B0000421786807F05AFBF8601B4B01221A706C
:1018C0007B681A68FB6803F51153263393637B68C2
:1018D0001B7F042B0ED10821786807F047FBF860C6
:1018E000124B01221A707B681A68FB6803F50C43DF
:1018F000A033D3637B681B7F082B0FD10C21786842
:1019000007F034FBF8600A4B01221A707B681A68F2
:10191000FB6803F5823303F5DC73136400BF1037F3
:10192000BD4680BD610D0020620D0020630D0020CA
:10193000640D002080B582B000AF0346FB80FB88B9
:10194000B3F5807F02D1034806F0A8FD00BF083739
:10195000BD4680BDD40C002080B400AF074B93F986
:101960000030012B04D1054B00221A70012300E046
:1019700000231846BD465DF8047B7047600D0020CB
:1019800080B588B000AF786007F10C007B680B4A27
:10199000142109F081FE07F10C031846FEF780FCC4
:1019A00003469AB207F10C014FF0FF33044807F0E9
:1019B000DAFE00BF2037BD4680BD00BF20DA000838
:1019C0001C0D002080B59CB002AF002218491948B8
:1019D00005F09AFE00221849164805F077FF144BCF
:1019E0001B781A46124B5B781946114B9B7807F10E
:1019F000340000930B46114909F082FE0E4B9B7890
:101A00001A460D4B5B7819460B4BDB783846009332
:101A10000B460B4909F074FE3B4607F134020949B5
:101A2000094809F06DFE084B18466837BD4680BD71
:101A3000680D0020840B00207C0D002034DA0008A3
:101A400044DA000854DA0008800D002080B5ADF5B6
:101A5000086D02AF02F0A6FF00F06EF900F07CFC0A
:101A600000F0D4F900F024FA00F050FA00F0D6FAB1
:101A700000F00AFB00F046FC00F0FCFB00F01EFC4E
:101A800000F058FB08F0E4F900F06EFA9648FFF712
:101A90007FFE9648FFF760FD9548FFF73BFA9548B3
:101AA000FFF748FA944800F0F1FC944800F0FEFC7F
:101AB0008E4806F099FC01F077FAFFF777FD904821
:101AC00001F078FA01F020FB8E48FFF79DFE01F04F
:101AD0007DFB03461846FFF753FF8B48FFF794FE44
:101AE00001F03EFB03461846FFF74AFF8748FFF721
:101AF0008BFE012387F86F383C217B4806F05CFFA2
:101B00000021834806F0B4FD0421814806F0B0FDB1
:101B100008217F4806F0ACFD0C217D4806F0A8FDA9
:101B200097F86F38002B00F0DB80002387F87738B8
:101B3000784B93F90030012B07D100F04DFF754B26
:101B400000221A70012387F87738734B93F900301D
:101B5000012B07D1704B00221A7000F09DFF01236A
:101B600087F877386D4B93F90030012B07D16B4B19
:101B700000221A7000F0F0FF012387F87738684BD5
:101B800093F90030012B07D1654B00221A7001F048
:101B900043F8012387F8773897F87738002B00F05F
:101BA0009F80FFF70FFFC7F8680807F67803A3F6D2
:101BB000140300221A60043340F2FC72002118461C
:101BC00009F0B0FE012387F8763807F16400D7F8F2
:101BD0006838544A4FF4006109F05EFD0023C7F8ED
:101BE000703854E0504AD7F870385B0113441C3306
:101BF0001B78002B16D04C4AD7F870385B01134481
:101C000018331B681846FEF7B7FC02460B463846E9
:101C1000CDE90023454A642109F03EFD002387F801
:101C2000763805E03B46424A6421184609F034FD07
:101C300007F164031846FEF733FB0346C3F5FF6361
:101C40000733394607F164001A4609F073FED7F8E6
:101C50007038092B0EDC07F164031846FEF720FBF1
:101C60000346C3F5FF63073307F164001A463149A1
:101C700009F060FE2C4AD7F870385B0113441C331E
:101C800000221A70D7F870380133C7F87038D7F8C7
:101C900070380A2BA6DD07F164031846FEF700FB37
:101CA0000346C3F5FF63073307F164001A4617497B
:101CB00009F040FE97F8763883F00103DBB2002B81
:101CC00005D007F1640319460D4801F08BF90C4863
:101CD00001F0DAF9C7F86408D7F86408FFF794FD53
:101CE00001F03AF91CE700BFFC0B00208C0C00202F
:101CF000940A0020300B00201C0D0020840B0020D3
:101D0000040E00205CDA000864DA000870DA0008CB
:101D1000440C0020610D0020620D0020630D0020A6
:101D2000640D002074DA00080000002078DA000852
:101D30007CDA000880DA000880B594B000AF07F1C3
:101D4000200330220021184609F0ECFD07F10C03B6
:101D500000221A605A609A60DA601A610023BB6040
:101D6000284B1B6C274A43F080531364254B1B6C94
:101D700003F08053BB60BB6800237B60224B1B6871
:101D8000214A43F4404313601F4B1B6803F4404354
:101D90007B607B680A233B620123FB6210233B6369
:101DA00001237B630223BB630023FB6308233B64A3
:101DB00050237B640223BB640423FB6407F12003EC
:101DC000184604F049FE0346002B01D000F054FBF6
:101DD0000F23FB6002233B6100237B614FF48053A0
:101DE000BB610023FB6107F10C030221184605F0DB
:101DF000ABF80346002B01D000F03EFB00BF50378C
:101E0000BD4680BD003802400070004080B584B0FF
:101E100000AF3B4600221A605A609A60DA60214B9C
:101E2000214A1A601F4B4FF480325A601D4B00222A
:101E30009A601C4B00221A611A4B00221A76194B29
:101E4000002283F82020174B0022DA62154B174A34
:101E50009A62144B0022DA60124B0122DA61114BB4
:101E6000002283F830200F4B01225A610D4802F006
:101E70002FFE0346002B01D000F0FEFA00233B604A
:101E800001237B600223BB603B461946054802F0F4
:101E9000AFFF0346002B01D000F0EEFA00BF103771
:101EA000BD4680BD940A0020002001400100000FC3
:101EB00080B500AF124B134A1A60114B124A5A6098
:101EC0000F4B00229A600E4B0022DA600C4B4FF44D
:101ED00080421A610A4B00225A61094B00229A6122
:101EE000074B0022DA61064B00221A62044803F015
:101EF0008DFC0346002B01D000F0BEFA00BF80BD70
:101F0000DC0A002000540040A086010080B500AF2C
:101F1000124B134A1A60114B124A5A600F4B00229F
:101F20009A600E4B0022DA600C4B4FF480421A612B
:101F30000A4B00225A61094B00229A61074B00228A
:101F4000DA61064B00221A62044803F05FFC034684
:101F5000002B01D000F090FA00BF80BD300B0020B4
:101F600000580040A086010080B586B000AF3B1D40
:101F700000221A605A609A60DA601A6100233B609E
:101F8000244B254A1A60234B00225A60214B7F22A2
:101F90009A60204BFF22DA601E4B00221A611D4B13
:101FA00000225A611B4B00229A611A4805F09CFAE4
:101FB0000346002B01D000F05FFA01233B710023A0
:101FC0007B710023BB7100233B6100237B613B1DC0
:101FD000012219460F4805F0FDFA0346002B01D0F7
:101FE00000F04AFA03233B7012237B700623BB7078
:101FF0002323FB703B4601221946064805F0E2FB0D
:102000000346002B01D000F037FA00BF1837BD4659
:1020100080BD00BF840B00200028004080B500AFC9
:10202000174B184A1A60164B4FF482725A60144BC1
:1020300000229A60124B0022DA60114B00221A61D2
:102040000F4B00225A610E4B4FF400729A610C4BF9
:102050002022DA610A4B00221A62094B00225A62DE
:10206000074B00229A62064B0A22DA62044805F006
:1020700039FD0346002B01D000F0FEF900BF80BD02
:10208000A40B00200030014080B58CB000AF07F1F8
:102090000C0324220021184609F044FC3B1D0022B9
:1020A0001A605A60214B224A1A60204B01225A6062
:1020B0001E4B00229A601D4B2822DA601B4B002227
:1020C0001A611A4B00225A61184B00229A610123AF
:1020D000FB6000233B6101237B610023BB610F2375
:1020E000FB6100233B6201237B620023BB620F2361
:1020F000FB6207F10C0319460C4806F0B7FB0346D8
:10210000002B01D000F0B8F900237B600023BB60F6
:102110003B1D1946054807F057FA0346002B01D02E
:1021200000F0AAF900BF3037BD4680BDFC0B00208F
:102130000000014080B58EB000AF07F128030022F7
:102140001A605A609A60DA6007F1200300221A6070
:102150005A603B1D00221A605A609A60DA601A6168
:102160005A619A61414B4FF080421A603F4B42F6F0
:10217000E0625A603D4B00229A603C4B4FF0FF32C8
:10218000DA603A4B00221A61384B00229A613748D4
:1021900006F0DAF80346002B01D000F06DF94FF499
:1021A0008053BB6207F128031946304806F016FE3B
:1021B0000346002B01D000F05FF92C4806F0FFF930
:1021C0000346002B01D000F057F900233B620023A7
:1021D0007B6207F120031946244807F0F5F903460E
:1021E000002B01D000F048F930237B6041F6032337
:1021F000BB600023FB6000237B613B1D002219466E
:102200001A4806F08FFD0346002B01D000F034F988
:1022100043F2BC43BB603B1D04221946134806F041
:1022200081FD0346002B01D000F026F948F6A043BB
:10223000BB603B1D082219460C4806F073FD03469F
:10224000002B01D000F018F9094BBB603B1D0C229C
:102250001946064806F066FD0346002B01D000F043
:102260000BF900BF3837BD4680BD00BF440C0020CD
:10227000B805010080B500AF0E4B0F4A1A600D4B38
:102280004F225A600B4B00229A600A4B4FF6FF72A6
:10229000DA60084B00221A61064B00229A61054859
:1022A00006F052F80346002B01D000F0E5F800BF1D
:1022B00080BD00BF8C0C00200044014080B500AF01
:1022C0000E4B0F4A1A600D4B0A225A600B4B00222C
:1022D0009A600A4B4FF6FF72DA60084B00221A61CF
:1022E000064B00229A61054806F02EF80346002BA3
:1022F00001D000F0C1F800BF80BD00BFD40C0020A9
:102300000048014080B500AF114B124A1A60104BD3
:102310004FF4E1325A600E4B00229A600C4B0022BF
:10232000DA600B4B00221A61094B0C225A61084BF0
:1023300000229A61064B0022DA61054807F0C6F9CF
:102340000346002B01D000F097F800BF80BD00BF0E
:102350001C0D00200014014080B588B000AF07F1CB
:102360000C0300221A605A609A60DA601A61002336
:10237000BB603E4B1B6B3D4A43F0010313633B4B79
:102380001B6B03F00103BB60BB6800237B60374B12
:102390001B6B364A43F002031363344B1B6B03F091
:1023A00002037B607B68002248F21001304803F092
:1023B000FBF9012202212F4803F0F6F9002243F233
:1023C00018012C4803F0F0F948F21003FB600123D8
:1023D0003B6100237B610023BB6107F10C031946BD
:1023E000234803F045F80223FB6011233B610123DE
:1023F0007B610023BB6107F10C0319461D4803F004
:1024000037F80423FB6000233B6102237B6107F163
:102410000C031946174803F02BF843F21803FB602E
:1024200001233B6100237B610023BB6107F10C03A7
:102430001946104803F01CF84FF48073FB604FF40A
:1024400004133B6100237B6107F10C031946094823
:1024500003F00EF800220021172002F0D2FF17200F
:1024600002F0EBFF00BF2037BD4680BD00380240C0
:10247000000002400004024080B500AF72B600BF09
:102480000148FFF7C1F9FBE784DA000880B483B0A4
:1024900000AF7860044A7B68136000BF0C37BD460C
:1024A0005DF8047B704700BFE80D002080B483B066
:1024B00000AF7860044A7B68136000BF0C37BD46EC
:1024C0005DF8047B704700BFEC0D002080B582B042
:1024D00000AF0346FB710B46BB711346BB8038212E
:1024E000002002F015FAFB791BB21846FFF760F9DD
:1024F000034683F00103DBB20B4A06CA0B4802F025
:10250000E1F9FB791BB21846FFF765F90346002B8A
:1025100005D00020FFF71CF9054ABB79137000BFF6
:102520000837BD4680BD00BF6C08002098DA00085F
:10253000E40D002090B585B000AF78600023FB600B
:1025400031E0FB68DBB21A46920013445B00DBB259
:102550001946002002F0DCF9FB681BB21846FFF7B1
:102560003AF90346002B07D07B68FA68013213F86A
:102570003220124B1A701CE07A68FB680133DB00D2
:1025800013445C68FB681BB21846FFF711F9034659
:1025900083F00103DBB20A4A06CA204602F092F930
:1025A000FB680133FB607B685B68FA689A42C8DBB2
:1025B00000BF00BF1437BD4690BD00BFE40D002032
:1025C0007408002080B584B000AF7860042100203A
:1025D000FFF7A4F87868FFF7ADFFFFF7CBF8F860D6
:1025E00007F10803FA680F49184609F089F82C2109
:1025F000002002F08DF90C4A07F10800012306CAF9
:1026000002F060F93621002002F082F9FFF7DAF9D2
:10261000054A012306CA02F055F900BF1037BD462E
:1026200080BD00BFA0DA00087408002080B582B029
:1026300000AF786003210020FFF770F87868FFF79B
:1026400079FF012200210320FFF740FF00BF083778
:10265000BD4680BD80B582B000AF7860012100200A
:10266000FFF75CF80021002002F052F9424A0123F2
:1026700006CA424802F026F90021462002F048F935
:102680003F4B1B7883F00103DBB2002B23D03A4A87
:10269000012306CA3B4802F015F90A21002002F086
:1026A00037F9394B1B78DBB2184600F0C7FD324AC8
:1026B000012306CA02F006F91421002002F028F9CD
:1026C0002D4A012306CA314802F0FCF81E210020E1
:1026D00002F01EF947E0284A012306CA2C4802F0FE
:1026E000F1F80A21002002F013F9234A012306CA57
:1026F000284802F0E7F80020FFF75AF80346002BBD
:1027000014D00020FFF767F80346002B0ED0224BB1
:102710001B78DBB283F00103DBB2002B03D01E4B2E
:1027200001221A7002E01C4B00221A700A214B2071
:1027300002F0EEF8184B1B78DBB2002B01D0174BE0
:1027400000E0174B1A461749174808F0D9FF002038
:10275000FFF72EF8034683F00103DBB2064A06CAF0
:10276000114802F0AFF8002200210120FFF7AEFE71
:1027700000BF0837BD4680BD74080020A4DA0008F9
:10278000F0960120B0DA0008DC960120B8DA0008E3
:10279000C8DA0008CCDA0008F00D0020D8DA00080A
:1027A000E0DA0008E8DA0008F40D002080B582B015
:1027B00000AF786004210020FEF7B0FF7868FFF7D3
:1027C000B9FE042200210420FFF780FE00BF083775
:1027D000BD4680BD80B582B000AF78600421002086
:1027E000FEF79CFF7868FFF7A5FE04220021042075
:1027F000FFF76CFE00BF0837BD4680BD80B582B0D4
:1028000000AF786001210020FEF788FF7868FFF7AD
:1028100091FE032200210320FFF758FE00BF083776
:10282000BD4680BD80B588B000AF0346FB71FB7923
:102830005B014E4A98184E4A012306CA02F042F83C
:102840001221002002F064F80020FEF7B1FF0346D9
:10285000002B1FD00020FEF7BEFF0346002B19D02F
:10286000FB79424A5B01134414331B7883F0010364
:10287000DBB2002B07D0FB793C4A5B0113441433D5
:1028800001221A7006E0FB79384A5B0113441433C5
:1028900000221A70FB79354A5B01134414331B780C
:1028A000002B01D0334A00E0334A07F10C033349CF
:1028B000184608F025FF0020FEF77AFF034683F054
:1028C0000103DBB22E4A07F10C0006CA01F0FAFF41
:1028D0001C21002002F01CF8294A012306CA2948BD
:1028E00001F0F0FF1C215A2002F012F8FB791F4A78
:1028F0005B01134416331B881A462349234808F00A
:10290000FFFE0120FEF754FF034683F00103DBB214
:102910001B4A06CA1D4801F0D5FF0120FEF748FFFB
:102920000346002B1ED00120FEF755FF0346002B67
:1029300018D0174B1B680133154A1360144B1B68E2
:10294000042B02DD124B01221A60114B1B685A1E28
:10295000FB79104931F81210044A5B011344163315
:102960000A461A8000BF2037BD4680BD0000002007
:102970007C080020D8DA0008E0DA0008ECDA000869
:1029800074080020F8DA000808DB00087002002054
:10299000FC0D00206802002080B582B000AF786096
:1029A00002210020FEF7BAFE0021002001F0B0FF56
:1029B000084B1B78DBB20A3BDBB21846FFF732FF4D
:1029C000022200210220FFF781FD00BF0837BD462B
:1029D00080BD00BFE40D002080B582B000AF0023B1
:1029E0007B604AE0294A7B685B01134416331B88ED
:1029F0000A2B3FD1254A7B685B01134414331B78B3
:102A0000002B37D000233B6031E07B685B011F4A1D
:102A100098183A6813465B001344DB001C4A1344C1
:102A20001946FDF7DDFB0346002B1DD118493A6816
:102A300013465B001344DB000B4414331B689847B8
:102A4000F0EE407A134BC3ED007A124B1A680F492F
:102A50007B685B010B4418331A600C4A7B685B018E
:102A600013441C3301221A703B6801333B603B68FE
:102A70000A2BCAD97B6801337B607B680A2BB1DDE6
:102A800000BF00BF0837BD4680BD00BF000000206A
:102A900060010020000E002080B582B000AF00234E
:102AA0007B604AE0294A7B685B01134416331B882C
:102AB000322B3FD1254A7B685B01134414331B78CA
:102AC000002B37D000233B6031E07B685B011F4A5D
:102AD00098183A6813465B001344DB001C4A134401
:102AE0001946FDF77DFB0346002B1DD118493A68B6
:102AF00013465B001344DB000B4414331B689847F8
:102B0000F0EE407A134BC3ED007A124B1A680F496E
:102B10007B685B010B4418331A600C4A7B685B01CD
:102B200013441C3301221A703B6801333B603B683D
:102B30000A2BCAD97B6801337B607B680A2BB1DD25
:102B400000BF00BF0837BD4680BD00BF00000020A9
:102B500060010020000E002080B582B000AF00238D
:102B60007B604AE0294A7B685B01134416331B886B
:102B7000642B3FD1254A7B685B01134414331B78D7
:102B8000002B37D000233B6031E07B685B011F4A9C
:102B900098183A6813465B001344DB001C4A134440
:102BA0001946FDF71DFB0346002B1DD118493A6855
:102BB00013465B001344DB000B4414331B68984737
:102BC000F0EE407A134BC3ED007A124B1A680F49AE
:102BD0007B685B010B4418331A600C4A7B685B010D
:102BE00013441C3301221A703B6801333B603B687D
:102BF0000A2BCAD97B6801337B607B680A2BB1DD65
:102C000000BF00BF0837BD4680BD00BF00000020E8
:102C100060010020000E002080B582B000AF0023CC
:102C20007B604BE0294A7B685B01134416331B88A9
:102C3000B3F5FA7F3FD1254A7B685B011344143317
:102C40001B78002B37D000233B6031E07B685B01B1
:102C50001E4A98183A6813465B001344DB001C4A6E
:102C600013441946FDF7BCFA0346002B1DD1184941
:102C70003A6813465B001344DB000B4414331B68B3
:102C80009847F0EE407A134BC3ED007A114B1A6867
:102C90000E497B685B010B4418331A600B4A7B6852
:102CA0005B0113441C3301221A703B6801333B6003
:102CB0003B680A2BCAD97B6801337B607B680A2B8F
:102CC000B0DD00BF00BF0837BD4680BD000000205A
:102CD00060010020000E002080B58CB000AF78604D
:102CE00001210020FEF71AFD0021002001F010FE56
:102CF000FEF794FA10EE103A1846FDF73DFC024636
:102D00000B4607F108003B4908F0FAFC3A4A07F184
:102D10000800012306CA01F0D5FD0A21002001F0B8
:102D2000F7FDFEF7B1FA10EE103A1846FDF724FC55
:102D300002460B4607F10800304908F0E1FC2E4A34
:102D400007F10800012306CA01F0BCFD1421002090
:102D500001F0DEFDFEF7CEFA10EE103A1846FDF750
:102D60000BFC02460B4607F10800254908F0C8FC99
:102D7000214A07F10800012306CA01F0A3FD1E2124
:102D8000002001F0C5FDFEF7EBFA10EE103A1846F0
:102D9000FDF7F2FB02460B4607F10800194908F05F
:102DA000AFFC154A07F10800012306CA01F08AFDAD
:102DB0003221002001F0ACFDFEF74AFB10EE103A84
:102DC0001846FDF7D9FB02460B4607F108000E49ED
:102DD00008F096FC084A07F10800012306CA01F032
:102DE00071FD012200210120FFF770FB00BF303789
:102DF000BD4680BD10DB00087408002020DB000801
:102E000030DB000840DB000850DB000880B58CB0E8
:102E100000AF7860FEF7C2F810EE103A1846FDF7E2
:102E2000ABFB02460B4607F10800314908F068FC8D
:102E30000021002001F06CFD2E4A07F1080001235B
:102E400006CA01F03FFD0A21002001F061FDFEF7F6
:102E5000F5F810EE103A1846FDF78EFB02460B46C9
:102E600007F10800244908F04BFC224A07F108004A
:102E7000012306CA01F026FD1421002001F048FDBF
:102E8000FEF72CF910EE103A1846FDF775FB0246D6
:102E90000B4607F10800194908F032FC154A07F102
:102EA0000800012306CA01F00DFD1E21002001F0DB
:102EB0002FFDFEF763F910EE103A1846FDF75CFBA4
:102EC00002460B4607F108000D4908F019FC094AB3
:102ED00007F10800012306CA01F0F4FC01220021D9
:102EE0000120FFF7F3FA00BF3037BD4680BD00BFB9
:102EF00060DB00087408002070DB000880DB00083D
:102F000090DB000880B584B000AF78600B23BB6015
:102F10000023FB6010E00F4AFB685B01134414338D
:102F200001221A700B4AFB685B01134416330A2214
:102F30001A80FB680133FB60FA68BB689A42EADBDF
:102F4000012200210120FFF7C1FA00BF1037BD4662
:102F500080BD00BF0000002080B500AF002001F060
:102F600089FB0F4B1B78DBB219460E4A0B46DB0080
:102F70000B44DB0013441A68094B1B78DBB219467B
:102F80000B46DB000B44DB0006490B441846904718
:102F900001F094FB012001F077FD00BF80BD00BF70
:102FA000E40D00207C02002080B500AF01F0F8FAAB
:102FB00000BF80BD80B483B000AF78607B6803F54C
:102FC000C0331A460023C2F8A0367B6803F5C0332D
:102FD0001A460023C2F8A43600BF0C37BD465DF880
:102FE000047B704780B582B000AF786039607B6841
:102FF00003F5C033D3F8A0364FF47A7202FB03F323
:103000007A6813444FF47A723968184608F0A5FCC0
:103010007B6803F5C033D3F8A0365A1C194B83FBE9
:1030200002135911D317CB1A642101FB03F3D31AEE
:103030007A6802F5C032C2F8A0367B6803F5C03367
:10304000D3F8A0267B6803F5C033D3F8A4369A42A0
:1030500014D17B6803F5C033D3F8A4365A1C094B4E
:1030600083FB02135911D317CB1A642101FB03F31D
:10307000D31A7A6802F5C032C2F8A43600BF083706
:10308000BD4680BD1F85EB5180B584B000AF786030
:103090007B6803F5C033D3F8A0267B6803F5C03303
:1030A000D3F8A4369A4204D1154808F0EDFA00236B
:1030B00021E07B6803F5C033D3F8A4364FF47A726D
:1030C00002FB03F37A681344FB607B6803F5C033AB
:1030D000D3F8A4365A1C0B4B83FB02135911D31798
:1030E000CB1A642101FB03F3D31A7A6802F5C032CC
:1030F000C2F8A436FB6818461037BD4680BD00BF35
:10310000B4DC00081F85EB5180B500AF01220E49E9
:103110000E4807F0E5FB03461A460D4B1A700C4BA0
:103120001B78DBB2002B06D10A4B01221A700A4829
:10313000FEF76AFB05E0074B00221A700748FEF70E
:1031400063FB00BF80BD00BFCCDC0008AC94012055
:10315000DC960120F0960120D0DC0008E4DC0008B9
:1031600080B500AF134B1B78002B20D0124A1349B7
:10317000134807F0FBFB104B1B685B891A460F4B8B
:103180001B6802FB03F31846FDF7D4F94FF0000269
:103190000C4BFDF749FA02460B4610461946FDF75F
:1031A0001BFD0346084A1360074B1B6800E0002321
:1031B000184680BDF0960120E0960120E49601209B
:1031C000C8DC00080000E03FEC96012080B500AFAD
:1031D000144B1B78002B21D0134A1449144807F0D4
:1031E000C5FB114B1B685B69023B0F4A1268528991
:1031F00002FB03F31846FDF79DF94FF000020D4B5B
:10320000FDF712FA02460B4610461946FDF7E4FC9C
:103210000346094A1360084B1B6800E00023184668
:1032200080BD00BFF0960120E0960120E4960120C9
:10323000C8DC00080000E03FE896012080B483B0BD
:1032400000AF0346FB71FB79132B53D801A252F850
:1032500023F000BFA5320008A9320008AD320008F3
:10326000B1320008B5320008B9320008BD3200089A
:10327000C1320008C5320008C9320008CD3200084A
:10328000D1320008D5320008D9320008DD320008FA
:10329000E1320008E5320008E9320008ED320008AA
:1032A000F1320008174B26E0174B24E0174B22E0C1
:1032B000174B20E0174B1EE0174B1CE0174B1AE092
:1032C000174B18E0174B16E0174B14E0174B12E0A2
:1032D000174B10E0174B0EE0174B0CE0174B0AE0B2
:1032E000174B08E0174B06E0174B04E0174B02E0C2
:1032F000174B00E0174B18460C37BD465DF8047BB2
:10330000704700BF54DD00085CDD000868DD000880
:1033100074DD000884DD000890DD00089CDD0008F5
:10332000ACDD0008B8DD0008C4DD0008D8DD000809
:10333000ECDD000800DE000810DE000824DE0008D6
:1033400034DE000840DE00084CDE000860DE0008C5
:1033500078DE000890DE000880B483B000AF002360
:103360007B60104B5B6C0F4A43F4804353640D4BFE
:103370005B6C03F480437B607B6800233B60094BFC
:103380001B6C084A43F080531364064B1B6C03F01C
:1033900080533B603B6800BF0C37BD465DF8047B43
:1033A000704700BF0038024080B58AB000AF786037
:1033B00007F1140300221A605A609A60DA601A61F9
:1033C0007B681B68174A934227D100233B61164B49
:1033D0005B6C154A43F480735364134B5B6C03F4CA
:1033E00080733B613B690023FB600F4B1B6B0E4AF4
:1033F00043F0010313630C4B1B6B03F00103FB60F1
:10340000FB680F237B610323BB610023FB6107F192
:1034100014031946054802F02BF800BF2837BD46B3
:1034200080BD00BF00200140003802400000024083
:1034300080B58CB000AF786007F11C0300221A60E1
:103440005A609A60DA601A617B681B683B4A934253
:103450002CD10023BB613A4B1B6B394A43F002036A
:103460001363374B1B6B03F00203BB61BB69C023C3
:10347000FB6112233B6200237B620323BB620423B4
:10348000FB6207F11C0319462E4801F0F1FF0023EF
:103490007B612B4B1B6C2A4A43F400131364284BAB
:1034A0001B6C03F400137B617B6942E07B681B6843
:1034B000254A93423DD100233B61214B1B6B204A9F
:1034C00043F0020313631E4B1B6B03F002033B61CB
:1034D0003B694FF48063FB6112233B6200237B62F4
:1034E0000323BB620423FB6207F11C031946154842
:1034F00001F0BEFF4FF40073FB6112233B62002317
:103500007B620323BB620923FB6207F11C0319469C
:103510000C4801F0ADFF0023FB60094B1B6C084A0F
:1035200043F480031364064B1B6C03F48003FB60BD
:10353000FB6800BF3037BD4680BD00BF005400406F
:1035400000380240000402400058004080B588B0B6
:1035500000AF786007F1080300221A605A609A6091
:10356000DA601A615A617B681B680C4A934211D178
:103570000223BB604FF40073BB6107F108031846D8
:1035800003F0C2FE0346002B01D0FEF775FF044B8B
:1035900001221A6000BF2037BD4680BD00280040D0
:1035A0003C0E474280B58AB000AF786007F1140343
:1035B00000221A605A609A60DA601A617B681B68A0
:1035C000214A93423BD100233B61204B5B6C1F4A55
:1035D00043F4805353641D4B5B6C03F480533B6195
:1035E0003B690023FB60194B1B6B184A43F0010336
:1035F0001363164B1B6B03F00103FB60FB68202376
:103600007B610223BB610023FB6103233B62052333
:103610007B6207F1140319460D4801F029FFC0230E
:103620007B610223BB610123FB6103233B62052312
:103630007B6207F114031946054801F019FF00BF2A
:103640002837BD4680BD00BF003001400038024031
:103650000000024080B58AB000AF786007F1140323
:1036600000221A605A609A60DA601A617B681B68EF
:10367000214A93423CD100233B61204B5B6C1F4AA3
:1036800043F0010353641D4B5B6C03F001033B618A
:103690003B690023FB60194B1B6B184A43F0010385
:1036A0001363164B1B6B03F00103FB60FB684FF4C5
:1036B00040737B610223BB610023FB6100233B62FB
:1036C00001237B6207F1140319460D4801F0D0FE77
:1036D00000220021192001F094FE192001F0ADFE16
:1036E000002200211A2001F08CFE1A2001F0A5FE14
:1036F00000BF2837BD4680BD0000014000380240B1
:103700000000024080B586B000AF78607B681B681F
:10371000B3F1804F16D100237B61284B1B6C274AE5
:1037200043F001031364254B1B6C03F001037B6121
:103730007B69002200211C2001F063FE1C2001F0A7
:103740007CFE36E07B681B681D4A934216D100233D
:103750003B611A4B5B6C194A43F400335364174BBB
:103760005B6C03F400333B613B69002200211920AC
:1037700001F047FE192001F060FE1AE07B681B682B
:10378000104A934215D10023FB600C4B5B6C0B4A33
:1037900043F480235364094B5B6C03F48023FB6088
:1037A000FB68002200211A2001F02BFE1A2001F0F4
:1037B00044FE00BF1837BD4680BD00BF0038024040
:1037C000004401400048014080B58AB000AF7860F5
:1037D00007F1140300221A605A609A60DA601A61D5
:1037E0007B681B68194A93422CD100233B61184B1C
:1037F0005B6C174A43F020035364154B5B6C03F07A
:1038000020033B613B690023FB60114B1B6B104A9B
:1038100043F0010313630E4B1B6B03F00103FB60CA
:10382000FB684FF4C0537B610223BB610023FB6143
:1038300003233B6208237B6207F114031946054802
:1038400001F016FE00BF2837BD4680BD00140140C0
:10385000003802400000024080B400AF0E4B1B78DD
:10386000DBB2002B06D00C4B1B78DBB2013BDAB28B
:10387000094B1A70094B1B78DBB2002B06D0074BA3
:103880001B78DBB2013BDAB2044B1A7000BFBD46B5
:103890005DF8047B704700BFF2960120F39601208B
:1038A00080B400AFFEE780B400AFFEE780B400AFA5
:1038B000FEE780B400AFFEE780B400AFFEE780B45F
:1038C00000AF00BFBD465DF8047B704780B400AF19
:1038D00000BFBD465DF8047B704780B400AF00BFF9
:1038E000BD465DF8047B704780B500AF0A4B1B787E
:1038F000DBB20133DAB2084B1A70074B1B78DBB22C
:10390000092B04D9044B00221A70FFF7A5FF01F020
:103910009BF800BF80BD00BFF196012080B500AFCD
:103920004FF4807001F05AFF00BF80BD80B500AF3A
:10393000034805F0EFF8034805F0ECF800BF80BD40
:10394000FC0B00208C0C002080B500AF034805F074
:10395000E1F8034805F0DEF800BF80BDFC0B002055
:10396000D40C002080B500AF024805F0D3F800BFAA
:1039700080BD00BF440C002080B400AF0123184676
:10398000BD465DF8047B704780B582B000AF7860BB
:10399000396008F03FF8034616221A604FF0FF33F3
:1039A00018460837BD4680BD80B582B000AF78604C
:1039B0004FF0FF317868FFF7E7FFFEE780B586B08C
:1039C00000AFF860B9607A6000237B610AE0AFF372
:1039D00000800146BB685A1CBA60CAB21A707B6983
:1039E00001337B617A697B689A42F0DB7B68184619
:1039F0001837BD4680BD80B586B000AFF860B960AD
:103A00007A6000237B6109E0BB685A1CBA601B78AE
:103A10001846AFF300807B6901337B617A697B686C
:103A20009A42F1DB7B6818461837BD4680BD80B4EA
:103A300083B000AF78604FF0FF3318460C37BD46B7
:103A40005DF8047B704780B483B000AF7860396064
:103A50003B684FF400525A60002318460C37BD46AD
:103A60005DF8047B704780B483B000AF78600123B9
:103A700018460C37BD465DF8047B704780B485B0AE
:103A800000AFF860B9607A60002318461437BD466D
:103A90005DF8047B7047000080B586B000AF7860A9
:103AA000144A154BD31A7B617B693B61134B1B682E
:103AB000002B02D1114B124A1A60104B1A687B6816
:103AC00013443A699A4207D207F0A4FF03460C2236
:103AD0001A604FF0FF3309E0084B1B68FB60074B8F
:103AE0001A687B681344054A1360FB681846183748
:103AF000BD4680BD0000022000040000F4960120B5
:103B0000989C012080B400AF064BD3F88830054A5A
:103B100043F47003C2F8883000BFBD465DF8047BF3
:103B2000704700BF00ED00E080B582B000AF786064
:103B300000F09EFF0346044A1360044A7B6813604A
:103B400000BF0837BD4680BDFC96012000970120CC
:103B500080B500AF00F08CFF0246064B1B68D21AFE
:103B6000054B1B689A4234BF01230023DBB2184681
:103B700080BD00BFFC9601200097012080B586B073
:103B800002AF0346FB7107F10F02F91D32230093C8
:103B90000123044804F06BF9FB7B18461037BD463F
:103BA00080BD00BFA40B002090B585B000AF786049
:103BB00039600023FB600AE07A68FB68D418FF20B4
:103BC000FFF7DCFF03462370FB680133FB60FA68F4
:103BD0003B689A42F0D300BF00BF1437BD4690BD8A
:103BE00080B582B000AF786039603B689AB24FF020
:103BF000FF337968034803F0FEFF00BF0837BD4676
:103C000080BD00BFA40B002080B586B000AF7860F7
:103C100000F02EFF78617B683B61FF20FFF7AEFF6D
:103C20000346FB73FB7BFF2B07D000F021FF02460E
:103C30007B69D31A3A699A42EFD8FB7BFF2B0CBF02
:103C400001230023DBB218461837BD4680BD0000B3
:103C500080B500AF01221021034801F0A5FDFF202F
:103C6000FFF78CFF00BF80BD0000024080B500AFB1
:103C700000221021094801F097FDFF20FFF77EFF89
:103C80004FF4FA70FFF7C0FF0346002B01D0012369
:103C900002E0FFF7DDFF0023184680BD0000024070
:103CA00080B584B000AF78603960C820FFF73CFF72
:103CB000FF20FFF763FF0346FB73FB7BFF2B04D161
:103CC000FFF746FF0346002BF2D1FB7BFE2B01D012
:103CD00000230AE039687868FFF766FFFF20FFF7E6
:103CE0004DFFFF20FFF74AFF012318461037BD465E
:103CF00080BD80B584B000AF78600B46FB704FF498
:103D0000FA70FFF781FF0346002B01D100231EE06C
:103D1000FB781846FFF732FFFB78FD2B16D04FF4E7
:103D200000717868FFF75CFFFF20FFF727FFFF2097
:103D3000FFF724FFFF20FFF721FF0346FB73FB7B08
:103D400003F01F03052B01D0002300E001231846D8
:103D50001037BD4680BD80B584B000AF03463960E2
:103D6000FB7197F90730002B0EDAFB7903F07F0324
:103D7000FB7100213720FFF7EEFF0346BB73BB7BCF
:103D8000012B01D9BB7B51E0FB790C2B08D0FFF74D
:103D90005FFFFFF76BFF0346002B01D1FF2345E0D8
:103DA000FB7943F04003DBB21846FFF7E7FE3B68C0
:103DB0001B0EDBB21846FFF7E1FE3B681B0CDBB2C3
:103DC0001846FFF7DBFE3B681B0ADBB21846FFF71D
:103DD000D5FE3B68DBB21846FFF7D0FE0123FB732C
:103DE000FB79002B01D19523FB73FB79082B01D1C3
:103DF0008723FB73FB7B1846FFF7C0FEFB790C2B78
:103E000002D1FF20FFF7BAFE0A23FB73FF20FFF762
:103E1000B5FE0346BB7397F90E30002B05DAFB7B2A
:103E2000013BFB73FB7B002BF0D1BB7B18461037AB
:103E3000BD4680BD90B585B000AF0346FB71FB79F0
:103E4000002B01D00123D6E06D4B1B78DBB203F0D1
:103E50000203002B03D06A4B1B78DBB2CBE0694B2B
:103E60001B681B6823F03802664B1B6842F0300267
:103E70001A600A23FB7305E0FF20FFF77FFEFB7B40
:103E8000013BFB73FB7B002BF6D100237B730021EE
:103E90000020FFF760FF0346012B40F08B804FF4BA
:103EA0007A70FFF741FE4FF4D5710820FFF753FFFA
:103EB0000346012B51D10023FB730DE0FC7BFF2057
:103EC000FFF75CFE03461A4604F110033B4403F877
:103ED000082CFB7B0133FB73FB7B032BEED9BB7AF6
:103EE000012B67D1FB7AAA2B64D100BFFFF730FE0C
:103EF0000346002B07D04FF08041A920FFF72BFF8E
:103F00000346002BF2D1FFF723FE0346002B51D0CE
:103F100000213A20FFF71FFF0346002B4AD1002360
:103F2000FB730DE0FC7BFF20FFF728FE03461A46DB
:103F300004F110033B4403F8082CFB7B0133FB73B3
:103F4000FB7B032BEED93B7A03F04003002B01D01F
:103F50000C2300E004237B732CE00021A920FFF751
:103F6000FAFE0346012B04D802237B73A923BB73FB
:103F700003E001237B730123BB7300BFFFF7E8FD60
:103F80000346002B07D0BB7B00211846FFF7E3FE5A
:103F90000346002BF2D1FFF7DBFD0346002B07D0D1
:103FA0004FF400711020FFF7D6FE0346002B01D01E
:103FB00000237B73144A7B7B1370FFF749FE7B7BE6
:103FC000002B12D00F4B1B681B6823F038020D4BDF
:103FD0001B6842F010021A60094B1B78DBB223F019
:103FE0000103DAB2064B1A7002E0054B01221A7087
:103FF000034B1B78DBB218461437BD4690BD00BF9B
:1040000068080020A40B0020F896012080B483B03B
:1040100000AF0346FB71FB79002B01D0012302E0C6
:10402000044B1B78DBB218460C37BD465DF8047BA9
:10403000704700BF6808002080B584B000AFB96049
:104040007A603B600346FB73FB7B002B02D13B682D
:10405000002B01D104234DE0284B1B78DBB203F089
:104060000103002B01D0032344E0254B1B7803F010
:104070000803002B02D17B685B027B603B68012B4D
:1040800011D179681120FFF766FE0346002B29D174
:104090004FF40071B868FFF703FE0346002B21D0F0
:1040A00000233B601EE079681220FFF754FE0346B0
:1040B000002B17D14FF40071B868FFF7F1FD0346EC
:1040C000002B0AD0BB6803F50073BB603B68013B63
:1040D0003B603B68002BEDD100E000BF00210C20CD
:1040E000FFF739FEFFF7B4FD3B68002B14BF012337
:1040F0000023DBB218461037BD4680BD680800209B
:10410000F896012080B584B000AFB9607A603B605A
:104110000346FB73FB7B002B02D13B68002B01D1D4
:10412000042363E0334B1B78DBB203F00103002B65
:1041300001D003235AE02F4B1B78DBB203F00403BA
:10414000002B01D0022351E02B4B1B7803F0080316
:10415000002B02D17B685B027B603B68012B10D196
:1041600079681820FFF7F7FD0346002B36D1FE21B2
:10417000B868FFF7BEFD0346002B2FD000233B603D
:104180002CE01D4B1B7803F00603002B03D039688D
:104190009720FFF7E0FD79681920FFF7DCFD034663
:1041A000002B1BD1FC21B868FFF7A3FD0346002BB1
:1041B0000AD0BB6803F50073BB603B68013B3B6002
:1041C0003B68002BEED100E000BFFD210020FFF78F
:1041D00090FD0346002B01D101233B60FFF738FD22
:1041E0003B68002B14BF01230023DBB218461037B5
:1041F000BD4680BD68080020F896012080B58CB0CF
:1042000000AF03463A60FB710B46BB71FB79002B94
:1042100001D004235AE1AF4B1B78DBB203F001035A
:10422000002B01D0032351E1012387F82F30BB7904
:10423000042B00F2368101A252F823F0514200080B
:1042400065420008A3440008114300080744000821
:10425000FFF70CFD0346002B00F02781002387F8B1
:104260002F3022E100210920FFF775FD0346002BC6
:1042700040F01D8107F10C0310211846FFF710FDD7
:104280000346002B00F013813B7B9B09DBB2012B23
:1042900011D17B7D1A463B7D1B0213441A46FB7CE1
:1042A0001B0403F47C1313440133FB61FB699A0282
:1042B0003B681A6028E07B7C03F00F03DAB2BB7D19
:1042C000DB09DBB21344DAB27B7D5B00DBB203F0C7
:1042D0000603DBB21344DBB2023387F82E303B7D9A
:1042E0009B09DBB21A46FB7C9B001A44BB7C9B02F9
:1042F00003F4406313440133FB6197F82E30093B0C
:10430000FA699A403B681A60002387F82F30CEE0A4
:10431000714B1B7803F00403002B31D000218D205A
:10432000FFF719FD0346002B40F0C380FF20FFF785
:1043300025FC07F10C0310211846FFF7B1FC0346DA
:10434000002B00F0B680302387F82E3007E0FF20E6
:10435000FFF714FC97F82E30013B87F82E3097F8C2
:104360002E30002BF3D1BB7D1B09DBB21A46102384
:1043700003FA02F23B681A60002387F82F3098E0B6
:1043800000210920FFF7E7FC0346002B40F0918055
:1043900007F10C0310211846FFF782FC0346002B9F
:1043A00000F087804C4B1B7803F00203002B12D0E7
:1043B000BB7D5B0003F07E03FA7DD209D2B21344C9
:1043C0005A1C7B7E9B09DBB2013B02FA03F31A46BF
:1043D0003B681A6013E0BB7D9B109BB203F01F0388
:1043E0000133FA7DD20002F01802F97D4909C9B201
:1043F0000A44013202FB03F31A463B681A600023A9
:1044000087F82F3055E0344B1B7803F00603002B60
:1044100051D007F10C02FB790B211846FFF7EEFE95
:104420000346002B49D13B7B9B09DBB2002B04D117
:10443000BB7D03F04003002B41D03B683B623B6AED
:104440001B68BB623B6A5B687B62234B1B7803F093
:104450000803002B05D1BB6A5B02BB627B6A5B026F
:104460007B62B96A2020FFF776FC0346002B28D137
:10447000796A2120FFF76FFC0346002B21D1002130
:104480002620FFF768FC0346002B1AD147F2305074
:10449000FFF7BAFB0346002B13D0002387F82F3019
:1044A0000FE0042387F82F300CE000BF0AE000BFC4
:1044B00008E000BF06E000BF04E000BF02E000BF6C
:1044C00000E000BFFFF7C4FB97F82F3018463037E5
:1044D000BD4680BD68080020F8960120DFF834D082
:1044E0000D480E490E4A002302E0D458C45004334C
:1044F000C4188C42F9D30B4A0B4C002301E0136023
:104500000432A242FBD3FFF7FDFA07F089FAFDF768
:104510009DFA70470000022000000020680A002079
:10452000F4FC0008680A0020989C0120FEE780B493
:1045300000AF00BFBD465DF8047B704780B586B014
:1045400004AF0346FB714FF0FF3302930123019345
:10455000FB1D0093012300227821034801F0BEFDDA
:1045600000BF0837BD4680BDDC0A002080B586B09C
:1045700004AF786039603B689BB24FF0FF32029223
:1045800001937B680093012340227821034801F0C6
:10459000A5FD00BF0837BD4680BD00BFDC0A002076
:1045A00080B500AFFFF7C3FF642000F06DFA002074
:1045B00000F0DAF92020FFF7C1FF0020FFF7BEFF6F
:1045C000B020FFF7BBFFC820FFF7B8FF0020FFF7C0
:1045D000B5FF1020FFF7B2FF4020FFF7AFFFFF202D
:1045E00000F0AEF9A120FFF7A9FFA620FFF7A6FF74
:1045F000A820FFF7A3FF3F20FFF7A0FFA420FFF7AD
:104600009DFFD320FFF79AFF0020FFF797FFD520EB
:10461000FFF794FFF020FFF791FFD920FFF78EFFFF
:104620002220FFF78BFFDA20FFF788FF1220FFF729
:1046300085FFDB20FFF782FF2020FFF77FFF8D2023
:10464000FFF77CFF1420FFF779FF012000F08CF9C1
:10465000002000F00FF800F031F8054B00221A801E
:10466000034B00225A80024B01221A7100BF80BD09
:10467000049B012080B485B000AF0346FB7100238A
:10468000FB600DE0FB79002B01D1002100E0FF2150
:10469000094AFB6813440A461A70FB680133FB6041
:1046A000FB68B3F5806FEDD300BF00BF1437BD4684
:1046B0005DF8047B704700BF0497012080B582B08D
:1046C00000AF0023FB7116E0FB79503BDBB21846CC
:1046D000FFF734FF0020FFF731FF1020FFF72EFF18
:1046E000FB79DB01084A134480211846FFF73EFF9F
:1046F000FB790133FB71FB79072BE5D900BF00BFC4
:104700000837BD4680BD00BF0497012080B483B048
:1047100000AF0346FB710B46BB7113467B7197F9E3
:104720000730002B3DDBBB793F2B3AD87B79012B3F
:104730001AD1FA79BB79DB08D8B20346DB011344FE
:104740001B4AD35C5AB2BB7903F00703012101FA7B
:1047500003F35BB2134359B2FA790346DB01134406
:10476000C9B2134AD1541DE0FA79BB79DB08D8B23B
:104770000346DB0113440E4AD35C5AB2BB7903F003
:104780000703012101FA03F35BB2DB435BB2134081
:1047900059B2FA790346DB011344C9B2044AD15431
:1047A00000E000BF0C37BD465DF8047B704700BFDA
:1047B0000497012090B589B000AF0446381D80E809
:1047C00006001A462346FB731346BB73FB7B1F2B65
:1047D00002D9FB7B7E2B01D900236DE0384B1B886F
:1047E0001A463B791344802B06DC354B5B881A460E
:1047F0007B791344402B01DD00235DE00023FB6146
:104800004CE0BA68FB7B203B797901FB03F3194646
:10481000FB690B445B0013441B887B610023BB6175
:1048200034E07A69BB6902FA03F303F40043002B16
:1048300012D0234B1B88DAB2BB69DBB21344D8B267
:104840001F4B5B88DAB2FB69DBB21344DBB2BA7B85
:104850001946FFF75BFF16E0194B1B88DAB2BB69FC
:10486000DBB21344D8B2164B5B88DAB2FB69DBB219
:104870001344D9B2BB7B002B0CBF01230023DBB256
:104880001A46FFF743FFBB690133BB613B791A4608
:10489000BB699342C5D3FB690133FB617B791A463F
:1048A000FB699342ADD3064B1A883B799BB2134404
:1048B0009AB2034B1A80FB7B18462437BD4690BD45
:1048C000049B012080B584B000AFF860381D80E8FB
:1048D0000600FB7012E0FB681878FB783A1D06CAE8
:1048E000FFF768FF03461A46FB681B789A4202D01E
:1048F000FB681B7808E0FB680133FB60FB681B78F2
:10490000002BE8D1FB681B7818461037BD4680BDE8
:1049100080B483B000AF03460A46FB711346BB71F7
:10492000FB799AB2054B1A80BB799AB2034B5A8035
:1049300000BF0C37BD465DF8047B7047049B012027
:1049400080B584B000AF0346FB718123FB73FB7B12
:104950001846FFF7F3FDFB791846FFF7EFFD00BFA0
:104960001037BD4680BD000080B584B000AF03465F
:10497000FB71FB79002B05D0AF23FB73084B0122A1
:104980005A7104E0AE23FB73054B00225A71FB7B86
:104990001846FFF7D3FD00BF1037BD4680BD00BFEE
:1049A000049B012080B500AF0E4B1B680D4A43F4F9
:1049B000007313600B4B1B680A4A43F48063136057
:1049C000084B1B68074A43F480731360032000F010
:1049D0000DFD0F2000F008F8FEF7BEFC002318467E
:1049E00080BD00BF003C024080B582B000AF78605F
:1049F000124B1A68124B1B7819464FF47A73B3FBAB
:104A0000F1F3B2FBF3F3184600F025FD0346002B4B
:104A100001D001230EE07B680F2B0AD800227968B1
:104A20004FF0FF3000F0EDFC064A7B681360002376
:104A300000E0012318460837BD4680BD6408002009
:104A4000880800208408002080B400AF064B1B7843
:104A50001A46064B1B681344044A136000BFBD4648
:104A60005DF8047B704700BF880800200C9B012084
:104A700080B400AF034B1B681846BD465DF8047B4D
:104A8000704700BF0C9B012080B584B000AF7860F8
:104A9000FFF7EEFFB8607B68FB60FB68B3F1FF3F98
:104AA00005D00A4B1B781A46FB681344FB6000BF15
:104AB000FFF7DEFF0246BB68D31AFA689A42F7D8BE
:104AC00000BF00BF1037BD4680BD00BF8808002072
:104AD00080B584B000AF78600023FB737B68002B47
:104AE00001D1012333E07B681B6C002B09D178686E
:104AF000FEF75AFC7B6800225A647B68002283F828
:104B00003C207B681B6C03F01003002B18D17B68E2
:104B10001B6C23F4885323F0020343F002027B68EA
:104B20001A64786800F096FA7B6800225A647B6801
:104B30001B6C23F0030343F001027B681A6401E05D
:104B40000123FB737B68002283F83C20FB7B184623
:104B50001037BD4680BD000080B485B000AF7860DE
:104B60000023BB607B6893F83C30012B01D102230A
:104B700097E07B68012283F83C207B681B689B6878
:104B800003F00103012B18D07B681B689A687B68CF
:104B90001B6842F001029A60454B1B68454AA2FB24
:104BA00003239A0C13465B001344BB6002E0BB680E
:104BB000013BBB60BB68002BF9D17B681B689B681D
:104BC00003F00103012B5FD17B681B6C23F4E063CE
:104BD00023F0010343F480727B681A647B681B68CE
:104BE0005B6803F48063002B07D07B681B6C23F4A5
:104BF000405343F480527B681A647B681B6C03F457
:104C00008053B3F5805F06D17B685B6C23F00602AE
:104C10007B685A6402E07B6800225A647B68002249
:104C200083F83C20244BFB607B681B686FF02202FA
:104C30001A60FB685B6803F01F03002B0FD17B68D1
:104C40001B689B6803F04053002B29D17B681B68CD
:104C50009A687B681B6842F080429A6020E07B681B
:104C60001B68164A93421BD17B681B689B6803F044
:104C70004053002B14D17B681B689A687B681B68C3
:104C800042F080429A600BE07B681B6C43F010029C
:104C90007B681A647B685B6C43F001027B685A6432
:104CA000002318461437BD465DF8047B704700BFEB
:104CB0006408002083DE1B430023014000200140E4
:104CC00080B584B000AF786039600023FB607B68FA
:104CD0001B689B6803F48063B3F5806F13D17B6816
:104CE0001B689B6803F48073B3F5807F0BD17B68EE
:104CF0001B6C43F020027B681A647B68002283F8F7
:104D00003C20012363E0FFF7B3FEF86021E03B683D
:104D1000B3F1FF3F1DD03B68002B07D0FFF7A8FE83
:104D20000246FB68D31A3A689A4212D27B681B6823
:104D30001B6803F00203022B0BD07B681B6C43F053
:104D400004027B681A647B68002283F83C200323FA
:104D50003DE07B681B681B6803F00203022BD6D181
:104D60007B681B686FF012021A607B681B6C43F44F
:104D700000727B681A647B681B689B6803F0405371
:104D8000002B23D17B681B7E002B1FD17B681B6807
:104D9000DB6A03F47003002B06D07B681B689B68FA
:104DA00003F48063002B11D17B681B6C23F48072A9
:104DB0007B681A647B681B6C03F48053002B05D15D
:104DC0007B681B6C43F001027B681A640023184661
:104DD0001037BD4680BD80B483B000AF78607B687B
:104DE0001B68DB6C18460C37BD465DF8047B7047CA
:104DF00080B485B000AF786039600023BB607B6809
:104E000093F83C30012B01D1022313E17B6801228E
:104E100083F83C203B681B68092B25D97B681B68FD
:104E2000D9683B681B689BB21A4613465B00134463
:104E30001E3B072202FA03F3DA437B681B680A4031
:104E4000DA607B681B68D9683B689A683B681B68B6
:104E50009BB2184603465B0003441E3B9A407B68A6
:104E60001B680A43DA6022E07B681B6819693B68AB
:104E70001B689BB21A4613465B001344072202FAD2
:104E800003F3DA437B681B680A401A617B681B687E
:104E900019693B689A683B681B689BB218460346D1
:104EA0005B0003449A407B681B680A431A613B68B5
:104EB0005B68062B24D87B681B68596B3B685A6873
:104EC00013469B001344053B1F2202FA03F3DA4307
:104ED0007B681B680A405A637B681B68596B3B6898
:104EE0001B689BB218463B685A6813469B001344E4
:104EF000053B00FA03F27B681B680A435A634CE0E7
:104F00003B685B680C2B24D87B681B68196B3B687B
:104F10005A6813469B001344233B1F2202FA03F3F3
:104F2000DA437B681B680A401A637B681B68196B4D
:104F30003B681B689BB218463B685A6813469B0047
:104F40001344233B00FA03F27B681B680A431A638D
:104F500023E07B681B68D96A3B685A6813469B004C
:104F60001344413B1F2202FA03F3DA437B681B68B8
:104F70000A40DA627B681B68D96A3B681B689BB28F
:104F800018463B685A6813469B001344413B00FA9D
:104F900003F27B681B680A43DA62294BFB607B687B
:104FA0001B68284A93420FD13B681B68122B0BD118
:104FB000FB685B6823F40002FB685A60FB685B686F
:104FC00043F48002FB685A607B681B681D4A934269
:104FD0002BD13B681B681C4A934203D03B681B687B
:104FE000112B22D1FB685B6823F48002FB685A60B6
:104FF000FB685B6843F40002FB685A603B681B680F
:10500000114A934211D1114B1B68114AA2FB032391
:105010009A0C13469B0013445B00BB6002E0BB6824
:10502000013BBB60BB68002BF9D17B68002283F891
:105030003C20002318461437BD465DF8047B7047BA
:1050400000230140002001401200001064080020ED
:1050500083DE1B4380B485B000AF7860794BFB6082
:10506000FB685B6823F44032FB685A60FB685A684F
:105070007B685B681A43FB685A607B681B685A68E8
:105080007B681B6822F480725A607B681B685968D1
:105090007B681B691A027B681B680A435A607B683D
:1050A0001B685A687B681B6822F040725A607B68F4
:1050B0001B6859687B689A687B681B680A435A605A
:1050C0007B681B689A687B681B6822F400629A60A0
:1050D0007B681B6899687B68DA687B681B680A4391
:1050E0009A607B689B6A584A934222D07B681B680F
:1050F0009A687B681B6822F070629A607B681B6804
:1051000099687B689A6A7B681B680A439A607B6827
:105110001B689A687B681B6822F040529A607B6823
:105120001B6899687B68DA6A7B681B680A439A6027
:105130000FE07B681B689A687B681B6822F07062CE
:105140009A607B681B689A687B681B6822F04052F3
:105150009A607B681B689A687B681B6822F0020271
:105160009A607B681B6899687B681B7E5A007B6825
:105170001B680A439A607B6893F82030002B1BD091
:105180007B681B685A687B681B6842F400625A603F
:105190007B681B685A687B681B6822F460425A600F
:1051A0007B681B6859687B685B6A013B5A037B68B4
:1051B0001B680A435A6007E07B681B685A687B6873
:1051C0001B6822F400625A607B681B68DA6A7B689D
:1051D0001B6822F47002DA627B681B68D96A7B68FC
:1051E000DB69013B1A057B681B680A43DA627B684E
:1051F0001B689A687B681B6822F400729A607B685F
:105200001B6899687B6893F830305A027B681B688A
:105210000A439A607B681B689A687B681B6822F463
:1052200080629A607B681B6899687B685B699A02F8
:105230007B681B680A439A6000BF1437BD465DF85F
:10524000047B7047002301400100000F80B485B04B
:1052500000AF78607B6803F00703FB600C4BDB68F2
:10526000BB60BA684FF6FF031340BB60FB681A02CD
:10527000BB68134343F0BF6343F40033BB60044A8D
:10528000BB68D36000BF1437BD465DF8047B704730
:1052900000ED00E080B400AF044BDB681B0A03F0B4
:1052A00007031846BD465DF8047B704700ED00E03B
:1052B00080B483B000AF0346FB7197F90730002B31
:1052C0000BDBFB7903F01F02074997F907305B09F5
:1052D000012000FA02F241F8232000BF0C37BD463E
:1052E0005DF8047B704700BF00E100E080B483B04C
:1052F00000AF03463960FB7197F90730002B0ADBDA
:105300003B68DAB20C4997F907301201D2B20B446C
:1053100083F800230AE03B68DAB20849FB7903F01E
:105320000F03043B1201D2B20B441A7600BF0C37B4
:10533000BD465DF8047B704700E100E000ED00E051
:1053400080B489B000AFF860B9607A60FB6803F0A0
:105350000703FB61FB69C3F10703042B28BF042388
:10536000BB61FB690433062B02D9FB69033B00E0F8
:1053700000237B614FF0FF32BB6902FA03F3DA438B
:10538000BB681A407B699A404FF0FF317B6901FA94
:1053900003F3D9437B680B40134318462437BD46BB
:1053A0005DF8047B7047000080B582B000AF786084
:1053B0007B68013BB3F1807F01D301230FE00A4AF0
:1053C0007B68013B53600F214FF0FF30FFF78EFFEA
:1053D000054B00229A60044B07221A6000231846EE
:1053E0000837BD4680BD00BF10E000E080B582B048
:1053F00000AF78607868FFF729FF00BF0837BD4627
:1054000080BD80B586B000AF0346B9607A60FB739B
:1054100000237B61FFF73EFF78617A68B96878699D
:10542000FFF78EFF024697F90F3011461846FFF737
:105430005DFF00BF1837BD4680BD80B582B000AFAC
:105440000346FB7197F907301846FFF731FF00BF9D
:105450000837BD4680BD80B582B000AF78607868FF
:10546000FFF7A2FF034618460837BD4680BD00007F
:1054700080B489B000AF7860396000237B6100237D
:105480003B610023BB610023FB6159E10122FB6901
:1054900002FA03F37B613B681B687A6913403B6146
:1054A0003A697B699A4240F048813B685B6803F047
:1054B0000303012B05D03B685B6803F00303022B59
:1054C00030D17B689B68BB61FB695B00032202FAF9
:1054D00003F3DB43BA691340BB613B68DA68FB69DD
:1054E0005B0002FA03F3BA691343BB617B68BA69D4
:1054F0009A607B685B68BB610122FB6902FA03F377
:10550000DB43BA691340BB613B685B681B0903F06E
:105510000102FB6902FA03F3BA691343BB617B68BA
:10552000BA695A603B685B6803F00303032B17D02A
:105530007B68DB68BB61FB695B00032202FA03F353
:10554000DB43BA691340BB613B689A68FB695B0047
:1055500002FA03F3BA691343BB617B68BA69DA6084
:105560003B685B6803F00303022B23D1FB69DA0875
:105570007B68083253F82230BB61FB6903F00703F4
:105580009B000F2202FA03F3DB43BA691340BB61AD
:105590003B681A69FB6903F007039B0002FA03F3F7
:1055A000BA691343BB61FB69DA087B680832B969E1
:1055B00043F822107B681B68BB61FB695B00032218
:1055C00002FA03F3DB43BA691340BB613B685B68D3
:1055D00003F00302FB695B0002FA03F3BA691343A9
:1055E000BB617B68BA691A603B685B6803F440334F
:1055F000002B00F0A2800023FB60574B5B6C564AE7
:1056000043F480435364544B5B6C03F48043FB606E
:10561000FB68524AFB699B08023352F82330BB6196
:10562000FB6903F003039B000F2202FA03F3DB4341
:10563000BA691340BB617B68494A934219D07B68C1
:10564000484A934213D07B68474A93420DD07B6807
:10565000464A934207D07B68454A934201D10423CE
:1056600008E0072306E0032304E0022302E001230D
:1056700000E00023FA6902F0030292009340BA6945
:105680001343BB613549FB699B080233BA6941F892
:105690002320384B9B68BB613B69DB43BA691340ED
:1056A000BB613B685B6803F48013002B03D0BA69CD
:1056B0003B691343BB612F4ABB6993602D4BDB6889
:1056C000BB613B69DB43BA691340BB613B685B6804
:1056D00003F40013002B03D0BA693B691343BB6189
:1056E000244ABB69D360234B5B68BB613B69DB43E6
:1056F000BA691340BB613B685B6803F40033002B5D
:1057000003D0BA693B691343BB611A4ABB69536052
:10571000184B1B68BB613B69DB43BA691340BB6133
:105720003B685B6803F48033002B03D0BA693B69A4
:105730001343BB610F4ABB691360FB690133FB6113
:10574000FB690F2B7FF6A2AE00BF00BF2437BD461A
:105750005DF8047B704700BF00380240003801400C
:10576000000002400004024000080240000C024019
:1057700000100240003C014080B485B000AF78606A
:105780000B467B807B681A697B881340002B02D014
:105790000123FB7301E00023FB73FB7B18461437E6
:1057A000BD465DF8047B704780B483B000AF78607D
:1057B0000B467B8013467B707B78002B03D07A8866
:1057C0007B689A6103E07B881A047B689A6100BF5A
:1057D0000C37BD465DF8047B7047000080B582B091
:1057E00000AF0346FB80084B5A69FB881340002B2F
:1057F00006D0054AFB885361FB881846FCF79AF8E7
:1058000000BF0837BD4680BD003C014080B584B074
:1058100000AF78607B68002B01D101232BE17B680E
:1058200093F83D30DBB2002B06D17B68002283F871
:105830003C207868FDF7FCFD7B68242283F83D203E
:105840007B681B681A687B681B6822F001021A607B
:105850007B681B681A687B681B6842F400421A6008
:105860007B681B681A687B681B6822F400421A6018
:1058700001F022FDF8607B685B68814A934207D89B
:10588000FB68804A934294BF01230023DBB206E009
:10589000FB687D4A934294BF01230023DBB2002BB7
:1058A00001D00123E7E0FB68784AA2FB03239B0CAD
:1058B000BB607B681B685B6823F03F017B681B68EB
:1058C000BA680A435A607B681B681B6A23F03F0171
:1058D0007B685B686A4A934202D8BB68013309E07F
:1058E000BB684FF4967202FB03F3694AA2FB0323E1
:1058F0009B0901337A6812680B4313627B681B684B
:10590000DB6923F44F4222F0FF027B685B685C494D
:105910008B4219D8FB68591E7B685B685B00B1FB42
:10592000F3F3591C40F6FC730B40002B0AD0FB68C4
:10593000591E7B685B685B00B1FBF3F30133C3F373
:105940000B0351E004234FE07B689B68002B11D1CF
:10595000FB68581E7B6859680B465B000B44B0FB24
:10596000F3F30133C3F30B03002B0CBF012300231C
:10597000DBB212E0FB68581E7B6859680B469B003F
:105980000B4499000B44B0FBF3F30133C3F30B0357
:10599000002B0CBF01230023DBB2002B01D001231D
:1059A00022E07B689B68002B0ED1FB68581E7B6849
:1059B00059680B465B000B44B0FBF3F30133C3F3B0
:1059C0000B0343F400430FE0FB68581E7B685968E3
:1059D0000B469B000B4499000B44B0FBF3F30133DF
:1059E000C3F30B0343F44043796809681343CB6165
:1059F0007B681B681B6823F0C0017B68DA697B68E1
:105A00001B6A1A437B681B680A431A607B681B6821
:105A10009B6823F4034323F0FF037A6811697A68D3
:105A2000D26811437A6812680B4393607B681B68E5
:105A3000DB6823F0FF017B685A697B689B691A4326
:105A40007B681B680A43DA607B681B681A687B689E
:105A50001B6842F001021A607B6800221A647B68AE
:105A6000202283F83D207B6800221A637B68002295
:105A700083F83E20002318461037BD4680BD00BF86
:105A8000A08601007F841E00FF083D0083DE1B43CB
:105A9000D34D621080B588B002AFF8607A601A46C4
:105AA0000B467B8113463B81FEF7E2FF7861FB6882
:105AB00093F83D30DBB2202B40F0E0807B6900930F
:105AC000192301227049F86800F0E8FD0346002B15
:105AD00001D00223D3E0FB6893F83C30012B01D1C5
